{
  "address": "0xD1B3974CAc3B16C6C2EcB781F0ffc4B9f2Ed6AFD",
  "abi": [
    {
      "inputs": [
        {
          "internalType": "address",
          "name": "_treasuryAddress",
          "type": "address"
        },
        {
          "internalType": "uint256",
          "name": "_rootChainId",
          "type": "uint256"
        },
        {
          "internalType": "address",
          "name": "_usdcAddress",
          "type": "address"
        },
        {
          "internalType": "address",
          "name": "_protoCCTPGateway",
          "type": "address"
        }
      ],
      "stateMutability": "nonpayable",
      "type": "constructor"
    },
    {
      "anonymous": false,
      "inputs": [
        {
          "indexed": true,
          "internalType": "address",
          "name": "sender",
          "type": "address"
        },
        {
          "indexed": false,
          "internalType": "uint256",
          "name": "amount",
          "type": "uint256"
        },
        {
          "indexed": false,
          "internalType": "string",
          "name": "message",
          "type": "string"
        },
        {
          "indexed": false,
          "internalType": "bool",
          "name": "isUSDC",
          "type": "bool"
        }
      ],
      "name": "DonationReceived",
      "type": "event"
    },
    {
      "anonymous": false,
      "inputs": [
        {
          "indexed": true,
          "internalType": "address",
          "name": "oldAddress",
          "type": "address"
        },
        {
          "indexed": true,
          "internalType": "address",
          "name": "newAddress",
          "type": "address"
        }
      ],
      "name": "TreasuryAddressUpdated",
      "type": "event"
    },
    {
      "anonymous": false,
      "inputs": [
        {
          "indexed": true,
          "internalType": "address",
          "name": "oldAddress",
          "type": "address"
        },
        {
          "indexed": true,
          "internalType": "address",
          "name": "newAddress",
          "type": "address"
        }
      ],
      "name": "USDCTokenUpdated",
      "type": "event"
    },
    {
      "inputs": [
        {
          "internalType": "string",
          "name": "_message",
          "type": "string"
        }
      ],
      "name": "donate",
      "outputs": [],
      "stateMutability": "payable",
      "type": "function"
    },
    {
      "inputs": [
        {
          "internalType": "uint256",
          "name": "_amount",
          "type": "uint256"
        },
        {
          "internalType": "string",
          "name": "_message",
          "type": "string"
        }
      ],
      "name": "donateUSDC",
      "outputs": [],
      "stateMutability": "nonpayable",
      "type": "function"
    },
    {
      "inputs": [
        {
          "internalType": "uint256",
          "name": "_count",
          "type": "uint256"
        }
      ],
      "name": "getMessages",
      "outputs": [
        {
          "components": [
            {
              "internalType": "address",
              "name": "sender",
              "type": "address"
            },
            {
              "internalType": "uint256",
              "name": "timestamp",
              "type": "uint256"
            },
            {
              "internalType": "string",
              "name": "message",
              "type": "string"
            },
            {
              "internalType": "uint256",
              "name": "amount",
              "type": "uint256"
            },
            {
              "internalType": "bool",
              "name": "isUSDC",
              "type": "bool"
            }
          ],
          "internalType": "struct Donations.Message[]",
          "name": "",
          "type": "tuple[]"
        }
      ],
      "stateMutability": "view",
      "type": "function"
    },
    {
      "inputs": [
        {
          "internalType": "uint256",
          "name": "",
          "type": "uint256"
        }
      ],
      "name": "messages",
      "outputs": [
        {
          "internalType": "address",
          "name": "sender",
          "type": "address"
        },
        {
          "internalType": "uint256",
          "name": "timestamp",
          "type": "uint256"
        },
        {
          "internalType": "string",
          "name": "message",
          "type": "string"
        },
        {
          "internalType": "uint256",
          "name": "amount",
          "type": "uint256"
        },
        {
          "internalType": "bool",
          "name": "isUSDC",
          "type": "bool"
        }
      ],
      "stateMutability": "view",
      "type": "function"
    },
    {
      "inputs": [],
      "name": "owner",
      "outputs": [
        {
          "internalType": "address",
          "name": "",
          "type": "address"
        }
      ],
      "stateMutability": "view",
      "type": "function"
    },
    {
      "inputs": [],
      "name": "protoCCTPGateway",
      "outputs": [
        {
          "internalType": "contract IProtoCCTPGateway",
          "name": "",
          "type": "address"
        }
      ],
      "stateMutability": "view",
      "type": "function"
    },
    {
      "inputs": [],
      "name": "rootChainId",
      "outputs": [
        {
          "internalType": "uint256",
          "name": "",
          "type": "uint256"
        }
      ],
      "stateMutability": "view",
      "type": "function"
    },
    {
      "inputs": [],
      "name": "totalDonations",
      "outputs": [
        {
          "internalType": "uint256",
          "name": "",
          "type": "uint256"
        }
      ],
      "stateMutability": "view",
      "type": "function"
    },
    {
      "inputs": [],
      "name": "treasuryAddress",
      "outputs": [
        {
          "internalType": "address",
          "name": "",
          "type": "address"
        }
      ],
      "stateMutability": "view",
      "type": "function"
    },
    {
      "inputs": [
        {
          "internalType": "address",
          "name": "_newTreasuryAddress",
          "type": "address"
        }
      ],
      "name": "updateTreasuryAddress",
      "outputs": [],
      "stateMutability": "nonpayable",
      "type": "function"
    },
    {
      "inputs": [
        {
          "internalType": "address",
          "name": "_newUSDCAddress",
          "type": "address"
        }
      ],
      "name": "updateUSDCAddress",
      "outputs": [],
      "stateMutability": "nonpayable",
      "type": "function"
    },
    {
      "inputs": [],
      "name": "usdcToken",
      "outputs": [
        {
          "internalType": "contract IERC20",
          "name": "",
          "type": "address"
        }
      ],
      "stateMutability": "view",
      "type": "function"
    }
  ],
  "transactionHash": "0x051e85a9284dfca0929546ab3fcc60aa6611b922020c17294aa0479e41c347bc",
  "args": [
    "0xDFeE3b001cD13E06D5c7A28597763E46AcFE32D9",
    84532,
    "0x0000000000000000000000000000000000000000",
    "0x0000000000000000000000000000000000000000"
  ],
  "numDeployments": 6,
  "solcInputHash": "8ba45460d20b455c1c1315133893241d",
  "bytecode": "0x6080346100b557601f61108538819003918201601f19168301916001600160401b038311848410176100ba578084926080946040528339810103126100b557610047816100d0565b90602081015190610066606061005f604084016100d0565b92016100d0565b9160018060a01b039283918260018060a01b03199616866002541617600255338660045416176004556003551683600654161760065516906005541617600555604051610fa090816100e58239f35b600080fd5b634e487b7160e01b600052604160045260246000fd5b51906001600160a01b03821682036100b55756fe6040608081526004908136101561001557600080fd5b600091823560e01c9081630d80fefd146108e957816311eac855146108c05781632f6a1e14146108a15781634bd24321146108785781634dd20b811461054f5781637d81c4c1146104d1578163841e4561146104535781638da5cb5b1461042b578163ae36853d1461022d578163b5aebc80146100f057508063c5f956af146100c85763de2ed893146100a757600080fd5b346100c457816003193601126100c4576020906001549051908152f35b5080fd5b50346100c457816003193601126100c45760025490516001600160a01b039091168152602090f35b9050602036600319011261022957803567ffffffffffffffff81116102255761011c9036908301610b4a565b90610128341515610c11565b8380808060018060a01b0361014281600254161515610c6f565b61014e34600154610cbb565b60015561017e885161015f816109f4565b338152426020820152888a820152346060820152836080820152610cde565b3490600254165af13d15610220573d61019681610b2e565b906101a386519283610a26565b81528560203d92013e5b156101eb5750600080516020610f4b83398151915290836101de845192348452606060208501526060840190610aee565b938201528033930390a280f35b606490602084519162461bcd60e51b8352820152600f60248201526e151c985b9cd9995c8819985a5b1959608a1b6044820152fd5b6101ad565b8380fd5b8280fd5b839150346100c45760209182600319360112610428578135815492838211610420575b61025982610f08565b9361026687519586610a26565b828552601f1961027584610f08565b0186855b8281106103ee57505050835b838110610323575050505083519280840190808552835180925285850181878460051b880101950193965b8388106102bd5786860387f35b90919293948380600192603f198a8203018652885190848060a01b03825116815282820151838201526102fc8683015160a08089850152830190610aee565b916060808201519083015260808091015115159101529701930197019690939291936102b0565b8082038281116103d95760001981019081116103c6576103429061096c565b5060ff848a5192610352846109f4565b80546001600160a01b0316845260018101548b85015261037460028201610a48565b8c85015260038101546060850152015416151560808201526103968288610f20565b526103a18187610f20565b5060001981146103b357600101610285565b634e487b7160e01b855260118352602485fd5b634e487b7160e01b865260118452602486fd5b601184634e487b7160e01b6000525260246000fd5b89516103f9816109f4565b8781528783820152876060808d84015282015287608082015282828a010152018790610279565b839150610250565b80fd5b9050346102295782600319360112610229575490516001600160a01b03909116815260209150f35b8390346100c45760203660031901126100c4576001600160a01b0381358181169290839003610225578161048a9154163314610b96565b610495821515610bd3565b816002549182167f430359a6d97ced2b6f93c77a91e7ce9dfd43252eb91e916adba170485cd8a6a48580a36001600160a01b0319161760025580f35b8390346100c45760203660031901126100c4576001600160a01b038135818116929083900361022557816105089154163314610b96565b610513821515610bd3565b816005549182167f9c4a3fabb33cb3d3fe4fde0ee645166e23d7fe00c47fa67cda8b698a68af3ccc8580a36001600160a01b0319161760055580f35b905034610229578160031936011261022957803567ffffffffffffffff602435818111610874576105839036908501610b4a565b9261058f831515610c11565b6002546001600160a01b0392906105a99084161515610c6f565b826005541680156108315760035446036106c157505060055460025486516323b872dd60e01b8152339381019384529084166001600160a01b031660208085019190915260408401869052909390928492919091169082908990829060600103925af180156106b757600080516020610f4b833981519152936106396101de926001948991610689575b50610ec5565b610644848454610cbb565b83556106738651610654816109f4565b3381524260208201528288820152856060820152846080820152610cde565b8551938452606060208501526060840190610aee565b6106aa915060203d81116106b0575b6106a28183610a26565b810190610ead565b38610633565b503d610698565b84513d87823e3d90fd5b86516323b872dd60e01b815233848201908152306020828101919091526040820188905296979692839183919082908d90829060600103925af1801561081057610711918a9161081a5750610ec5565b87818560055416604487600654168b51948593849263095ea7b360e01b84528a8401528c60248401525af18015610810576107f2575b505086836006541693600354906002541690853b1561022957606490838a5197889485936381b34f1560e01b85528985015260248401528a60448401525af180156107e8576107af575b5050509060016101de600080516020610f4b83398151915293610639565b82969396116107d5575083529260016101de600080516020610f4b833981519152610791565b634e487b7160e01b835260419052602482fd5b86513d89823e3d90fd5b8161080892903d106106b0576106a28183610a26565b503880610747565b88513d8b823e3d90fd5b6106aa9150833d85116106b0576106a28183610a26565b865162461bcd60e51b8152602081850152601a60248201527f5553444320746f6b656e2061646472657373206e6f74207365740000000000006044820152606490fd5b8580fd5b5050346100c457816003193601126100c45760065490516001600160a01b039091168152602090f35b5050346100c457816003193601126100c4576020906003549051908152f35b5050346100c457816003193601126100c45760055490516001600160a01b039091168152602090f35b82843461042857602036600319011261042857823590805482101561042857506109129061096c565b5060018060a01b038154169161095b60018301549460a060ff61093760028701610a48565b926003870154960154169380519788978852602088015286015260a0850190610aee565b916060840152151560808301520390f35b9060009182548110156109a657600590838052027f290decd9548b62a8d60345a988386fc84ba6bc95484008f6362f93160ef3e563019190565b634e487b7160e01b83526032600452602483fd5b90600182811c921680156109ea575b60208310146109d457565b634e487b7160e01b600052602260045260246000fd5b91607f16916109c9565b60a0810190811067ffffffffffffffff821117610a1057604052565b634e487b7160e01b600052604160045260246000fd5b90601f8019910116810190811067ffffffffffffffff821117610a1057604052565b9060405191826000825492610a5c846109ba565b908184526001948581169081600014610acb5750600114610a88575b5050610a8692500383610a26565b565b9093915060005260209081600020936000915b818310610ab3575050610a8693508201013880610a78565b85548884018501529485019487945091830191610a9b565b915050610a8694506020925060ff191682840152151560051b8201013880610a78565b919082519283825260005b848110610b1a575050826000602080949584010152601f8019910116010190565b602081830181015184830182015201610af9565b67ffffffffffffffff8111610a1057601f01601f191660200190565b81601f82011215610b9157803590610b6182610b2e565b92610b6f6040519485610a26565b82845260208383010111610b9157816000926020809301838601378301015290565b600080fd5b15610b9d57565b60405162461bcd60e51b815260206004820152600e60248201526d139bdd08185d5d1a1bdc9a5e995960921b6044820152606490fd5b15610bda57565b60405162461bcd60e51b815260206004820152600f60248201526e496e76616c6964206164647265737360881b6044820152606490fd5b15610c1857565b60405162461bcd60e51b815260206004820152602960248201527f446f6e6174696f6e20616d6f756e74206d7573742062652067726561746572206044820152687468616e207a65726f60b81b6064820152608490fd5b15610c7657565b60405162461bcd60e51b815260206004820152601860248201527f54726561737572792061646472657373206e6f742073657400000000000000006044820152606490fd5b91908201809211610cc857565b634e487b7160e01b600052601160045260246000fd5b6000805468010000000000000000811015610e9957610d03600191828101845561096c565b919091610e8557835182546001600160a01b0319166001600160a01b0391909116178255602080850151828401556040850151805160028501939092909167ffffffffffffffff8411610e7157610d5a85546109ba565b601f8111610e2b575b5081601f8511600114610dbf57509280928192600497969560809994610db4575b50501b916000199060031b1c19161790555b6060840151600382015501910151151560ff80198354169116179055565b015192503880610d84565b858852808820969795969395601f198616915b828210610e145750509160809795939185600498969410610dfb575b505050811b019055610d96565b015160001960f88460031b161c19169055388080610dee565b808886978294978701518155019601940190610dd2565b858852828820601f860160051c810191848710610e67575b601f0160051c019084905b828110610e5c575050610d63565b898155018490610e4e565b9091508190610e43565b634e487b7160e01b87526041600452602487fd5b634e487b7160e01b83526004839052602483fd5b634e487b7160e01b82526041600452602482fd5b90816020910312610b9157518015158103610b915790565b15610ecc57565b60405162461bcd60e51b81526020600482015260146024820152731554d110c81d1c985b9cd9995c8819985a5b195960621b6044820152606490fd5b67ffffffffffffffff8111610a105760051b60200190565b8051821015610f345760209160051b010190565b634e487b7160e01b600052603260045260246000fdfea2eb580cb32c78b3d1ba8f57f08de1e94f2293598fb0cbb5dda356551306764aa264697066735822122012a74dfa8f6a827379e07c6f17c64d7407ef0d209d381b40369b0908d1eac8ba64736f6c63430008110033",
  "devdoc": {
    "kind": "dev",
    "methods": {},
    "version": 1
  },
  "userdoc": {
    "kind": "user",
    "methods": {},
    "version": 1
  },
  "storageLayout": {
    "storage": [
      {
        "astId": 111,
        "contract": "contracts/Donations.sol:Donations",
        "label": "messages",
        "offset": 0,
        "slot": "0",
        "type": "t_array(t_struct(Message)107_storage)dyn_storage"
      },
      {
        "astId": 113,
        "contract": "contracts/Donations.sol:Donations",
        "label": "totalDonations",
        "offset": 0,
        "slot": "1",
        "type": "t_uint256"
      },
      {
        "astId": 115,
        "contract": "contracts/Donations.sol:Donations",
        "label": "treasuryAddress",
        "offset": 0,
        "slot": "2",
        "type": "t_address"
      },
      {
        "astId": 117,
        "contract": "contracts/Donations.sol:Donations",
        "label": "rootChainId",
        "offset": 0,
        "slot": "3",
        "type": "t_uint256"
      },
      {
        "astId": 119,
        "contract": "contracts/Donations.sol:Donations",
        "label": "owner",
        "offset": 0,
        "slot": "4",
        "type": "t_address"
      },
      {
        "astId": 122,
        "contract": "contracts/Donations.sol:Donations",
        "label": "usdcToken",
        "offset": 0,
        "slot": "5",
        "type": "t_contract(IERC20)77"
      },
      {
        "astId": 125,
        "contract": "contracts/Donations.sol:Donations",
        "label": "protoCCTPGateway",
        "offset": 0,
        "slot": "6",
        "type": "t_contract(IProtoCCTPGateway)96"
      }
    ],
    "types": {
      "t_address": {
        "encoding": "inplace",
        "label": "address",
        "numberOfBytes": "20"
      },
      "t_array(t_struct(Message)107_storage)dyn_storage": {
        "base": "t_struct(Message)107_storage",
        "encoding": "dynamic_array",
        "label": "struct Donations.Message[]",
        "numberOfBytes": "32"
      },
      "t_bool": {
        "encoding": "inplace",
        "label": "bool",
        "numberOfBytes": "1"
      },
      "t_contract(IERC20)77": {
        "encoding": "inplace",
        "label": "contract IERC20",
        "numberOfBytes": "20"
      },
      "t_contract(IProtoCCTPGateway)96": {
        "encoding": "inplace",
        "label": "contract IProtoCCTPGateway",
        "numberOfBytes": "20"
      },
      "t_string_storage": {
        "encoding": "bytes",
        "label": "string",
        "numberOfBytes": "32"
      },
      "t_struct(Message)107_storage": {
        "encoding": "inplace",
        "label": "struct Donations.Message",
        "members": [
          {
            "astId": 98,
            "contract": "contracts/Donations.sol:Donations",
            "label": "sender",
            "offset": 0,
            "slot": "0",
            "type": "t_address"
          },
          {
            "astId": 100,
            "contract": "contracts/Donations.sol:Donations",
            "label": "timestamp",
            "offset": 0,
            "slot": "1",
            "type": "t_uint256"
          },
          {
            "astId": 102,
            "contract": "contracts/Donations.sol:Donations",
            "label": "message",
            "offset": 0,
            "slot": "2",
            "type": "t_string_storage"
          },
          {
            "astId": 104,
            "contract": "contracts/Donations.sol:Donations",
            "label": "amount",
            "offset": 0,
            "slot": "3",
            "type": "t_uint256"
          },
          {
            "astId": 106,
            "contract": "contracts/Donations.sol:Donations",
            "label": "isUSDC",
            "offset": 0,
            "slot": "4",
            "type": "t_bool"
          }
        ],
        "numberOfBytes": "160"
      },
      "t_uint256": {
        "encoding": "inplace",
        "label": "uint256",
        "numberOfBytes": "32"
      }
    }
  }
}