{
  "address": "0x604b5b91c4dDb1Fe6812c0814A08b2351253f1B6",
  "abi": [
    {
      "inputs": [
        {
          "internalType": "address",
          "name": "_treasuryAddress",
          "type": "address"
        },
        {
          "internalType": "uint256",
          "name": "_rootChainId",
          "type": "uint256"
        },
        {
          "internalType": "address",
          "name": "_usdcAddress",
          "type": "address"
        },
        {
          "internalType": "address",
          "name": "_protoCCTPGateway",
          "type": "address"
        }
      ],
      "stateMutability": "nonpayable",
      "type": "constructor"
    },
    {
      "anonymous": false,
      "inputs": [
        {
          "indexed": true,
          "internalType": "address",
          "name": "sender",
          "type": "address"
        },
        {
          "indexed": false,
          "internalType": "uint256",
          "name": "amount",
          "type": "uint256"
        },
        {
          "indexed": false,
          "internalType": "string",
          "name": "message",
          "type": "string"
        },
        {
          "indexed": false,
          "internalType": "bool",
          "name": "isUSDC",
          "type": "bool"
        }
      ],
      "name": "DonationReceived",
      "type": "event"
    },
    {
      "anonymous": false,
      "inputs": [
        {
          "indexed": true,
          "internalType": "address",
          "name": "oldAddress",
          "type": "address"
        },
        {
          "indexed": true,
          "internalType": "address",
          "name": "newAddress",
          "type": "address"
        }
      ],
      "name": "TreasuryAddressUpdated",
      "type": "event"
    },
    {
      "anonymous": false,
      "inputs": [
        {
          "indexed": true,
          "internalType": "address",
          "name": "oldAddress",
          "type": "address"
        },
        {
          "indexed": true,
          "internalType": "address",
          "name": "newAddress",
          "type": "address"
        }
      ],
      "name": "USDCTokenUpdated",
      "type": "event"
    },
    {
      "inputs": [
        {
          "internalType": "string",
          "name": "_message",
          "type": "string"
        }
      ],
      "name": "donate",
      "outputs": [],
      "stateMutability": "payable",
      "type": "function"
    },
    {
      "inputs": [
        {
          "internalType": "uint256",
          "name": "_amount",
          "type": "uint256"
        },
        {
          "internalType": "string",
          "name": "_message",
          "type": "string"
        }
      ],
      "name": "donateUSDC",
      "outputs": [],
      "stateMutability": "nonpayable",
      "type": "function"
    },
    {
      "inputs": [
        {
          "internalType": "uint256",
          "name": "_count",
          "type": "uint256"
        }
      ],
      "name": "getMessages",
      "outputs": [
        {
          "components": [
            {
              "internalType": "address",
              "name": "sender",
              "type": "address"
            },
            {
              "internalType": "uint256",
              "name": "timestamp",
              "type": "uint256"
            },
            {
              "internalType": "string",
              "name": "message",
              "type": "string"
            },
            {
              "internalType": "uint256",
              "name": "amount",
              "type": "uint256"
            },
            {
              "internalType": "bool",
              "name": "isUSDC",
              "type": "bool"
            }
          ],
          "internalType": "struct Donations.Message[]",
          "name": "",
          "type": "tuple[]"
        }
      ],
      "stateMutability": "view",
      "type": "function"
    },
    {
      "inputs": [
        {
          "internalType": "uint256",
          "name": "",
          "type": "uint256"
        }
      ],
      "name": "messages",
      "outputs": [
        {
          "internalType": "address",
          "name": "sender",
          "type": "address"
        },
        {
          "internalType": "uint256",
          "name": "timestamp",
          "type": "uint256"
        },
        {
          "internalType": "string",
          "name": "message",
          "type": "string"
        },
        {
          "internalType": "uint256",
          "name": "amount",
          "type": "uint256"
        },
        {
          "internalType": "bool",
          "name": "isUSDC",
          "type": "bool"
        }
      ],
      "stateMutability": "view",
      "type": "function"
    },
    {
      "inputs": [],
      "name": "owner",
      "outputs": [
        {
          "internalType": "address",
          "name": "",
          "type": "address"
        }
      ],
      "stateMutability": "view",
      "type": "function"
    },
    {
      "inputs": [],
      "name": "protoCCTPGateway",
      "outputs": [
        {
          "internalType": "contract IProtoCCTPGateway",
          "name": "",
          "type": "address"
        }
      ],
      "stateMutability": "view",
      "type": "function"
    },
    {
      "inputs": [],
      "name": "rootChainId",
      "outputs": [
        {
          "internalType": "uint256",
          "name": "",
          "type": "uint256"
        }
      ],
      "stateMutability": "view",
      "type": "function"
    },
    {
      "inputs": [],
      "name": "totalDonations",
      "outputs": [
        {
          "internalType": "uint256",
          "name": "",
          "type": "uint256"
        }
      ],
      "stateMutability": "view",
      "type": "function"
    },
    {
      "inputs": [],
      "name": "treasuryAddress",
      "outputs": [
        {
          "internalType": "address",
          "name": "",
          "type": "address"
        }
      ],
      "stateMutability": "view",
      "type": "function"
    },
    {
      "inputs": [
        {
          "internalType": "address",
          "name": "_newTreasuryAddress",
          "type": "address"
        }
      ],
      "name": "updateTreasuryAddress",
      "outputs": [],
      "stateMutability": "nonpayable",
      "type": "function"
    },
    {
      "inputs": [
        {
          "internalType": "address",
          "name": "_newUSDCAddress",
          "type": "address"
        }
      ],
      "name": "updateUSDCAddress",
      "outputs": [],
      "stateMutability": "nonpayable",
      "type": "function"
    },
    {
      "inputs": [],
      "name": "usdcToken",
      "outputs": [
        {
          "internalType": "contract IERC20",
          "name": "",
          "type": "address"
        }
      ],
      "stateMutability": "view",
      "type": "function"
    }
  ],
  "transactionHash": "0xcbba2fdd5fb646c16bca20605235ca8915e5277212936b78111c6ed5cefeeae8",
  "args": [
    "0xDFeE3b001cD13E06D5c7A28597763E46AcFE32D9",
    84532,
    "0x5fd84259d66Cd46123540766Be93DFE6D43130D7",
    "0x7C066750B5Eb23F5f3A6Ba2AaDFa3d5a75cc85a4"
  ],
  "numDeployments": 3,
  "solcInputHash": "6e9708eb5c4ac400686ab45001319248",
  "bytecode": "0x6080346100b557601f61118838819003918201601f19168301916001600160401b038311848410176100ba578084926080946040528339810103126100b557610047816100d0565b90602081015190610066606061005f604084016100d0565b92016100d0565b9160018060a01b039283918260018060a01b031996168660025416176002553386600454161760045560035516836006541617600655169060055416176005556040516110a390816100e58239f35b600080fd5b634e487b7160e01b600052604160045260246000fd5b51906001600160a01b03821682036100b55756fe6080604052600436101561001257600080fd5b6000803560e01c80630d80fefd14610c4957806311eac85514610c205780632f6a1e1414610c025780634bd2432114610bd95780634dd20b811461072c5780637d81c4c1146106ae578063841e4561146106305780638da5cb5b14610607578063ae36853d146103f5578063b5aebc80146100ea578063c5f956af146100c15763de2ed893146100a157600080fd5b346100be57806003193601126100be576020600154604051908152f35b80fd5b50346100be57806003193601126100be576002546040516001600160a01b039091168152602090f35b5060203660031901126100be5767ffffffffffffffff6004358181116103f157610118903690600401610e95565b90610124341515610f5c565b60025461013b906001600160a01b03161515610fba565b61014734600154611006565b6001556040519061015782610d55565b338252602082019042825260408301908482526060840191348352866080860152600054600160401b8110156103c5578060016101979201600055610ccd565b9490946103db57855185546001600160a01b0319166001600160a01b03919091161785555160018501555180519182116103c5576101d86002850154610d1b565b601f811161037a575b50602090601f831160011461030457918060049492608096946000926102f9575b50508160011b916000199060031b1c19161760028301555b51600382015501910151151560ff80198354169116179055818080803460018060a01b03600254165af13d156102f4573d61025481610e79565b906102626040519283610d71565b81528360203d92013e5b156102bd577fa2eb580cb32c78b3d1ba8f57f08de1e94f2293598fb0cbb5dda356551306764a6102ad60405192348452606060208501526060840190610e39565b918360408201528033930390a280f35b60405162461bcd60e51b815260206004820152600f60248201526e151c985b9cd9995c8819985a5b1959608a1b6044820152606490fd5b61026c565b015190503880610202565b906002850160005260206000209160005b601f1985168110610362575092600494926001926080979583601f19811610610349575b505050811b01600283015561021a565b015160001960f88460031b161c19169055388080610339565b91926020600181928685015181550194019201610315565b600285016000526020600020601f840160051c810191602085106103bb575b601f0160051c01905b8181106103af57506101e1565b600081556001016103a2565b9091508190610399565b634e487b7160e01b600052604160045260246000fd5b634e487b7160e01b600052600060045260246000fd5b8280fd5b50346100be576020806003193601126106035781546004358181116105fc575b6104218194939461102b565b9161042f6040519384610d71565b818352601f1961043e8361102b565b01845b8181106105c3575050835b8281106104ec5750505060405191838301848452825180915260408401948060408360051b870101940192955b8287106104865785850386f35b909192938280600192603f19898203018552875190848060a01b03825116815282820151838201526104c6604083015160a0806040850152830190610e39565b916060808201519083015260808091015115159101529601920196019592919092610479565b8082969596038281116105ad5760001981019081116105995761050e90610ccd565b5060ff60046040519261052084610d55565b80546001600160a01b0316845260018101548985015261054260028201610d93565b604085015260038101546060850152015416151560808201526105658286611043565b526105708185611043565b5060001981146105855760010194939461044c565b634e487b7160e01b86526011600452602486fd5b634e487b7160e01b87526011600452602487fd5b634e487b7160e01b600052601160045260246000fd5b958095966040516105d381610d55565b888152888382015288606080604084015282015288608082015282828801015201959495610441565b5080610415565b5080fd5b50346100be57806003193601126100be576004546040516001600160a01b039091168152602090f35b50346100be5760203660031901126100be576004356001600160a01b03818116918290036103f15761066781600454163314610ee1565b610672821515610f1e565b816002549182167f430359a6d97ced2b6f93c77a91e7ce9dfd43252eb91e916adba170485cd8a6a48580a36001600160a01b0319161760025580f35b50346100be5760203660031901126100be576004356001600160a01b03818116918290036103f1576106e581600454163314610ee1565b6106f0821515610f1e565b816005549182167f9c4a3fabb33cb3d3fe4fde0ee645166e23d7fe00c47fa67cda8b698a68af3ccc8580a36001600160a01b0319161760055580f35b50346100be5760403660031901126100be5760249067ffffffffffffffff6004358335828111610bd557610764903690600401610e95565b93610770821515610f5c565b6002546001600160a01b03906107899082161515610fba565b80600554168015610b915785906003544614600014610ac65750602082600554166064846002541660405194859384926323b872dd60e01b8452336004850152898401528960448401525af1908115610abb578691610a8d575b5015610a52575b6001936107f8848654611006565b85556040519061080782610d55565b3382526020938483019142835260408401918a8352606085019388855260808601968a8852600054600160401b811015610a3d57808c61084a9201600055610ccd565b979097610a285751166bffffffffffffffffffffffff60a01b8754161786555189860155600285019251908151928311610a1457506108898354610d1b565b601f81116109cb575b508690601f83116001146109345793899a9b969383806004957fa2eb580cb32c78b3d1ba8f57f08de1e94f2293598fb0cbb5dda356551306764a9d60609a9661091a9d9a600094610929575b50501b916000199060031b1c19161790555b516003820155019051151560ff801983541691161790556040519485528401526060830190610e39565b9260408201528033930390a280f35b0151925038806108de565b90601f9b979b19831691846000528c6000209260005b8181106109b657509a8460609894829e9f989461091a9c9b98947fa2eb580cb32c78b3d1ba8f57f08de1e94f2293598fb0cbb5dda356551306764a9f986004991061099d575b505050811b0190556108f0565b015160001960f88460031b161c19169055388080610990565b828401518555938c0193928e01928e0161094a565b8360005287600020601f840160051c810191898510610a0a575b601f0160051c01908a905b8281106109fe575050610892565b60008155018a906109f0565b90915081906109e5565b634e487b7160e01b60009081526041600452fd5b83634e487b7160e01b60005260006004526000fd5b83634e487b7160e01b60005260416004526000fd5b60405162461bcd60e51b815260206004820152601481840152731554d110c81d1c985b9cd9995c8819985a5b195960621b6044820152606490fd5b610aae915060203d8111610ab4575b610aa68183610d71565b810190611013565b386107e3565b503d610a9c565b6040513d88823e3d90fd5b60209060448460065416604051948593849263095ea7b360e01b8452600484015289898401525af18015610abb57610b73575b508060065416600354826002541690823b15610b6f5790606488928360405195869485936381b34f1560e01b85526004850152898401528960448401525af18015610abb57610b49575b506107ea565b848196929611610b5d576040529338610b43565b50634e487b7160e01b81526041600452fd5b8780fd5b610b8a9060203d8111610ab457610aa68183610d71565b5038610af9565b60405162461bcd60e51b815260206004820152601a818501527f5553444320746f6b656e2061646472657373206e6f74207365740000000000006044820152606490fd5b8380fd5b50346100be57806003193601126100be576006546040516001600160a01b039091168152602090f35b50346100be57806003193601126100be576020600354604051908152f35b50346100be57806003193601126100be576005546040516001600160a01b039091168152602090f35b50346100be5760203660031901126100be57600435815481101561060357610c7090610ccd565b5060018060a01b03815416600182015491610c8d60028201610d93565b610cbc60ff6004600385015494015416916040519586958652602086015260a0604086015260a0850190610e39565b916060840152151560808301520390f35b906000918254811015610d0757600590838052027f290decd9548b62a8d60345a988386fc84ba6bc95484008f6362f93160ef3e563019190565b634e487b7160e01b83526032600452602483fd5b90600182811c92168015610d4b575b6020831014610d3557565b634e487b7160e01b600052602260045260246000fd5b91607f1691610d2a565b60a0810190811067ffffffffffffffff8211176103c557604052565b90601f8019910116810190811067ffffffffffffffff8211176103c557604052565b9060405191826000825492610da784610d1b565b908184526001948581169081600014610e165750600114610dd3575b5050610dd192500383610d71565b565b9093915060005260209081600020936000915b818310610dfe575050610dd193508201013880610dc3565b85548884018501529485019487945091830191610de6565b915050610dd194506020925060ff191682840152151560051b8201013880610dc3565b919082519283825260005b848110610e65575050826000602080949584010152601f8019910116010190565b602081830181015184830182015201610e44565b67ffffffffffffffff81116103c557601f01601f191660200190565b81601f82011215610edc57803590610eac82610e79565b92610eba6040519485610d71565b82845260208383010111610edc57816000926020809301838601378301015290565b600080fd5b15610ee857565b60405162461bcd60e51b815260206004820152600e60248201526d139bdd08185d5d1a1bdc9a5e995960921b6044820152606490fd5b15610f2557565b60405162461bcd60e51b815260206004820152600f60248201526e496e76616c6964206164647265737360881b6044820152606490fd5b15610f6357565b60405162461bcd60e51b815260206004820152602960248201527f446f6e6174696f6e20616d6f756e74206d7573742062652067726561746572206044820152687468616e207a65726f60b81b6064820152608490fd5b15610fc157565b60405162461bcd60e51b815260206004820152601860248201527f54726561737572792061646472657373206e6f742073657400000000000000006044820152606490fd5b919082018092116105ad57565b90816020910312610edc57518015158103610edc5790565b67ffffffffffffffff81116103c55760051b60200190565b80518210156110575760209160051b010190565b634e487b7160e01b600052603260045260246000fdfea26469706673582212201d3531d05a9f09e6e47176ace8334e258c3a07bda2c2ba54b9e8d42a4b13b19b64736f6c63430008110033",
  "devdoc": {
    "kind": "dev",
    "methods": {},
    "version": 1
  },
  "userdoc": {
    "kind": "user",
    "methods": {},
    "version": 1
  },
  "storageLayout": {
    "storage": [
      {
        "astId": 111,
        "contract": "contracts/Donations.sol:Donations",
        "label": "messages",
        "offset": 0,
        "slot": "0",
        "type": "t_array(t_struct(Message)107_storage)dyn_storage"
      },
      {
        "astId": 113,
        "contract": "contracts/Donations.sol:Donations",
        "label": "totalDonations",
        "offset": 0,
        "slot": "1",
        "type": "t_uint256"
      },
      {
        "astId": 115,
        "contract": "contracts/Donations.sol:Donations",
        "label": "treasuryAddress",
        "offset": 0,
        "slot": "2",
        "type": "t_address"
      },
      {
        "astId": 117,
        "contract": "contracts/Donations.sol:Donations",
        "label": "rootChainId",
        "offset": 0,
        "slot": "3",
        "type": "t_uint256"
      },
      {
        "astId": 119,
        "contract": "contracts/Donations.sol:Donations",
        "label": "owner",
        "offset": 0,
        "slot": "4",
        "type": "t_address"
      },
      {
        "astId": 122,
        "contract": "contracts/Donations.sol:Donations",
        "label": "usdcToken",
        "offset": 0,
        "slot": "5",
        "type": "t_contract(IERC20)77"
      },
      {
        "astId": 125,
        "contract": "contracts/Donations.sol:Donations",
        "label": "protoCCTPGateway",
        "offset": 0,
        "slot": "6",
        "type": "t_contract(IProtoCCTPGateway)96"
      }
    ],
    "types": {
      "t_address": {
        "encoding": "inplace",
        "label": "address",
        "numberOfBytes": "20"
      },
      "t_array(t_struct(Message)107_storage)dyn_storage": {
        "base": "t_struct(Message)107_storage",
        "encoding": "dynamic_array",
        "label": "struct Donations.Message[]",
        "numberOfBytes": "32"
      },
      "t_bool": {
        "encoding": "inplace",
        "label": "bool",
        "numberOfBytes": "1"
      },
      "t_contract(IERC20)77": {
        "encoding": "inplace",
        "label": "contract IERC20",
        "numberOfBytes": "20"
      },
      "t_contract(IProtoCCTPGateway)96": {
        "encoding": "inplace",
        "label": "contract IProtoCCTPGateway",
        "numberOfBytes": "20"
      },
      "t_string_storage": {
        "encoding": "bytes",
        "label": "string",
        "numberOfBytes": "32"
      },
      "t_struct(Message)107_storage": {
        "encoding": "inplace",
        "label": "struct Donations.Message",
        "members": [
          {
            "astId": 98,
            "contract": "contracts/Donations.sol:Donations",
            "label": "sender",
            "offset": 0,
            "slot": "0",
            "type": "t_address"
          },
          {
            "astId": 100,
            "contract": "contracts/Donations.sol:Donations",
            "label": "timestamp",
            "offset": 0,
            "slot": "1",
            "type": "t_uint256"
          },
          {
            "astId": 102,
            "contract": "contracts/Donations.sol:Donations",
            "label": "message",
            "offset": 0,
            "slot": "2",
            "type": "t_string_storage"
          },
          {
            "astId": 104,
            "contract": "contracts/Donations.sol:Donations",
            "label": "amount",
            "offset": 0,
            "slot": "3",
            "type": "t_uint256"
          },
          {
            "astId": 106,
            "contract": "contracts/Donations.sol:Donations",
            "label": "isUSDC",
            "offset": 0,
            "slot": "4",
            "type": "t_bool"
          }
        ],
        "numberOfBytes": "160"
      },
      "t_uint256": {
        "encoding": "inplace",
        "label": "uint256",
        "numberOfBytes": "32"
      }
    }
  }
}