{
  "address": "0x710fd7c11d3A0F8F0D7dF9Fa21062bba85073635",
  "abi": [
    {
      "inputs": [
        {
          "internalType": "address",
          "name": "_treasuryAddress",
          "type": "address"
        },
        {
          "internalType": "address",
          "name": "_usdcAddress",
          "type": "address"
        }
      ],
      "stateMutability": "nonpayable",
      "type": "constructor"
    },
    {
      "anonymous": false,
      "inputs": [
        {
          "indexed": true,
          "internalType": "address",
          "name": "sender",
          "type": "address"
        },
        {
          "indexed": false,
          "internalType": "uint256",
          "name": "amount",
          "type": "uint256"
        },
        {
          "indexed": false,
          "internalType": "string",
          "name": "message",
          "type": "string"
        },
        {
          "indexed": false,
          "internalType": "bool",
          "name": "isUSDC",
          "type": "bool"
        }
      ],
      "name": "DonationReceived",
      "type": "event"
    },
    {
      "anonymous": false,
      "inputs": [
        {
          "indexed": true,
          "internalType": "address",
          "name": "oldAddress",
          "type": "address"
        },
        {
          "indexed": true,
          "internalType": "address",
          "name": "newAddress",
          "type": "address"
        }
      ],
      "name": "TreasuryAddressUpdated",
      "type": "event"
    },
    {
      "anonymous": false,
      "inputs": [
        {
          "indexed": true,
          "internalType": "address",
          "name": "oldAddress",
          "type": "address"
        },
        {
          "indexed": true,
          "internalType": "address",
          "name": "newAddress",
          "type": "address"
        }
      ],
      "name": "USDCTokenUpdated",
      "type": "event"
    },
    {
      "inputs": [
        {
          "internalType": "string",
          "name": "_message",
          "type": "string"
        }
      ],
      "name": "donate",
      "outputs": [],
      "stateMutability": "payable",
      "type": "function"
    },
    {
      "inputs": [
        {
          "internalType": "uint256",
          "name": "_amount",
          "type": "uint256"
        },
        {
          "internalType": "string",
          "name": "_message",
          "type": "string"
        }
      ],
      "name": "donateUSDC",
      "outputs": [],
      "stateMutability": "nonpayable",
      "type": "function"
    },
    {
      "inputs": [
        {
          "internalType": "uint256",
          "name": "_count",
          "type": "uint256"
        }
      ],
      "name": "getMessages",
      "outputs": [
        {
          "components": [
            {
              "internalType": "address",
              "name": "sender",
              "type": "address"
            },
            {
              "internalType": "uint256",
              "name": "timestamp",
              "type": "uint256"
            },
            {
              "internalType": "string",
              "name": "message",
              "type": "string"
            },
            {
              "internalType": "uint256",
              "name": "amount",
              "type": "uint256"
            },
            {
              "internalType": "bool",
              "name": "isUSDC",
              "type": "bool"
            }
          ],
          "internalType": "struct Donations.Message[]",
          "name": "",
          "type": "tuple[]"
        }
      ],
      "stateMutability": "view",
      "type": "function"
    },
    {
      "inputs": [
        {
          "internalType": "uint256",
          "name": "",
          "type": "uint256"
        }
      ],
      "name": "messages",
      "outputs": [
        {
          "internalType": "address",
          "name": "sender",
          "type": "address"
        },
        {
          "internalType": "uint256",
          "name": "timestamp",
          "type": "uint256"
        },
        {
          "internalType": "string",
          "name": "message",
          "type": "string"
        },
        {
          "internalType": "uint256",
          "name": "amount",
          "type": "uint256"
        },
        {
          "internalType": "bool",
          "name": "isUSDC",
          "type": "bool"
        }
      ],
      "stateMutability": "view",
      "type": "function"
    },
    {
      "inputs": [],
      "name": "owner",
      "outputs": [
        {
          "internalType": "address",
          "name": "",
          "type": "address"
        }
      ],
      "stateMutability": "view",
      "type": "function"
    },
    {
      "inputs": [],
      "name": "totalDonations",
      "outputs": [
        {
          "internalType": "uint256",
          "name": "",
          "type": "uint256"
        }
      ],
      "stateMutability": "view",
      "type": "function"
    },
    {
      "inputs": [],
      "name": "treasuryAddress",
      "outputs": [
        {
          "internalType": "address",
          "name": "",
          "type": "address"
        }
      ],
      "stateMutability": "view",
      "type": "function"
    },
    {
      "inputs": [
        {
          "internalType": "address",
          "name": "_newTreasuryAddress",
          "type": "address"
        }
      ],
      "name": "updateTreasuryAddress",
      "outputs": [],
      "stateMutability": "nonpayable",
      "type": "function"
    },
    {
      "inputs": [
        {
          "internalType": "address",
          "name": "_newUSDCAddress",
          "type": "address"
        }
      ],
      "name": "updateUSDCAddress",
      "outputs": [],
      "stateMutability": "nonpayable",
      "type": "function"
    },
    {
      "inputs": [],
      "name": "usdcToken",
      "outputs": [
        {
          "internalType": "contract IERC20",
          "name": "",
          "type": "address"
        }
      ],
      "stateMutability": "view",
      "type": "function"
    }
  ],
  "transactionHash": "0x068ef22749ac4fd5f041923a483094120839501cde2d547865dcd54443543439",
  "args": [
    "0xDFeE3b001cD13E06D5c7A28597763E46AcFE32D9",
    "0x5425890298aed601595a70ab815c96711a31bc65"
  ],
  "numDeployments": 1,
  "solcInputHash": "c6165d2a7274459aee085b25466256cf",
  "bytecode": "0x60803461009857601f610e3c38819003918201601f19168301916001600160401b0383118484101761009d57808492604094855283398101031261009857610052602061004b836100b3565b92016100b3565b600280546001600160a01b03199081166001600160a01b0394851617909155600380548216331790556004805490911691909216179055604051610d7490816100c88239f35b600080fd5b634e487b7160e01b600052604160045260246000fd5b51906001600160a01b03821682036100985756fe6040608081526004908136101561001557600080fd5b600091823560e01c9081630d80fefd1461073857816311eac855146107105781634dd20b81146105345781637d81c4c1146104b8578163841e45611461043b5781638da5cb5b14610412578163ae36853d14610229578163b5aebc80146100da57508063c5f956af146100b25763de2ed8931461009157600080fd5b346100ae57816003193601126100ae576020906001549051908152f35b5080fd5b50346100ae57816003193601126100ae5760025490516001600160a01b039091168152602090f35b9050602036600319011261022557803567ffffffffffffffff8111610221576101069036908301610999565b90610112341515610a60565b8380808060018060a01b0361012c81600254161515610abe565b61013834600154610b0a565b600155610168885161014981610843565b338152426020820152888a820152346060820152836080820152610b2d565b3490600254165af13d1561021c573d6101808161097d565b9061018d86519283610875565b81528560203d92013e5b156101e757507fa2eb580cb32c78b3d1ba8f57f08de1e94f2293598fb0cbb5dda356551306764a90836101da84519234845260606020850152606084019061093d565b938201528033930390a280f35b606490602084519162461bcd60e51b8352820152600f60248201526e151c985b9cd9995c8819985a5b1959608a1b6044820152fd5b610197565b8380fd5b8280fd5b839150346100ae576020918260031936011261040f578135815492838211610407575b61025582610cfc565b9361026287519586610875565b828552601f1961027184610cfc565b0186855b8281106103d557505050835b83811061031f575050505083519280840190808552835180925285850181878460051b880101950193965b8388106102b95786860387f35b90919293948380600192603f198a8203018652885190848060a01b03825116815282820151838201526102f88683015160a0808985015283019061093d565b916060808201519083015260808091015115159101529701930197019690939291936102ac565b8082038281116103c25760001981019081116103c25761033e906107bb565b5060ff848a519261034e84610843565b80546001600160a01b0316845260018101548b85015261037060028201610897565b8c85015260038101546060850152015416151560808201526103928288610d14565b5261039d8187610d14565b5060001981146103af57600101610281565b634e487b7160e01b855260118352602485fd5b634e487b7160e01b865260118452602486fd5b89516103e081610843565b8781528783820152876060808d84015282015287608082015282828a010152018790610275565b83915061024c565b80fd5b5050346100ae57816003193601126100ae5760035490516001600160a01b039091168152602090f35b8390346100ae5760203660031901126100ae57356001600160a01b038181169182900361022557610471816003541633146109e5565b61047c821515610a22565b816002549182167f430359a6d97ced2b6f93c77a91e7ce9dfd43252eb91e916adba170485cd8a6a48580a36001600160a01b0319161760025580f35b8390346100ae5760203660031901126100ae5780356001600160a01b0381811691829003610221576104ef816003541633146109e5565b6104fa821515610a22565b8183549182167f9c4a3fabb33cb3d3fe4fde0ee645166e23d7fe00c47fa67cda8b698a68af3ccc8680a36001600160a01b03191617905580f35b90503461022557816003193601126102255780359060243567ffffffffffffffff811161070c576105689036908301610999565b90610574831515610a60565b6002546001600160a01b039081169061058e821515610abe565b82541680156106c957908692918651916323b872dd60e01b8352338484015260248301528560448301528160648160209687945af19081156106bf578791610685575b501561064d57506101da8392606060019361060e7fa2eb580cb32c78b3d1ba8f57f08de1e94f2293598fb0cbb5dda356551306764a978654610b0a565b855561063b885161061e81610843565b3381524283820152848a8201528784820152866080820152610b2d565b8751958652850152606084019061093d565b60649185519162461bcd60e51b835282015260146024820152731554d110c81d1c985b9cd9995c8819985a5b195960621b6044820152fd5b90508281813d83116106b8575b61069c8183610875565b810103126106b4575180151581036106b457386105d1565b8680fd5b503d610692565b86513d89823e3d90fd5b855162461bcd60e51b8152602081850152601a60248201527f5553444320746f6b656e2061646472657373206e6f74207365740000000000006044820152606490fd5b8480fd5b9050346102255782600319360112610225575490516001600160a01b03909116815260209150f35b82843461040f57602036600319011261040f57823590805482101561040f5750610761906107bb565b5060018060a01b03815416916107aa60018301549460a060ff61078660028701610897565b926003870154960154169380519788978852602088015286015260a085019061093d565b916060840152151560808301520390f35b9060009182548110156107f557600590838052027f290decd9548b62a8d60345a988386fc84ba6bc95484008f6362f93160ef3e563019190565b634e487b7160e01b83526032600452602483fd5b90600182811c92168015610839575b602083101461082357565b634e487b7160e01b600052602260045260246000fd5b91607f1691610818565b60a0810190811067ffffffffffffffff82111761085f57604052565b634e487b7160e01b600052604160045260246000fd5b90601f8019910116810190811067ffffffffffffffff82111761085f57604052565b90604051918260008254926108ab84610809565b90818452600194858116908160001461091a57506001146108d7575b50506108d592500383610875565b565b9093915060005260209081600020936000915b8183106109025750506108d5935082010138806108c7565b855488840185015294850194879450918301916108ea565b9150506108d594506020925060ff191682840152151560051b82010138806108c7565b919082519283825260005b848110610969575050826000602080949584010152601f8019910116010190565b602081830181015184830182015201610948565b67ffffffffffffffff811161085f57601f01601f191660200190565b81601f820112156109e0578035906109b08261097d565b926109be6040519485610875565b828452602083830101116109e057816000926020809301838601378301015290565b600080fd5b156109ec57565b60405162461bcd60e51b815260206004820152600e60248201526d139bdd08185d5d1a1bdc9a5e995960921b6044820152606490fd5b15610a2957565b60405162461bcd60e51b815260206004820152600f60248201526e496e76616c6964206164647265737360881b6044820152606490fd5b15610a6757565b60405162461bcd60e51b815260206004820152602960248201527f446f6e6174696f6e20616d6f756e74206d7573742062652067726561746572206044820152687468616e207a65726f60b81b6064820152608490fd5b15610ac557565b60405162461bcd60e51b815260206004820152601860248201527f54726561737572792061646472657373206e6f742073657400000000000000006044820152606490fd5b91908201809211610b1757565b634e487b7160e01b600052601160045260246000fd5b6000805468010000000000000000811015610ce857610b5260019182810184556107bb565b919091610cd457835182546001600160a01b0319166001600160a01b0391909116178255602080850151828401556040850151805160028501939092909167ffffffffffffffff8411610cc057610ba98554610809565b601f8111610c7a575b5081601f8511600114610c0e57509280928192600497969560809994610c03575b50501b916000199060031b1c19161790555b6060840151600382015501910151151560ff80198354169116179055565b015192503880610bd3565b858852808820969795969395601f198616915b828210610c635750509160809795939185600498969410610c4a575b505050811b019055610be5565b015160001960f88460031b161c19169055388080610c3d565b808886978294978701518155019601940190610c21565b858852828820601f860160051c810191848710610cb6575b601f0160051c019084905b828110610cab575050610bb2565b898155018490610c9d565b9091508190610c92565b634e487b7160e01b87526041600452602487fd5b634e487b7160e01b83526004839052602483fd5b634e487b7160e01b82526041600452602482fd5b67ffffffffffffffff811161085f5760051b60200190565b8051821015610d285760209160051b010190565b634e487b7160e01b600052603260045260246000fdfea2646970667358221220462f68cd084d43ab435d5823c6144d31c28f8cdea9097e430379b6295e92273664736f6c63430008110033",
  "devdoc": {
    "kind": "dev",
    "methods": {},
    "version": 1
  },
  "userdoc": {
    "kind": "user",
    "methods": {},
    "version": 1
  },
  "storageLayout": {
    "storage": [
      {
        "astId": 95,
        "contract": "contracts/Donations.sol:Donations",
        "label": "messages",
        "offset": 0,
        "slot": "0",
        "type": "t_array(t_struct(Message)91_storage)dyn_storage"
      },
      {
        "astId": 97,
        "contract": "contracts/Donations.sol:Donations",
        "label": "totalDonations",
        "offset": 0,
        "slot": "1",
        "type": "t_uint256"
      },
      {
        "astId": 99,
        "contract": "contracts/Donations.sol:Donations",
        "label": "treasuryAddress",
        "offset": 0,
        "slot": "2",
        "type": "t_address"
      },
      {
        "astId": 101,
        "contract": "contracts/Donations.sol:Donations",
        "label": "owner",
        "offset": 0,
        "slot": "3",
        "type": "t_address"
      },
      {
        "astId": 104,
        "contract": "contracts/Donations.sol:Donations",
        "label": "usdcToken",
        "offset": 0,
        "slot": "4",
        "type": "t_contract(IERC20)77"
      }
    ],
    "types": {
      "t_address": {
        "encoding": "inplace",
        "label": "address",
        "numberOfBytes": "20"
      },
      "t_array(t_struct(Message)91_storage)dyn_storage": {
        "base": "t_struct(Message)91_storage",
        "encoding": "dynamic_array",
        "label": "struct Donations.Message[]",
        "numberOfBytes": "32"
      },
      "t_bool": {
        "encoding": "inplace",
        "label": "bool",
        "numberOfBytes": "1"
      },
      "t_contract(IERC20)77": {
        "encoding": "inplace",
        "label": "contract IERC20",
        "numberOfBytes": "20"
      },
      "t_string_storage": {
        "encoding": "bytes",
        "label": "string",
        "numberOfBytes": "32"
      },
      "t_struct(Message)91_storage": {
        "encoding": "inplace",
        "label": "struct Donations.Message",
        "members": [
          {
            "astId": 82,
            "contract": "contracts/Donations.sol:Donations",
            "label": "sender",
            "offset": 0,
            "slot": "0",
            "type": "t_address"
          },
          {
            "astId": 84,
            "contract": "contracts/Donations.sol:Donations",
            "label": "timestamp",
            "offset": 0,
            "slot": "1",
            "type": "t_uint256"
          },
          {
            "astId": 86,
            "contract": "contracts/Donations.sol:Donations",
            "label": "message",
            "offset": 0,
            "slot": "2",
            "type": "t_string_storage"
          },
          {
            "astId": 88,
            "contract": "contracts/Donations.sol:Donations",
            "label": "amount",
            "offset": 0,
            "slot": "3",
            "type": "t_uint256"
          },
          {
            "astId": 90,
            "contract": "contracts/Donations.sol:Donations",
            "label": "isUSDC",
            "offset": 0,
            "slot": "4",
            "type": "t_bool"
          }
        ],
        "numberOfBytes": "160"
      },
      "t_uint256": {
        "encoding": "inplace",
        "label": "uint256",
        "numberOfBytes": "32"
      }
    }
  }
}