{
  "address": "0xB7C2ECF662Db1A615F43750aa15b299F8C52B9da",
  "abi": [
    {
      "inputs": [],
      "stateMutability": "nonpayable",
      "type": "constructor"
    },
    {
      "anonymous": false,
      "inputs": [
        {
          "indexed": true,
          "internalType": "address",
          "name": "owner",
          "type": "address"
        },
        {
          "indexed": true,
          "internalType": "address",
          "name": "approved",
          "type": "address"
        },
        {
          "indexed": true,
          "internalType": "uint256",
          "name": "tokenId",
          "type": "uint256"
        }
      ],
      "name": "Approval",
      "type": "event"
    },
    {
      "anonymous": false,
      "inputs": [
        {
          "indexed": true,
          "internalType": "address",
          "name": "owner",
          "type": "address"
        },
        {
          "indexed": true,
          "internalType": "address",
          "name": "operator",
          "type": "address"
        },
        {
          "indexed": false,
          "internalType": "bool",
          "name": "approved",
          "type": "bool"
        }
      ],
      "name": "ApprovalForAll",
      "type": "event"
    },
    {
      "anonymous": false,
      "inputs": [
        {
          "indexed": false,
          "internalType": "address",
          "name": "previousOwner",
          "type": "address"
        },
        {
          "indexed": false,
          "internalType": "address",
          "name": "newOwner",
          "type": "address"
        }
      ],
      "name": "MessageOwnershipTransferred",
      "type": "event"
    },
    {
      "anonymous": false,
      "inputs": [
        {
          "indexed": false,
          "internalType": "uint256",
          "name": "_nftId",
          "type": "uint256"
        }
      ],
      "name": "MetadataUpdate",
      "type": "event"
    },
    {
      "anonymous": false,
      "inputs": [
        {
          "indexed": true,
          "internalType": "address",
          "name": "previousOwner",
          "type": "address"
        },
        {
          "indexed": true,
          "internalType": "address",
          "name": "newOwner",
          "type": "address"
        }
      ],
      "name": "OwnershipTransferred",
      "type": "event"
    },
    {
      "anonymous": false,
      "inputs": [
        {
          "indexed": false,
          "internalType": "address",
          "name": "owner",
          "type": "address"
        },
        {
          "indexed": false,
          "internalType": "address",
          "name": "token",
          "type": "address"
        },
        {
          "indexed": false,
          "internalType": "uint256",
          "name": "amount",
          "type": "uint256"
        }
      ],
      "name": "RecoverToken",
      "type": "event"
    },
    {
      "anonymous": false,
      "inputs": [
        {
          "indexed": false,
          "internalType": "uint256",
          "name": "txId",
          "type": "uint256"
        },
        {
          "indexed": false,
          "internalType": "uint256",
          "name": "destinationChainId",
          "type": "uint256"
        },
        {
          "indexed": false,
          "internalType": "uint32",
          "name": "featureId",
          "type": "uint32"
        },
        {
          "indexed": false,
          "internalType": "bytes",
          "name": "featureData",
          "type": "bytes"
        }
      ],
      "name": "SendMessageWithFeature",
      "type": "event"
    },
    {
      "anonymous": false,
      "inputs": [
        {
          "indexed": false,
          "internalType": "address",
          "name": "owner",
          "type": "address"
        },
        {
          "indexed": false,
          "internalType": "address",
          "name": "exsig",
          "type": "address"
        }
      ],
      "name": "SetExsig",
      "type": "event"
    },
    {
      "anonymous": false,
      "inputs": [
        {
          "indexed": false,
          "internalType": "address",
          "name": "owner",
          "type": "address"
        },
        {
          "indexed": false,
          "internalType": "uint256",
          "name": "maxfee",
          "type": "uint256"
        }
      ],
      "name": "SetMaxfee",
      "type": "event"
    },
    {
      "anonymous": false,
      "inputs": [
        {
          "indexed": false,
          "internalType": "address",
          "name": "owner",
          "type": "address"
        },
        {
          "indexed": false,
          "internalType": "uint256",
          "name": "maxGas",
          "type": "uint256"
        }
      ],
      "name": "SetMaxgas",
      "type": "event"
    },
    {
      "anonymous": false,
      "inputs": [
        {
          "indexed": true,
          "internalType": "address",
          "name": "from",
          "type": "address"
        },
        {
          "indexed": true,
          "internalType": "address",
          "name": "to",
          "type": "address"
        },
        {
          "indexed": true,
          "internalType": "uint256",
          "name": "tokenId",
          "type": "uint256"
        }
      ],
      "name": "Transfer",
      "type": "event"
    },
    {
      "stateMutability": "payable",
      "type": "fallback"
    },
    {
      "inputs": [
        {
          "internalType": "uint256",
          "name": "",
          "type": "uint256"
        }
      ],
      "name": "CHAINS",
      "outputs": [
        {
          "internalType": "address",
          "name": "endpoint",
          "type": "address"
        },
        {
          "internalType": "bytes",
          "name": "endpointExtended",
          "type": "bytes"
        },
        {
          "internalType": "uint16",
          "name": "confirmations",
          "type": "uint16"
        },
        {
          "internalType": "bool",
          "name": "extended",
          "type": "bool"
        }
      ],
      "stateMutability": "view",
      "type": "function"
    },
    {
      "inputs": [
        {
          "internalType": "uint256",
          "name": "",
          "type": "uint256"
        },
        {
          "internalType": "uint32",
          "name": "",
          "type": "uint32"
        }
      ],
      "name": "FEATURES",
      "outputs": [
        {
          "internalType": "address",
          "name": "endpoint",
          "type": "address"
        },
        {
          "internalType": "bytes",
          "name": "endpointExtended",
          "type": "bytes"
        },
        {
          "internalType": "uint16",
          "name": "confirmations",
          "type": "uint16"
        },
        {
          "internalType": "bool",
          "name": "extended",
          "type": "bool"
        }
      ],
      "stateMutability": "view",
      "type": "function"
    },
    {
      "inputs": [],
      "name": "FEATURE_GATEWAY",
      "outputs": [
        {
          "internalType": "contract IFeatureGateway",
          "name": "",
          "type": "address"
        }
      ],
      "stateMutability": "view",
      "type": "function"
    },
    {
      "inputs": [],
      "name": "FEE_TOKEN",
      "outputs": [
        {
          "internalType": "contract IERC20cl",
          "name": "",
          "type": "address"
        }
      ],
      "stateMutability": "view",
      "type": "function"
    },
    {
      "inputs": [],
      "name": "MESSAGE_OWNER",
      "outputs": [
        {
          "internalType": "address",
          "name": "",
          "type": "address"
        }
      ],
      "stateMutability": "view",
      "type": "function"
    },
    {
      "inputs": [],
      "name": "MESSAGEv3",
      "outputs": [
        {
          "internalType": "contract IMessageV3",
          "name": "",
          "type": "address"
        }
      ],
      "stateMutability": "view",
      "type": "function"
    },
    {
      "inputs": [
        {
          "internalType": "uint256",
          "name": "_shelterId",
          "type": "uint256"
        },
        {
          "internalType": "string",
          "name": "_name",
          "type": "string"
        },
        {
          "internalType": "string",
          "name": "_personality",
          "type": "string"
        }
      ],
      "name": "addPet",
      "outputs": [],
      "stateMutability": "nonpayable",
      "type": "function"
    },
    {
      "inputs": [
        {
          "internalType": "string",
          "name": "_name",
          "type": "string"
        },
        {
          "internalType": "string",
          "name": "_location",
          "type": "string"
        },
        {
          "internalType": "string",
          "name": "_website",
          "type": "string"
        },
        {
          "internalType": "string",
          "name": "_email",
          "type": "string"
        }
      ],
      "name": "addShelter",
      "outputs": [],
      "stateMutability": "nonpayable",
      "type": "function"
    },
    {
      "inputs": [
        {
          "internalType": "uint256",
          "name": "_shelterId",
          "type": "uint256"
        },
        {
          "internalType": "address",
          "name": "_manager",
          "type": "address"
        }
      ],
      "name": "addShelterManager",
      "outputs": [],
      "stateMutability": "nonpayable",
      "type": "function"
    },
    {
      "inputs": [
        {
          "internalType": "uint256",
          "name": "_nftId",
          "type": "uint256"
        }
      ],
      "name": "adoptPet",
      "outputs": [],
      "stateMutability": "nonpayable",
      "type": "function"
    },
    {
      "inputs": [
        {
          "internalType": "uint256",
          "name": "",
          "type": "uint256"
        }
      ],
      "name": "allShelters",
      "outputs": [
        {
          "internalType": "uint256",
          "name": "",
          "type": "uint256"
        }
      ],
      "stateMutability": "view",
      "type": "function"
    },
    {
      "inputs": [
        {
          "internalType": "address",
          "name": "to",
          "type": "address"
        },
        {
          "internalType": "uint256",
          "name": "tokenId",
          "type": "uint256"
        }
      ],
      "name": "approve",
      "outputs": [],
      "stateMutability": "nonpayable",
      "type": "function"
    },
    {
      "inputs": [
        {
          "internalType": "uint256",
          "name": "",
          "type": "uint256"
        }
      ],
      "name": "availablePets",
      "outputs": [
        {
          "internalType": "uint256",
          "name": "",
          "type": "uint256"
        }
      ],
      "stateMutability": "view",
      "type": "function"
    },
    {
      "inputs": [
        {
          "internalType": "address",
          "name": "owner",
          "type": "address"
        }
      ],
      "name": "balanceOf",
      "outputs": [
        {
          "internalType": "uint256",
          "name": "",
          "type": "uint256"
        }
      ],
      "stateMutability": "view",
      "type": "function"
    },
    {
      "inputs": [
        {
          "internalType": "uint256",
          "name": "_destChainId",
          "type": "uint256"
        },
        {
          "internalType": "address",
          "name": "_recipient",
          "type": "address"
        },
        {
          "internalType": "uint256",
          "name": "_nftId",
          "type": "uint256"
        }
      ],
      "name": "bridge",
      "outputs": [],
      "stateMutability": "nonpayable",
      "type": "function"
    },
    {
      "inputs": [
        {
          "internalType": "address",
          "name": "_messageV3",
          "type": "address"
        },
        {
          "internalType": "uint256[]",
          "name": "_chains",
          "type": "uint256[]"
        },
        {
          "internalType": "address[]",
          "name": "_endpoints",
          "type": "address[]"
        },
        {
          "internalType": "uint16[]",
          "name": "_confirmations",
          "type": "uint16[]"
        }
      ],
      "name": "configureClient",
      "outputs": [],
      "stateMutability": "nonpayable",
      "type": "function"
    },
    {
      "inputs": [
        {
          "internalType": "address",
          "name": "_messageV3",
          "type": "address"
        },
        {
          "internalType": "uint256[]",
          "name": "_chains",
          "type": "uint256[]"
        },
        {
          "internalType": "bytes[]",
          "name": "_endpoints",
          "type": "bytes[]"
        },
        {
          "internalType": "uint16[]",
          "name": "_confirmations",
          "type": "uint16[]"
        }
      ],
      "name": "configureClientExtended",
      "outputs": [],
      "stateMutability": "nonpayable",
      "type": "function"
    },
    {
      "inputs": [
        {
          "internalType": "address",
          "name": "_featureGateway",
          "type": "address"
        }
      ],
      "name": "configureFeatureGateway",
      "outputs": [],
      "stateMutability": "nonpayable",
      "type": "function"
    },
    {
      "inputs": [
        {
          "internalType": "uint256",
          "name": "_nftId",
          "type": "uint256"
        }
      ],
      "name": "feed",
      "outputs": [],
      "stateMutability": "nonpayable",
      "type": "function"
    },
    {
      "inputs": [],
      "name": "getAllShelters",
      "outputs": [
        {
          "internalType": "uint256[]",
          "name": "",
          "type": "uint256[]"
        }
      ],
      "stateMutability": "view",
      "type": "function"
    },
    {
      "inputs": [
        {
          "internalType": "uint256",
          "name": "tokenId",
          "type": "uint256"
        }
      ],
      "name": "getApproved",
      "outputs": [
        {
          "internalType": "address",
          "name": "",
          "type": "address"
        }
      ],
      "stateMutability": "view",
      "type": "function"
    },
    {
      "inputs": [],
      "name": "getAvailablePets",
      "outputs": [
        {
          "internalType": "uint256[]",
          "name": "",
          "type": "uint256[]"
        }
      ],
      "stateMutability": "view",
      "type": "function"
    },
    {
      "inputs": [
        {
          "internalType": "uint256",
          "name": "_nftId",
          "type": "uint256"
        }
      ],
      "name": "getLastMessage",
      "outputs": [
        {
          "internalType": "string",
          "name": "",
          "type": "string"
        }
      ],
      "stateMutability": "view",
      "type": "function"
    },
    {
      "inputs": [
        {
          "internalType": "uint256",
          "name": "_nftId",
          "type": "uint256"
        }
      ],
      "name": "getPet",
      "outputs": [
        {
          "components": [
            {
              "internalType": "uint256",
              "name": "lastWalk",
              "type": "uint256"
            },
            {
              "internalType": "uint256",
              "name": "lastFeed",
              "type": "uint256"
            },
            {
              "internalType": "uint256",
              "name": "lastTreat",
              "type": "uint256"
            },
            {
              "internalType": "uint256",
              "name": "totalWalks",
              "type": "uint256"
            },
            {
              "internalType": "uint256",
              "name": "totalFeeds",
              "type": "uint256"
            },
            {
              "internalType": "uint256",
              "name": "totalTreats",
              "type": "uint256"
            },
            {
              "internalType": "string",
              "name": "name",
              "type": "string"
            },
            {
              "internalType": "string",
              "name": "personality",
              "type": "string"
            },
            {
              "internalType": "uint256",
              "name": "shelterId",
              "type": "uint256"
            },
            {
              "internalType": "bool",
              "name": "adopted",
              "type": "bool"
            }
          ],
          "internalType": "struct AdoptAPet.PetData",
          "name": "",
          "type": "tuple"
        }
      ],
      "stateMutability": "view",
      "type": "function"
    },
    {
      "inputs": [
        {
          "internalType": "uint256",
          "name": "_shelterId",
          "type": "uint256"
        }
      ],
      "name": "getShelter",
      "outputs": [
        {
          "components": [
            {
              "internalType": "string",
              "name": "name",
              "type": "string"
            },
            {
              "internalType": "string",
              "name": "location",
              "type": "string"
            },
            {
              "internalType": "string",
              "name": "website",
              "type": "string"
            },
            {
              "internalType": "string",
              "name": "email",
              "type": "string"
            }
          ],
          "internalType": "struct AdoptAPet.ShelterData",
          "name": "",
          "type": "tuple"
        }
      ],
      "stateMutability": "view",
      "type": "function"
    },
    {
      "inputs": [
        {
          "internalType": "address",
          "name": "owner",
          "type": "address"
        },
        {
          "internalType": "address",
          "name": "operator",
          "type": "address"
        }
      ],
      "name": "isApprovedForAll",
      "outputs": [
        {
          "internalType": "bool",
          "name": "",
          "type": "bool"
        }
      ],
      "stateMutability": "view",
      "type": "function"
    },
    {
      "inputs": [
        {
          "internalType": "address",
          "name": "_sender",
          "type": "address"
        },
        {
          "internalType": "uint256",
          "name": "_sourceChainId",
          "type": "uint256"
        }
      ],
      "name": "isAuthorized",
      "outputs": [
        {
          "internalType": "bool",
          "name": "",
          "type": "bool"
        }
      ],
      "stateMutability": "view",
      "type": "function"
    },
    {
      "inputs": [
        {
          "internalType": "address",
          "name": "_sender",
          "type": "address"
        },
        {
          "internalType": "uint256",
          "name": "_sourceChainId",
          "type": "uint256"
        }
      ],
      "name": "isSelf",
      "outputs": [
        {
          "internalType": "bool",
          "name": "",
          "type": "bool"
        }
      ],
      "stateMutability": "view",
      "type": "function"
    },
    {
      "inputs": [
        {
          "internalType": "uint256",
          "name": "",
          "type": "uint256"
        },
        {
          "internalType": "uint256",
          "name": "_sourceChainId",
          "type": "uint256"
        },
        {
          "internalType": "address",
          "name": "_sender",
          "type": "address"
        },
        {
          "internalType": "address",
          "name": "",
          "type": "address"
        },
        {
          "internalType": "uint256",
          "name": "",
          "type": "uint256"
        },
        {
          "internalType": "bytes",
          "name": "_data",
          "type": "bytes"
        }
      ],
      "name": "messageProcess",
      "outputs": [],
      "stateMutability": "nonpayable",
      "type": "function"
    },
    {
      "inputs": [
        {
          "internalType": "uint256",
          "name": "",
          "type": "uint256"
        }
      ],
      "name": "messages",
      "outputs": [
        {
          "internalType": "string",
          "name": "",
          "type": "string"
        }
      ],
      "stateMutability": "view",
      "type": "function"
    },
    {
      "inputs": [],
      "name": "name",
      "outputs": [
        {
          "internalType": "string",
          "name": "",
          "type": "string"
        }
      ],
      "stateMutability": "view",
      "type": "function"
    },
    {
      "inputs": [],
      "name": "nextNftId",
      "outputs": [
        {
          "internalType": "uint256",
          "name": "",
          "type": "uint256"
        }
      ],
      "stateMutability": "view",
      "type": "function"
    },
    {
      "inputs": [],
      "name": "nextShelterId",
      "outputs": [
        {
          "internalType": "uint256",
          "name": "",
          "type": "uint256"
        }
      ],
      "stateMutability": "view",
      "type": "function"
    },
    {
      "inputs": [],
      "name": "owner",
      "outputs": [
        {
          "internalType": "address",
          "name": "",
          "type": "address"
        }
      ],
      "stateMutability": "view",
      "type": "function"
    },
    {
      "inputs": [
        {
          "internalType": "uint256",
          "name": "tokenId",
          "type": "uint256"
        }
      ],
      "name": "ownerOf",
      "outputs": [
        {
          "internalType": "address",
          "name": "",
          "type": "address"
        }
      ],
      "stateMutability": "view",
      "type": "function"
    },
    {
      "inputs": [
        {
          "internalType": "uint256",
          "name": "",
          "type": "uint256"
        }
      ],
      "name": "pets",
      "outputs": [
        {
          "internalType": "uint256",
          "name": "lastWalk",
          "type": "uint256"
        },
        {
          "internalType": "uint256",
          "name": "lastFeed",
          "type": "uint256"
        },
        {
          "internalType": "uint256",
          "name": "lastTreat",
          "type": "uint256"
        },
        {
          "internalType": "uint256",
          "name": "totalWalks",
          "type": "uint256"
        },
        {
          "internalType": "uint256",
          "name": "totalFeeds",
          "type": "uint256"
        },
        {
          "internalType": "uint256",
          "name": "totalTreats",
          "type": "uint256"
        },
        {
          "internalType": "string",
          "name": "name",
          "type": "string"
        },
        {
          "internalType": "string",
          "name": "personality",
          "type": "string"
        },
        {
          "internalType": "uint256",
          "name": "shelterId",
          "type": "uint256"
        },
        {
          "internalType": "bool",
          "name": "adopted",
          "type": "bool"
        }
      ],
      "stateMutability": "view",
      "type": "function"
    },
    {
      "inputs": [
        {
          "internalType": "address",
          "name": "_token",
          "type": "address"
        },
        {
          "internalType": "uint256",
          "name": "_amount",
          "type": "uint256"
        }
      ],
      "name": "recoverToken",
      "outputs": [],
      "stateMutability": "nonpayable",
      "type": "function"
    },
    {
      "inputs": [
        {
          "internalType": "uint256",
          "name": "_shelterId",
          "type": "uint256"
        },
        {
          "internalType": "address",
          "name": "_manager",
          "type": "address"
        }
      ],
      "name": "removeShelterManager",
      "outputs": [],
      "stateMutability": "nonpayable",
      "type": "function"
    },
    {
      "inputs": [],
      "name": "renounceOwnership",
      "outputs": [],
      "stateMutability": "nonpayable",
      "type": "function"
    },
    {
      "inputs": [
        {
          "internalType": "uint256",
          "name": "_nftId",
          "type": "uint256"
        }
      ],
      "name": "rescue",
      "outputs": [],
      "stateMutability": "nonpayable",
      "type": "function"
    },
    {
      "inputs": [
        {
          "internalType": "address",
          "name": "from",
          "type": "address"
        },
        {
          "internalType": "address",
          "name": "to",
          "type": "address"
        },
        {
          "internalType": "uint256",
          "name": "tokenId",
          "type": "uint256"
        }
      ],
      "name": "safeTransferFrom",
      "outputs": [],
      "stateMutability": "nonpayable",
      "type": "function"
    },
    {
      "inputs": [
        {
          "internalType": "address",
          "name": "from",
          "type": "address"
        },
        {
          "internalType": "address",
          "name": "to",
          "type": "address"
        },
        {
          "internalType": "uint256",
          "name": "tokenId",
          "type": "uint256"
        },
        {
          "internalType": "bytes",
          "name": "data",
          "type": "bytes"
        }
      ],
      "name": "safeTransferFrom",
      "outputs": [],
      "stateMutability": "nonpayable",
      "type": "function"
    },
    {
      "inputs": [
        {
          "internalType": "address",
          "name": "operator",
          "type": "address"
        },
        {
          "internalType": "bool",
          "name": "approved",
          "type": "bool"
        }
      ],
      "name": "setApprovalForAll",
      "outputs": [],
      "stateMutability": "nonpayable",
      "type": "function"
    },
    {
      "inputs": [
        {
          "internalType": "address",
          "name": "_signer",
          "type": "address"
        }
      ],
      "name": "setExsig",
      "outputs": [],
      "stateMutability": "nonpayable",
      "type": "function"
    },
    {
      "inputs": [
        {
          "internalType": "uint256",
          "name": "_maxFee",
          "type": "uint256"
        }
      ],
      "name": "setMaxfee",
      "outputs": [],
      "stateMutability": "nonpayable",
      "type": "function"
    },
    {
      "inputs": [
        {
          "internalType": "uint256",
          "name": "_maxGas",
          "type": "uint256"
        }
      ],
      "name": "setMaxgas",
      "outputs": [],
      "stateMutability": "nonpayable",
      "type": "function"
    },
    {
      "inputs": [
        {
          "internalType": "uint256",
          "name": "",
          "type": "uint256"
        },
        {
          "internalType": "address",
          "name": "",
          "type": "address"
        }
      ],
      "name": "shelterManagers",
      "outputs": [
        {
          "internalType": "bool",
          "name": "",
          "type": "bool"
        }
      ],
      "stateMutability": "view",
      "type": "function"
    },
    {
      "inputs": [
        {
          "internalType": "uint256",
          "name": "",
          "type": "uint256"
        }
      ],
      "name": "shelters",
      "outputs": [
        {
          "internalType": "string",
          "name": "name",
          "type": "string"
        },
        {
          "internalType": "string",
          "name": "location",
          "type": "string"
        },
        {
          "internalType": "string",
          "name": "website",
          "type": "string"
        },
        {
          "internalType": "string",
          "name": "email",
          "type": "string"
        }
      ],
      "stateMutability": "view",
      "type": "function"
    },
    {
      "inputs": [
        {
          "internalType": "bytes4",
          "name": "interfaceId",
          "type": "bytes4"
        }
      ],
      "name": "supportsInterface",
      "outputs": [
        {
          "internalType": "bool",
          "name": "",
          "type": "bool"
        }
      ],
      "stateMutability": "view",
      "type": "function"
    },
    {
      "inputs": [],
      "name": "symbol",
      "outputs": [
        {
          "internalType": "string",
          "name": "",
          "type": "string"
        }
      ],
      "stateMutability": "view",
      "type": "function"
    },
    {
      "inputs": [
        {
          "internalType": "uint256",
          "name": "index",
          "type": "uint256"
        }
      ],
      "name": "tokenByIndex",
      "outputs": [
        {
          "internalType": "uint256",
          "name": "",
          "type": "uint256"
        }
      ],
      "stateMutability": "view",
      "type": "function"
    },
    {
      "inputs": [
        {
          "internalType": "address",
          "name": "owner",
          "type": "address"
        },
        {
          "internalType": "uint256",
          "name": "index",
          "type": "uint256"
        }
      ],
      "name": "tokenOfOwnerByIndex",
      "outputs": [
        {
          "internalType": "uint256",
          "name": "",
          "type": "uint256"
        }
      ],
      "stateMutability": "view",
      "type": "function"
    },
    {
      "inputs": [
        {
          "internalType": "uint256",
          "name": "tokenId",
          "type": "uint256"
        }
      ],
      "name": "tokenURI",
      "outputs": [
        {
          "internalType": "string",
          "name": "",
          "type": "string"
        }
      ],
      "stateMutability": "view",
      "type": "function"
    },
    {
      "inputs": [],
      "name": "totalSupply",
      "outputs": [
        {
          "internalType": "uint256",
          "name": "",
          "type": "uint256"
        }
      ],
      "stateMutability": "view",
      "type": "function"
    },
    {
      "inputs": [
        {
          "internalType": "address",
          "name": "from",
          "type": "address"
        },
        {
          "internalType": "address",
          "name": "to",
          "type": "address"
        },
        {
          "internalType": "uint256",
          "name": "tokenId",
          "type": "uint256"
        }
      ],
      "name": "transferFrom",
      "outputs": [],
      "stateMutability": "nonpayable",
      "type": "function"
    },
    {
      "inputs": [
        {
          "internalType": "address",
          "name": "_newMessageOwner",
          "type": "address"
        }
      ],
      "name": "transferMessageOwnership",
      "outputs": [],
      "stateMutability": "nonpayable",
      "type": "function"
    },
    {
      "inputs": [
        {
          "internalType": "address",
          "name": "newOwner",
          "type": "address"
        }
      ],
      "name": "transferOwnership",
      "outputs": [],
      "stateMutability": "nonpayable",
      "type": "function"
    },
    {
      "inputs": [
        {
          "internalType": "uint256",
          "name": "_nftId",
          "type": "uint256"
        }
      ],
      "name": "treat",
      "outputs": [],
      "stateMutability": "nonpayable",
      "type": "function"
    },
    {
      "inputs": [
        {
          "internalType": "uint256",
          "name": "_nftId",
          "type": "uint256"
        }
      ],
      "name": "walk",
      "outputs": [],
      "stateMutability": "nonpayable",
      "type": "function"
    },
    {
      "inputs": [
        {
          "internalType": "address",
          "name": "owner",
          "type": "address"
        }
      ],
      "name": "walletOfOwner",
      "outputs": [
        {
          "internalType": "uint256[]",
          "name": "",
          "type": "uint256[]"
        }
      ],
      "stateMutability": "view",
      "type": "function"
    },
    {
      "stateMutability": "payable",
      "type": "receive"
    }
  ],
  "transactionHash": "0x5217fe9c77f8ee56ce8171a2f466a601f63781ffacd913fa8ac4510a53110e2f",
  "args": [],
  "numDeployments": 2,
  "solcInputHash": "166e2f511dff4c26363f65e1fde798b7",
  "bytecode": "0x60803462000393576001600160401b0390604090808201838111828210176200037d578252600b81526020906a10591bdc1d08104814195d60aa1b82820152825193838501858110828211176200037d578452600385526204141560ec1b8386015281518181116200037d576000938454916001948584811c9416801562000372575b838510146200035e578190601f948581116200030b575b508390858311600114620002a75788926200029b575b5050600019600383901b1c191690851b1785555b8651928311620002875783548481811c911680156200027c575b82821014620002685782811162000220575b5080918311600114620001b9575083949582939492620001ad575b5050600019600383901b1c191690821b1790555b600a8054336001600160a01b03198083168217909355935193906001600160a01b03167f8be0079c531659141344cd1fd0a4f28419497f9722a3daafe3b4186f6b6457e08480a3339060105416176010556127109081460291468304144615171562000199575080601155601255614e1d9081620003998239f35b634e487b7160e01b81526011600452602490fd5b0151905038806200010a565b90601f198316968486528286209286905b89821062000208575050838596979810620001ee575b505050811b0190556200011e565b015160001960f88460031b161c19169055388080620001e0565b808785968294968601518155019501930190620001ca565b8486528186208380860160051c8201928487106200025e575b0160051c019085905b82811062000252575050620000ef565b87815501859062000242565b9250819262000239565b634e487b7160e01b86526022600452602486fd5b90607f1690620000dd565b634e487b7160e01b85526041600452602485fd5b015190503880620000af565b8880528489208894509190601f1984168a5b87828210620002f45750508411620002da575b505050811b018555620000c3565b015160001960f88460031b161c19169055388080620002cc565b8385015186558b97909501949384019301620002b9565b9091508780528388208580850160051c82019286861062000354575b918991869594930160051c01915b8281106200034557505062000099565b8a815585945089910162000335565b9250819262000327565b634e487b7160e01b87526022600452602487fd5b93607f169362000082565b634e487b7160e01b600052604160045260246000fd5b600080fdfe60806040526004361015610018575b361561001657005b005b60003560e01c806301ffc9a7146104b657806302b3b368146104ad5780630581f59d146104a457806306fdde031461049b578063081812fc14610492578063095ea7b3146104895780630d029802146104805780630d80fefd1461038d57806318160ddd1461047757806319b815771461046e57806320bfe3421461045c57806323b872dd146104655780632972b0f01461045c5780632ee02d7c146104535780632f745c591461044a5780632f820a5f1461044157806342842e0e14610438578063438b63001461042f5780634f154c54146104265780634f6ccce71461041d578063559b2f6514610414578063585c7edd1461040b57806359d55194146104025780635b77a6a6146103f95780635f46e740146103f05780636352211e146103e75780636ac053ad146103de5780637044cd7e146103d557806370a08231146103cc578063715018a6146103c357806373717b08146103ba578063788063f0146103b1578063794b4643146103a85780637a29fa661461039f5780637b84044d14610396578063823a1db11461038d578063853c75d8146103845780638da5cb5b1461037b57806392ae12fd1461037257806393f1da4f1461036957806395d89b41146103605780639877f2f3146103575780639e0d0ef81461034e578063a22cb46514610345578063a2db91691461033c578063b29a814014610333578063b479a9611461032a578063b7f494a414610321578063b88d4fde14610318578063bb0b98301461030f578063c60853f614610306578063c87b56dd146102fd578063cfb869bf146102f4578063e47ad74d146102eb578063e985e9c5146102e2578063f2fde38b146102d9578063f52a9198146102d0578063f59dfdfb146102c7578063f7194138146102be5763f9bf93220361000e576102b9612d6f565b61000e565b506102b9612d1e565b506102b9612cba565b506102b9612c56565b506102b9612b8d565b506102b9612b30565b506102b9612a4e565b506102b96129bb565b506102b96122aa565b506102b96121cd565b506102b96121a3565b506102b961214c565b506102b9612007565b506102b9611f1f565b506102b9611e06565b506102b9611d50565b506102b9611bf9565b506102b9611ab2565b506102b9611a06565b506102b9611960565b506102b9611941565b506102b96118d8565b506102b9611877565b506102b961184d565b506102b9610a66565b506102b96117f3565b506102b96117a1565b506102b9611782565b506102b9611730565b506102b96116ef565b506102b9611690565b506102b9611668565b506102b96115a2565b506102b9611470565b506102b9611451565b506102b96113e1565b506102b961138a565b506102b961128b565b506102b961117c565b506102b96110ea565b506102b961103e565b506102b9610fb6565b506102b9610f10565b506102b9610e8e565b506102b9610dea565b506102b9610db6565b506102b9610cb4565b506102b9610b87565b506102b9610be9565b506102b9610ad7565b506102b9610ab8565b506102b96108a5565b506102b96107cc565b506102b961078a565b506102b96106a6565b506102b96105de565b506102b961055f565b506102b96104d6565b6001600160e01b03198116036104d157565b600080fd5b50346104d15760203660031901126104d15760206004356104f6816104bf565b63ffffffff60e01b1663780e9d6360e01b811490811561051c575b506040519015158152f35b6380ac58cd60e01b81149150811561054e575b811561053d575b5038610511565b6301ffc9a760e01b14905038610536565b635b5e139f60e01b8114915061052f565b50346104d15760203660031901126104d1577ff8e1a15aba9398e019f0b49df1a4fde98ee17ae345cb5f6b5e2c27f5033e8ce760206004356105b36105a382612f0e565b6001600160a01b03163314613adf565b806000526014825260056040600020426002820155016105d38154613627565b9055604051908152a1005b50346104d15760203660031901126104d1577ff8e1a15aba9398e019f0b49df1a4fde98ee17ae345cb5f6b5e2c27f5033e8ce760206004356106226105a382612f0e565b806000526014825260036040600020428155016105d38154613627565b60009103126104d157565b60005b83811061065d5750506000910152565b818101518382015260200161064d565b906020916106868151809281855285808601910161064a565b601f01601f1916010190565b9060206106a392818152019061066d565b90565b50346104d15760008060031936011261078757604051908080546106c9816108cf565b8085529160019180831690811561075d5750600114610703575b6106ff856106f381870382610a28565b60405191829182610692565b0390f35b80809450527f290decd9548b62a8d60345a988386fc84ba6bc95484008f6362f93160ef3e5635b8284106107455750505081016020016106f3826106ff6106e3565b8054602085870181019190915290930192810161072a565b8695506106ff969350602092506106f394915060ff191682840152151560051b82010192936106e3565b80fd5b50346104d15760203660031901126104d15760206107a9600435612fa3565b6040516001600160a01b039091168152f35b6001600160a01b038116036104d157565b50346104d15760403660031901126104d1576004356107ea816107bb565b6024356107f681612f0e565b916001600160a01b0380841690821681146108565761001693610823913314908115610828575b50612f31565b613345565b6001600160a01b0316600090815260056020908152604080832033845290915290205460ff1690503861081d565b60405162461bcd60e51b815260206004820152602160248201527f4552433732313a20617070726f76616c20746f2063757272656e74206f776e656044820152603960f91b6064820152608490fd5b50346104d15760003660031901126104d157600b546040516001600160a01b039091168152602090f35b90600182811c921680156108ff575b60208310146108e957565b634e487b7160e01b600052602260045260246000fd5b91607f16916108de565b906000929180549161091a836108cf565b91828252600193848116908160001461097c575060011461093c575b50505050565b90919394506000526020928360002092846000945b838610610968575050505001019038808080610936565b805485870183015294019385908201610951565b9294505050602093945060ff191683830152151560051b01019038808080610936565b50634e487b7160e01b600052604160045260246000fd5b61014081019081106001600160401b038211176109d257604052565b6109da61099f565b604052565b608081019081106001600160401b038211176109d257604052565b6001600160401b0381116109d257604052565b604081019081106001600160401b038211176109d257604052565b90601f801991011681019081106001600160401b038211176109d257604052565b90610a64610a5d9260405193848092610909565b0383610a28565b565b50346104d15760203660031901126104d15760043560005260136020526106ff610a9d610aa4604060002060405192838092610909565b0382610a28565b60405191829160208352602083019061066d565b50346104d15760003660031901126104d1576020600854604051908152f35b50346104d15760203660031901126104d157600435600081815260026020526040902054610b0f906001600160a01b03161515613b41565b610b1881612f0e565b306001600160a01b0390911603610b34576100169033306131d1565b60405162461bcd60e51b815260206004820152602560248201527f41646f7074415065743a20416c72656164792061646f7074656420627920736f6044820152646d656f6e6560d81b6064820152608490fd5b50346104d15760403660031901126104d1576020610bb3600435610baa816107bb565b60243590613ab3565b6040519015158152f35b60609060031901126104d157600435610bd5816107bb565b90602435610be2816107bb565b9060443590565b50346104d157610016610bfb36610bbd565b91610c0e610c0984336130ff565b612fe1565b6131d1565b9181601f840112156104d1578235916001600160401b0383116104d1576020808501948460051b0101116104d157565b60806003198201126104d157600435610c5b816107bb565b916001600160401b036024358181116104d15783610c7b91600401610c13565b939093926044358381116104d15782610c9691600401610c13565b939093926064359182116104d157610cb091600401610c13565b9091565b50346104d157610cc336610c43565b610cdf60018060a0989794989695961b036010541633146135c4565b60005b828110610cf257610016886137ce565b80610dac610d56888888610d97868a8f610d13610db19b8d610d1893613643565b613661565b95610d24838383613643565b35600052610d56610d5b84600f986020988a8a5260029c8d9c60409d8e600020019061ffff1661ffff19825416179055565b613643565b35610d65816107bb565b610d70858585613643565b35600052878752886000209060018060a01b03166001600160601b0360a01b825416179055565b35600052526000200162ff0000198154169055565b613627565b610ce2565b50346104d15760403660031901126104d1576020610de2600435610dd9816107bb565b60243590613536565b604051908152f35b50346104d15760603660031901126104d157602435600435610e0b826107bb565b6000818152600f60205260409020546001600160a01b031615610e355761001691604435916140ca565b60405162461bcd60e51b815260206004820152602b60248201527f4d657373616765436c69656e743a2064657374696e6174696f6e20636861696e60448201526a206e6f742061637469766560a81b6064820152608490fd5b50346104d157610016610ea036610bbd565b9060405192602084018481106001600160401b03821117610ec8575b60405260008452613074565b610ed061099f565b610ebc565b6020908160408183019282815285518094520193019160005b828110610efc575050505090565b835185529381019392810192600101610eee565b50346104d1576020806003193601126104d15760043590610f30826107bb565b610f3982612e4b565b90610f4382614a00565b92610f516040519485610a28565b828452601f19610f6084614a00565b01368386013760005b838110610f7e57604051806106ff8782610ed5565b80610f8c610fa49284613536565b8651821015610fa9575b848260051b88010152613627565b610f69565b610fb1611719565b610f96565b50346104d15760003660031901126104d157604051806018549182815260208091019260186000527fb13d2d76d1f4b7be834882e410b3e3a8afaf69f83600ae24db354391d2378d2e916000905b828210611027576106ff8561101b81890382610a28565b60405191829182610ed5565b835486529485019460019384019390910190611004565b50346104d15760203660031901126104d1576004356008548110156110905760086000527ff3f7a9fe364faab93b216da50a3214154f22a0a2b415b23a84c8169e8b636ee30154604051908152602090f35b60405162461bcd60e51b815260206004820152602c60248201527f455243373231456e756d657261626c653a20676c6f62616c20696e646578206f60448201526b7574206f6620626f756e647360a01b6064820152608490fd5b50346104d15760203660031901126104d1577fe1a25f463c6504824e91268b5b2c05658d5358c9c1698a85346cfae5336a642e61117760043561112c816107bb565b6010546001600160a01b0361114433828416146135c4565b6001600160a01b031990911690821617601055604080513381526001600160a01b03909216602083015290918291820190565b0390a1005b50346104d15760003660031901126104d157604051806017549182815260208091019260176000527fc624b66cc0138b8fabc209247f72d758e1cf3343756d543badbf24212bed8c15916000905b8282106111e1576106ff8561101b81890382610a28565b8354865294850194600193840193909101906111ca565b6106a3906020815282516020820152602083015160408201526040830151606082015260608301516080820152608083015160a082015260a083015160c082015260c0830151611256610140918260e085015261016084019061066d565b9361127460e08201519561010096601f19868303018887015261066d565b948101516101208481019190915201511515910152565b50346104d15760203660031901126104d1576106ff6040516112ac816109b6565b61137e6000918281528260208201528260408201528260608201528260808201528260a0820152606060c0820152606060e0820152611376600960406101009580878601528061012080960152600435815260146020522061130c611a34565b958154875260018201546020880152600282015460408801526003820154606088015260048201546080880152600582015460a088015261134f60068301610a49565b60c088015261136060078301610a49565b60e0880152600882015490870152015460ff1690565b151590830152565b604051918291826111f8565b50346104d15760403660031901126104d157602060ff6113d56024356113af816107bb565b6004356000526016845260406000209060018060a01b0316600052602052604060002090565b54166040519015158152f35b50346104d15760c03660031901126104d1576044356113ff816107bb565b61140a6064356107bb565b60a435906001600160401b03908183116104d157366023840112156104d15782600401359182116104d15736602483850101116104d15760246100169301906024356144b9565b50346104d15760203660031901126104d15760206107a9600435612f0e565b50346104d15760203660031901126104d1576004356000818152600260205260409020546114a8906001600160a01b03161515613b41565b6114bc816000526014602052604060002090565b6114d36114cd600983015460ff1690565b15613b8d565b60018101546114e142613be3565b1190811561158e575b8115611578575b501561150b578061150461001692612f0e565b33906131d1565b6040805162461bcd60e51b81526020600482015260248101919091527f41646f7074415065743a20506574206973206265696e672074616b656e20636160448201527f7265206f662e2043616e6e6f742072657475726e20746f207368656c7465722e6064820152608490fd5b60029150015461158742613be3565b11386114f1565b8091505461159b42613be3565b11906114ea565b50346104d15760203660031901126104d157600435600052601560205261163f60406106ff600361165a83600020938051946115e9866115e28184610909565b0387610a28565b61164d82516115ff81610a9d8160018701610909565b61162c84519361161d856116168160028501610909565b0386610a28565b6115e286518099819301610909565b835198899860808a5260808a019061066d565b9088820360208a015261066d565b918683039087015261066d565b90838203606085015261066d565b50346104d15760203660031901126104d1576020610de260043561168b816107bb565b612e4b565b50346104d157600080600319360112610787576116ab612df3565b600a80546001600160a01b0319811690915581906001600160a01b03167f8be0079c531659141344cd1fd0a4f28419497f9722a3daafe3b4186f6b6457e08280a380f35b50346104d15760003660031901126104d157600c546040516001600160a01b039091168152602090f35b50634e487b7160e01b600052603260045260246000fd5b50346104d15760203660031901126104d1576004356018548110156104d15760209060186000527fb13d2d76d1f4b7be834882e410b3e3a8afaf69f83600ae24db354391d2378d2e0154604051908152f35b50346104d15760003660031901126104d1576020601254604051908152f35b50346104d15760203660031901126104d1576004356017548110156104d15760209060176000527fc624b66cc0138b8fabc209247f72d758e1cf3343756d543badbf24212bed8c150154604051908152f35b50346104d15760403660031901126104d157611843602435611814816107bb565b61181c612df3565b600435600052601660205260406000209060018060a01b0316600052602052604060002090565b805460ff19169055005b50346104d15760003660031901126104d1576010546040516001600160a01b039091168152602090f35b50346104d15760003660031901126104d157600a546040516001600160a01b039091168152602090f35b929493906118ca60609361ffff9260018060a01b0316865260806020870152608086019061066d565b951660408401521515910152565b50346104d15760203660031901126104d157600435600052600f602052604060002060018060a01b03815416906106ff6002604051926119268461191f8160018501610909565b0385610a28565b015460405193849361ffff60ff8460101c16931691856118a1565b50346104d15760003660031901126104d1576020601154604051908152f35b50346104d1576000806003193601126107875760405190806001805491611986836108cf565b8086529282811690811561075d57506001146119ac576106ff856106f381870382610a28565b92508083527fb10e2d527612073b26eecdfd717e6a320cf44b4afac2b0732d9fcbe2b7fa0cf65b8284106119ee5750505081016020016106f3826106ff6106e3565b805460208587018101919091529093019281016119d3565b50346104d15760403660031901126104d157611a27602435611814816107bb565b805460ff19166001179055005b60405190610a64826109b6565b6020906001600160401b038111611a5e575b601f01601f19160190565b611a6661099f565b611a53565b81601f820112156104d157803590611a8282611a41565b92611a906040519485610a28565b828452602083830101116104d157816000926020809301838601378301015290565b50346104d15760603660031901126104d1576004356001600160401b036024358181116104d157611ae7903690600401611a6b565b906044359081116104d157611b00903690600401611a6b565b9082600052601660205260ff611b2b60406000203360018060a01b0316600052602052604060002090565b541615611b9057611b70600892611b4460115430613f38565b611b67611b5d6011546000526014602052604060002090565b9360068501613d50565b60078301613d50565b0155611b7d601154613e24565b610016611b8b601154613627565b601155565b60405162461bcd60e51b815260206004820152603160248201527f41646f7074415065743a2063616c6c6572206973206e6f742061206d616e616760448201527032b91037b3103a34329039b432b63a32b960791b6064820152608490fd5b801515036104d157565b50346104d15760403660031901126104d157600435611c17816107bb565b602435611c2381611bef565b6001600160a01b03821691338314611ca55781611c62611c739233600052600560205260406000209060018060a01b0316600052602052604060002090565b9060ff801983541691151516179055565b604051901515815233907f17307eab39ab6107e8899845ad3d59bd9653f200f220920489ca2b5937696c3190602090a3005b60405162461bcd60e51b815260206004820152601960248201527f4552433732313a20617070726f766520746f2063616c6c6572000000000000006044820152606490fd5b906106a39160208152611d0982516080602084015260a083019061066d565b9060806060611d40611d2d602087015195601f19968787830301604088015261066d565b604087015186868303018487015261066d565b940151928285030191015261066d565b50346104d15760203660031901126104d1576106ff6040805190611d73826109df565b606080838180955281602082015281848201520152600435600052601560205260038160002092611df9835194611da9866109df565b8451611db981610a9d8185610909565b86528451611dce81610a9d8160018601610909565b60208701528451611de681610a9d8160028601610909565b85870152610a5d85518095819301610909565b8301525191829182611cea565b50346104d15760403660031901126104d1577f16a1412f01b73c390eb2548427101644aa86c1443c272f73df00fb74c48fe499600435611e45816107bb565b6024359060018060a01b03611e5f816010541633146135c4565b811680611ea85750611e81600080808086335af1611e7b6133fc565b50613a75565b604080513381526001600160a01b0390921660208301528101919091528060608101611177565b60405163a9059cbb60e01b81523360048201526024810184905290602090829060449082906000905af18015611f12575b611ee4575b50611e81565b611f049060203d8111611f0b575b611efc8183610a28565b8101906137b9565b5038611ede565b503d611ef2565b611f1a6133ef565b611ed9565b50346104d15760006020366003190112610787576004358160018060a01b03611f4d816010541633146135c4565b600b5416803b1561200357819060246040518094819363b479a96160e01b83528760048401525af18015611ff6575b611fbf575b506040805133815260208101929092527f7b6bdf5a54b984bdb41e777eb126123085d57633ab56d408d9a1d39dd894e7bb9190819081015b0390a180f35b7f7b6bdf5a54b984bdb41e777eb126123085d57633ab56d408d9a1d39dd894e7bb9192611fee611fb9926109fa565b929150611f81565b611ffe6133ef565b611f7c565b5080fd5b50346104d15761201636610c43565b61203160018060a09998969497991b036010541633146135c4565b60005b87811061204457610016876137ce565b612052610d13828489613643565b9061205e818a88613643565b356000526020600f8152612086600293846040600020019061ffff1661ffff19825416179055565b8582101561213f575b8160051b850135601e19863603018112156104d1578501908135916001600160401b0383116104d157019281360384136104d1576120f66121169261213a9560016120f08f886120df918f613643565b35600052600f602052604060002090565b016136c4565b6121046120df848d8b613643565b01805462ff0000191662010000179055565b610dac6121276120df838c8a613643565b80546001600160a01b0319166001179055565b612034565b612147611719565b61208f565b50346104d15760803660031901126104d15760043561216a816107bb565b602435612176816107bb565b606435916001600160401b0383116104d157612199610016933690600401611a6b565b9160443591613074565b50346104d15760003660031901126104d157600d546040516001600160a01b039091168152602090f35b50346104d15760203660031901126104d1576004356121eb816107bb565b6010546001600160a01b039061220490821633146135c4565b80600b541691823b156104d1576000807f3785abad972484d82ebc033d8eb190737cd209b24e7f853dd622e415c3f537a294602461117795604051948593849263630429fb60e11b8452881660048401525af1801561229d575b612284575b50604080513381526001600160a01b03909216602083015290918291820190565b80612291612297926109fa565b8061063f565b38612263565b6122a56133ef565b61225e565b50346104d15760203660031901126104d1576004356000818152600260205260409020546122e2906001600160a01b031615156146fa565b6122eb81614d2d565b6006612301836000526014602052604060002090565b019161232061231a826000526014602052604060002090565b54614d2d565b90612341600161233a836000526014602052604060002090565b0154614d2d565b61235a600261233a846000526014602052604060002090565b612373600361233a856000526014602052604060002090565b61238c600461233a866000526014602052604060002090565b6123a5600561233a876000526014602052604060002090565b906123c760096123bf886000526014602052604060002090565b015460ff1690565b15612950576123d461477f565b925b6123ea876000526014602052604060002090565b60080154612402906000526015602052604060002090565b94612417886000526014602052604060002090565b6008015461242f906000526015602052604060002090565b60010196612447896000526014602052604060002090565b6008015461245f906000526015602052604060002090565b60020198612477906000526014602052604060002090565b6008015461248f906000526015602052604060002090565b604051757b226e616d65223a2241646f7074204120506574202360501b60208201529c8d9c6003929092019b9160368e016124c99161479f565b61088b60f21b81526002017f226465736372697074696f6e223a2241646f7074204120506574204e4654222c81526020017f22696d616765223a2268747470733a2f2f656e637279707465642d74626e302e81527f677374617469632e636f6d2f696d616765733f713d74626e3a414e643947635460208201527f4e6e4779584a69516b6d614533455a446c6a76644e43456137663233325678546040820152661c1219c99cc88b60ca1b60608201526067016d2261747472696275746573223a5b60901b8152600e017f7b2274726169745f74797065223a224e616d65222c2276616c7565223a2200008152601e016125c2916147b2565b62089f4b60ea1b81526003017f7b2274726169745f74797065223a224c6173742057616c6b222c2276616c7565815262111d1160e91b60208201526023016126099161479f565b62089f4b60ea1b81526003017f7b2274726169745f74797065223a224c6173742046656564222c2276616c7565815262111d1160e91b60208201526023016126509161479f565b62089f4b60ea1b81526003017f7b2274726169745f74797065223a224c617374205472656174222c2276616c7581526332911d1160e11b60208201526024016126989161479f565b62089f4b60ea1b81526003017f7b2274726169745f74797065223a22546f74616c2057616c6b73222c2276616c8152643ab2911d1160d91b60208201526025016126e19161479f565b62089f4b60ea1b81526003017f7b2274726169745f74797065223a22546f74616c204665656473222c2276616c8152643ab2911d1160d91b602082015260250161272a9161479f565b62089f4b60ea1b81526003017f7b2274726169745f74797065223a22546f74616c20547265617473222c227661815265363ab2911d1160d11b60208201526026016127749161479f565b62089f4b60ea1b81526003017f7b2274726169745f74797065223a2241646f70746564222c2276616c7565223a8152601160f91b60208201526021016127b99161479f565b62089f4b60ea1b81526003017f7b2274726169745f74797065223a225368656c746572222c2276616c7565223a8152601160f91b60208201526021016127fe916147b2565b62089f4b60ea1b81526003017f7b2274726169745f74797065223a224c6f636174696f6e222c2276616c7565228152611d1160f11b6020820152602201612844916147b2565b62089f4b60ea1b81526003017f7b2274726169745f74797065223a2257656273697465222c2276616c7565223a8152601160f91b6020820152602101612889916147b2565b62089f4b60ea1b81526003017f7b2274726169745f74797065223a22456d61696c222c2276616c7565223a22008152601f016128c4916147b2565b61227d60f01b8152600201615d7d60f01b81526002010390601f199182810182526128ef9082610a28565b6128f890614917565b6040517f646174613a6170706c69636174696f6e2f6a736f6e3b6261736536342c000000602082015291908290603d82016129329161479f565b0390810182526129429082610a28565b6040516106ff819282610692565b61295861475e565b926123d6565b989a9996929361299f946129ad97936101209a97938c5260208c015260408b015260608a0152608089015260a08801526101408060c089015287019061066d565b9085820360e087015261066d565b946101008401521515910152565b50346104d15760203660031901126104d1576004356000526014602052604060002080546106ff60018301549260028101549060038101546004820154600583015460405191612a1983612a128160068901610909565b0384610a28565b60405193612a2e856116168160078a01610909565b612a416009600888015497015460ff1690565b966040519a8b9a8b61295e565b50346104d15760006020366003190112610787576004358160018060a01b03612a7c816010541633146135c4565b600b5416803b1561200357819060246040518094819363e47ad74d60e01b83528760048401525af18015612b23575b612aec575b506040805133815260208101929092527f83f76efc0c025b2e3779f7bcead5a89ddaf05dc7829157cdab021a8591e7a6f9919081908101611fb9565b7f83f76efc0c025b2e3779f7bcead5a89ddaf05dc7829157cdab021a8591e7a6f99192612b1b611fb9926109fa565b929150612ab0565b612b2b6133ef565b612aab565b50346104d15760403660031901126104d157602060ff6113d5600435612b55816107bb565b60243590612b62826107bb565b60018060a01b03166000526005845260406000209060018060a01b0316600052602052604060002090565b50346104d15760203660031901126104d157600435612bab816107bb565b612bb3612df3565b6001600160a01b03908116908115612c0257600a54826001600160601b0360a01b821617600a55167f8be0079c531659141344cd1fd0a4f28419497f9722a3daafe3b4186f6b6457e0600080a3005b60405162461bcd60e51b815260206004820152602660248201527f4f776e61626c653a206e6577206f776e657220697320746865207a65726f206160448201526564647265737360d01b6064820152608490fd5b50346104d15760403660031901126104d15760243563ffffffff81168091036104d157600435600052600e602052604060002090600052602052604060002060018060a01b03815416906106ff6002604051926119268461191f8160018501610909565b50346104d15760203660031901126104d1577ff8e1a15aba9398e019f0b49df1a4fde98ee17ae345cb5f6b5e2c27f5033e8ce76020600435612cfe6105a382612f0e565b806000526014825260046040600020426001820155016105d38154613627565b50346104d15760203660031901126104d157600435612d3c816107bb565b6010546001600160a01b039190612d5690831633146135c4565b166001600160601b0360a01b600d541617600d55600080f35b50346104d15760803660031901126104d1576001600160401b036004358181116104d157612da1903690600401611a6b565b6024358281116104d157612db9903690600401611a6b565b6044358381116104d157612dd1903690600401611a6b565b906064359384116104d157612ded610016943690600401611a6b565b92613bfc565b600a546001600160a01b03163303612e0757565b606460405162461bcd60e51b815260206004820152602060248201527f4f776e61626c653a2063616c6c6572206973206e6f7420746865206f776e65726044820152fd5b6001600160a01b03168015612e6b57600052600360205260406000205490565b60405162461bcd60e51b815260206004820152602960248201527f4552433732313a2061646472657373207a65726f206973206e6f7420612076616044820152683634b21037bbb732b960b91b6064820152608490fd5b15612ec957565b60405162461bcd60e51b815260206004820152601860248201527f4552433732313a20696e76616c696420746f6b656e20494400000000000000006044820152606490fd5b6000908152600260205260409020546001600160a01b03166106a3811515612ec2565b15612f3857565b60405162461bcd60e51b815260206004820152603d60248201527f4552433732313a20617070726f76652063616c6c6572206973206e6f7420746f60448201527f6b656e206f776e6572206f7220617070726f76656420666f7220616c6c0000006064820152608490fd5b600081815260026020526040902054612fc6906001600160a01b03161515612ec2565b6000908152600460205260409020546001600160a01b031690565b15612fe857565b60405162461bcd60e51b815260206004820152602d60248201527f4552433732313a2063616c6c6572206973206e6f7420746f6b656e206f776e6560448201526c1c881bdc88185c1c1c9bdd9959609a1b6064820152608490fd5b60405190602082018281106001600160401b03821117613067575b60405260008252565b61306f61099f565b61305e565b90613098939291613088610c0984336130ff565b6130938383836131d1565b61342c565b1561309f57565b60405162461bcd60e51b815260206004820152603260248201527f4552433732313a207472616e7366657220746f206e6f6e20455243373231526560448201527131b2b4bb32b91034b6b83632b6b2b73a32b960711b6064820152608490fd5b6001600160a01b038061311184612f0e565b169281831692848414948515613147575b50508315613131575b50505090565b61313d91929350612fa3565b161438808061312b565b60009081526005602090815260408083206001600160a01b03949094168352929052205460ff1693503880613122565b1561317e57565b60405162461bcd60e51b815260206004820152602560248201527f4552433732313a207472616e736665722066726f6d20696e636f72726563742060448201526437bbb732b960d91b6064820152608490fd5b6131f5906131de84612f0e565b6001600160a01b0382811693909182168414613177565b83169283156132f4576132738261321087846132cd96614a20565b6132328561322c6132208a612f0e565b6001600160a01b031690565b14613177565b613259613249886000526004602052604060002090565b80546001600160a01b0319169055565b6001600160a01b0316600090815260036020526040902090565b80546000190190556001600160a01b0381166000908152600360205260409020600181540190556132ae856000526002602052604060002090565b80546001600160a01b0319166001600160a01b03909216919091179055565b7fddf252ad1be2c89b69c2b068fc378daa952ba7f163c4a11628f55a4df523b3ef600080a4565b60405162461bcd60e51b8152602060048201526024808201527f4552433732313a207472616e7366657220746f20746865207a65726f206164646044820152637265737360e01b6064820152608490fd5b600082815260046020526040902080546001600160a01b0319166001600160a01b0383161790556001600160a01b038061337e84612f0e565b169116907f8c5be1e5ebec7d5bd14f71427d1e84f3dd0314c0f7b2291e5b200ac8c7c3b925600080a4565b908160209103126104d157516106a3816104bf565b6001600160a01b0391821681529116602082015260408101919091526080606082018190526106a39291019061066d565b506040513d6000823e3d90fd5b3d15613427573d9061340d82611a41565b9161341b6040519384610a28565b82523d6000602084013e565b606090565b92909190823b1561352d5761345f926020926000604051809681958294630a85bd0160e11b9a8b855233600486016133be565b03926001600160a01b03165af1600091816134fd575b506134ef576134826133fc565b805190816134ea5760405162461bcd60e51b815260206004820152603260248201527f4552433732313a207472616e7366657220746f206e6f6e20455243373231526560448201527131b2b4bb32b91034b6b83632b6b2b73a32b960711b6064820152608490fd5b602001fd5b6001600160e01b0319161490565b61351f91925060203d8111613526575b6135178183610a28565b8101906133a9565b9038613475565b503d61350d565b50505050600190565b61353f81612e4b565b82101561356b5760018060a01b0316600052600660205260406000209060005260205260406000205490565b60405162461bcd60e51b815260206004820152602b60248201527f455243373231456e756d657261626c653a206f776e657220696e646578206f7560448201526a74206f6620626f756e647360a81b6064820152608490fd5b156135cb57565b60405162461bcd60e51b815260206004820152601d60248201527f4d657373616765436c69656e743a206e6f7420617574686f72697a65640000006044820152606490fd5b50634e487b7160e01b600052601160045260246000fd5b6001906000198114613637570190565b61363f613610565b0190565b9190811015613654575b60051b0190565b61365c611719565b61364d565b3561ffff811681036104d15790565b90601f811161367e57505050565b600091825260208220906020601f850160051c830194106136ba575b601f0160051c01915b8281106136af57505050565b8181556001016136a3565b909250829061369a565b9092916001600160401b03811161378c575b6136ea816136e484546108cf565b84613670565b6000601f82116001146137245781929394600092613719575b50508160011b916000199060031b1c1916179055565b013590503880613703565b601f1982169461373984600052602060002090565b91805b87811061377457508360019596971061375a575b505050811b019055565b0135600019600384901b60f8161c19169055388080613750565b9092602060018192868601358155019401910161373c565b61379461099f565b6136d6565b908160209103126104d157516106a3816107bb565b5190610a6482611bef565b908160209103126104d157516106a381611bef565b600b80546001600160a01b0319166001600160a01b03928316179055600b546137ff906001600160a01b0316613220565b9061384c81604051809463647846a560e01b825281600460209788935afa908115613a68575b600091613a4b575b501660018060a01b03166001600160601b0360a01b600c541617600c55565b600c54613861906001600160a01b0316613220565b828282166139bb575b5050600b54613881906001600160a01b0316613220565b604051633fc8cef360e01b808252919083908581600481865afa9081156139ae575b600091613991575b50166138b75750505050565b8391613912916040519182528382600481845afa918215613984575b600092613955575b5060405163095ea7b360e01b81526001600160a01b0390911660048201526000196024820152938492839160009183906044820190565b0393165af18015613948575b61392a575b8080610936565b8161394092903d10611f0b57611efc8183610a28565b503880613923565b6139506133ef565b61391e565b613976919250843d861161397d575b61396e8183610a28565b810190613799565b90386138db565b503d613964565b61398c6133ef565b6138d3565b6139a89150863d881161397d5761396e8183610a28565b386138ab565b6139b66133ef565b6138a3565b600b54600092613a0b916139d7906001600160a01b0316613220565b60405163095ea7b360e01b81526001600160a01b039091166004820152600019602482015293849283919082906044820190565b03925af18015613a3e575b613a21575b8261386a565b613a3790833d8511611f0b57611efc8183610a28565b5038613a1b565b613a466133ef565b613a16565b613a629150853d871161397d5761396e8183610a28565b3861382d565b613a706133ef565b613825565b15613a7c57565b60405162461bcd60e51b815260206004820152600f60248201526e151c985b9cd9995c8819985a5b1959608a1b6044820152606490fd5b6000918252600f6020526040909120546001600160a01b03918216911614613ada57600090565b600190565b15613ae657565b60405162461bcd60e51b815260206004820152602d60248201527f41646f7074415065743a2063616c6c6572206973206e6f7420746865206f776e60448201526c195c881bd9881d1a19481b999d609a1b6064820152608490fd5b15613b4857565b60405162461bcd60e51b815260206004820152601d60248201527f41646f7074415065743a2050657420646f6573206e6f742065786973740000006044820152606490fd5b15613b9457565b60405162461bcd60e51b815260206004820152602160248201527f41646f7074415065743a2050657420697320616c72656164792061646f7074656044820152601960fa1b6064820152608490fd5b62093a7f19810191908211613bf457565b610a64613610565b9190613c06612df3565b60125492600093845260209360158552604081209460408220928051926001600160401b038411613d43575b613c4684613c4087546108cf565b87613670565b82601f8511600114613cc35750938360039794613c8b94613c9a9b9a9894613c949892613cb8575b50508160011b91600019908a1b1c19161790555b60018501613d50565b60028301613d50565b01613d50565b613ca5601254613e88565b610a64613cb3601254613627565b601255565b015190503880613c6e565b601f9392919319851690613cdc87600052602060002090565b94905b828210613d2b57505084613c8b94613c9a9b9a9894613c94989460039b9860019510613d13575b505050811b019055613c82565b0151600019838c1b60f8161c19169055388080613d06565b80600186978294978701518155019601940190613cdf565b613d4b61099f565b613c32565b91909182516001600160401b038111613e17575b613d72816136e484546108cf565b602080601f8311600114613dad575081929394600092613da25750508160011b916000199060031b1c1916179055565b015190503880613703565b90601f19831695613dc385600052602060002090565b926000905b888210613dff57505083600195969710613de657505050811b019055565b015160001960f88460031b161c19169055388080613750565b80600185968294968601518155019501930190613dc8565b613e1f61099f565b613d64565b601854600160401b811015613e7b575b6001810180601855811015613e6e575b60186000527fb13d2d76d1f4b7be834882e410b3e3a8afaf69f83600ae24db354391d2378d2e0155565b613e76611719565b613e44565b613e8361099f565b613e34565b601754600160401b811015613edf575b6001810180601755811015613ed2575b60176000527fc624b66cc0138b8fabc209247f72d758e1cf3343756d543badbf24212bed8c150155565b613eda611719565b613ea8565b613ee761099f565b613e98565b15613ef357565b60405162461bcd60e51b815260206004820152601c60248201527f4552433732313a20746f6b656e20616c7265616479206d696e746564000000006044820152606490fd5b6001600160a01b03811690811561400457600083815260026020526040902054613fdc9190613f73906001600160a01b031615155b15613eec565b613f7c84614abd565b613f868482614a85565b600084815260026020526040902054613fa9906001600160a01b03161515613f6d565b6001600160a01b0381166000908152600360205260409020600181540190556132ae846000526002602052604060002090565b60007fddf252ad1be2c89b69c2b068fc378daa952ba7f163c4a11628f55a4df523b3ef8180a4565b606460405162461bcd60e51b815260206004820152602060248201527f4552433732313a206d696e7420746f20746865207a65726f20616464726573736044820152fd5b9895929a9996939061012098959261406c61407a928c6101408091528d0190610909565b908b820360208d0152610909565b9a60408a01526060890152608088015260a087015260c086015260e08501526101008401521515910152565b6106a3939260609260018060a01b031682526020820152816040820152019061066d565b61421d61422293926140de6105a385612f0e565b60066140f4856000526014602052604060002090565b0190614211600761410f876000526014602052604060002090565b01926141e5600861412a896000526014602052604060002090565b015488614141816000526014602052604060002090565b546001614158836000526014602052604060002090565b01546002614170846000526014602052604060002090565b01546003614188856000526014602052604060002090565b01549160046141a1866000526014602052604060002090565b0154936141d560096123bf60056141c28a6000526014602052604060002090565b0154986000526014602052604060002090565b966040519c8d9a60208c01614048565b03926141f9601f1994858101835282610a28565b61420287614225565b604051968793602085016140a6565b03908101845283610a28565b6143b4565b50565b600061423082612f0e565b6001600160a01b0390838183161584146142e55761424e9150614abd565b61425783614bf8565b61426083612f0e565b614274846000526004602052604060002090565b80546001600160a01b03199081169091556001600160a01b0382166000908152600360205260409020841981540190556142b8856000526002602052604060002090565b908154169055167fddf252ad1be2c89b69c2b068fc378daa952ba7f163c4a11628f55a4df523b3ef8280a4565b6142ee91614b31565b61424e565b90604051614300816109df565b606060ff6002839560018060a01b03815416855260405161432881610a9d8160018601610909565b6020860152015461ffff8116604085015260101c161515910152565b909161435b6106a39360408452604084019061066d565b91602081840391015261066d565b908160209103126104d1575190565b906143a960009460809461ffff9398979860018060a01b03168552602085015260a0604085015260a084019061066d565b951660608201520152565b906020906143d46143cf84600052600f602052604060002090565b6142f3565b926143e26060850151151590565b61448b575b600b546143fc906001600160a01b0316613220565b90600061441e6040614414885160018060a01b031690565b97015161ffff1690565b9561443f60405197889687958694633f6b724360e21b865260048601614378565b03925af190811561447e575b600091614456575090565b6106a3915060203d8111614477575b61446f8183610a28565b810190614369565b503d614465565b6144866133ef565b61444b565b906144b383850151916144a5604051938492878401614344565b03601f198101835282610a28565b906143e7565b93926144ef60018060a01b03926144d584600b541633146135c4565b6000968752600f60205283806040892054169116146135c4565b82019360608386031261078757823590614508826107bb565b6020840135936040810135916001600160401b038311610787575061454b61453c610a6497986145ad946145949401611a6b565b602080825183010191016145f5565b979599989461455e949194939293611a34565b9a8b5260208b015260408a01526060890152608088015260a087015260c086015260e08501526101008401521515610120830152565b6145a8856000526014602052604060002090565b614671565b16613f38565b81601f820112156104d15780516145c981611a41565b926145d76040519485610a28565b818452602082840101116104d1576106a3916020808501910161064a565b919091610140818403126104d15780516001600160401b03908181116104d157846146219184016145b3565b9360208301519182116104d1576146399183016145b3565b9160408201519160608101519160808201519160a08101519160c08201519160e0810151916106a361012061010084015193016137ae565b60096146e7610120610a6494805185556020810151600186015560408101516002860155606081015160038601556080810151600486015560a081015160058601556146c460c082015160068701613d50565b6146d560e082015160078701613d50565b61010081015160088601550151151590565b91019060ff801983541691151516179055565b1561470157565b60405162461bcd60e51b815260206004820152602f60248201527f4552433732314d657461646174613a2055524920717565727920666f72206e6f60448201526e3732bc34b9ba32b73a103a37b5b2b760891b6064820152608490fd5b6040519061476b82610a0d565b600582526466616c736560d81b6020830152565b6040519061478c82610a0d565b60048252637472756560e01b6020830152565b9061363f6020928281519485920161064a565b6000929181546147c1816108cf565b9260019180831690811561481957506001146147dd5750505050565b90919293945060005260209081600020906000915b8583106148085750505050019038808080610936565b8054858401529183019181016147f2565b60ff1916845250505081151590910201915038808080610936565b60405190606082018281106001600160401b038211176148a4575b604052604082527f6768696a6b6c6d6e6f707172737475767778797a303132333435363738392b2f6040837f4142434445464748494a4b4c4d4e4f505152535455565758595a61626364656660208201520152565b6148ac61099f565b61484f565b9060028201809211613bf457565b9060208201809211613bf457565b600281901b91906001600160fe1b03811603613bf457565b906148ef82611a41565b6148fc6040519182610a28565b828152809261490d601f1991611a41565b0190602036910137565b8051156149f757614926614834565b61494261493d61493684516148b1565b6003900490565b6148cd565b9161495461494f846148bf565b6148e5565b92835280815182019060208501935b8282106149a55750505060039051068060011461499457600214614985575090565b603d60f81b6000199091015290565b50613d3d60f01b6001199091015290565b9091936004906003809401938451600190603f9082828260121c16880101518553828282600c1c16880101518386015382828260061c1688010151600286015316850101519082015301939190614963565b506106a3613043565b6020906001600160401b038111614a185760051b0190565b61365c61099f565b9091906001600160a01b038082169182614a635750614a3e83614abd565b831680614a51575050610a649150614bf8565b03614a5a575050565b610a6491614a85565b838286168403614a75575b5050614a3e565b614a7e91614b31565b3883614a6e565b604090614a9181612e4b565b9260009160018060a01b0316825260066020528282208483526020528083832055815260076020522055565b60085481600052600960205280604060002055600160401b811015614b24575b6001810180600855811015614b17575b60086000527ff3f7a9fe364faab93b216da50a3214154f22a0a2b415b23a84c8169e8b636ee30155565b614b1f611719565b614aed565b614b2c61099f565b614add565b90614b96614b7b92614b4281612e4b565b600019810193908411614beb575b600094818692835260076020526040832054868103614ba3575b506000526007602052604060002090565b556001600160a01b0316600090815260066020526040902090565b9082526020526040812055565b6001600160a01b0385168085526006602081815260408088208b8952825280882054600094855292825280842085895282528088208390559183526007905290205538614b6a565b614bf3613610565b614b50565b600880546000199290838101818111614d01575b614ca860009384928184526009602052846040852054911015614cf4575b868452614c977ff3f7a9fe364faab93b216da50a3214154f22a0a2b415b23a84c8169e8b636ee2958681015490831015614ce7575b88865280837ff3f7a9fe364faab93b216da50a3214154f22a0a2b415b23a84c8169e8b636ee301556000526009602052604060002090565b556000526009602052604060002090565b558254938415614cd35784019380851015614cc6575b838352015555565b614cce611719565b614cbe565b634e487b7160e01b83526031600452602483fd5b614cef611719565b614c5f565b614cfc611719565b614c2a565b614d09613610565b614c0c565b906020918051821015614d2057010190565b614d28611719565b010190565b8015614dc9576000818181805b614db15750614d48816148e5565b935b614d545750505090565b6000198101908111614da4575b8091600a91614d8e60308484068101809111614d97575b60f81b6001600160f81b031916861a9187614d0e565b53049081614d4a565b614d9f613610565b614d78565b614dac613610565b614d61565b9150614dbe600a91613627565b910480849291614d3a565b50604051614dd681610a0d565b60018152600360fc1b60208201529056fea2646970667358221220c257b1013b43cfabd2a276f54607b3951c1230c6632fd996ffb95176c29561b764736f6c63430008110033",
  "devdoc": {
    "kind": "dev",
    "methods": {
      "approve(address,uint256)": {
        "details": "See {IERC721-approve}."
      },
      "balanceOf(address)": {
        "details": "See {IERC721-balanceOf}."
      },
      "getApproved(uint256)": {
        "details": "See {IERC721-getApproved}."
      },
      "isApprovedForAll(address,address)": {
        "details": "See {IERC721-isApprovedForAll}."
      },
      "name()": {
        "details": "See {IERC721Metadata-name}."
      },
      "owner()": {
        "details": "Returns the address of the current owner."
      },
      "ownerOf(uint256)": {
        "details": "See {IERC721-ownerOf}."
      },
      "renounceOwnership()": {
        "details": "Leaves the contract without owner. It will not be possible to call `onlyOwner` functions. Can only be called by the current owner. NOTE: Renouncing ownership will leave the contract without an owner, thereby disabling any functionality that is only available to the owner."
      },
      "safeTransferFrom(address,address,uint256)": {
        "details": "See {IERC721-safeTransferFrom}."
      },
      "safeTransferFrom(address,address,uint256,bytes)": {
        "details": "See {IERC721-safeTransferFrom}."
      },
      "setApprovalForAll(address,bool)": {
        "details": "See {IERC721-setApprovalForAll}."
      },
      "symbol()": {
        "details": "See {IERC721Metadata-symbol}."
      },
      "tokenByIndex(uint256)": {
        "details": "See {IERC721Enumerable-tokenByIndex}."
      },
      "tokenOfOwnerByIndex(address,uint256)": {
        "details": "See {IERC721Enumerable-tokenOfOwnerByIndex}."
      },
      "tokenURI(uint256)": {
        "details": "See {IERC721Metadata-tokenURI}."
      },
      "totalSupply()": {
        "details": "See {IERC721Enumerable-totalSupply}."
      },
      "transferFrom(address,address,uint256)": {
        "details": "See {IERC721-transferFrom}."
      },
      "transferOwnership(address)": {
        "details": "Transfers ownership of the contract to a new account (`newOwner`). Can only be called by the current owner."
      }
    },
    "version": 1
  },
  "userdoc": {
    "kind": "user",
    "methods": {
      "configureClientExtended(address,uint256[],bytes[],uint16[])": {
        "notice": "OWNER "
      }
    },
    "version": 1
  },
  "storageLayout": {
    "storage": [
      {
        "astId": 138,
        "contract": "contracts/AdoptAPet.sol:AdoptAPet",
        "label": "_name",
        "offset": 0,
        "slot": "0",
        "type": "t_string_storage"
      },
      {
        "astId": 140,
        "contract": "contracts/AdoptAPet.sol:AdoptAPet",
        "label": "_symbol",
        "offset": 0,
        "slot": "1",
        "type": "t_string_storage"
      },
      {
        "astId": 144,
        "contract": "contracts/AdoptAPet.sol:AdoptAPet",
        "label": "_owners",
        "offset": 0,
        "slot": "2",
        "type": "t_mapping(t_uint256,t_address)"
      },
      {
        "astId": 148,
        "contract": "contracts/AdoptAPet.sol:AdoptAPet",
        "label": "_balances",
        "offset": 0,
        "slot": "3",
        "type": "t_mapping(t_address,t_uint256)"
      },
      {
        "astId": 152,
        "contract": "contracts/AdoptAPet.sol:AdoptAPet",
        "label": "_tokenApprovals",
        "offset": 0,
        "slot": "4",
        "type": "t_mapping(t_uint256,t_address)"
      },
      {
        "astId": 158,
        "contract": "contracts/AdoptAPet.sol:AdoptAPet",
        "label": "_operatorApprovals",
        "offset": 0,
        "slot": "5",
        "type": "t_mapping(t_address,t_mapping(t_address,t_bool))"
      },
      {
        "astId": 1188,
        "contract": "contracts/AdoptAPet.sol:AdoptAPet",
        "label": "_ownedTokens",
        "offset": 0,
        "slot": "6",
        "type": "t_mapping(t_address,t_mapping(t_uint256,t_uint256))"
      },
      {
        "astId": 1192,
        "contract": "contracts/AdoptAPet.sol:AdoptAPet",
        "label": "_ownedTokensIndex",
        "offset": 0,
        "slot": "7",
        "type": "t_mapping(t_uint256,t_uint256)"
      },
      {
        "astId": 1195,
        "contract": "contracts/AdoptAPet.sol:AdoptAPet",
        "label": "_allTokens",
        "offset": 0,
        "slot": "8",
        "type": "t_array(t_uint256)dyn_storage"
      },
      {
        "astId": 1199,
        "contract": "contracts/AdoptAPet.sol:AdoptAPet",
        "label": "_allTokensIndex",
        "offset": 0,
        "slot": "9",
        "type": "t_mapping(t_uint256,t_uint256)"
      },
      {
        "astId": 7,
        "contract": "contracts/AdoptAPet.sol:AdoptAPet",
        "label": "_owner",
        "offset": 0,
        "slot": "10",
        "type": "t_address"
      },
      {
        "astId": 3538,
        "contract": "contracts/AdoptAPet.sol:AdoptAPet",
        "label": "MESSAGEv3",
        "offset": 0,
        "slot": "11",
        "type": "t_contract(IMessageV3)3461"
      },
      {
        "astId": 3541,
        "contract": "contracts/AdoptAPet.sol:AdoptAPet",
        "label": "FEE_TOKEN",
        "offset": 0,
        "slot": "12",
        "type": "t_contract(IERC20cl)3265"
      },
      {
        "astId": 3544,
        "contract": "contracts/AdoptAPet.sol:AdoptAPet",
        "label": "FEATURE_GATEWAY",
        "offset": 0,
        "slot": "13",
        "type": "t_contract(IFeatureGateway)3534"
      },
      {
        "astId": 3551,
        "contract": "contracts/AdoptAPet.sol:AdoptAPet",
        "label": "FEATURES",
        "offset": 0,
        "slot": "14",
        "type": "t_mapping(t_uint256,t_mapping(t_uint32,t_struct(ChainData)3560_storage))"
      },
      {
        "astId": 3565,
        "contract": "contracts/AdoptAPet.sol:AdoptAPet",
        "label": "CHAINS",
        "offset": 0,
        "slot": "15",
        "type": "t_mapping(t_uint256,t_struct(ChainData)3560_storage)"
      },
      {
        "astId": 3567,
        "contract": "contracts/AdoptAPet.sol:AdoptAPet",
        "label": "MESSAGE_OWNER",
        "offset": 0,
        "slot": "16",
        "type": "t_address"
      },
      {
        "astId": 4523,
        "contract": "contracts/AdoptAPet.sol:AdoptAPet",
        "label": "nextNftId",
        "offset": 0,
        "slot": "17",
        "type": "t_uint256"
      },
      {
        "astId": 4525,
        "contract": "contracts/AdoptAPet.sol:AdoptAPet",
        "label": "nextShelterId",
        "offset": 0,
        "slot": "18",
        "type": "t_uint256"
      },
      {
        "astId": 4529,
        "contract": "contracts/AdoptAPet.sol:AdoptAPet",
        "label": "messages",
        "offset": 0,
        "slot": "19",
        "type": "t_mapping(t_uint256,t_string_storage)"
      },
      {
        "astId": 4534,
        "contract": "contracts/AdoptAPet.sol:AdoptAPet",
        "label": "pets",
        "offset": 0,
        "slot": "20",
        "type": "t_mapping(t_uint256,t_struct(PetData)4521_storage)"
      },
      {
        "astId": 4539,
        "contract": "contracts/AdoptAPet.sol:AdoptAPet",
        "label": "shelters",
        "offset": 0,
        "slot": "21",
        "type": "t_mapping(t_uint256,t_struct(ShelterData)4500_storage)"
      },
      {
        "astId": 4545,
        "contract": "contracts/AdoptAPet.sol:AdoptAPet",
        "label": "shelterManagers",
        "offset": 0,
        "slot": "22",
        "type": "t_mapping(t_uint256,t_mapping(t_address,t_bool))"
      },
      {
        "astId": 4548,
        "contract": "contracts/AdoptAPet.sol:AdoptAPet",
        "label": "allShelters",
        "offset": 0,
        "slot": "23",
        "type": "t_array(t_uint256)dyn_storage"
      },
      {
        "astId": 4551,
        "contract": "contracts/AdoptAPet.sol:AdoptAPet",
        "label": "availablePets",
        "offset": 0,
        "slot": "24",
        "type": "t_array(t_uint256)dyn_storage"
      }
    ],
    "types": {
      "t_address": {
        "encoding": "inplace",
        "label": "address",
        "numberOfBytes": "20"
      },
      "t_array(t_uint256)dyn_storage": {
        "base": "t_uint256",
        "encoding": "dynamic_array",
        "label": "uint256[]",
        "numberOfBytes": "32"
      },
      "t_bool": {
        "encoding": "inplace",
        "label": "bool",
        "numberOfBytes": "1"
      },
      "t_bytes_storage": {
        "encoding": "bytes",
        "label": "bytes",
        "numberOfBytes": "32"
      },
      "t_contract(IERC20cl)3265": {
        "encoding": "inplace",
        "label": "contract IERC20cl",
        "numberOfBytes": "20"
      },
      "t_contract(IFeatureGateway)3534": {
        "encoding": "inplace",
        "label": "contract IFeatureGateway",
        "numberOfBytes": "20"
      },
      "t_contract(IMessageV3)3461": {
        "encoding": "inplace",
        "label": "contract IMessageV3",
        "numberOfBytes": "20"
      },
      "t_mapping(t_address,t_bool)": {
        "encoding": "mapping",
        "key": "t_address",
        "label": "mapping(address => bool)",
        "numberOfBytes": "32",
        "value": "t_bool"
      },
      "t_mapping(t_address,t_mapping(t_address,t_bool))": {
        "encoding": "mapping",
        "key": "t_address",
        "label": "mapping(address => mapping(address => bool))",
        "numberOfBytes": "32",
        "value": "t_mapping(t_address,t_bool)"
      },
      "t_mapping(t_address,t_mapping(t_uint256,t_uint256))": {
        "encoding": "mapping",
        "key": "t_address",
        "label": "mapping(address => mapping(uint256 => uint256))",
        "numberOfBytes": "32",
        "value": "t_mapping(t_uint256,t_uint256)"
      },
      "t_mapping(t_address,t_uint256)": {
        "encoding": "mapping",
        "key": "t_address",
        "label": "mapping(address => uint256)",
        "numberOfBytes": "32",
        "value": "t_uint256"
      },
      "t_mapping(t_uint256,t_address)": {
        "encoding": "mapping",
        "key": "t_uint256",
        "label": "mapping(uint256 => address)",
        "numberOfBytes": "32",
        "value": "t_address"
      },
      "t_mapping(t_uint256,t_mapping(t_address,t_bool))": {
        "encoding": "mapping",
        "key": "t_uint256",
        "label": "mapping(uint256 => mapping(address => bool))",
        "numberOfBytes": "32",
        "value": "t_mapping(t_address,t_bool)"
      },
      "t_mapping(t_uint256,t_mapping(t_uint32,t_struct(ChainData)3560_storage))": {
        "encoding": "mapping",
        "key": "t_uint256",
        "label": "mapping(uint256 => mapping(uint32 => struct MessageClient.ChainData))",
        "numberOfBytes": "32",
        "value": "t_mapping(t_uint32,t_struct(ChainData)3560_storage)"
      },
      "t_mapping(t_uint256,t_string_storage)": {
        "encoding": "mapping",
        "key": "t_uint256",
        "label": "mapping(uint256 => string)",
        "numberOfBytes": "32",
        "value": "t_string_storage"
      },
      "t_mapping(t_uint256,t_struct(ChainData)3560_storage)": {
        "encoding": "mapping",
        "key": "t_uint256",
        "label": "mapping(uint256 => struct MessageClient.ChainData)",
        "numberOfBytes": "32",
        "value": "t_struct(ChainData)3560_storage"
      },
      "t_mapping(t_uint256,t_struct(PetData)4521_storage)": {
        "encoding": "mapping",
        "key": "t_uint256",
        "label": "mapping(uint256 => struct AdoptAPet.PetData)",
        "numberOfBytes": "32",
        "value": "t_struct(PetData)4521_storage"
      },
      "t_mapping(t_uint256,t_struct(ShelterData)4500_storage)": {
        "encoding": "mapping",
        "key": "t_uint256",
        "label": "mapping(uint256 => struct AdoptAPet.ShelterData)",
        "numberOfBytes": "32",
        "value": "t_struct(ShelterData)4500_storage"
      },
      "t_mapping(t_uint256,t_uint256)": {
        "encoding": "mapping",
        "key": "t_uint256",
        "label": "mapping(uint256 => uint256)",
        "numberOfBytes": "32",
        "value": "t_uint256"
      },
      "t_mapping(t_uint32,t_struct(ChainData)3560_storage)": {
        "encoding": "mapping",
        "key": "t_uint32",
        "label": "mapping(uint32 => struct MessageClient.ChainData)",
        "numberOfBytes": "32",
        "value": "t_struct(ChainData)3560_storage"
      },
      "t_string_storage": {
        "encoding": "bytes",
        "label": "string",
        "numberOfBytes": "32"
      },
      "t_struct(ChainData)3560_storage": {
        "encoding": "inplace",
        "label": "struct MessageClient.ChainData",
        "members": [
          {
            "astId": 3553,
            "contract": "contracts/AdoptAPet.sol:AdoptAPet",
            "label": "endpoint",
            "offset": 0,
            "slot": "0",
            "type": "t_address"
          },
          {
            "astId": 3555,
            "contract": "contracts/AdoptAPet.sol:AdoptAPet",
            "label": "endpointExtended",
            "offset": 0,
            "slot": "1",
            "type": "t_bytes_storage"
          },
          {
            "astId": 3557,
            "contract": "contracts/AdoptAPet.sol:AdoptAPet",
            "label": "confirmations",
            "offset": 0,
            "slot": "2",
            "type": "t_uint16"
          },
          {
            "astId": 3559,
            "contract": "contracts/AdoptAPet.sol:AdoptAPet",
            "label": "extended",
            "offset": 2,
            "slot": "2",
            "type": "t_bool"
          }
        ],
        "numberOfBytes": "96"
      },
      "t_struct(PetData)4521_storage": {
        "encoding": "inplace",
        "label": "struct AdoptAPet.PetData",
        "members": [
          {
            "astId": 4502,
            "contract": "contracts/AdoptAPet.sol:AdoptAPet",
            "label": "lastWalk",
            "offset": 0,
            "slot": "0",
            "type": "t_uint256"
          },
          {
            "astId": 4504,
            "contract": "contracts/AdoptAPet.sol:AdoptAPet",
            "label": "lastFeed",
            "offset": 0,
            "slot": "1",
            "type": "t_uint256"
          },
          {
            "astId": 4506,
            "contract": "contracts/AdoptAPet.sol:AdoptAPet",
            "label": "lastTreat",
            "offset": 0,
            "slot": "2",
            "type": "t_uint256"
          },
          {
            "astId": 4508,
            "contract": "contracts/AdoptAPet.sol:AdoptAPet",
            "label": "totalWalks",
            "offset": 0,
            "slot": "3",
            "type": "t_uint256"
          },
          {
            "astId": 4510,
            "contract": "contracts/AdoptAPet.sol:AdoptAPet",
            "label": "totalFeeds",
            "offset": 0,
            "slot": "4",
            "type": "t_uint256"
          },
          {
            "astId": 4512,
            "contract": "contracts/AdoptAPet.sol:AdoptAPet",
            "label": "totalTreats",
            "offset": 0,
            "slot": "5",
            "type": "t_uint256"
          },
          {
            "astId": 4514,
            "contract": "contracts/AdoptAPet.sol:AdoptAPet",
            "label": "name",
            "offset": 0,
            "slot": "6",
            "type": "t_string_storage"
          },
          {
            "astId": 4516,
            "contract": "contracts/AdoptAPet.sol:AdoptAPet",
            "label": "personality",
            "offset": 0,
            "slot": "7",
            "type": "t_string_storage"
          },
          {
            "astId": 4518,
            "contract": "contracts/AdoptAPet.sol:AdoptAPet",
            "label": "shelterId",
            "offset": 0,
            "slot": "8",
            "type": "t_uint256"
          },
          {
            "astId": 4520,
            "contract": "contracts/AdoptAPet.sol:AdoptAPet",
            "label": "adopted",
            "offset": 0,
            "slot": "9",
            "type": "t_bool"
          }
        ],
        "numberOfBytes": "320"
      },
      "t_struct(ShelterData)4500_storage": {
        "encoding": "inplace",
        "label": "struct AdoptAPet.ShelterData",
        "members": [
          {
            "astId": 4493,
            "contract": "contracts/AdoptAPet.sol:AdoptAPet",
            "label": "name",
            "offset": 0,
            "slot": "0",
            "type": "t_string_storage"
          },
          {
            "astId": 4495,
            "contract": "contracts/AdoptAPet.sol:AdoptAPet",
            "label": "location",
            "offset": 0,
            "slot": "1",
            "type": "t_string_storage"
          },
          {
            "astId": 4497,
            "contract": "contracts/AdoptAPet.sol:AdoptAPet",
            "label": "website",
            "offset": 0,
            "slot": "2",
            "type": "t_string_storage"
          },
          {
            "astId": 4499,
            "contract": "contracts/AdoptAPet.sol:AdoptAPet",
            "label": "email",
            "offset": 0,
            "slot": "3",
            "type": "t_string_storage"
          }
        ],
        "numberOfBytes": "128"
      },
      "t_uint16": {
        "encoding": "inplace",
        "label": "uint16",
        "numberOfBytes": "2"
      },
      "t_uint256": {
        "encoding": "inplace",
        "label": "uint256",
        "numberOfBytes": "32"
      },
      "t_uint32": {
        "encoding": "inplace",
        "label": "uint32",
        "numberOfBytes": "4"
      }
    }
  }
}