{
  "address": "0xc15eA61cc257D5fe6b88E62Ec7DEF9203A152821",
  "abi": [
    {
      "inputs": [],
      "stateMutability": "nonpayable",
      "type": "constructor"
    },
    {
      "anonymous": false,
      "inputs": [
        {
          "indexed": true,
          "internalType": "address",
          "name": "owner",
          "type": "address"
        },
        {
          "indexed": true,
          "internalType": "address",
          "name": "approved",
          "type": "address"
        },
        {
          "indexed": true,
          "internalType": "uint256",
          "name": "tokenId",
          "type": "uint256"
        }
      ],
      "name": "Approval",
      "type": "event"
    },
    {
      "anonymous": false,
      "inputs": [
        {
          "indexed": true,
          "internalType": "address",
          "name": "owner",
          "type": "address"
        },
        {
          "indexed": true,
          "internalType": "address",
          "name": "operator",
          "type": "address"
        },
        {
          "indexed": false,
          "internalType": "bool",
          "name": "approved",
          "type": "bool"
        }
      ],
      "name": "ApprovalForAll",
      "type": "event"
    },
    {
      "anonymous": false,
      "inputs": [
        {
          "indexed": false,
          "internalType": "address",
          "name": "previousOwner",
          "type": "address"
        },
        {
          "indexed": false,
          "internalType": "address",
          "name": "newOwner",
          "type": "address"
        }
      ],
      "name": "MessageOwnershipTransferred",
      "type": "event"
    },
    {
      "anonymous": false,
      "inputs": [
        {
          "indexed": false,
          "internalType": "uint256",
          "name": "_nftId",
          "type": "uint256"
        }
      ],
      "name": "MetadataUpdate",
      "type": "event"
    },
    {
      "anonymous": false,
      "inputs": [
        {
          "indexed": true,
          "internalType": "address",
          "name": "previousOwner",
          "type": "address"
        },
        {
          "indexed": true,
          "internalType": "address",
          "name": "newOwner",
          "type": "address"
        }
      ],
      "name": "OwnershipTransferred",
      "type": "event"
    },
    {
      "anonymous": false,
      "inputs": [
        {
          "indexed": false,
          "internalType": "address",
          "name": "owner",
          "type": "address"
        },
        {
          "indexed": false,
          "internalType": "address",
          "name": "token",
          "type": "address"
        },
        {
          "indexed": false,
          "internalType": "uint256",
          "name": "amount",
          "type": "uint256"
        }
      ],
      "name": "RecoverToken",
      "type": "event"
    },
    {
      "anonymous": false,
      "inputs": [
        {
          "indexed": false,
          "internalType": "uint256",
          "name": "txId",
          "type": "uint256"
        },
        {
          "indexed": false,
          "internalType": "uint256",
          "name": "destinationChainId",
          "type": "uint256"
        },
        {
          "indexed": false,
          "internalType": "uint32",
          "name": "featureId",
          "type": "uint32"
        },
        {
          "indexed": false,
          "internalType": "bytes",
          "name": "featureData",
          "type": "bytes"
        }
      ],
      "name": "SendMessageWithFeature",
      "type": "event"
    },
    {
      "anonymous": false,
      "inputs": [
        {
          "indexed": false,
          "internalType": "address",
          "name": "owner",
          "type": "address"
        },
        {
          "indexed": false,
          "internalType": "address",
          "name": "exsig",
          "type": "address"
        }
      ],
      "name": "SetExsig",
      "type": "event"
    },
    {
      "anonymous": false,
      "inputs": [
        {
          "indexed": false,
          "internalType": "address",
          "name": "owner",
          "type": "address"
        },
        {
          "indexed": false,
          "internalType": "uint256",
          "name": "maxfee",
          "type": "uint256"
        }
      ],
      "name": "SetMaxfee",
      "type": "event"
    },
    {
      "anonymous": false,
      "inputs": [
        {
          "indexed": false,
          "internalType": "address",
          "name": "owner",
          "type": "address"
        },
        {
          "indexed": false,
          "internalType": "uint256",
          "name": "maxGas",
          "type": "uint256"
        }
      ],
      "name": "SetMaxgas",
      "type": "event"
    },
    {
      "anonymous": false,
      "inputs": [
        {
          "indexed": true,
          "internalType": "address",
          "name": "from",
          "type": "address"
        },
        {
          "indexed": true,
          "internalType": "address",
          "name": "to",
          "type": "address"
        },
        {
          "indexed": true,
          "internalType": "uint256",
          "name": "tokenId",
          "type": "uint256"
        }
      ],
      "name": "Transfer",
      "type": "event"
    },
    {
      "stateMutability": "payable",
      "type": "fallback"
    },
    {
      "inputs": [
        {
          "internalType": "uint256",
          "name": "",
          "type": "uint256"
        }
      ],
      "name": "CHAINS",
      "outputs": [
        {
          "internalType": "address",
          "name": "endpoint",
          "type": "address"
        },
        {
          "internalType": "bytes",
          "name": "endpointExtended",
          "type": "bytes"
        },
        {
          "internalType": "uint16",
          "name": "confirmations",
          "type": "uint16"
        },
        {
          "internalType": "bool",
          "name": "extended",
          "type": "bool"
        }
      ],
      "stateMutability": "view",
      "type": "function"
    },
    {
      "inputs": [
        {
          "internalType": "uint256",
          "name": "",
          "type": "uint256"
        },
        {
          "internalType": "uint32",
          "name": "",
          "type": "uint32"
        }
      ],
      "name": "FEATURES",
      "outputs": [
        {
          "internalType": "address",
          "name": "endpoint",
          "type": "address"
        },
        {
          "internalType": "bytes",
          "name": "endpointExtended",
          "type": "bytes"
        },
        {
          "internalType": "uint16",
          "name": "confirmations",
          "type": "uint16"
        },
        {
          "internalType": "bool",
          "name": "extended",
          "type": "bool"
        }
      ],
      "stateMutability": "view",
      "type": "function"
    },
    {
      "inputs": [],
      "name": "FEATURE_GATEWAY",
      "outputs": [
        {
          "internalType": "contract IFeatureGateway",
          "name": "",
          "type": "address"
        }
      ],
      "stateMutability": "view",
      "type": "function"
    },
    {
      "inputs": [],
      "name": "FEE_TOKEN",
      "outputs": [
        {
          "internalType": "contract IERC20cl",
          "name": "",
          "type": "address"
        }
      ],
      "stateMutability": "view",
      "type": "function"
    },
    {
      "inputs": [],
      "name": "MESSAGE_OWNER",
      "outputs": [
        {
          "internalType": "address",
          "name": "",
          "type": "address"
        }
      ],
      "stateMutability": "view",
      "type": "function"
    },
    {
      "inputs": [],
      "name": "MESSAGEv3",
      "outputs": [
        {
          "internalType": "contract IMessageV3",
          "name": "",
          "type": "address"
        }
      ],
      "stateMutability": "view",
      "type": "function"
    },
    {
      "inputs": [
        {
          "internalType": "uint256",
          "name": "_shelterId",
          "type": "uint256"
        },
        {
          "internalType": "string",
          "name": "_name",
          "type": "string"
        },
        {
          "internalType": "string",
          "name": "_personality",
          "type": "string"
        }
      ],
      "name": "addPet",
      "outputs": [],
      "stateMutability": "nonpayable",
      "type": "function"
    },
    {
      "inputs": [
        {
          "internalType": "string",
          "name": "_name",
          "type": "string"
        },
        {
          "internalType": "string",
          "name": "_location",
          "type": "string"
        },
        {
          "internalType": "string",
          "name": "_website",
          "type": "string"
        },
        {
          "internalType": "string",
          "name": "_email",
          "type": "string"
        }
      ],
      "name": "addShelter",
      "outputs": [],
      "stateMutability": "nonpayable",
      "type": "function"
    },
    {
      "inputs": [
        {
          "internalType": "uint256",
          "name": "_shelterId",
          "type": "uint256"
        },
        {
          "internalType": "address",
          "name": "_manager",
          "type": "address"
        }
      ],
      "name": "addShelterManager",
      "outputs": [],
      "stateMutability": "nonpayable",
      "type": "function"
    },
    {
      "inputs": [
        {
          "internalType": "uint256",
          "name": "_nftId",
          "type": "uint256"
        }
      ],
      "name": "adoptPet",
      "outputs": [],
      "stateMutability": "nonpayable",
      "type": "function"
    },
    {
      "inputs": [
        {
          "internalType": "uint256",
          "name": "",
          "type": "uint256"
        }
      ],
      "name": "allShelters",
      "outputs": [
        {
          "internalType": "uint256",
          "name": "",
          "type": "uint256"
        }
      ],
      "stateMutability": "view",
      "type": "function"
    },
    {
      "inputs": [
        {
          "internalType": "address",
          "name": "to",
          "type": "address"
        },
        {
          "internalType": "uint256",
          "name": "tokenId",
          "type": "uint256"
        }
      ],
      "name": "approve",
      "outputs": [],
      "stateMutability": "nonpayable",
      "type": "function"
    },
    {
      "inputs": [
        {
          "internalType": "uint256",
          "name": "",
          "type": "uint256"
        }
      ],
      "name": "availablePets",
      "outputs": [
        {
          "internalType": "uint256",
          "name": "",
          "type": "uint256"
        }
      ],
      "stateMutability": "view",
      "type": "function"
    },
    {
      "inputs": [
        {
          "internalType": "address",
          "name": "owner",
          "type": "address"
        }
      ],
      "name": "balanceOf",
      "outputs": [
        {
          "internalType": "uint256",
          "name": "",
          "type": "uint256"
        }
      ],
      "stateMutability": "view",
      "type": "function"
    },
    {
      "inputs": [
        {
          "internalType": "uint256",
          "name": "_destChainId",
          "type": "uint256"
        },
        {
          "internalType": "address",
          "name": "_recipient",
          "type": "address"
        },
        {
          "internalType": "uint256",
          "name": "_nftId",
          "type": "uint256"
        }
      ],
      "name": "bridge",
      "outputs": [],
      "stateMutability": "nonpayable",
      "type": "function"
    },
    {
      "inputs": [
        {
          "internalType": "address",
          "name": "_messageV3",
          "type": "address"
        },
        {
          "internalType": "uint256[]",
          "name": "_chains",
          "type": "uint256[]"
        },
        {
          "internalType": "address[]",
          "name": "_endpoints",
          "type": "address[]"
        },
        {
          "internalType": "uint16[]",
          "name": "_confirmations",
          "type": "uint16[]"
        }
      ],
      "name": "configureClient",
      "outputs": [],
      "stateMutability": "nonpayable",
      "type": "function"
    },
    {
      "inputs": [
        {
          "internalType": "address",
          "name": "_messageV3",
          "type": "address"
        },
        {
          "internalType": "uint256[]",
          "name": "_chains",
          "type": "uint256[]"
        },
        {
          "internalType": "bytes[]",
          "name": "_endpoints",
          "type": "bytes[]"
        },
        {
          "internalType": "uint16[]",
          "name": "_confirmations",
          "type": "uint16[]"
        }
      ],
      "name": "configureClientExtended",
      "outputs": [],
      "stateMutability": "nonpayable",
      "type": "function"
    },
    {
      "inputs": [
        {
          "internalType": "address",
          "name": "_featureGateway",
          "type": "address"
        }
      ],
      "name": "configureFeatureGateway",
      "outputs": [],
      "stateMutability": "nonpayable",
      "type": "function"
    },
    {
      "inputs": [
        {
          "internalType": "uint256",
          "name": "_nftId",
          "type": "uint256"
        }
      ],
      "name": "feed",
      "outputs": [],
      "stateMutability": "nonpayable",
      "type": "function"
    },
    {
      "inputs": [],
      "name": "getAllShelters",
      "outputs": [
        {
          "internalType": "uint256[]",
          "name": "",
          "type": "uint256[]"
        }
      ],
      "stateMutability": "view",
      "type": "function"
    },
    {
      "inputs": [
        {
          "internalType": "uint256",
          "name": "tokenId",
          "type": "uint256"
        }
      ],
      "name": "getApproved",
      "outputs": [
        {
          "internalType": "address",
          "name": "",
          "type": "address"
        }
      ],
      "stateMutability": "view",
      "type": "function"
    },
    {
      "inputs": [],
      "name": "getAvailablePets",
      "outputs": [
        {
          "internalType": "uint256[]",
          "name": "",
          "type": "uint256[]"
        }
      ],
      "stateMutability": "view",
      "type": "function"
    },
    {
      "inputs": [
        {
          "internalType": "uint256",
          "name": "_nftId",
          "type": "uint256"
        }
      ],
      "name": "getLastMessage",
      "outputs": [
        {
          "internalType": "string",
          "name": "",
          "type": "string"
        }
      ],
      "stateMutability": "view",
      "type": "function"
    },
    {
      "inputs": [
        {
          "internalType": "uint256",
          "name": "_nftId",
          "type": "uint256"
        }
      ],
      "name": "getPet",
      "outputs": [
        {
          "components": [
            {
              "internalType": "uint256",
              "name": "lastWalk",
              "type": "uint256"
            },
            {
              "internalType": "uint256",
              "name": "lastFeed",
              "type": "uint256"
            },
            {
              "internalType": "uint256",
              "name": "lastTreat",
              "type": "uint256"
            },
            {
              "internalType": "uint256",
              "name": "totalWalks",
              "type": "uint256"
            },
            {
              "internalType": "uint256",
              "name": "totalFeeds",
              "type": "uint256"
            },
            {
              "internalType": "uint256",
              "name": "totalTreats",
              "type": "uint256"
            },
            {
              "internalType": "string",
              "name": "name",
              "type": "string"
            },
            {
              "internalType": "string",
              "name": "personality",
              "type": "string"
            },
            {
              "internalType": "uint256",
              "name": "shelterId",
              "type": "uint256"
            },
            {
              "internalType": "bool",
              "name": "adopted",
              "type": "bool"
            }
          ],
          "internalType": "struct AdoptAPet.PetData",
          "name": "",
          "type": "tuple"
        }
      ],
      "stateMutability": "view",
      "type": "function"
    },
    {
      "inputs": [
        {
          "internalType": "uint256",
          "name": "_shelterId",
          "type": "uint256"
        }
      ],
      "name": "getShelter",
      "outputs": [
        {
          "components": [
            {
              "internalType": "string",
              "name": "name",
              "type": "string"
            },
            {
              "internalType": "string",
              "name": "location",
              "type": "string"
            },
            {
              "internalType": "string",
              "name": "website",
              "type": "string"
            },
            {
              "internalType": "string",
              "name": "email",
              "type": "string"
            }
          ],
          "internalType": "struct AdoptAPet.ShelterData",
          "name": "",
          "type": "tuple"
        }
      ],
      "stateMutability": "view",
      "type": "function"
    },
    {
      "inputs": [
        {
          "internalType": "address",
          "name": "owner",
          "type": "address"
        },
        {
          "internalType": "address",
          "name": "operator",
          "type": "address"
        }
      ],
      "name": "isApprovedForAll",
      "outputs": [
        {
          "internalType": "bool",
          "name": "",
          "type": "bool"
        }
      ],
      "stateMutability": "view",
      "type": "function"
    },
    {
      "inputs": [
        {
          "internalType": "address",
          "name": "_sender",
          "type": "address"
        },
        {
          "internalType": "uint256",
          "name": "_sourceChainId",
          "type": "uint256"
        }
      ],
      "name": "isAuthorized",
      "outputs": [
        {
          "internalType": "bool",
          "name": "",
          "type": "bool"
        }
      ],
      "stateMutability": "view",
      "type": "function"
    },
    {
      "inputs": [
        {
          "internalType": "address",
          "name": "_sender",
          "type": "address"
        },
        {
          "internalType": "uint256",
          "name": "_sourceChainId",
          "type": "uint256"
        }
      ],
      "name": "isSelf",
      "outputs": [
        {
          "internalType": "bool",
          "name": "",
          "type": "bool"
        }
      ],
      "stateMutability": "view",
      "type": "function"
    },
    {
      "inputs": [
        {
          "internalType": "uint256",
          "name": "",
          "type": "uint256"
        },
        {
          "internalType": "uint256",
          "name": "_sourceChainId",
          "type": "uint256"
        },
        {
          "internalType": "address",
          "name": "_sender",
          "type": "address"
        },
        {
          "internalType": "address",
          "name": "",
          "type": "address"
        },
        {
          "internalType": "uint256",
          "name": "",
          "type": "uint256"
        },
        {
          "internalType": "bytes",
          "name": "_data",
          "type": "bytes"
        }
      ],
      "name": "messageProcess",
      "outputs": [],
      "stateMutability": "nonpayable",
      "type": "function"
    },
    {
      "inputs": [
        {
          "internalType": "uint256",
          "name": "",
          "type": "uint256"
        }
      ],
      "name": "messages",
      "outputs": [
        {
          "internalType": "string",
          "name": "",
          "type": "string"
        }
      ],
      "stateMutability": "view",
      "type": "function"
    },
    {
      "inputs": [],
      "name": "name",
      "outputs": [
        {
          "internalType": "string",
          "name": "",
          "type": "string"
        }
      ],
      "stateMutability": "view",
      "type": "function"
    },
    {
      "inputs": [],
      "name": "nextNftId",
      "outputs": [
        {
          "internalType": "uint256",
          "name": "",
          "type": "uint256"
        }
      ],
      "stateMutability": "view",
      "type": "function"
    },
    {
      "inputs": [],
      "name": "nextShelterId",
      "outputs": [
        {
          "internalType": "uint256",
          "name": "",
          "type": "uint256"
        }
      ],
      "stateMutability": "view",
      "type": "function"
    },
    {
      "inputs": [],
      "name": "owner",
      "outputs": [
        {
          "internalType": "address",
          "name": "",
          "type": "address"
        }
      ],
      "stateMutability": "view",
      "type": "function"
    },
    {
      "inputs": [
        {
          "internalType": "uint256",
          "name": "tokenId",
          "type": "uint256"
        }
      ],
      "name": "ownerOf",
      "outputs": [
        {
          "internalType": "address",
          "name": "",
          "type": "address"
        }
      ],
      "stateMutability": "view",
      "type": "function"
    },
    {
      "inputs": [
        {
          "internalType": "uint256",
          "name": "",
          "type": "uint256"
        }
      ],
      "name": "pets",
      "outputs": [
        {
          "internalType": "uint256",
          "name": "lastWalk",
          "type": "uint256"
        },
        {
          "internalType": "uint256",
          "name": "lastFeed",
          "type": "uint256"
        },
        {
          "internalType": "uint256",
          "name": "lastTreat",
          "type": "uint256"
        },
        {
          "internalType": "uint256",
          "name": "totalWalks",
          "type": "uint256"
        },
        {
          "internalType": "uint256",
          "name": "totalFeeds",
          "type": "uint256"
        },
        {
          "internalType": "uint256",
          "name": "totalTreats",
          "type": "uint256"
        },
        {
          "internalType": "string",
          "name": "name",
          "type": "string"
        },
        {
          "internalType": "string",
          "name": "personality",
          "type": "string"
        },
        {
          "internalType": "uint256",
          "name": "shelterId",
          "type": "uint256"
        },
        {
          "internalType": "bool",
          "name": "adopted",
          "type": "bool"
        }
      ],
      "stateMutability": "view",
      "type": "function"
    },
    {
      "inputs": [
        {
          "internalType": "address",
          "name": "_token",
          "type": "address"
        },
        {
          "internalType": "uint256",
          "name": "_amount",
          "type": "uint256"
        }
      ],
      "name": "recoverToken",
      "outputs": [],
      "stateMutability": "nonpayable",
      "type": "function"
    },
    {
      "inputs": [
        {
          "internalType": "uint256",
          "name": "_shelterId",
          "type": "uint256"
        },
        {
          "internalType": "address",
          "name": "_manager",
          "type": "address"
        }
      ],
      "name": "removeShelterManager",
      "outputs": [],
      "stateMutability": "nonpayable",
      "type": "function"
    },
    {
      "inputs": [],
      "name": "renounceOwnership",
      "outputs": [],
      "stateMutability": "nonpayable",
      "type": "function"
    },
    {
      "inputs": [
        {
          "internalType": "uint256",
          "name": "_nftId",
          "type": "uint256"
        }
      ],
      "name": "rescue",
      "outputs": [],
      "stateMutability": "nonpayable",
      "type": "function"
    },
    {
      "inputs": [
        {
          "internalType": "address",
          "name": "from",
          "type": "address"
        },
        {
          "internalType": "address",
          "name": "to",
          "type": "address"
        },
        {
          "internalType": "uint256",
          "name": "tokenId",
          "type": "uint256"
        }
      ],
      "name": "safeTransferFrom",
      "outputs": [],
      "stateMutability": "nonpayable",
      "type": "function"
    },
    {
      "inputs": [
        {
          "internalType": "address",
          "name": "from",
          "type": "address"
        },
        {
          "internalType": "address",
          "name": "to",
          "type": "address"
        },
        {
          "internalType": "uint256",
          "name": "tokenId",
          "type": "uint256"
        },
        {
          "internalType": "bytes",
          "name": "data",
          "type": "bytes"
        }
      ],
      "name": "safeTransferFrom",
      "outputs": [],
      "stateMutability": "nonpayable",
      "type": "function"
    },
    {
      "inputs": [
        {
          "internalType": "address",
          "name": "operator",
          "type": "address"
        },
        {
          "internalType": "bool",
          "name": "approved",
          "type": "bool"
        }
      ],
      "name": "setApprovalForAll",
      "outputs": [],
      "stateMutability": "nonpayable",
      "type": "function"
    },
    {
      "inputs": [
        {
          "internalType": "address",
          "name": "_signer",
          "type": "address"
        }
      ],
      "name": "setExsig",
      "outputs": [],
      "stateMutability": "nonpayable",
      "type": "function"
    },
    {
      "inputs": [
        {
          "internalType": "uint256",
          "name": "_maxFee",
          "type": "uint256"
        }
      ],
      "name": "setMaxfee",
      "outputs": [],
      "stateMutability": "nonpayable",
      "type": "function"
    },
    {
      "inputs": [
        {
          "internalType": "uint256",
          "name": "_maxGas",
          "type": "uint256"
        }
      ],
      "name": "setMaxgas",
      "outputs": [],
      "stateMutability": "nonpayable",
      "type": "function"
    },
    {
      "inputs": [
        {
          "internalType": "uint256",
          "name": "",
          "type": "uint256"
        },
        {
          "internalType": "address",
          "name": "",
          "type": "address"
        }
      ],
      "name": "shelterManagers",
      "outputs": [
        {
          "internalType": "bool",
          "name": "",
          "type": "bool"
        }
      ],
      "stateMutability": "view",
      "type": "function"
    },
    {
      "inputs": [
        {
          "internalType": "uint256",
          "name": "",
          "type": "uint256"
        }
      ],
      "name": "shelters",
      "outputs": [
        {
          "internalType": "string",
          "name": "name",
          "type": "string"
        },
        {
          "internalType": "string",
          "name": "location",
          "type": "string"
        },
        {
          "internalType": "string",
          "name": "website",
          "type": "string"
        },
        {
          "internalType": "string",
          "name": "email",
          "type": "string"
        }
      ],
      "stateMutability": "view",
      "type": "function"
    },
    {
      "inputs": [
        {
          "internalType": "bytes4",
          "name": "interfaceId",
          "type": "bytes4"
        }
      ],
      "name": "supportsInterface",
      "outputs": [
        {
          "internalType": "bool",
          "name": "",
          "type": "bool"
        }
      ],
      "stateMutability": "view",
      "type": "function"
    },
    {
      "inputs": [],
      "name": "symbol",
      "outputs": [
        {
          "internalType": "string",
          "name": "",
          "type": "string"
        }
      ],
      "stateMutability": "view",
      "type": "function"
    },
    {
      "inputs": [
        {
          "internalType": "uint256",
          "name": "tokenId",
          "type": "uint256"
        }
      ],
      "name": "tokenURI",
      "outputs": [
        {
          "internalType": "string",
          "name": "",
          "type": "string"
        }
      ],
      "stateMutability": "view",
      "type": "function"
    },
    {
      "inputs": [
        {
          "internalType": "address",
          "name": "from",
          "type": "address"
        },
        {
          "internalType": "address",
          "name": "to",
          "type": "address"
        },
        {
          "internalType": "uint256",
          "name": "tokenId",
          "type": "uint256"
        }
      ],
      "name": "transferFrom",
      "outputs": [],
      "stateMutability": "nonpayable",
      "type": "function"
    },
    {
      "inputs": [
        {
          "internalType": "address",
          "name": "_newMessageOwner",
          "type": "address"
        }
      ],
      "name": "transferMessageOwnership",
      "outputs": [],
      "stateMutability": "nonpayable",
      "type": "function"
    },
    {
      "inputs": [
        {
          "internalType": "address",
          "name": "newOwner",
          "type": "address"
        }
      ],
      "name": "transferOwnership",
      "outputs": [],
      "stateMutability": "nonpayable",
      "type": "function"
    },
    {
      "inputs": [
        {
          "internalType": "uint256",
          "name": "_nftId",
          "type": "uint256"
        }
      ],
      "name": "treat",
      "outputs": [],
      "stateMutability": "nonpayable",
      "type": "function"
    },
    {
      "inputs": [
        {
          "internalType": "uint256",
          "name": "_nftId",
          "type": "uint256"
        }
      ],
      "name": "walk",
      "outputs": [],
      "stateMutability": "nonpayable",
      "type": "function"
    },
    {
      "stateMutability": "payable",
      "type": "receive"
    }
  ],
  "transactionHash": "0x5c196eda0d3f1ed75a9c1402c42eb66c89b7b5974a01cf2759367804fa7d3f63",
  "args": [],
  "numDeployments": 1,
  "solcInputHash": "38aad93d589fe346c5e0c3d6b8003e18",
  "bytecode": "0x60803462000393576001600160401b0390604090808201838111828210176200037d578252600b81526020906a10591bdc1d08104814195d60aa1b82820152825193838501858110828211176200037d578452600385526204141560ec1b8386015281518181116200037d576000938454916001948584811c9416801562000372575b838510146200035e578190601f948581116200030b575b508390858311600114620002a75788926200029b575b5050600019600383901b1c191690851b1785555b8651928311620002875783548481811c911680156200027c575b82821014620002685782811162000220575b5080918311600114620001b9575083949582939492620001ad575b5050600019600383901b1c191690821b1790555b60068054336001600160a01b03198083168217909355935193906001600160a01b03167f8be0079c531659141344cd1fd0a4f28419497f9722a3daafe3b4186f6b6457e08480a33390600c541617600c556127109081460291468304144615171562000199575080600d55600e556148199081620003998239f35b634e487b7160e01b81526011600452602490fd5b0151905038806200010a565b90601f198316968486528286209286905b89821062000208575050838596979810620001ee575b505050811b0190556200011e565b015160001960f88460031b161c19169055388080620001e0565b808785968294968601518155019501930190620001ca565b8486528186208380860160051c8201928487106200025e575b0160051c019085905b82811062000252575050620000ef565b87815501859062000242565b9250819262000239565b634e487b7160e01b86526022600452602486fd5b90607f1690620000dd565b634e487b7160e01b85526041600452602485fd5b015190503880620000af565b8880528489208894509190601f1984168a5b87828210620002f45750508411620002da575b505050811b018555620000c3565b015160001960f88460031b161c19169055388080620002cc565b8385015186558b97909501949384019301620002b9565b9091508780528388208580850160051c82019286861062000354575b918991869594930160051c01915b8281106200034557505062000099565b8a815585945089910162000335565b9250819262000327565b634e487b7160e01b87526022600452602487fd5b93607f169362000082565b634e487b7160e01b600052604160045260246000fd5b600080fdfe60806040526004361015610018575b361561001657005b005b60003560e01c806301ffc9a71461046657806302b3b3681461045d5780630581f59d1461045457806306fdde031461044b578063081812fc14610442578063095ea7b3146104395780630d029802146104305780630d80fefd1461036157806319b815771461042757806320bfe3421461041557806323b872dd1461041e5780632972b0f0146104155780632ee02d7c1461040c5780632f820a5f1461040357806342842e0e146103fa5780634f154c54146103f1578063559b2f65146103e8578063585c7edd146103df57806359d55194146103d65780635b77a6a6146103cd5780635f46e740146103c45780636352211e146103bb5780636ac053ad146103b25780637044cd7e146103a957806370a08231146103a0578063715018a61461039757806373717b081461038e578063788063f014610385578063794b46431461037c5780637a29fa66146103735780637b84044d1461036a578063823a1db114610361578063853c75d8146103585780638da5cb5b1461034f57806392ae12fd1461034657806393f1da4f1461033d57806395d89b41146103345780639877f2f31461032b5780639e0d0ef814610322578063a22cb46514610319578063a2db916914610310578063b29a814014610307578063b479a961146102fe578063b7f494a4146102f5578063b88d4fde146102ec578063bb0b9830146102e3578063c60853f6146102da578063c87b56dd146102d1578063cfb869bf146102c8578063e47ad74d146102bf578063e985e9c5146102b6578063f2fde38b146102ad578063f52a9198146102a4578063f59dfdfb1461029b578063f7194138146102925763f9bf93220361000e5761028d612bde565b61000e565b5061028d612b8d565b5061028d612b29565b5061028d612ac5565b5061028d6129fc565b5061028d61299f565b5061028d6128bd565b5061028d61282a565b5061028d612119565b5061028d61203c565b5061028d612012565b5061028d611fbb565b5061028d611e76565b5061028d611d8e565b5061028d611c75565b5061028d611bbf565b5061028d611a68565b5061028d611921565b5061028d611875565b5061028d6117cf565b5061028d6117b0565b5061028d611747565b5061028d6116e6565b5061028d6116bc565b5061028d6109fc565b5061028d611662565b5061028d611610565b5061028d6115f1565b5061028d61159f565b5061028d61155e565b5061028d6114ff565b5061028d611459565b5061028d611393565b5061028d611261565b5061028d611242565b5061028d6111d2565b5061028d61117b565b5061028d61107c565b5061028d610f6d565b5061028d610edb565b5061028d610e53565b5061028d610dd1565b5061028d610d2d565b5061028d610c2b565b5061028d610afe565b5061028d610b60565b5061028d610a4e565b5061028d61083b565b5061028d610762565b5061028d610720565b5061028d61063c565b5061028d610574565b5061028d6104f5565b5061028d610486565b6001600160e01b031981160361048157565b600080fd5b50346104815760203660031901126104815760206004356104a68161046f565b63ffffffff60e01b166380ac58cd60e01b81149081156104e4575b81156104d3575b506040519015158152f35b6301ffc9a760e01b149050386104c8565b635b5e139f60e01b811491506104c1565b5034610481576020366003190112610481577ff8e1a15aba9398e019f0b49df1a4fde98ee17ae345cb5f6b5e2c27f5033e8ce7602060043561054961053982612d06565b6001600160a01b0316331461383e565b806000526010825260056040600020426002820155016105698154613386565b9055604051908152a1005b5034610481576020366003190112610481577ff8e1a15aba9398e019f0b49df1a4fde98ee17ae345cb5f6b5e2c27f5033e8ce760206004356105b861053982612d06565b806000526010825260036040600020428155016105698154613386565b600091031261048157565b60005b8381106105f35750506000910152565b81810151838201526020016105e3565b9060209161061c815180928185528580860191016105e0565b601f01601f1916010190565b906020610639928181520190610603565b90565b50346104815760008060031936011261071d576040519080805461065f81610865565b808552916001918083169081156106f35750600114610699575b61069585610689818703826109be565b60405191829182610628565b0390f35b80809450527f290decd9548b62a8d60345a988386fc84ba6bc95484008f6362f93160ef3e5635b8284106106db57505050810160200161068982610695610679565b805460208587018101919091529093019281016106c0565b8695506106959693506020925061068994915060ff191682840152151560051b8201019293610679565b80fd5b503461048157602036600319011261048157602061073f600435612d9b565b6040516001600160a01b039091168152f35b6001600160a01b0381160361048157565b50346104815760403660031901126104815760043561078081610751565b60243561078c81612d06565b916001600160a01b0380841690821681146107ec57610016936107b99133149081156107be575b50612d29565b613132565b6001600160a01b0316600090815260056020908152604080832033845290915290205460ff169050386107b3565b60405162461bcd60e51b815260206004820152602160248201527f4552433732313a20617070726f76616c20746f2063757272656e74206f776e656044820152603960f91b6064820152608490fd5b5034610481576000366003190112610481576007546040516001600160a01b039091168152602090f35b90600182811c92168015610895575b602083101461087f57565b634e487b7160e01b600052602260045260246000fd5b91607f1691610874565b90600092918054916108b083610865565b91828252600193848116908160001461091257506001146108d2575b50505050565b90919394506000526020928360002092846000945b8386106108fe5750505050010190388080806108cc565b8054858701830152940193859082016108e7565b9294505050602093945060ff191683830152151560051b010190388080806108cc565b50634e487b7160e01b600052604160045260246000fd5b61014081019081106001600160401b0382111761096857604052565b610970610935565b604052565b608081019081106001600160401b0382111761096857604052565b6001600160401b03811161096857604052565b604081019081106001600160401b0382111761096857604052565b90601f801991011681019081106001600160401b0382111761096857604052565b906109fa6109f3926040519384809261089f565b03836109be565b565b503461048157602036600319011261048157600435600052600f602052610695610a33610a3a60406000206040519283809261089f565b03826109be565b604051918291602083526020830190610603565b503461048157602036600319011261048157600435600081815260026020526040902054610a86906001600160a01b031615156138a0565b610a8f81612d06565b306001600160a01b0390911603610aab57610016903330612fc9565b60405162461bcd60e51b815260206004820152602560248201527f41646f7074415065743a20416c72656164792061646f7074656420627920736f6044820152646d656f6e6560d81b6064820152608490fd5b5034610481576040366003190112610481576020610b2a600435610b2181610751565b60243590613812565b6040519015158152f35b606090600319011261048157600435610b4c81610751565b90602435610b5981610751565b9060443590565b503461048157610016610b7236610b34565b91610b85610b808433612ef7565b612dd9565b612fc9565b9181601f84011215610481578235916001600160401b038311610481576020808501948460051b01011161048157565b608060031982011261048157600435610bd281610751565b916001600160401b036024358181116104815783610bf291600401610b8a565b939093926044358381116104815782610c0d91600401610b8a565b9390939260643591821161048157610c2791600401610b8a565b9091565b503461048157610c3a36610bba565b610c5660018060a0989794989695961b03600c54163314613323565b60005b828110610c69576100168861352d565b80610d23610ccd888888610d0e868a8f610c8a610d289b8d610c8f936133a2565b6133c0565b95610c9b8383836133a2565b35600052610ccd610cd284600b986020988a8a5260029c8d9c60409d8e600020019061ffff1661ffff19825416179055565b6133a2565b35610cdc81610751565b610ce78585856133a2565b35600052878752886000209060018060a01b03166001600160601b0360a01b825416179055565b35600052526000200162ff0000198154169055565b613386565b610c59565b503461048157606036600319011261048157602435600435610d4e82610751565b6000818152600b60205260409020546001600160a01b031615610d78576100169160443591613e16565b60405162461bcd60e51b815260206004820152602b60248201527f4d657373616765436c69656e743a2064657374696e6174696f6e20636861696e60448201526a206e6f742061637469766560a81b6064820152608490fd5b503461048157610016610de336610b34565b9060405192602084018481106001600160401b03821117610e0b575b60405260008452612e6c565b610e13610935565b610dff565b6020908160408183019282815285518094520193019160005b828110610e3f575050505090565b835185529381019392810192600101610e31565b503461048157600036600319011261048157604051806014549182815260208091019260146000527fce6d7b5282bd9a3661ae061feed1dbda4e52ab073b1f9285be6e155d9c38d4ec916000905b828210610ec45761069585610eb8818903826109be565b60405191829182610e18565b835486529485019460019384019390910190610ea1565b5034610481576020366003190112610481577fe1a25f463c6504824e91268b5b2c05658d5358c9c1698a85346cfae5336a642e610f68600435610f1d81610751565b600c546001600160a01b03610f353382841614613323565b6001600160a01b031990911690821617600c55604080513381526001600160a01b03909216602083015290918291820190565b0390a1005b503461048157600036600319011261048157604051806013549182815260208091019260136000527f66de8ffda797e3de9c05e8fc57b3bf0ec28a930d40b0d285d93c06501cf6a090916000905b828210610fd25761069585610eb8818903826109be565b835486529485019460019384019390910190610fbb565b610639906020815282516020820152602083015160408201526040830151606082015260608301516080820152608083015160a082015260a083015160c082015260c0830151611047610140918260e0850152610160840190610603565b9361106560e08201519561010096601f198683030188870152610603565b948101516101208481019190915201511515910152565b50346104815760203660031901126104815761069560405161109d8161094c565b61116f6000918281528260208201528260408201528260608201528260808201528260a0820152606060c0820152606060e082015261116760096040610100958087860152806101208096015260043581526010602052206110fd6118a3565b958154875260018201546020880152600282015460408801526003820154606088015260048201546080880152600582015460a0880152611140600683016109df565b60c0880152611151600783016109df565b60e0880152600882015490870152015460ff1690565b151590830152565b60405191829182610fe9565b503461048157604036600319011261048157602060ff6111c66024356111a081610751565b6004356000526012845260406000209060018060a01b0316600052602052604060002090565b54166040519015158152f35b50346104815760c0366003190112610481576044356111f081610751565b6111fb606435610751565b60a435906001600160401b039081831161048157366023840112156104815782600401359182116104815736602483850101116104815760246100169301906024356141c3565b503461048157602036600319011261048157602061073f600435612d06565b503461048157602036600319011261048157600435600081815260026020526040902054611299906001600160a01b031615156138a0565b6112ad816000526010602052604060002090565b6112c46112be600983015460ff1690565b156138ec565b60018101546112d242613942565b1190811561137f575b8115611369575b50156112fc57806112f561001692612d06565b3390612fc9565b6040805162461bcd60e51b81526020600482015260248101919091527f41646f7074415065743a20506574206973206265696e672074616b656e20636160448201527f7265206f662e2043616e6e6f742072657475726e20746f207368656c7465722e6064820152608490fd5b60029150015461137842613942565b11386112e2565b8091505461138c42613942565b11906112db565b50346104815760203660031901126104815760043560005260116020526114306040610695600361144b83600020938051946113da866113d3818461089f565b03876109be565b61143e82516113f081610a33816001870161089f565b61141d84519361140e85611407816002850161089f565b03866109be565b6113d38651809981930161089f565b835198899860808a5260808a0190610603565b9088820360208a0152610603565b9186830390870152610603565b908382036060850152610603565b50346104815760203660031901126104815760043561147781610751565b6001600160a01b031680156114a8576000526003602052610695604060002054604051918291829190602083019252565b60405162461bcd60e51b815260206004820152602960248201527f4552433732313a2061646472657373207a65726f206973206e6f7420612076616044820152683634b21037bbb732b960b91b6064820152608490fd5b50346104815760008060031936011261071d5761151a612c62565b600680546001600160a01b0319811690915581906001600160a01b03167f8be0079c531659141344cd1fd0a4f28419497f9722a3daafe3b4186f6b6457e08280a380f35b5034610481576000366003190112610481576008546040516001600160a01b039091168152602090f35b50634e487b7160e01b600052603260045260246000fd5b5034610481576020366003190112610481576004356014548110156104815760209060146000527fce6d7b5282bd9a3661ae061feed1dbda4e52ab073b1f9285be6e155d9c38d4ec0154604051908152f35b5034610481576000366003190112610481576020600e54604051908152f35b5034610481576020366003190112610481576004356013548110156104815760209060136000527f66de8ffda797e3de9c05e8fc57b3bf0ec28a930d40b0d285d93c06501cf6a0900154604051908152f35b5034610481576040366003190112610481576116b260243561168381610751565b61168b612c62565b600435600052601260205260406000209060018060a01b0316600052602052604060002090565b805460ff19169055005b503461048157600036600319011261048157600c546040516001600160a01b039091168152602090f35b5034610481576000366003190112610481576006546040516001600160a01b039091168152602090f35b9294939061173960609361ffff9260018060a01b03168652608060208701526080860190610603565b951660408401521515910152565b503461048157602036600319011261048157600435600052600b602052604060002060018060a01b03815416906106956002604051926117958461178e816001850161089f565b03856109be565b015460405193849361ffff60ff8460101c1693169185611710565b5034610481576000366003190112610481576020600d54604051908152f35b50346104815760008060031936011261071d57604051908060018054916117f583610865565b808652928281169081156106f3575060011461181b5761069585610689818703826109be565b92508083527fb10e2d527612073b26eecdfd717e6a320cf44b4afac2b0732d9fcbe2b7fa0cf65b82841061185d57505050810160200161068982610695610679565b80546020858701810191909152909301928101611842565b50346104815760403660031901126104815761189660243561168381610751565b805460ff19166001179055005b604051906109fa8261094c565b6020906001600160401b0381116118cd575b601f01601f19160190565b6118d5610935565b6118c2565b81601f82011215610481578035906118f1826118b0565b926118ff60405194856109be565b8284526020838301011161048157816000926020809301838601378301015290565b5034610481576060366003190112610481576004356001600160401b03602435818111610481576119569036906004016118da565b906044359081116104815761196f9036906004016118da565b9082600052601260205260ff61199a60406000203360018060a01b0316600052602052604060002090565b5416156119ff576119df6008926119b3600d5430613c97565b6119d66119cc600d546000526010602052604060002090565b9360068501613aaf565b60078301613aaf565b01556119ec600d54613b83565b6100166119fa600d54613386565b600d55565b60405162461bcd60e51b815260206004820152603160248201527f41646f7074415065743a2063616c6c6572206973206e6f742061206d616e616760448201527032b91037b3103a34329039b432b63a32b960791b6064820152608490fd5b8015150361048157565b503461048157604036600319011261048157600435611a8681610751565b602435611a9281611a5e565b6001600160a01b03821691338314611b145781611ad1611ae29233600052600560205260406000209060018060a01b0316600052602052604060002090565b9060ff801983541691151516179055565b604051901515815233907f17307eab39ab6107e8899845ad3d59bd9653f200f220920489ca2b5937696c3190602090a3005b60405162461bcd60e51b815260206004820152601960248201527f4552433732313a20617070726f766520746f2063616c6c6572000000000000006044820152606490fd5b906106399160208152611b7882516080602084015260a0830190610603565b9060806060611baf611b9c602087015195601f199687878303016040880152610603565b6040870151868683030184870152610603565b9401519282850301910152610603565b5034610481576020366003190112610481576106956040805190611be282610975565b606080838180955281602082015281848201520152600435600052601160205260038160002092611c68835194611c1886610975565b8451611c2881610a33818561089f565b86528451611c3d81610a33816001860161089f565b60208701528451611c5581610a33816002860161089f565b858701526109f38551809581930161089f565b8301525191829182611b59565b5034610481576040366003190112610481577f16a1412f01b73c390eb2548427101644aa86c1443c272f73df00fb74c48fe499600435611cb481610751565b6024359060018060a01b03611cce81600c54163314613323565b811680611d175750611cf0600080808086335af1611cea6131e9565b506137d4565b604080513381526001600160a01b0390921660208301528101919091528060608101610f68565b60405163a9059cbb60e01b81523360048201526024810184905290602090829060449082906000905af18015611d81575b611d53575b50611cf0565b611d739060203d8111611d7a575b611d6b81836109be565b810190613518565b5038611d4d565b503d611d61565b611d896131dc565b611d48565b5034610481576000602036600319011261071d576004358160018060a01b03611dbc81600c54163314613323565b60075416803b15611e7257819060246040518094819363b479a96160e01b83528760048401525af18015611e65575b611e2e575b506040805133815260208101929092527f7b6bdf5a54b984bdb41e777eb126123085d57633ab56d408d9a1d39dd894e7bb9190819081015b0390a180f35b7f7b6bdf5a54b984bdb41e777eb126123085d57633ab56d408d9a1d39dd894e7bb9192611e5d611e2892610990565b929150611df0565b611e6d6131dc565b611deb565b5080fd5b503461048157611e8536610bba565b611ea060018060a09998969497991b03600c54163314613323565b60005b878110611eb3576100168761352d565b611ec1610c8a8284896133a2565b90611ecd818a886133a2565b356000526020600b8152611ef5600293846040600020019061ffff1661ffff19825416179055565b85821015611fae575b8160051b850135601e1986360301811215610481578501908135916001600160401b038311610481570192813603841361048157611f65611f8592611fa9956001611f5f8f88611f4e918f6133a2565b35600052600b602052604060002090565b01613423565b611f73611f4e848d8b6133a2565b01805462ff0000191662010000179055565b610d23611f96611f4e838c8a6133a2565b80546001600160a01b0319166001179055565b611ea3565b611fb6611588565b611efe565b503461048157608036600319011261048157600435611fd981610751565b602435611fe581610751565b606435916001600160401b038311610481576120086100169336906004016118da565b9160443591612e6c565b5034610481576000366003190112610481576009546040516001600160a01b039091168152602090f35b50346104815760203660031901126104815760043561205a81610751565b600c546001600160a01b03906120739082163314613323565b806007541691823b15610481576000807f3785abad972484d82ebc033d8eb190737cd209b24e7f853dd622e415c3f537a2946024610f6895604051948593849263630429fb60e11b8452881660048401525af1801561210c575b6120f3575b50604080513381526001600160a01b03909216602083015290918291820190565b8061210061210692610990565b806105d5565b386120d2565b6121146131dc565b6120cd565b503461048157602036600319011261048157600435600081815260026020526040902054612151906001600160a01b03161515614404565b61215a81614729565b6006612170836000526010602052604060002090565b019161218f612189826000526010602052604060002090565b54614729565b906121b060016121a9836000526010602052604060002090565b0154614729565b6121c960026121a9846000526010602052604060002090565b6121e260036121a9856000526010602052604060002090565b6121fb60046121a9866000526010602052604060002090565b61221460056121a9876000526010602052604060002090565b90612236600961222e886000526010602052604060002090565b015460ff1690565b156127bf57612243614489565b925b612259876000526010602052604060002090565b60080154612271906000526011602052604060002090565b94612286886000526010602052604060002090565b6008015461229e906000526011602052604060002090565b600101966122b6896000526010602052604060002090565b600801546122ce906000526011602052604060002090565b600201986122e6906000526010602052604060002090565b600801546122fe906000526011602052604060002090565b604051757b226e616d65223a2241646f7074204120506574202360501b60208201529c8d9c6003929092019b9160368e01612338916144a9565b61088b60f21b81526002017f226465736372697074696f6e223a2241646f7074204120506574204e4654222c81526020017f22696d616765223a2268747470733a2f2f656e637279707465642d74626e302e81527f677374617469632e636f6d2f696d616765733f713d74626e3a414e643947635460208201527f4e6e4779584a69516b6d614533455a446c6a76644e43456137663233325678546040820152661c1219c99cc88b60ca1b60608201526067016d2261747472696275746573223a5b60901b8152600e017f7b2274726169745f74797065223a224e616d65222c2276616c7565223a2200008152601e01612431916144bc565b62089f4b60ea1b81526003017f7b2274726169745f74797065223a224c6173742057616c6b222c2276616c7565815262111d1160e91b6020820152602301612478916144a9565b62089f4b60ea1b81526003017f7b2274726169745f74797065223a224c6173742046656564222c2276616c7565815262111d1160e91b60208201526023016124bf916144a9565b62089f4b60ea1b81526003017f7b2274726169745f74797065223a224c617374205472656174222c2276616c7581526332911d1160e11b6020820152602401612507916144a9565b62089f4b60ea1b81526003017f7b2274726169745f74797065223a22546f74616c2057616c6b73222c2276616c8152643ab2911d1160d91b6020820152602501612550916144a9565b62089f4b60ea1b81526003017f7b2274726169745f74797065223a22546f74616c204665656473222c2276616c8152643ab2911d1160d91b6020820152602501612599916144a9565b62089f4b60ea1b81526003017f7b2274726169745f74797065223a22546f74616c20547265617473222c227661815265363ab2911d1160d11b60208201526026016125e3916144a9565b62089f4b60ea1b81526003017f7b2274726169745f74797065223a2241646f70746564222c2276616c7565223a8152601160f91b6020820152602101612628916144a9565b62089f4b60ea1b81526003017f7b2274726169745f74797065223a225368656c746572222c2276616c7565223a8152601160f91b602082015260210161266d916144bc565b62089f4b60ea1b81526003017f7b2274726169745f74797065223a224c6f636174696f6e222c2276616c7565228152611d1160f11b60208201526022016126b3916144bc565b62089f4b60ea1b81526003017f7b2274726169745f74797065223a2257656273697465222c2276616c7565223a8152601160f91b60208201526021016126f8916144bc565b62089f4b60ea1b81526003017f7b2274726169745f74797065223a22456d61696c222c2276616c7565223a22008152601f01612733916144bc565b61227d60f01b8152600201615d7d60f01b81526002010390601f1991828101825261275e90826109be565b61276790614621565b6040517f646174613a6170706c69636174696f6e2f6a736f6e3b6261736536342c000000602082015291908290603d82016127a1916144a9565b0390810182526127b190826109be565b604051610695819282610628565b6127c7614468565b92612245565b989a9996929361280e9461281c97936101209a97938c5260208c015260408b015260608a0152608089015260a08801526101408060c0890152870190610603565b9085820360e0870152610603565b946101008401521515910152565b5034610481576020366003190112610481576004356000526010602052604060002080546106956001830154926002810154906003810154600482015460058301546040519161288883612881816006890161089f565b03846109be565b6040519361289d856114078160078a0161089f565b6128b06009600888015497015460ff1690565b966040519a8b9a8b6127cd565b5034610481576000602036600319011261071d576004358160018060a01b036128eb81600c54163314613323565b60075416803b15611e7257819060246040518094819363e47ad74d60e01b83528760048401525af18015612992575b61295b575b506040805133815260208101929092527f83f76efc0c025b2e3779f7bcead5a89ddaf05dc7829157cdab021a8591e7a6f9919081908101611e28565b7f83f76efc0c025b2e3779f7bcead5a89ddaf05dc7829157cdab021a8591e7a6f9919261298a611e2892610990565b92915061291f565b61299a6131dc565b61291a565b503461048157604036600319011261048157602060ff6111c66004356129c481610751565b602435906129d182610751565b60018060a01b03166000526005845260406000209060018060a01b0316600052602052604060002090565b503461048157602036600319011261048157600435612a1a81610751565b612a22612c62565b6001600160a01b03908116908115612a7157600654826001600160601b0360a01b821617600655167f8be0079c531659141344cd1fd0a4f28419497f9722a3daafe3b4186f6b6457e0600080a3005b60405162461bcd60e51b815260206004820152602660248201527f4f776e61626c653a206e6577206f776e657220697320746865207a65726f206160448201526564647265737360d01b6064820152608490fd5b50346104815760403660031901126104815760243563ffffffff811680910361048157600435600052600a602052604060002090600052602052604060002060018060a01b03815416906106956002604051926117958461178e816001850161089f565b5034610481576020366003190112610481577ff8e1a15aba9398e019f0b49df1a4fde98ee17ae345cb5f6b5e2c27f5033e8ce76020600435612b6d61053982612d06565b806000526010825260046040600020426001820155016105698154613386565b503461048157602036600319011261048157600435612bab81610751565b600c546001600160a01b039190612bc59083163314613323565b166001600160601b0360a01b6009541617600955600080f35b5034610481576080366003190112610481576001600160401b0360043581811161048157612c109036906004016118da565b60243582811161048157612c289036906004016118da565b60443583811161048157612c409036906004016118da565b9060643593841161048157612c5c6100169436906004016118da565b9261395b565b6006546001600160a01b03163303612c7657565b606460405162461bcd60e51b815260206004820152602060248201527f4f776e61626c653a2063616c6c6572206973206e6f7420746865206f776e65726044820152fd5b15612cc157565b60405162461bcd60e51b815260206004820152601860248201527f4552433732313a20696e76616c696420746f6b656e20494400000000000000006044820152606490fd5b6000908152600260205260409020546001600160a01b0316610639811515612cba565b15612d3057565b60405162461bcd60e51b815260206004820152603d60248201527f4552433732313a20617070726f76652063616c6c6572206973206e6f7420746f60448201527f6b656e206f776e6572206f7220617070726f76656420666f7220616c6c0000006064820152608490fd5b600081815260026020526040902054612dbe906001600160a01b03161515612cba565b6000908152600460205260409020546001600160a01b031690565b15612de057565b60405162461bcd60e51b815260206004820152602d60248201527f4552433732313a2063616c6c6572206973206e6f7420746f6b656e206f776e6560448201526c1c881bdc88185c1c1c9bdd9959609a1b6064820152608490fd5b60405190602082018281106001600160401b03821117612e5f575b60405260008252565b612e67610935565b612e56565b90612e90939291612e80610b808433612ef7565b612e8b838383612fc9565b613219565b15612e9757565b60405162461bcd60e51b815260206004820152603260248201527f4552433732313a207472616e7366657220746f206e6f6e20455243373231526560448201527131b2b4bb32b91034b6b83632b6b2b73a32b960711b6064820152608490fd5b6001600160a01b0380612f0984612d06565b169281831692848414948515612f3f575b50508315612f29575b50505090565b612f3591929350612d9b565b1614388080612f23565b60009081526005602090815260408083206001600160a01b03949094168352929052205460ff1693503880612f1a565b15612f7657565b60405162461bcd60e51b815260206004820152602560248201527f4552433732313a207472616e736665722066726f6d20696e636f72726563742060448201526437bbb732b960d91b6064820152608490fd5b612fed90612fd684612d06565b6001600160a01b0382811693909182168414612f6f565b83169283156130e1576130606130ba9261301f8561301961300d8a612d06565b6001600160a01b031690565b14612f6f565b613046613036886000526004602052604060002090565b80546001600160a01b0319169055565b6001600160a01b0316600090815260036020526040902090565b80546000190190556001600160a01b03811660009081526003602052604090206001815401905561309b856000526002602052604060002090565b80546001600160a01b0319166001600160a01b03909216919091179055565b7fddf252ad1be2c89b69c2b068fc378daa952ba7f163c4a11628f55a4df523b3ef600080a4565b60405162461bcd60e51b8152602060048201526024808201527f4552433732313a207472616e7366657220746f20746865207a65726f206164646044820152637265737360e01b6064820152608490fd5b600082815260046020526040902080546001600160a01b0319166001600160a01b0383161790556001600160a01b038061316b84612d06565b169116907f8c5be1e5ebec7d5bd14f71427d1e84f3dd0314c0f7b2291e5b200ac8c7c3b925600080a4565b9081602091031261048157516106398161046f565b6001600160a01b03918216815291166020820152604081019190915260806060820181905261063992910190610603565b506040513d6000823e3d90fd5b3d15613214573d906131fa826118b0565b9161320860405193846109be565b82523d6000602084013e565b606090565b92909190823b1561331a5761324c926020926000604051809681958294630a85bd0160e11b9a8b855233600486016131ab565b03926001600160a01b03165af1600091816132ea575b506132dc5761326f6131e9565b805190816132d75760405162461bcd60e51b815260206004820152603260248201527f4552433732313a207472616e7366657220746f206e6f6e20455243373231526560448201527131b2b4bb32b91034b6b83632b6b2b73a32b960711b6064820152608490fd5b602001fd5b6001600160e01b0319161490565b61330c91925060203d8111613313575b61330481836109be565b810190613196565b9038613262565b503d6132fa565b50505050600190565b1561332a57565b60405162461bcd60e51b815260206004820152601d60248201527f4d657373616765436c69656e743a206e6f7420617574686f72697a65640000006044820152606490fd5b50634e487b7160e01b600052601160045260246000fd5b6001906000198114613396570190565b61339e61336f565b0190565b91908110156133b3575b60051b0190565b6133bb611588565b6133ac565b3561ffff811681036104815790565b90601f81116133dd57505050565b600091825260208220906020601f850160051c83019410613419575b601f0160051c01915b82811061340e57505050565b818155600101613402565b90925082906133f9565b9092916001600160401b0381116134eb575b613449816134438454610865565b846133cf565b6000601f82116001146134835781929394600092613478575b50508160011b916000199060031b1c1916179055565b013590503880613462565b601f1982169461349884600052602060002090565b91805b8781106134d35750836001959697106134b9575b505050811b019055565b0135600019600384901b60f8161c191690553880806134af565b9092602060018192868601358155019401910161349b565b6134f3610935565b613435565b90816020910312610481575161063981610751565b51906109fa82611a5e565b90816020910312610481575161063981611a5e565b600780546001600160a01b0319166001600160a01b0392831617905560075461355e906001600160a01b031661300d565b906135ab81604051809463647846a560e01b825281600460209788935afa9081156137c7575b6000916137aa575b501660018060a01b03166001600160601b0360a01b6008541617600855565b6008546135c0906001600160a01b031661300d565b8282821661371a575b50506007546135e0906001600160a01b031661300d565b604051633fc8cef360e01b808252919083908581600481865afa90811561370d575b6000916136f0575b50166136165750505050565b8391613671916040519182528382600481845afa9182156136e3575b6000926136b4575b5060405163095ea7b360e01b81526001600160a01b0390911660048201526000196024820152938492839160009183906044820190565b0393165af180156136a7575b613689575b80806108cc565b8161369f92903d10611d7a57611d6b81836109be565b503880613682565b6136af6131dc565b61367d565b6136d5919250843d86116136dc575b6136cd81836109be565b8101906134f8565b903861363a565b503d6136c3565b6136eb6131dc565b613632565b6137079150863d88116136dc576136cd81836109be565b3861360a565b6137156131dc565b613602565b60075460009261376a91613736906001600160a01b031661300d565b60405163095ea7b360e01b81526001600160a01b039091166004820152600019602482015293849283919082906044820190565b03925af1801561379d575b613780575b826135c9565b61379690833d8511611d7a57611d6b81836109be565b503861377a565b6137a56131dc565b613775565b6137c19150853d87116136dc576136cd81836109be565b3861358c565b6137cf6131dc565b613584565b156137db57565b60405162461bcd60e51b815260206004820152600f60248201526e151c985b9cd9995c8819985a5b1959608a1b6044820152606490fd5b6000918252600b6020526040909120546001600160a01b0391821691161461383957600090565b600190565b1561384557565b60405162461bcd60e51b815260206004820152602d60248201527f41646f7074415065743a2063616c6c6572206973206e6f7420746865206f776e60448201526c195c881bd9881d1a19481b999d609a1b6064820152608490fd5b156138a757565b60405162461bcd60e51b815260206004820152601d60248201527f41646f7074415065743a2050657420646f6573206e6f742065786973740000006044820152606490fd5b156138f357565b60405162461bcd60e51b815260206004820152602160248201527f41646f7074415065743a2050657420697320616c72656164792061646f7074656044820152601960fa1b6064820152608490fd5b62093a7f1981019190821161395357565b6109fa61336f565b9190613965612c62565b600e5492600093845260209360118552604081209460408220928051926001600160401b038411613aa2575b6139a58461399f8754610865565b876133cf565b82601f8511600114613a2257509383600397946139ea946139f99b9a98946139f39892613a17575b50508160011b91600019908a1b1c19161790555b60018501613aaf565b60028301613aaf565b01613aaf565b613a04600e54613be7565b6109fa613a12600e54613386565b600e55565b0151905038806139cd565b601f9392919319851690613a3b87600052602060002090565b94905b828210613a8a575050846139ea946139f99b9a98946139f3989460039b9860019510613a72575b505050811b0190556139e1565b0151600019838c1b60f8161c19169055388080613a65565b80600186978294978701518155019601940190613a3e565b613aaa610935565b613991565b91909182516001600160401b038111613b76575b613ad1816134438454610865565b602080601f8311600114613b0c575081929394600092613b015750508160011b916000199060031b1c1916179055565b015190503880613462565b90601f19831695613b2285600052602060002090565b926000905b888210613b5e57505083600195969710613b4557505050811b019055565b015160001960f88460031b161c191690553880806134af565b80600185968294968601518155019501930190613b27565b613b7e610935565b613ac3565b601454600160401b811015613bda575b6001810180601455811015613bcd575b60146000527fce6d7b5282bd9a3661ae061feed1dbda4e52ab073b1f9285be6e155d9c38d4ec0155565b613bd5611588565b613ba3565b613be2610935565b613b93565b601354600160401b811015613c3e575b6001810180601355811015613c31575b60136000527f66de8ffda797e3de9c05e8fc57b3bf0ec28a930d40b0d285d93c06501cf6a0900155565b613c39611588565b613c07565b613c46610935565b613bf7565b15613c5257565b60405162461bcd60e51b815260206004820152601c60248201527f4552433732313a20746f6b656e20616c7265616479206d696e746564000000006044820152606490fd5b6001600160a01b038116908115613d5057600083815260026020526040902054613d289190613cd2906001600160a01b031615155b15613c4b565b600084815260026020526040902054613cf5906001600160a01b03161515613ccc565b6001600160a01b03811660009081526003602052604090206001815401905561309b846000526002602052604060002090565b60007fddf252ad1be2c89b69c2b068fc378daa952ba7f163c4a11628f55a4df523b3ef8180a4565b606460405162461bcd60e51b815260206004820152602060248201527f4552433732313a206d696e7420746f20746865207a65726f20616464726573736044820152fd5b9895929a99969390610120989592613db8613dc6928c6101408091528d019061089f565b908b820360208d015261089f565b9a60408a01526060890152608088015260a087015260c086015260e08501526101008401521515910152565b610639939260609260018060a01b0316825260208201528160408201520190610603565b613f69613f6e9392613e2a61053985612d06565b6006613e40856000526010602052604060002090565b0190613f5d6007613e5b876000526010602052604060002090565b0192613f316008613e76896000526010602052604060002090565b015488613e8d816000526010602052604060002090565b546001613ea4836000526010602052604060002090565b01546002613ebc846000526010602052604060002090565b01546003613ed4856000526010602052604060002090565b0154916004613eed866000526010602052604060002090565b015493613f21600961222e6005613f0e8a6000526010602052604060002090565b0154986000526010602052604060002090565b966040519c8d9a60208c01613d94565b0392613f45601f19948581018352826109be565b613f4e87613f71565b60405196879360208501613df2565b039081018452836109be565b6140be565b50565b613f7a81612d06565b50613f8481612d06565b600082815260046020908152604080832080546001600160a01b03199081169091556001600160a01b0390941680845260038352818420805460001901905585845260029092528220919290919081541690557fddf252ad1be2c89b69c2b068fc378daa952ba7f163c4a11628f55a4df523b3ef8280a4565b9060405161400a81610975565b606060ff6002839560018060a01b03815416855260405161403281610a33816001860161089f565b6020860152015461ffff8116604085015260101c161515910152565b909161406561063993604084526040840190610603565b916020818403910152610603565b90816020910312610481575190565b906140b360009460809461ffff9398979860018060a01b03168552602085015260a0604085015260a0840190610603565b951660608201520152565b906020906140de6140d984600052600b602052604060002090565b613ffd565b926140ec6060850151151590565b614195575b600754614106906001600160a01b031661300d565b906000614128604061411e885160018060a01b031690565b97015161ffff1690565b9561414960405197889687958694633f6b724360e21b865260048601614082565b03925af1908115614188575b600091614160575090565b610639915060203d8111614181575b61417981836109be565b810190614073565b503d61416f565b6141906131dc565b614155565b906141bd83850151916141af60405193849287840161404e565b03601f1981018352826109be565b906140f1565b93926141f960018060a01b03926141df84600754163314613323565b6000968752600b6020528380604089205416911614613323565b82019360608386031261071d5782359061421282610751565b6020840135936040810135916001600160401b03831161071d57506142556142466109fa97986142b79461429e94016118da565b602080825183010191016142ff565b97959998946142689491949392936118a3565b9a8b5260208b015260408a01526060890152608088015260a087015260c086015260e08501526101008401521515610120830152565b6142b2856000526010602052604060002090565b61437b565b16613c97565b81601f820112156104815780516142d3816118b0565b926142e160405194856109be565b818452602082840101116104815761063991602080850191016105e0565b919091610140818403126104815780516001600160401b0390818111610481578461432b9184016142bd565b936020830151918211610481576143439183016142bd565b9160408201519160608101519160808201519160a08101519160c08201519160e081015191610639610120610100840151930161350d565b60096143f16101206109fa94805185556020810151600186015560408101516002860155606081015160038601556080810151600486015560a081015160058601556143ce60c082015160068701613aaf565b6143df60e082015160078701613aaf565b61010081015160088601550151151590565b91019060ff801983541691151516179055565b1561440b57565b60405162461bcd60e51b815260206004820152602f60248201527f4552433732314d657461646174613a2055524920717565727920666f72206e6f60448201526e3732bc34b9ba32b73a103a37b5b2b760891b6064820152608490fd5b60405190614475826109a3565b600582526466616c736560d81b6020830152565b60405190614496826109a3565b60048252637472756560e01b6020830152565b9061339e602092828151948592016105e0565b6000929181546144cb81610865565b9260019180831690811561452357506001146144e75750505050565b90919293945060005260209081600020906000915b85831061451257505050500190388080806108cc565b8054858401529183019181016144fc565b60ff19168452505050811515909102019150388080806108cc565b60405190606082018281106001600160401b038211176145ae575b604052604082527f6768696a6b6c6d6e6f707172737475767778797a303132333435363738392b2f6040837f4142434445464748494a4b4c4d4e4f505152535455565758595a61626364656660208201520152565b6145b6610935565b614559565b906002820180921161395357565b906020820180921161395357565b600281901b91906001600160fe1b0381160361395357565b906145f9826118b0565b61460660405191826109be565b8281528092614617601f19916118b0565b0190602036910137565b8051156147015761463061453e565b61464c61464761464084516145bb565b6003900490565b6145d7565b9161465e614659846145c9565b6145ef565b92835280815182019060208501935b8282106146af5750505060039051068060011461469e5760021461468f575090565b603d60f81b6000199091015290565b50613d3d60f01b6001199091015290565b9091936004906003809401938451600190603f9082828260121c16880101518553828282600c1c16880101518386015382828260061c168801015160028601531685010151908201530193919061466d565b50610639612e3b565b90602091805182101561471c57010190565b614724611588565b010190565b80156147c5576000818181805b6147ad5750614744816145ef565b935b6147505750505090565b60001981019081116147a0575b8091600a9161478a60308484068101809111614793575b60f81b6001600160f81b031916861a918761470a565b53049081614746565b61479b61336f565b614774565b6147a861336f565b61475d565b91506147ba600a91613386565b910480849291614736565b506040516147d2816109a3565b60018152600360fc1b60208201529056fea26469706673582212200bc2e86b91d5cd80d96409ed75abc9d7dda40bad10c398d5c6cff8c83593270064736f6c63430008110033",
  "devdoc": {
    "kind": "dev",
    "methods": {
      "approve(address,uint256)": {
        "details": "See {IERC721-approve}."
      },
      "balanceOf(address)": {
        "details": "See {IERC721-balanceOf}."
      },
      "getApproved(uint256)": {
        "details": "See {IERC721-getApproved}."
      },
      "isApprovedForAll(address,address)": {
        "details": "See {IERC721-isApprovedForAll}."
      },
      "name()": {
        "details": "See {IERC721Metadata-name}."
      },
      "owner()": {
        "details": "Returns the address of the current owner."
      },
      "ownerOf(uint256)": {
        "details": "See {IERC721-ownerOf}."
      },
      "renounceOwnership()": {
        "details": "Leaves the contract without owner. It will not be possible to call `onlyOwner` functions. Can only be called by the current owner. NOTE: Renouncing ownership will leave the contract without an owner, thereby disabling any functionality that is only available to the owner."
      },
      "safeTransferFrom(address,address,uint256)": {
        "details": "See {IERC721-safeTransferFrom}."
      },
      "safeTransferFrom(address,address,uint256,bytes)": {
        "details": "See {IERC721-safeTransferFrom}."
      },
      "setApprovalForAll(address,bool)": {
        "details": "See {IERC721-setApprovalForAll}."
      },
      "supportsInterface(bytes4)": {
        "details": "See {IERC165-supportsInterface}."
      },
      "symbol()": {
        "details": "See {IERC721Metadata-symbol}."
      },
      "tokenURI(uint256)": {
        "details": "See {IERC721Metadata-tokenURI}."
      },
      "transferFrom(address,address,uint256)": {
        "details": "See {IERC721-transferFrom}."
      },
      "transferOwnership(address)": {
        "details": "Transfers ownership of the contract to a new account (`newOwner`). Can only be called by the current owner."
      }
    },
    "version": 1
  },
  "userdoc": {
    "kind": "user",
    "methods": {
      "configureClientExtended(address,uint256[],bytes[],uint16[])": {
        "notice": "OWNER "
      }
    },
    "version": 1
  },
  "storageLayout": {
    "storage": [
      {
        "astId": 138,
        "contract": "contracts/AdoptAPet.sol:AdoptAPet",
        "label": "_name",
        "offset": 0,
        "slot": "0",
        "type": "t_string_storage"
      },
      {
        "astId": 140,
        "contract": "contracts/AdoptAPet.sol:AdoptAPet",
        "label": "_symbol",
        "offset": 0,
        "slot": "1",
        "type": "t_string_storage"
      },
      {
        "astId": 144,
        "contract": "contracts/AdoptAPet.sol:AdoptAPet",
        "label": "_owners",
        "offset": 0,
        "slot": "2",
        "type": "t_mapping(t_uint256,t_address)"
      },
      {
        "astId": 148,
        "contract": "contracts/AdoptAPet.sol:AdoptAPet",
        "label": "_balances",
        "offset": 0,
        "slot": "3",
        "type": "t_mapping(t_address,t_uint256)"
      },
      {
        "astId": 152,
        "contract": "contracts/AdoptAPet.sol:AdoptAPet",
        "label": "_tokenApprovals",
        "offset": 0,
        "slot": "4",
        "type": "t_mapping(t_uint256,t_address)"
      },
      {
        "astId": 158,
        "contract": "contracts/AdoptAPet.sol:AdoptAPet",
        "label": "_operatorApprovals",
        "offset": 0,
        "slot": "5",
        "type": "t_mapping(t_address,t_mapping(t_address,t_bool))"
      },
      {
        "astId": 7,
        "contract": "contracts/AdoptAPet.sol:AdoptAPet",
        "label": "_owner",
        "offset": 0,
        "slot": "6",
        "type": "t_address"
      },
      {
        "astId": 3153,
        "contract": "contracts/AdoptAPet.sol:AdoptAPet",
        "label": "MESSAGEv3",
        "offset": 0,
        "slot": "7",
        "type": "t_contract(IMessageV3)3076"
      },
      {
        "astId": 3156,
        "contract": "contracts/AdoptAPet.sol:AdoptAPet",
        "label": "FEE_TOKEN",
        "offset": 0,
        "slot": "8",
        "type": "t_contract(IERC20cl)2880"
      },
      {
        "astId": 3159,
        "contract": "contracts/AdoptAPet.sol:AdoptAPet",
        "label": "FEATURE_GATEWAY",
        "offset": 0,
        "slot": "9",
        "type": "t_contract(IFeatureGateway)3149"
      },
      {
        "astId": 3166,
        "contract": "contracts/AdoptAPet.sol:AdoptAPet",
        "label": "FEATURES",
        "offset": 0,
        "slot": "10",
        "type": "t_mapping(t_uint256,t_mapping(t_uint32,t_struct(ChainData)3175_storage))"
      },
      {
        "astId": 3180,
        "contract": "contracts/AdoptAPet.sol:AdoptAPet",
        "label": "CHAINS",
        "offset": 0,
        "slot": "11",
        "type": "t_mapping(t_uint256,t_struct(ChainData)3175_storage)"
      },
      {
        "astId": 3182,
        "contract": "contracts/AdoptAPet.sol:AdoptAPet",
        "label": "MESSAGE_OWNER",
        "offset": 0,
        "slot": "12",
        "type": "t_address"
      },
      {
        "astId": 4135,
        "contract": "contracts/AdoptAPet.sol:AdoptAPet",
        "label": "nextNftId",
        "offset": 0,
        "slot": "13",
        "type": "t_uint256"
      },
      {
        "astId": 4137,
        "contract": "contracts/AdoptAPet.sol:AdoptAPet",
        "label": "nextShelterId",
        "offset": 0,
        "slot": "14",
        "type": "t_uint256"
      },
      {
        "astId": 4141,
        "contract": "contracts/AdoptAPet.sol:AdoptAPet",
        "label": "messages",
        "offset": 0,
        "slot": "15",
        "type": "t_mapping(t_uint256,t_string_storage)"
      },
      {
        "astId": 4146,
        "contract": "contracts/AdoptAPet.sol:AdoptAPet",
        "label": "pets",
        "offset": 0,
        "slot": "16",
        "type": "t_mapping(t_uint256,t_struct(PetData)4133_storage)"
      },
      {
        "astId": 4151,
        "contract": "contracts/AdoptAPet.sol:AdoptAPet",
        "label": "shelters",
        "offset": 0,
        "slot": "17",
        "type": "t_mapping(t_uint256,t_struct(ShelterData)4112_storage)"
      },
      {
        "astId": 4157,
        "contract": "contracts/AdoptAPet.sol:AdoptAPet",
        "label": "shelterManagers",
        "offset": 0,
        "slot": "18",
        "type": "t_mapping(t_uint256,t_mapping(t_address,t_bool))"
      },
      {
        "astId": 4160,
        "contract": "contracts/AdoptAPet.sol:AdoptAPet",
        "label": "allShelters",
        "offset": 0,
        "slot": "19",
        "type": "t_array(t_uint256)dyn_storage"
      },
      {
        "astId": 4163,
        "contract": "contracts/AdoptAPet.sol:AdoptAPet",
        "label": "availablePets",
        "offset": 0,
        "slot": "20",
        "type": "t_array(t_uint256)dyn_storage"
      }
    ],
    "types": {
      "t_address": {
        "encoding": "inplace",
        "label": "address",
        "numberOfBytes": "20"
      },
      "t_array(t_uint256)dyn_storage": {
        "base": "t_uint256",
        "encoding": "dynamic_array",
        "label": "uint256[]",
        "numberOfBytes": "32"
      },
      "t_bool": {
        "encoding": "inplace",
        "label": "bool",
        "numberOfBytes": "1"
      },
      "t_bytes_storage": {
        "encoding": "bytes",
        "label": "bytes",
        "numberOfBytes": "32"
      },
      "t_contract(IERC20cl)2880": {
        "encoding": "inplace",
        "label": "contract IERC20cl",
        "numberOfBytes": "20"
      },
      "t_contract(IFeatureGateway)3149": {
        "encoding": "inplace",
        "label": "contract IFeatureGateway",
        "numberOfBytes": "20"
      },
      "t_contract(IMessageV3)3076": {
        "encoding": "inplace",
        "label": "contract IMessageV3",
        "numberOfBytes": "20"
      },
      "t_mapping(t_address,t_bool)": {
        "encoding": "mapping",
        "key": "t_address",
        "label": "mapping(address => bool)",
        "numberOfBytes": "32",
        "value": "t_bool"
      },
      "t_mapping(t_address,t_mapping(t_address,t_bool))": {
        "encoding": "mapping",
        "key": "t_address",
        "label": "mapping(address => mapping(address => bool))",
        "numberOfBytes": "32",
        "value": "t_mapping(t_address,t_bool)"
      },
      "t_mapping(t_address,t_uint256)": {
        "encoding": "mapping",
        "key": "t_address",
        "label": "mapping(address => uint256)",
        "numberOfBytes": "32",
        "value": "t_uint256"
      },
      "t_mapping(t_uint256,t_address)": {
        "encoding": "mapping",
        "key": "t_uint256",
        "label": "mapping(uint256 => address)",
        "numberOfBytes": "32",
        "value": "t_address"
      },
      "t_mapping(t_uint256,t_mapping(t_address,t_bool))": {
        "encoding": "mapping",
        "key": "t_uint256",
        "label": "mapping(uint256 => mapping(address => bool))",
        "numberOfBytes": "32",
        "value": "t_mapping(t_address,t_bool)"
      },
      "t_mapping(t_uint256,t_mapping(t_uint32,t_struct(ChainData)3175_storage))": {
        "encoding": "mapping",
        "key": "t_uint256",
        "label": "mapping(uint256 => mapping(uint32 => struct MessageClient.ChainData))",
        "numberOfBytes": "32",
        "value": "t_mapping(t_uint32,t_struct(ChainData)3175_storage)"
      },
      "t_mapping(t_uint256,t_string_storage)": {
        "encoding": "mapping",
        "key": "t_uint256",
        "label": "mapping(uint256 => string)",
        "numberOfBytes": "32",
        "value": "t_string_storage"
      },
      "t_mapping(t_uint256,t_struct(ChainData)3175_storage)": {
        "encoding": "mapping",
        "key": "t_uint256",
        "label": "mapping(uint256 => struct MessageClient.ChainData)",
        "numberOfBytes": "32",
        "value": "t_struct(ChainData)3175_storage"
      },
      "t_mapping(t_uint256,t_struct(PetData)4133_storage)": {
        "encoding": "mapping",
        "key": "t_uint256",
        "label": "mapping(uint256 => struct AdoptAPet.PetData)",
        "numberOfBytes": "32",
        "value": "t_struct(PetData)4133_storage"
      },
      "t_mapping(t_uint256,t_struct(ShelterData)4112_storage)": {
        "encoding": "mapping",
        "key": "t_uint256",
        "label": "mapping(uint256 => struct AdoptAPet.ShelterData)",
        "numberOfBytes": "32",
        "value": "t_struct(ShelterData)4112_storage"
      },
      "t_mapping(t_uint32,t_struct(ChainData)3175_storage)": {
        "encoding": "mapping",
        "key": "t_uint32",
        "label": "mapping(uint32 => struct MessageClient.ChainData)",
        "numberOfBytes": "32",
        "value": "t_struct(ChainData)3175_storage"
      },
      "t_string_storage": {
        "encoding": "bytes",
        "label": "string",
        "numberOfBytes": "32"
      },
      "t_struct(ChainData)3175_storage": {
        "encoding": "inplace",
        "label": "struct MessageClient.ChainData",
        "members": [
          {
            "astId": 3168,
            "contract": "contracts/AdoptAPet.sol:AdoptAPet",
            "label": "endpoint",
            "offset": 0,
            "slot": "0",
            "type": "t_address"
          },
          {
            "astId": 3170,
            "contract": "contracts/AdoptAPet.sol:AdoptAPet",
            "label": "endpointExtended",
            "offset": 0,
            "slot": "1",
            "type": "t_bytes_storage"
          },
          {
            "astId": 3172,
            "contract": "contracts/AdoptAPet.sol:AdoptAPet",
            "label": "confirmations",
            "offset": 0,
            "slot": "2",
            "type": "t_uint16"
          },
          {
            "astId": 3174,
            "contract": "contracts/AdoptAPet.sol:AdoptAPet",
            "label": "extended",
            "offset": 2,
            "slot": "2",
            "type": "t_bool"
          }
        ],
        "numberOfBytes": "96"
      },
      "t_struct(PetData)4133_storage": {
        "encoding": "inplace",
        "label": "struct AdoptAPet.PetData",
        "members": [
          {
            "astId": 4114,
            "contract": "contracts/AdoptAPet.sol:AdoptAPet",
            "label": "lastWalk",
            "offset": 0,
            "slot": "0",
            "type": "t_uint256"
          },
          {
            "astId": 4116,
            "contract": "contracts/AdoptAPet.sol:AdoptAPet",
            "label": "lastFeed",
            "offset": 0,
            "slot": "1",
            "type": "t_uint256"
          },
          {
            "astId": 4118,
            "contract": "contracts/AdoptAPet.sol:AdoptAPet",
            "label": "lastTreat",
            "offset": 0,
            "slot": "2",
            "type": "t_uint256"
          },
          {
            "astId": 4120,
            "contract": "contracts/AdoptAPet.sol:AdoptAPet",
            "label": "totalWalks",
            "offset": 0,
            "slot": "3",
            "type": "t_uint256"
          },
          {
            "astId": 4122,
            "contract": "contracts/AdoptAPet.sol:AdoptAPet",
            "label": "totalFeeds",
            "offset": 0,
            "slot": "4",
            "type": "t_uint256"
          },
          {
            "astId": 4124,
            "contract": "contracts/AdoptAPet.sol:AdoptAPet",
            "label": "totalTreats",
            "offset": 0,
            "slot": "5",
            "type": "t_uint256"
          },
          {
            "astId": 4126,
            "contract": "contracts/AdoptAPet.sol:AdoptAPet",
            "label": "name",
            "offset": 0,
            "slot": "6",
            "type": "t_string_storage"
          },
          {
            "astId": 4128,
            "contract": "contracts/AdoptAPet.sol:AdoptAPet",
            "label": "personality",
            "offset": 0,
            "slot": "7",
            "type": "t_string_storage"
          },
          {
            "astId": 4130,
            "contract": "contracts/AdoptAPet.sol:AdoptAPet",
            "label": "shelterId",
            "offset": 0,
            "slot": "8",
            "type": "t_uint256"
          },
          {
            "astId": 4132,
            "contract": "contracts/AdoptAPet.sol:AdoptAPet",
            "label": "adopted",
            "offset": 0,
            "slot": "9",
            "type": "t_bool"
          }
        ],
        "numberOfBytes": "320"
      },
      "t_struct(ShelterData)4112_storage": {
        "encoding": "inplace",
        "label": "struct AdoptAPet.ShelterData",
        "members": [
          {
            "astId": 4105,
            "contract": "contracts/AdoptAPet.sol:AdoptAPet",
            "label": "name",
            "offset": 0,
            "slot": "0",
            "type": "t_string_storage"
          },
          {
            "astId": 4107,
            "contract": "contracts/AdoptAPet.sol:AdoptAPet",
            "label": "location",
            "offset": 0,
            "slot": "1",
            "type": "t_string_storage"
          },
          {
            "astId": 4109,
            "contract": "contracts/AdoptAPet.sol:AdoptAPet",
            "label": "website",
            "offset": 0,
            "slot": "2",
            "type": "t_string_storage"
          },
          {
            "astId": 4111,
            "contract": "contracts/AdoptAPet.sol:AdoptAPet",
            "label": "email",
            "offset": 0,
            "slot": "3",
            "type": "t_string_storage"
          }
        ],
        "numberOfBytes": "128"
      },
      "t_uint16": {
        "encoding": "inplace",
        "label": "uint16",
        "numberOfBytes": "2"
      },
      "t_uint256": {
        "encoding": "inplace",
        "label": "uint256",
        "numberOfBytes": "32"
      },
      "t_uint32": {
        "encoding": "inplace",
        "label": "uint32",
        "numberOfBytes": "4"
      }
    }
  }
}