{
  "address": "0x12525dA5EC8024E5946a948a94acE4d9E8E6b4b6",
  "abi": [
    {
      "inputs": [],
      "stateMutability": "nonpayable",
      "type": "constructor"
    },
    {
      "anonymous": false,
      "inputs": [
        {
          "indexed": false,
          "internalType": "uint256",
          "name": "_actionCost",
          "type": "uint256"
        }
      ],
      "name": "ActionCostSet",
      "type": "event"
    },
    {
      "anonymous": false,
      "inputs": [
        {
          "indexed": true,
          "internalType": "address",
          "name": "owner",
          "type": "address"
        },
        {
          "indexed": true,
          "internalType": "address",
          "name": "approved",
          "type": "address"
        },
        {
          "indexed": true,
          "internalType": "uint256",
          "name": "tokenId",
          "type": "uint256"
        }
      ],
      "name": "Approval",
      "type": "event"
    },
    {
      "anonymous": false,
      "inputs": [
        {
          "indexed": true,
          "internalType": "address",
          "name": "owner",
          "type": "address"
        },
        {
          "indexed": true,
          "internalType": "address",
          "name": "operator",
          "type": "address"
        },
        {
          "indexed": false,
          "internalType": "bool",
          "name": "approved",
          "type": "bool"
        }
      ],
      "name": "ApprovalForAll",
      "type": "event"
    },
    {
      "anonymous": false,
      "inputs": [
        {
          "indexed": false,
          "internalType": "address",
          "name": "previousOwner",
          "type": "address"
        },
        {
          "indexed": false,
          "internalType": "address",
          "name": "newOwner",
          "type": "address"
        }
      ],
      "name": "MessageOwnershipTransferred",
      "type": "event"
    },
    {
      "anonymous": false,
      "inputs": [
        {
          "indexed": false,
          "internalType": "uint256",
          "name": "_nftId",
          "type": "uint256"
        }
      ],
      "name": "MetadataUpdate",
      "type": "event"
    },
    {
      "anonymous": false,
      "inputs": [
        {
          "indexed": true,
          "internalType": "address",
          "name": "previousOwner",
          "type": "address"
        },
        {
          "indexed": true,
          "internalType": "address",
          "name": "newOwner",
          "type": "address"
        }
      ],
      "name": "OwnershipTransferred",
      "type": "event"
    },
    {
      "anonymous": false,
      "inputs": [
        {
          "indexed": false,
          "internalType": "uint256",
          "name": "_nftId",
          "type": "uint256"
        }
      ],
      "name": "PetAdded",
      "type": "event"
    },
    {
      "anonymous": false,
      "inputs": [
        {
          "indexed": false,
          "internalType": "uint256",
          "name": "_nftId",
          "type": "uint256"
        }
      ],
      "name": "PetAdopted",
      "type": "event"
    },
    {
      "anonymous": false,
      "inputs": [
        {
          "indexed": false,
          "internalType": "uint256",
          "name": "_nftId",
          "type": "uint256"
        },
        {
          "indexed": false,
          "internalType": "uint256",
          "name": "_destChainId",
          "type": "uint256"
        },
        {
          "indexed": false,
          "internalType": "address",
          "name": "_recipient",
          "type": "address"
        }
      ],
      "name": "PetBridged",
      "type": "event"
    },
    {
      "anonymous": false,
      "inputs": [
        {
          "indexed": false,
          "internalType": "uint256",
          "name": "_nftId",
          "type": "uint256"
        }
      ],
      "name": "PetFed",
      "type": "event"
    },
    {
      "anonymous": false,
      "inputs": [
        {
          "indexed": false,
          "internalType": "uint256",
          "name": "_nftId",
          "type": "uint256"
        }
      ],
      "name": "PetRescued",
      "type": "event"
    },
    {
      "anonymous": false,
      "inputs": [
        {
          "indexed": false,
          "internalType": "uint256",
          "name": "_nftId",
          "type": "uint256"
        }
      ],
      "name": "PetTreated",
      "type": "event"
    },
    {
      "anonymous": false,
      "inputs": [
        {
          "indexed": false,
          "internalType": "uint256",
          "name": "_nftId",
          "type": "uint256"
        }
      ],
      "name": "PetWalked",
      "type": "event"
    },
    {
      "anonymous": false,
      "inputs": [
        {
          "indexed": false,
          "internalType": "address",
          "name": "owner",
          "type": "address"
        },
        {
          "indexed": false,
          "internalType": "address",
          "name": "token",
          "type": "address"
        },
        {
          "indexed": false,
          "internalType": "uint256",
          "name": "amount",
          "type": "uint256"
        }
      ],
      "name": "RecoverToken",
      "type": "event"
    },
    {
      "anonymous": false,
      "inputs": [
        {
          "indexed": false,
          "internalType": "uint256",
          "name": "txId",
          "type": "uint256"
        },
        {
          "indexed": false,
          "internalType": "uint256",
          "name": "destinationChainId",
          "type": "uint256"
        },
        {
          "indexed": false,
          "internalType": "uint32",
          "name": "featureId",
          "type": "uint32"
        },
        {
          "indexed": false,
          "internalType": "bytes",
          "name": "featureData",
          "type": "bytes"
        }
      ],
      "name": "SendMessageWithFeature",
      "type": "event"
    },
    {
      "anonymous": false,
      "inputs": [
        {
          "indexed": false,
          "internalType": "address",
          "name": "owner",
          "type": "address"
        },
        {
          "indexed": false,
          "internalType": "address",
          "name": "exsig",
          "type": "address"
        }
      ],
      "name": "SetExsig",
      "type": "event"
    },
    {
      "anonymous": false,
      "inputs": [
        {
          "indexed": false,
          "internalType": "address",
          "name": "owner",
          "type": "address"
        },
        {
          "indexed": false,
          "internalType": "uint256",
          "name": "maxfee",
          "type": "uint256"
        }
      ],
      "name": "SetMaxfee",
      "type": "event"
    },
    {
      "anonymous": false,
      "inputs": [
        {
          "indexed": false,
          "internalType": "address",
          "name": "owner",
          "type": "address"
        },
        {
          "indexed": false,
          "internalType": "uint256",
          "name": "maxGas",
          "type": "uint256"
        }
      ],
      "name": "SetMaxgas",
      "type": "event"
    },
    {
      "anonymous": false,
      "inputs": [
        {
          "indexed": false,
          "internalType": "uint256",
          "name": "_shelterId",
          "type": "uint256"
        }
      ],
      "name": "ShelterAdded",
      "type": "event"
    },
    {
      "anonymous": false,
      "inputs": [
        {
          "indexed": false,
          "internalType": "uint256",
          "name": "_shelterId",
          "type": "uint256"
        },
        {
          "indexed": false,
          "internalType": "address",
          "name": "_manager",
          "type": "address"
        }
      ],
      "name": "ShelterManagerAdded",
      "type": "event"
    },
    {
      "anonymous": false,
      "inputs": [
        {
          "indexed": false,
          "internalType": "uint256",
          "name": "_shelterId",
          "type": "uint256"
        },
        {
          "indexed": false,
          "internalType": "address",
          "name": "_manager",
          "type": "address"
        }
      ],
      "name": "ShelterManagerRemoved",
      "type": "event"
    },
    {
      "anonymous": false,
      "inputs": [
        {
          "indexed": true,
          "internalType": "address",
          "name": "from",
          "type": "address"
        },
        {
          "indexed": true,
          "internalType": "address",
          "name": "to",
          "type": "address"
        },
        {
          "indexed": true,
          "internalType": "uint256",
          "name": "tokenId",
          "type": "uint256"
        }
      ],
      "name": "Transfer",
      "type": "event"
    },
    {
      "stateMutability": "payable",
      "type": "fallback"
    },
    {
      "inputs": [
        {
          "internalType": "uint256",
          "name": "",
          "type": "uint256"
        }
      ],
      "name": "CHAINS",
      "outputs": [
        {
          "internalType": "address",
          "name": "endpoint",
          "type": "address"
        },
        {
          "internalType": "bytes",
          "name": "endpointExtended",
          "type": "bytes"
        },
        {
          "internalType": "uint16",
          "name": "confirmations",
          "type": "uint16"
        },
        {
          "internalType": "bool",
          "name": "extended",
          "type": "bool"
        }
      ],
      "stateMutability": "view",
      "type": "function"
    },
    {
      "inputs": [
        {
          "internalType": "uint256",
          "name": "",
          "type": "uint256"
        },
        {
          "internalType": "uint32",
          "name": "",
          "type": "uint32"
        }
      ],
      "name": "FEATURES",
      "outputs": [
        {
          "internalType": "address",
          "name": "endpoint",
          "type": "address"
        },
        {
          "internalType": "bytes",
          "name": "endpointExtended",
          "type": "bytes"
        },
        {
          "internalType": "uint16",
          "name": "confirmations",
          "type": "uint16"
        },
        {
          "internalType": "bool",
          "name": "extended",
          "type": "bool"
        }
      ],
      "stateMutability": "view",
      "type": "function"
    },
    {
      "inputs": [],
      "name": "FEATURE_GATEWAY",
      "outputs": [
        {
          "internalType": "contract IFeatureGateway",
          "name": "",
          "type": "address"
        }
      ],
      "stateMutability": "view",
      "type": "function"
    },
    {
      "inputs": [],
      "name": "FEE_TOKEN",
      "outputs": [
        {
          "internalType": "contract IERC20cl",
          "name": "",
          "type": "address"
        }
      ],
      "stateMutability": "view",
      "type": "function"
    },
    {
      "inputs": [],
      "name": "MESSAGE_OWNER",
      "outputs": [
        {
          "internalType": "address",
          "name": "",
          "type": "address"
        }
      ],
      "stateMutability": "view",
      "type": "function"
    },
    {
      "inputs": [],
      "name": "MESSAGEv3",
      "outputs": [
        {
          "internalType": "contract IMessageV3",
          "name": "",
          "type": "address"
        }
      ],
      "stateMutability": "view",
      "type": "function"
    },
    {
      "inputs": [],
      "name": "actionCost",
      "outputs": [
        {
          "internalType": "uint256",
          "name": "",
          "type": "uint256"
        }
      ],
      "stateMutability": "view",
      "type": "function"
    },
    {
      "inputs": [
        {
          "internalType": "uint256",
          "name": "_shelterId",
          "type": "uint256"
        },
        {
          "internalType": "string",
          "name": "_name",
          "type": "string"
        },
        {
          "internalType": "string",
          "name": "_image",
          "type": "string"
        },
        {
          "internalType": "string",
          "name": "_personality",
          "type": "string"
        }
      ],
      "name": "addPet",
      "outputs": [],
      "stateMutability": "nonpayable",
      "type": "function"
    },
    {
      "inputs": [
        {
          "internalType": "address",
          "name": "_accountant",
          "type": "address"
        },
        {
          "internalType": "string",
          "name": "_name",
          "type": "string"
        },
        {
          "internalType": "string",
          "name": "_location",
          "type": "string"
        },
        {
          "internalType": "string",
          "name": "_website",
          "type": "string"
        },
        {
          "internalType": "string",
          "name": "_email",
          "type": "string"
        }
      ],
      "name": "addShelter",
      "outputs": [],
      "stateMutability": "nonpayable",
      "type": "function"
    },
    {
      "inputs": [
        {
          "internalType": "uint256",
          "name": "_shelterId",
          "type": "uint256"
        },
        {
          "internalType": "address",
          "name": "_manager",
          "type": "address"
        }
      ],
      "name": "addShelterManager",
      "outputs": [],
      "stateMutability": "nonpayable",
      "type": "function"
    },
    {
      "inputs": [
        {
          "internalType": "uint256",
          "name": "_nftId",
          "type": "uint256"
        }
      ],
      "name": "adoptPet",
      "outputs": [],
      "stateMutability": "nonpayable",
      "type": "function"
    },
    {
      "inputs": [
        {
          "internalType": "uint256",
          "name": "",
          "type": "uint256"
        }
      ],
      "name": "allShelters",
      "outputs": [
        {
          "internalType": "uint256",
          "name": "",
          "type": "uint256"
        }
      ],
      "stateMutability": "view",
      "type": "function"
    },
    {
      "inputs": [
        {
          "internalType": "address",
          "name": "to",
          "type": "address"
        },
        {
          "internalType": "uint256",
          "name": "tokenId",
          "type": "uint256"
        }
      ],
      "name": "approve",
      "outputs": [],
      "stateMutability": "nonpayable",
      "type": "function"
    },
    {
      "inputs": [
        {
          "internalType": "uint256",
          "name": "",
          "type": "uint256"
        }
      ],
      "name": "availablePets",
      "outputs": [
        {
          "internalType": "uint256",
          "name": "",
          "type": "uint256"
        }
      ],
      "stateMutability": "view",
      "type": "function"
    },
    {
      "inputs": [
        {
          "internalType": "address",
          "name": "owner",
          "type": "address"
        }
      ],
      "name": "balanceOf",
      "outputs": [
        {
          "internalType": "uint256",
          "name": "",
          "type": "uint256"
        }
      ],
      "stateMutability": "view",
      "type": "function"
    },
    {
      "inputs": [
        {
          "internalType": "uint256",
          "name": "_destChainId",
          "type": "uint256"
        },
        {
          "internalType": "address",
          "name": "_recipient",
          "type": "address"
        },
        {
          "internalType": "uint256",
          "name": "_nftId",
          "type": "uint256"
        }
      ],
      "name": "bridge",
      "outputs": [],
      "stateMutability": "nonpayable",
      "type": "function"
    },
    {
      "inputs": [
        {
          "internalType": "address",
          "name": "_messageV3",
          "type": "address"
        },
        {
          "internalType": "uint256[]",
          "name": "_chains",
          "type": "uint256[]"
        },
        {
          "internalType": "address[]",
          "name": "_endpoints",
          "type": "address[]"
        },
        {
          "internalType": "uint16[]",
          "name": "_confirmations",
          "type": "uint16[]"
        }
      ],
      "name": "configureClient",
      "outputs": [],
      "stateMutability": "nonpayable",
      "type": "function"
    },
    {
      "inputs": [
        {
          "internalType": "address",
          "name": "_messageV3",
          "type": "address"
        },
        {
          "internalType": "uint256[]",
          "name": "_chains",
          "type": "uint256[]"
        },
        {
          "internalType": "bytes[]",
          "name": "_endpoints",
          "type": "bytes[]"
        },
        {
          "internalType": "uint16[]",
          "name": "_confirmations",
          "type": "uint16[]"
        }
      ],
      "name": "configureClientExtended",
      "outputs": [],
      "stateMutability": "nonpayable",
      "type": "function"
    },
    {
      "inputs": [
        {
          "internalType": "address",
          "name": "_featureGateway",
          "type": "address"
        }
      ],
      "name": "configureFeatureGateway",
      "outputs": [],
      "stateMutability": "nonpayable",
      "type": "function"
    },
    {
      "inputs": [
        {
          "internalType": "uint256",
          "name": "_nftId",
          "type": "uint256"
        }
      ],
      "name": "feed",
      "outputs": [],
      "stateMutability": "payable",
      "type": "function"
    },
    {
      "inputs": [],
      "name": "getAllShelters",
      "outputs": [
        {
          "internalType": "uint256[]",
          "name": "",
          "type": "uint256[]"
        }
      ],
      "stateMutability": "view",
      "type": "function"
    },
    {
      "inputs": [
        {
          "internalType": "uint256",
          "name": "tokenId",
          "type": "uint256"
        }
      ],
      "name": "getApproved",
      "outputs": [
        {
          "internalType": "address",
          "name": "",
          "type": "address"
        }
      ],
      "stateMutability": "view",
      "type": "function"
    },
    {
      "inputs": [],
      "name": "getAvailablePets",
      "outputs": [
        {
          "internalType": "uint256[]",
          "name": "",
          "type": "uint256[]"
        }
      ],
      "stateMutability": "view",
      "type": "function"
    },
    {
      "inputs": [
        {
          "internalType": "uint256",
          "name": "_nftId",
          "type": "uint256"
        }
      ],
      "name": "getLastMessage",
      "outputs": [
        {
          "internalType": "string",
          "name": "",
          "type": "string"
        }
      ],
      "stateMutability": "view",
      "type": "function"
    },
    {
      "inputs": [
        {
          "internalType": "uint256",
          "name": "_nftId",
          "type": "uint256"
        }
      ],
      "name": "getPet",
      "outputs": [
        {
          "components": [
            {
              "internalType": "uint256",
              "name": "lastWalk",
              "type": "uint256"
            },
            {
              "internalType": "uint256",
              "name": "lastFeed",
              "type": "uint256"
            },
            {
              "internalType": "uint256",
              "name": "lastTreat",
              "type": "uint256"
            },
            {
              "internalType": "uint256",
              "name": "totalWalks",
              "type": "uint256"
            },
            {
              "internalType": "uint256",
              "name": "totalFeeds",
              "type": "uint256"
            },
            {
              "internalType": "uint256",
              "name": "totalTreats",
              "type": "uint256"
            },
            {
              "internalType": "string",
              "name": "name",
              "type": "string"
            },
            {
              "internalType": "string",
              "name": "personality",
              "type": "string"
            },
            {
              "internalType": "string",
              "name": "image",
              "type": "string"
            },
            {
              "internalType": "uint256",
              "name": "shelterId",
              "type": "uint256"
            },
            {
              "internalType": "bool",
              "name": "adopted",
              "type": "bool"
            }
          ],
          "internalType": "struct AdoptAPet.PetData",
          "name": "",
          "type": "tuple"
        }
      ],
      "stateMutability": "view",
      "type": "function"
    },
    {
      "inputs": [
        {
          "internalType": "uint256",
          "name": "_shelterId",
          "type": "uint256"
        }
      ],
      "name": "getShelter",
      "outputs": [
        {
          "components": [
            {
              "internalType": "string",
              "name": "name",
              "type": "string"
            },
            {
              "internalType": "string",
              "name": "location",
              "type": "string"
            },
            {
              "internalType": "string",
              "name": "website",
              "type": "string"
            },
            {
              "internalType": "string",
              "name": "email",
              "type": "string"
            },
            {
              "internalType": "address",
              "name": "accountant",
              "type": "address"
            }
          ],
          "internalType": "struct AdoptAPet.ShelterData",
          "name": "",
          "type": "tuple"
        }
      ],
      "stateMutability": "view",
      "type": "function"
    },
    {
      "inputs": [
        {
          "internalType": "address",
          "name": "owner",
          "type": "address"
        },
        {
          "internalType": "address",
          "name": "operator",
          "type": "address"
        }
      ],
      "name": "isApprovedForAll",
      "outputs": [
        {
          "internalType": "bool",
          "name": "",
          "type": "bool"
        }
      ],
      "stateMutability": "view",
      "type": "function"
    },
    {
      "inputs": [
        {
          "internalType": "address",
          "name": "_sender",
          "type": "address"
        },
        {
          "internalType": "uint256",
          "name": "_sourceChainId",
          "type": "uint256"
        }
      ],
      "name": "isAuthorized",
      "outputs": [
        {
          "internalType": "bool",
          "name": "",
          "type": "bool"
        }
      ],
      "stateMutability": "view",
      "type": "function"
    },
    {
      "inputs": [
        {
          "internalType": "address",
          "name": "_sender",
          "type": "address"
        },
        {
          "internalType": "uint256",
          "name": "_sourceChainId",
          "type": "uint256"
        }
      ],
      "name": "isSelf",
      "outputs": [
        {
          "internalType": "bool",
          "name": "",
          "type": "bool"
        }
      ],
      "stateMutability": "view",
      "type": "function"
    },
    {
      "inputs": [
        {
          "internalType": "uint256",
          "name": "",
          "type": "uint256"
        },
        {
          "internalType": "uint256",
          "name": "_sourceChainId",
          "type": "uint256"
        },
        {
          "internalType": "address",
          "name": "_sender",
          "type": "address"
        },
        {
          "internalType": "address",
          "name": "",
          "type": "address"
        },
        {
          "internalType": "uint256",
          "name": "",
          "type": "uint256"
        },
        {
          "internalType": "bytes",
          "name": "_data",
          "type": "bytes"
        }
      ],
      "name": "messageProcess",
      "outputs": [],
      "stateMutability": "nonpayable",
      "type": "function"
    },
    {
      "inputs": [
        {
          "internalType": "uint256",
          "name": "",
          "type": "uint256"
        }
      ],
      "name": "messages",
      "outputs": [
        {
          "internalType": "string",
          "name": "",
          "type": "string"
        }
      ],
      "stateMutability": "view",
      "type": "function"
    },
    {
      "inputs": [],
      "name": "name",
      "outputs": [
        {
          "internalType": "string",
          "name": "",
          "type": "string"
        }
      ],
      "stateMutability": "view",
      "type": "function"
    },
    {
      "inputs": [],
      "name": "nextNftId",
      "outputs": [
        {
          "internalType": "uint256",
          "name": "",
          "type": "uint256"
        }
      ],
      "stateMutability": "view",
      "type": "function"
    },
    {
      "inputs": [],
      "name": "nextShelterId",
      "outputs": [
        {
          "internalType": "uint256",
          "name": "",
          "type": "uint256"
        }
      ],
      "stateMutability": "view",
      "type": "function"
    },
    {
      "inputs": [],
      "name": "owner",
      "outputs": [
        {
          "internalType": "address",
          "name": "",
          "type": "address"
        }
      ],
      "stateMutability": "view",
      "type": "function"
    },
    {
      "inputs": [
        {
          "internalType": "uint256",
          "name": "tokenId",
          "type": "uint256"
        }
      ],
      "name": "ownerOf",
      "outputs": [
        {
          "internalType": "address",
          "name": "",
          "type": "address"
        }
      ],
      "stateMutability": "view",
      "type": "function"
    },
    {
      "inputs": [
        {
          "internalType": "uint256",
          "name": "",
          "type": "uint256"
        }
      ],
      "name": "pets",
      "outputs": [
        {
          "internalType": "uint256",
          "name": "lastWalk",
          "type": "uint256"
        },
        {
          "internalType": "uint256",
          "name": "lastFeed",
          "type": "uint256"
        },
        {
          "internalType": "uint256",
          "name": "lastTreat",
          "type": "uint256"
        },
        {
          "internalType": "uint256",
          "name": "totalWalks",
          "type": "uint256"
        },
        {
          "internalType": "uint256",
          "name": "totalFeeds",
          "type": "uint256"
        },
        {
          "internalType": "uint256",
          "name": "totalTreats",
          "type": "uint256"
        },
        {
          "internalType": "string",
          "name": "name",
          "type": "string"
        },
        {
          "internalType": "string",
          "name": "personality",
          "type": "string"
        },
        {
          "internalType": "string",
          "name": "image",
          "type": "string"
        },
        {
          "internalType": "uint256",
          "name": "shelterId",
          "type": "uint256"
        },
        {
          "internalType": "bool",
          "name": "adopted",
          "type": "bool"
        }
      ],
      "stateMutability": "view",
      "type": "function"
    },
    {
      "inputs": [
        {
          "internalType": "address",
          "name": "_token",
          "type": "address"
        },
        {
          "internalType": "uint256",
          "name": "_amount",
          "type": "uint256"
        }
      ],
      "name": "recoverToken",
      "outputs": [],
      "stateMutability": "nonpayable",
      "type": "function"
    },
    {
      "inputs": [
        {
          "internalType": "uint256",
          "name": "_shelterId",
          "type": "uint256"
        },
        {
          "internalType": "address",
          "name": "_manager",
          "type": "address"
        }
      ],
      "name": "removeShelterManager",
      "outputs": [],
      "stateMutability": "nonpayable",
      "type": "function"
    },
    {
      "inputs": [],
      "name": "renounceOwnership",
      "outputs": [],
      "stateMutability": "nonpayable",
      "type": "function"
    },
    {
      "inputs": [
        {
          "internalType": "uint256",
          "name": "_nftId",
          "type": "uint256"
        }
      ],
      "name": "rescue",
      "outputs": [],
      "stateMutability": "payable",
      "type": "function"
    },
    {
      "inputs": [
        {
          "internalType": "address",
          "name": "from",
          "type": "address"
        },
        {
          "internalType": "address",
          "name": "to",
          "type": "address"
        },
        {
          "internalType": "uint256",
          "name": "tokenId",
          "type": "uint256"
        }
      ],
      "name": "safeTransferFrom",
      "outputs": [],
      "stateMutability": "nonpayable",
      "type": "function"
    },
    {
      "inputs": [
        {
          "internalType": "address",
          "name": "from",
          "type": "address"
        },
        {
          "internalType": "address",
          "name": "to",
          "type": "address"
        },
        {
          "internalType": "uint256",
          "name": "tokenId",
          "type": "uint256"
        },
        {
          "internalType": "bytes",
          "name": "data",
          "type": "bytes"
        }
      ],
      "name": "safeTransferFrom",
      "outputs": [],
      "stateMutability": "nonpayable",
      "type": "function"
    },
    {
      "inputs": [
        {
          "internalType": "uint256",
          "name": "_actionCost",
          "type": "uint256"
        }
      ],
      "name": "setActionCost",
      "outputs": [],
      "stateMutability": "nonpayable",
      "type": "function"
    },
    {
      "inputs": [
        {
          "internalType": "address",
          "name": "operator",
          "type": "address"
        },
        {
          "internalType": "bool",
          "name": "approved",
          "type": "bool"
        }
      ],
      "name": "setApprovalForAll",
      "outputs": [],
      "stateMutability": "nonpayable",
      "type": "function"
    },
    {
      "inputs": [
        {
          "internalType": "address",
          "name": "_signer",
          "type": "address"
        }
      ],
      "name": "setExsig",
      "outputs": [],
      "stateMutability": "nonpayable",
      "type": "function"
    },
    {
      "inputs": [
        {
          "internalType": "uint256",
          "name": "_maxFee",
          "type": "uint256"
        }
      ],
      "name": "setMaxfee",
      "outputs": [],
      "stateMutability": "nonpayable",
      "type": "function"
    },
    {
      "inputs": [
        {
          "internalType": "uint256",
          "name": "_maxGas",
          "type": "uint256"
        }
      ],
      "name": "setMaxgas",
      "outputs": [],
      "stateMutability": "nonpayable",
      "type": "function"
    },
    {
      "inputs": [
        {
          "internalType": "uint256",
          "name": "",
          "type": "uint256"
        }
      ],
      "name": "shelterAccountant",
      "outputs": [
        {
          "internalType": "address",
          "name": "",
          "type": "address"
        }
      ],
      "stateMutability": "view",
      "type": "function"
    },
    {
      "inputs": [
        {
          "internalType": "uint256",
          "name": "",
          "type": "uint256"
        },
        {
          "internalType": "address",
          "name": "",
          "type": "address"
        }
      ],
      "name": "shelterManagers",
      "outputs": [
        {
          "internalType": "bool",
          "name": "",
          "type": "bool"
        }
      ],
      "stateMutability": "view",
      "type": "function"
    },
    {
      "inputs": [
        {
          "internalType": "uint256",
          "name": "",
          "type": "uint256"
        }
      ],
      "name": "shelters",
      "outputs": [
        {
          "internalType": "string",
          "name": "name",
          "type": "string"
        },
        {
          "internalType": "string",
          "name": "location",
          "type": "string"
        },
        {
          "internalType": "string",
          "name": "website",
          "type": "string"
        },
        {
          "internalType": "string",
          "name": "email",
          "type": "string"
        },
        {
          "internalType": "address",
          "name": "accountant",
          "type": "address"
        }
      ],
      "stateMutability": "view",
      "type": "function"
    },
    {
      "inputs": [
        {
          "internalType": "bytes4",
          "name": "interfaceId",
          "type": "bytes4"
        }
      ],
      "name": "supportsInterface",
      "outputs": [
        {
          "internalType": "bool",
          "name": "",
          "type": "bool"
        }
      ],
      "stateMutability": "view",
      "type": "function"
    },
    {
      "inputs": [],
      "name": "symbol",
      "outputs": [
        {
          "internalType": "string",
          "name": "",
          "type": "string"
        }
      ],
      "stateMutability": "view",
      "type": "function"
    },
    {
      "inputs": [
        {
          "internalType": "uint256",
          "name": "index",
          "type": "uint256"
        }
      ],
      "name": "tokenByIndex",
      "outputs": [
        {
          "internalType": "uint256",
          "name": "",
          "type": "uint256"
        }
      ],
      "stateMutability": "view",
      "type": "function"
    },
    {
      "inputs": [
        {
          "internalType": "address",
          "name": "owner",
          "type": "address"
        },
        {
          "internalType": "uint256",
          "name": "index",
          "type": "uint256"
        }
      ],
      "name": "tokenOfOwnerByIndex",
      "outputs": [
        {
          "internalType": "uint256",
          "name": "",
          "type": "uint256"
        }
      ],
      "stateMutability": "view",
      "type": "function"
    },
    {
      "inputs": [
        {
          "internalType": "uint256",
          "name": "tokenId",
          "type": "uint256"
        }
      ],
      "name": "tokenURI",
      "outputs": [
        {
          "internalType": "string",
          "name": "",
          "type": "string"
        }
      ],
      "stateMutability": "view",
      "type": "function"
    },
    {
      "inputs": [],
      "name": "totalSupply",
      "outputs": [
        {
          "internalType": "uint256",
          "name": "",
          "type": "uint256"
        }
      ],
      "stateMutability": "view",
      "type": "function"
    },
    {
      "inputs": [
        {
          "internalType": "address",
          "name": "from",
          "type": "address"
        },
        {
          "internalType": "address",
          "name": "to",
          "type": "address"
        },
        {
          "internalType": "uint256",
          "name": "tokenId",
          "type": "uint256"
        }
      ],
      "name": "transferFrom",
      "outputs": [],
      "stateMutability": "nonpayable",
      "type": "function"
    },
    {
      "inputs": [
        {
          "internalType": "address",
          "name": "_newMessageOwner",
          "type": "address"
        }
      ],
      "name": "transferMessageOwnership",
      "outputs": [],
      "stateMutability": "nonpayable",
      "type": "function"
    },
    {
      "inputs": [
        {
          "internalType": "address",
          "name": "newOwner",
          "type": "address"
        }
      ],
      "name": "transferOwnership",
      "outputs": [],
      "stateMutability": "nonpayable",
      "type": "function"
    },
    {
      "inputs": [
        {
          "internalType": "uint256",
          "name": "_nftId",
          "type": "uint256"
        }
      ],
      "name": "treat",
      "outputs": [],
      "stateMutability": "payable",
      "type": "function"
    },
    {
      "inputs": [
        {
          "internalType": "uint256",
          "name": "_nftId",
          "type": "uint256"
        }
      ],
      "name": "walk",
      "outputs": [],
      "stateMutability": "payable",
      "type": "function"
    },
    {
      "inputs": [
        {
          "internalType": "address",
          "name": "owner",
          "type": "address"
        }
      ],
      "name": "walletOfOwner",
      "outputs": [
        {
          "internalType": "uint256[]",
          "name": "",
          "type": "uint256[]"
        }
      ],
      "stateMutability": "view",
      "type": "function"
    },
    {
      "stateMutability": "payable",
      "type": "receive"
    }
  ],
  "transactionHash": "0xfd055be3cb6b745f3d16255f76db5979acc6d1774de483fc9f4e252309638329",
  "args": [],
  "numDeployments": 6,
  "solcInputHash": "4533dc2891912066b520b4c7740bb789",
  "bytecode": "0x6080346200039d576001600160401b03906040908082018381118282101762000387578252600b81526020906a10591bdc1d08104814195d60aa1b828201528251938385018581108282111762000387578452600385526204141560ec1b83860152815181811162000387576000938454916001948584811c941680156200037c575b8385101462000368578190601f9485811162000315575b508390858311600114620002b1578892620002a5575b5050600019600383901b1c191690851b1785555b8651928311620002915783548481811c9116801562000286575b8282101462000272578281116200022a575b5080918311600114620001c3575083949582939492620001b7575b5050600019600383901b1c191690821b1790555b600a8054336001600160a01b03198083168217909355935193906001600160a01b03167f8be0079c531659141344cd1fd0a4f28419497f9722a3daafe3b4186f6b6457e08480a333906010541617601055655af3107a4000601a5561271090814602914683041446151715620001a357508060115560125561547f9081620003a38239f35b634e487b7160e01b81526011600452602490fd5b0151905038806200010a565b90601f198316968486528286209286905b89821062000212575050838596979810620001f8575b505050811b0190556200011e565b015160001960f88460031b161c19169055388080620001ea565b808785968294968601518155019501930190620001d4565b8486528186208380860160051c82019284871062000268575b0160051c019085905b8281106200025c575050620000ef565b8781550185906200024c565b9250819262000243565b634e487b7160e01b86526022600452602486fd5b90607f1690620000dd565b634e487b7160e01b85526041600452602485fd5b015190503880620000af565b8880528489208894509190601f1984168a5b87828210620002fe5750508411620002e4575b505050811b018555620000c3565b015160001960f88460031b161c19169055388080620002d6565b8385015186558b97909501949384019301620002c3565b9091508780528388208580850160051c8201928686106200035e575b918991869594930160051c01915b8281106200034f57505062000099565b8a81558594508991016200033f565b9250819262000331565b634e487b7160e01b87526022600452602487fd5b93607f169362000082565b634e487b7160e01b600052604160045260246000fd5b600080fdfe60806040526004361015610018575b361561001657005b005b60003560e01c806301ffc9a7146104f257806302b3b368146104e95780630581f59d146104e057806306fdde03146104d7578063081812fc146104ce578063095ea7b3146104c55780630d029802146104bc5780630d80fefd146103c057806318160ddd146104b357806319b81577146104aa57806320bfe3421461049857806323b872dd146104a15780632972b0f0146104985780632ee02d7c1461048f5780632f745c59146104865780632f820a5f1461047d57806342842e0e14610474578063438b63001461046b5780634f139b49146104625780634f154c54146104595780634f6ccce714610450578063559b2f6514610447578063585c7edd1461043e57806359d55194146104355780635b77a6a61461042c5780635f46e740146104235780636352211e1461041a5780636ac053ad146104115780637044cd7e1461040857806370a08231146103ff578063715018a6146103f657806373717b08146103ed578063788063f0146103e4578063794b4643146103db5780637a29fa66146103d25780637b84044d146103c9578063823a1db1146103c0578063853c75d8146103b75780638da5cb5b146103ae57806392ae12fd146103a557806393f1da4f1461039c57806395d89b41146103935780639877f2f31461038a578063a22cb46514610381578063a2db916914610378578063a6bc4d671461036f578063a771ac1514610366578063b29a81401461035d578063b479a96114610354578063b7f494a41461034b578063b88d4fde14610342578063bb0b983014610339578063bd3d9a2114610330578063c60853f614610327578063c87b56dd1461031e578063c96fba4014610315578063cfb869bf1461030c578063e47ad74d14610303578063e985e9c5146102fa578063f2fde38b146102f1578063f52a9198146102e8578063f59dfdfb146102df5763f71941380361000e576102da613258565b61000e565b506102da613193565b506102da61312f565b506102da613066565b506102da613009565b506102da612f27565b506102da612e8e565b506102da612dff565b506102da612790565b506102da6126b3565b506102da61267e565b506102da612654565b506102da6125fd565b506102da6124b8565b506102da6123d0565b506102da6122b7565b506102da612226565b506102da61208d565b506102da611f34565b506102da611dca565b506102da611d28565b506102da611c82565b506102da611c63565b506102da611bfa565b506102da611b99565b506102da611b6f565b506102da610bda565b506102da611ada565b506102da611a88565b506102da611a69565b506102da611a17565b506102da6119d6565b506102da611977565b506102da61194f565b506102da6118b3565b506102da6116f5565b506102da6116d6565b506102da611666565b506102da61160f565b506102da6114f5565b506102da6113cd565b506102da611340565b506102da611294565b506102da61120c565b506102da6111bf565b506102da611119565b506102da611097565b506102da610ff3565b506102da610fbf565b506102da610ebd565b506102da610d90565b506102da610df2565b506102da610c4b565b506102da610c2c565b506102da610a19565b506102da610940565b506102da6108fe565b506102da61081a565b506102da6106de565b506102da61059b565b506102da610512565b6001600160e01b031981160361050d57565b600080fd5b503461050d57602036600319011261050d576020600435610532816104fb565b63ffffffff60e01b1663780e9d6360e01b8114908115610558575b506040519015158152f35b6380ac58cd60e01b81149150811561058a575b8115610579575b503861054d565b6301ffc9a760e01b14905038610572565b635b5e139f60e01b8114915061056b565b50602036600319011261050d577f270b33e55d2417c1b1aef69f10fe745f3b7c907307cd45c038ef7f5490d655326106c26004356105dd601a54341015613f89565b6105f96105e9826133c4565b6001600160a01b03163314613fd5565b600080808061064b61063f61063f61063260096106208a6000526014602052604060002090565b01546000526017602052604060002090565b546001600160a01b031690565b6001600160a01b031690565b819034156106d4575b3491f1156106c7575b6005610673826000526014602052604060002090565b426002820155016106848154613ad1565b90556040518181527ff8e1a15aba9398e019f0b49df1a4fde98ee17ae345cb5f6b5e2c27f5033e8ce790602090a16040519081529081906020820190565b0390a1005b6106cf613899565b61065d565b6108fc9150610654565b50602036600319011261050d577f01907761d11c22471f309f9f408da0f1f10120847e63448528be36911ab6bca16106c2600435610720601a54341015613f89565b61072c6105e9826133c4565b600080808061075361063f61063f61063260096106208a6000526014602052604060002090565b819034156107a9575b3491f11561079c575b4261077a826000526014602052604060002090565b556003610791826000526014602052604060002090565b016106848154613ad1565b6107a4613899565b610765565b6108fc915061075c565b600091031261050d57565b60005b8381106107d15750506000910152565b81810151838201526020016107c1565b906020916107fa815180928185528580860191016107be565b601f01601f1916010190565b9060206108179281815201906107e1565b90565b503461050d576000806003193601126108fb576040519080805461083d81610a43565b808552916001918083169081156108d15750600114610877575b6108738561086781870382610b9c565b60405191829182610806565b0390f35b80809450527f290decd9548b62a8d60345a988386fc84ba6bc95484008f6362f93160ef3e5635b8284106108b957505050810160200161086782610873610857565b8054602085870181019190915290930192810161089e565b8695506108739693506020925061086794915060ff191682840152151560051b8201019293610857565b80fd5b503461050d57602036600319011261050d57602061091d600435613459565b6040516001600160a01b039091168152f35b6001600160a01b0381160361050d57565b503461050d57604036600319011261050d5760043561095e8161092f565b60243561096a816133c4565b916001600160a01b0380841690821681146109ca576100169361099791331490811561099c575b506133e7565b6137ef565b6001600160a01b0316600090815260056020908152604080832033845290915290205460ff16905038610991565b60405162461bcd60e51b815260206004820152602160248201527f4552433732313a20617070726f76616c20746f2063757272656e74206f776e656044820152603960f91b6064820152608490fd5b503461050d57600036600319011261050d57600b546040516001600160a01b039091168152602090f35b90600182811c92168015610a73575b6020831014610a5d57565b634e487b7160e01b600052602260045260246000fd5b91607f1691610a52565b9060009291805491610a8e83610a43565b918282526001938481169081600014610af05750600114610ab0575b50505050565b90919394506000526020928360002092846000945b838610610adc575050505001019038808080610aaa565b805485870183015294019385908201610ac5565b9294505050602093945060ff191683830152151560051b01019038808080610aaa565b50634e487b7160e01b600052604160045260246000fd5b61016081019081106001600160401b03821117610b4657604052565b610b4e610b13565b604052565b60a081019081106001600160401b03821117610b4657604052565b6001600160401b038111610b4657604052565b604081019081106001600160401b03821117610b4657604052565b90601f801991011681019081106001600160401b03821117610b4657604052565b90610bd8610bd19260405193848092610a7d565b0383610b9c565b565b503461050d57602036600319011261050d576004356000526013602052610873610c11610c18604060002060405192838092610a7d565b0382610b9c565b6040519182916020835260208301906107e1565b503461050d57600036600319011261050d576020600854604051908152f35b503461050d57602036600319011261050d57600435600081815260026020526040902054610c83906001600160a01b03161515614037565b610c8c816133c4565b306001600160a01b0390911603610d3d576106c27f87b11a36a7d8951907601f47f6fa4a32bffadebbff2e4894922b25922d340d8591610ccb426140d9565b610cdf826000526014602052604060002090565b55610ce9426140f2565b6001610cff836000526014602052604060002090565b0155610d0a42614103565b6002610d20836000526014602052604060002090565b0155610d2d813330613687565b6040519081529081906020820190565b60405162461bcd60e51b815260206004820152602560248201527f41646f7074415065743a20416c72656164792061646f7074656420627920736f6044820152646d656f6e6560d81b6064820152608490fd5b503461050d57604036600319011261050d576020610dbc600435610db38161092f565b60243590613f5d565b6040519015158152f35b606090600319011261050d57600435610dde8161092f565b90602435610deb8161092f565b9060443590565b503461050d57610016610e0436610dc6565b91610e17610e1284336135b5565b613497565b613687565b9181601f8401121561050d578235916001600160401b03831161050d576020808501948460051b01011161050d57565b608060031982011261050d57600435610e648161092f565b916001600160401b0360243581811161050d5783610e8491600401610e1c565b9390939260443583811161050d5782610e9f91600401610e1c565b9390939260643591821161050d57610eb991600401610e1c565b9091565b503461050d57610ecc36610e4c565b610ee860018060a0989794989695961b03601054163314613a6e565b60005b828110610efb5761001688613c78565b80610fb5610f5f888888610fa0868a8f610f1c610fba9b8d610f2193613aed565b613b0b565b95610f2d838383613aed565b35600052610f5f610f6484600f986020988a8a5260029c8d9c60409d8e600020019061ffff1661ffff19825416179055565b613aed565b35610f6e8161092f565b610f79858585613aed565b35600052878752886000209060018060a01b03166001600160601b0360a01b825416179055565b35600052526000200162ff0000198154169055565b613ad1565b610eeb565b503461050d57604036600319011261050d576020610feb600435610fe28161092f565b602435906139e0565b604051908152f35b503461050d57606036600319011261050d576024356004356110148261092f565b6000818152600f60205260409020546001600160a01b03161561103e576100169160443591614665565b60405162461bcd60e51b815260206004820152602b60248201527f4d657373616765436c69656e743a2064657374696e6174696f6e20636861696e60448201526a206e6f742061637469766560a81b6064820152608490fd5b503461050d576100166110a936610dc6565b9060405192602084018481106001600160401b038211176110d1575b6040526000845261352a565b6110d9610b13565b6110c5565b6020908160408183019282815285518094520193019160005b828110611105575050505090565b8351855293810193928101926001016110f7565b503461050d5760208060031936011261050d57600435906111398261092f565b61114282613301565b9061114c82615062565b9261115a6040519485610b9c565b828452601f1961116984615062565b01368386013760005b838110611187576040518061087387826110de565b806111956111ad92846139e0565b86518210156111b2575b848260051b88010152613ad1565b611172565b6111ba611a00565b61119f565b503461050d57602036600319011261050d577fc01bd9c884731622f1af5796e1e37246a27b50e2999f80f11e30e9ed2e3a186860206004356111ff6132a9565b80601a55604051908152a1005b503461050d57600036600319011261050d57604051806019549182815260208091019260196000527f944998273e477b495144fb8794c914197f3ccb46be2900f4698fd0ef743c9695916000905b82821061127d576108738561127181890382610b9c565b604051918291826110de565b83548652948501946001938401939091019061125a565b503461050d57602036600319011261050d576004356008548110156112e65760086000527ff3f7a9fe364faab93b216da50a3214154f22a0a2b415b23a84c8169e8b636ee30154604051908152602090f35b60405162461bcd60e51b815260206004820152602c60248201527f455243373231456e756d657261626c653a20676c6f62616c20696e646578206f60448201526b7574206f6620626f756e647360a01b6064820152608490fd5b503461050d57602036600319011261050d577fe1a25f463c6504824e91268b5b2c05658d5358c9c1698a85346cfae5336a642e6106c26004356113828161092f565b6010546001600160a01b0361139a3382841614613a6e565b6001600160a01b031990911690821617601055604080513381526001600160a01b03909216602083015290918291820190565b503461050d57600036600319011261050d57604051806018549182815260208091019260186000527fb13d2d76d1f4b7be834882e410b3e3a8afaf69f83600ae24db354391d2378d2e916000905b828210611432576108738561127181890382610b9c565b83548652948501946001938401939091019061141b565b610817906020815282516020820152602083015160408201526040830151606082015260608301516080820152608083015160a082015260a083015160c082015260c08301516114a7610160918260e08501526101808401906107e1565b936114de60e08201516114c9601f1997610100928988830301848901526107e1565b908301516101209786830301888701526107e1565b948101516101408481019190915201511515910152565b503461050d57602036600319011261050d5761087360405161151681610b2a565b6116036000918281528260208201528260408201528260608201528260808201528260a0820152606060c0820152606060e08201526115fb600a610100946060868501526040610120918083870152806101408097015260043581526014602052209061158161200f565b968254885260018301546020890152600283015460408901526003830154606089015260048301546080890152600583015460a08901526115c460068401610bbd565b60c08901526115d560078401610bbd565b60e08901526115e660088401610bbd565b90880152600982015490870152015460ff1690565b151590830152565b60405191829182611449565b503461050d57604036600319011261050d57602060ff61165a6024356116348161092f565b6004356000526016845260406000209060018060a01b0316600052602052604060002090565b54166040519015158152f35b503461050d5760c036600319011261050d576044356116848161092f565b61168f60643561092f565b60a435906001600160401b039081831161050d573660238401121561050d57826004013591821161050d57366024838501011161050d576024610016930190602435614add565b503461050d57602036600319011261050d57602061091d6004356133c4565b50602036600319011261050d57600435611713601a54341015613f89565b600081815260026020526040902054611736906001600160a01b03161515614037565b61174a816000526014602052604060002090565b61176161175b600a83015460ff1690565b15614083565b600181015461176f42614114565b11908115611841575b811561182b575b50156117be576106c281610d2d816117b77f6e8cd1f70db1aa72284733203457cea2522ddaeb381b13f68877ae170f8147ca956133c4565b3390613687565b6040805162461bcd60e51b81526020600482015260248101919091527f41646f7074415065743a20506574206973206265696e672074616b656e20636160448201527f7265206f662e2043616e6e6f742072657475726e20746f207368656c7465722e6064820152608490fd5b60029150015461183a42614114565b113861177f565b8091505461184e42614114565b1190611778565b93906080936118876118a394611879611895949a999a60a08a5260a08a01906107e1565b9088820360208a01526107e1565b9086820360408801526107e1565b9084820360608601526107e1565b6001600160a01b03909416910152565b503461050d57602036600319011261050d576004356000526015602052604080600020906108738151916118f2836118eb8187610a7d565b0384610b9c565b80519361190d856119068160018501610a7d565b0386610b9c565b815161192081610c118160028601610a7d565b825191611934836118eb8160038501610a7d565b6004015492519586956001600160a01b039094169386611855565b503461050d57602036600319011261050d576020610feb6004356119728161092f565b613301565b503461050d576000806003193601126108fb576119926132a9565b600a80546001600160a01b0319811690915581906001600160a01b03167f8be0079c531659141344cd1fd0a4f28419497f9722a3daafe3b4186f6b6457e08280a380f35b503461050d57600036600319011261050d57600c546040516001600160a01b039091168152602090f35b50634e487b7160e01b600052603260045260246000fd5b503461050d57602036600319011261050d5760043560195481101561050d5760209060196000527f944998273e477b495144fb8794c914197f3ccb46be2900f4698fd0ef743c96950154604051908152f35b503461050d57600036600319011261050d576020601254604051908152f35b503461050d57602036600319011261050d5760043560185481101561050d5760209060186000527fb13d2d76d1f4b7be834882e410b3e3a8afaf69f83600ae24db354391d2378d2e0154604051908152f35b503461050d57604036600319011261050d577fd8b7d7a23c5842ffa9123c6ca5422f27d20e7eb242f4afb8f45f871e5b9537c9602435600435611b1c8261092f565b611b246132a9565b60008181526016602090815260408083206001600160a01b03861684529091529020805460ff19169055604080519182526001600160a01b03909216602082015290819081016106c2565b503461050d57600036600319011261050d576010546040516001600160a01b039091168152602090f35b503461050d57600036600319011261050d57600a546040516001600160a01b039091168152602090f35b92949390611bec60609361ffff9260018060a01b031686526080602087015260808601906107e1565b951660408401521515910152565b503461050d57602036600319011261050d57600435600052600f602052604060002060018060a01b0381541690610873600260405192611c4884611c418160018501610a7d565b0385610b9c565b015460405193849361ffff60ff8460101c1693169185611bc3565b503461050d57600036600319011261050d576020601154604051908152f35b503461050d576000806003193601126108fb5760405190806001805491611ca883610a43565b808652928281169081156108d15750600114611cce576108738561086781870382610b9c565b92508083527fb10e2d527612073b26eecdfd717e6a320cf44b4afac2b0732d9fcbe2b7fa0cf65b828410611d1057505050810160200161086782610873610857565b80546020858701810191909152909301928101611cf5565b503461050d57604036600319011261050d577fecf4bb70ae42517181404f9ef6d941228f6c18e8d51f9bf514419aa6631d304a602435600435611d6a8261092f565b611d726132a9565b60008181526016602090815260408083206001600160a01b03861684529091529020805460ff19166001179055604080519182526001600160a01b03909216602082015290819081016106c2565b8015150361050d57565b503461050d57604036600319011261050d57600435611de88161092f565b602435611df481611dc0565b6001600160a01b03821691338314611e765781611e33611e449233600052600560205260406000209060018060a01b0316600052602052604060002090565b9060ff801983541691151516179055565b604051901515815233907f17307eab39ab6107e8899845ad3d59bd9653f200f220920489ca2b5937696c3190602090a3005b60405162461bcd60e51b815260206004820152601960248201527f4552433732313a20617070726f766520746f2063616c6c6572000000000000006044820152606490fd5b6020815260a0611f21611ed9845183602086015260c08501906107e1565b611f0c611ef8602087015192601f1993848883030160408901526107e1565b6040870151838783030160608801526107e1565b906060860151908583030160808601526107e1565b926080600180841b039101511691015290565b503461050d57602036600319011261050d576108736040805190611f5782610b53565b600060806060938481528460208201528484820152848082015201526004356000526015602052612005611ff5600483600020845195611f9687610b53565b8551611fa681610c118186610a7d565b87528551611fbb81610c118160018701610a7d565b60208801528551611fd381610c118160028701610a7d565b86880152611fe360038301610bbd565b9087015201546001600160a01b031690565b6001600160a01b03166080840152565b5191829182611ebb565b60405190610bd882610b2a565b6020906001600160401b038111612039575b601f01601f19160190565b612041610b13565b61202e565b81601f8201121561050d5780359061205d8261201c565b9261206b6040519485610b9c565b8284526020838301011161050d57816000926020809301838601378301015290565b503461050d57608036600319011261050d576004356001600160401b0360243581811161050d576120c2903690600401612046565b60443582811161050d576120da903690600401612046565b9160643590811161050d576120f3903690600401612046565b9083600052601660205260ff61211e60406000203360018060a01b0316600052602052604060002090565b5416156121c7576121729361216760089361213b601154306144c0565b61215e6121546011546000526014602052604060002090565b94600686016142d8565b600784016142d8565b6009820155016142d8565b61217d601154614410565b6100166121c26011547ff825db3e178c42c2ac2b80d9c8c675cb849fbaff1f0975fa5379016980f41b1f604051806121ba84829190602083019252565b0390a1613ad1565b601155565b60405162461bcd60e51b815260206004820152603160248201527f41646f7074415065743a2063616c6c6572206973206e6f742061206d616e616760448201527032b91037b3103a34329039b432b63a32b960791b6064820152608490fd5b503461050d5760a036600319011261050d576004356122448161092f565b6001600160401b039060243582811161050d57612265903690600401612046565b60443583811161050d5761227d903690600401612046565b60643584811161050d57612295903690600401612046565b9160843594851161050d576122b1610016953690600401612046565b93614125565b503461050d57604036600319011261050d577f16a1412f01b73c390eb2548427101644aa86c1443c272f73df00fb74c48fe4996004356122f68161092f565b6024359060018060a01b0361231081601054163314613a6e565b8116806123595750612332600080808086335af161232c6138a6565b50613f1f565b604080513381526001600160a01b03909216602083015281019190915280606081016106c2565b60405163a9059cbb60e01b81523360048201526024810184905290602090829060449082906000905af180156123c3575b612395575b50612332565b6123b59060203d81116123bc575b6123ad8183610b9c565b810190613c63565b503861238f565b503d6123a3565b6123cb613899565b61238a565b503461050d57600060203660031901126108fb576004358160018060a01b036123fe81601054163314613a6e565b600b5416803b156124b457819060246040518094819363b479a96160e01b83528760048401525af180156124a7575b612470575b506040805133815260208101929092527f7b6bdf5a54b984bdb41e777eb126123085d57633ab56d408d9a1d39dd894e7bb9190819081015b0390a180f35b7f7b6bdf5a54b984bdb41e777eb126123085d57633ab56d408d9a1d39dd894e7bb919261249f61246a92610b6e565b929150612432565b6124af613899565b61242d565b5080fd5b503461050d576124c736610e4c565b6124e260018060a09998969497991b03601054163314613a6e565b60005b8781106124f55761001687613c78565b612503610f1c828489613aed565b9061250f818a88613aed565b356000526020600f8152612537600293846040600020019061ffff1661ffff19825416179055565b858210156125f0575b8160051b850135601e198636030181121561050d578501908135916001600160401b03831161050d570192813603841361050d576125a76125c7926125eb9560016125a18f88612590918f613aed565b35600052600f602052604060002090565b01613b6e565b6125b5612590848d8b613aed565b01805462ff0000191662010000179055565b610fb56125d8612590838c8a613aed565b80546001600160a01b0319166001179055565b6124e5565b6125f8611a00565b612540565b503461050d57608036600319011261050d5760043561261b8161092f565b6024356126278161092f565b606435916001600160401b03831161050d5761264a610016933690600401612046565b916044359161352a565b503461050d57600036600319011261050d57600d546040516001600160a01b039091168152602090f35b503461050d57602036600319011261050d576004356000526017602052602060018060a01b0360406000205416604051908152f35b503461050d57602036600319011261050d576004356126d18161092f565b6010546001600160a01b03906126ea9082163314613a6e565b80600b541691823b1561050d576000807f3785abad972484d82ebc033d8eb190737cd209b24e7f853dd622e415c3f537a29460246106c295604051948593849263630429fb60e11b8452881660048401525af18015612783575b61276a575b50604080513381526001600160a01b03909216602083015290918291820190565b8061277761277d92610b6e565b806107b3565b38612749565b61278b613899565b612744565b503461050d57602036600319011261050d576004356000818152600260205260409020546127c8906001600160a01b03161515614d5c565b6127d18161538f565b60086127e7836000526014602052604060002090565b019160066127ff826000526014602052604060002090565b019061281e612818826000526014602052604060002090565b5461538f565b61283e6001612837846000526014602052604060002090565b015461538f565b6128576002612837856000526014602052604060002090565b6128706003612837866000526014602052604060002090565b6128896004612837876000526014602052604060002090565b6128a26005612837886000526014602052604060002090565b916128c4600a6128bc896000526014602052604060002090565b015460ff1690565b15612df1576128d1614de1565b935b6128e7886000526014602052604060002090565b600901546128ff906000526015602052604060002090565b95612914896000526014602052604060002090565b6009015461292c906000526015602052604060002090565b600101976129448a6000526014602052604060002090565b6009015461295c906000526015602052604060002090565b60020199612974906000526014602052604060002090565b6009015461298c906000526015602052604060002090565b604051757b226e616d65223a2241646f7074204120506574202360501b60208201529d8e9d6003929092019c9160368f016129c691614e01565b61088b60f21b81526002017f226465736372697074696f6e223a2241646f7074204120506574204e4654222c8152602001681134b6b0b3b2911d1160b91b8152600901612a1291614e14565b61088b60f21b81526002016d2261747472696275746573223a5b60901b8152600e017f7b2274726169745f74797065223a224e616d65222c2276616c7565223a2200008152601e01612a6391614e14565b62089f4b60ea1b81526003017f7b2274726169745f74797065223a224c6173742057616c6b222c2276616c7565815262111d1160e91b6020820152602301612aaa91614e01565b62089f4b60ea1b81526003017f7b2274726169745f74797065223a224c6173742046656564222c2276616c7565815262111d1160e91b6020820152602301612af191614e01565b62089f4b60ea1b81526003017f7b2274726169745f74797065223a224c617374205472656174222c2276616c7581526332911d1160e11b6020820152602401612b3991614e01565b62089f4b60ea1b81526003017f7b2274726169745f74797065223a22546f74616c2057616c6b73222c2276616c8152643ab2911d1160d91b6020820152602501612b8291614e01565b62089f4b60ea1b81526003017f7b2274726169745f74797065223a22546f74616c204665656473222c2276616c8152643ab2911d1160d91b6020820152602501612bcb91614e01565b62089f4b60ea1b81526003017f7b2274726169745f74797065223a22546f74616c20547265617473222c227661815265363ab2911d1160d11b6020820152602601612c1591614e01565b62089f4b60ea1b81526003017f7b2274726169745f74797065223a2241646f70746564222c2276616c7565223a8152601160f91b6020820152602101612c5a91614e01565b62089f4b60ea1b81526003017f7b2274726169745f74797065223a225368656c746572222c2276616c7565223a8152601160f91b6020820152602101612c9f91614e14565b62089f4b60ea1b81526003017f7b2274726169745f74797065223a224c6f636174696f6e222c2276616c7565228152611d1160f11b6020820152602201612ce591614e14565b62089f4b60ea1b81526003017f7b2274726169745f74797065223a2257656273697465222c2276616c7565223a8152601160f91b6020820152602101612d2a91614e14565b62089f4b60ea1b81526003017f7b2274726169745f74797065223a22456d61696c222c2276616c7565223a22008152601f01612d6591614e14565b61227d60f01b8152600201615d7d60f01b81526002010390601f19918281018252612d909082610b9c565b612d9990614f79565b6040517f646174613a6170706c69636174696f6e2f6a736f6e3b6261736536342c000000602082015291908290603d8201612dd391614e01565b039081018252612de39082610b9c565b604051610873819282610806565b612df9614dc0565b936128d3565b503461050d57600036600319011261050d576020601a54604051908152f35b999b9a979394612e7195612e6394612e80999460208e6101409e9b968152015260408d015260608c015260808b015260a08a01526101608060c08b01528901906107e1565b9087820360e08901526107e1565b908582036101008701526107e1565b946101208401521515910152565b503461050d57602036600319011261050d5760043560005260146020526040600020805461087360018301549260028101549060038101546004820154600583015460405190612ee582610bd18160068901610a7d565b60405192612efa84611c418160078a01610a7d565b612f0660088701610bbd565b94612f1a600a600989015498015460ff1690565b976040519b8c9b8c612e1e565b503461050d57600060203660031901126108fb576004358160018060a01b03612f5581601054163314613a6e565b600b5416803b156124b457819060246040518094819363e47ad74d60e01b83528760048401525af18015612ffc575b612fc5575b506040805133815260208101929092527f83f76efc0c025b2e3779f7bcead5a89ddaf05dc7829157cdab021a8591e7a6f991908190810161246a565b7f83f76efc0c025b2e3779f7bcead5a89ddaf05dc7829157cdab021a8591e7a6f99192612ff461246a92610b6e565b929150612f89565b613004613899565b612f84565b503461050d57604036600319011261050d57602060ff61165a60043561302e8161092f565b6024359061303b8261092f565b60018060a01b03166000526005845260406000209060018060a01b0316600052602052604060002090565b503461050d57602036600319011261050d576004356130848161092f565b61308c6132a9565b6001600160a01b039081169081156130db57600a54826001600160601b0360a01b821617600a55167f8be0079c531659141344cd1fd0a4f28419497f9722a3daafe3b4186f6b6457e0600080a3005b60405162461bcd60e51b815260206004820152602660248201527f4f776e61626c653a206e6577206f776e657220697320746865207a65726f206160448201526564647265737360d01b6064820152608490fd5b503461050d57604036600319011261050d5760243563ffffffff811680910361050d57600435600052600e602052604060002090600052602052604060002060018060a01b0381541690610873600260405192611c4884611c418160018501610a7d565b50602036600319011261050d577ff8d8affc4b5aa6fcef5154d041bf3d413d11797d4fa2429f49915f505863d31a6106c26004356131d5601a54341015613f89565b6131e16105e9826133c4565b600080808061320861063f61063f61063260096106208a6000526014602052604060002090565b8190341561324e575b3491f115613241575b6004613230826000526014602052604060002090565b426001820155016106848154613ad1565b613249613899565b61321a565b6108fc9150613211565b503461050d57602036600319011261050d576004356132768161092f565b6010546001600160a01b0391906132909083163314613a6e565b166001600160601b0360a01b600d541617600d55600080f35b600a546001600160a01b031633036132bd57565b606460405162461bcd60e51b815260206004820152602060248201527f4f776e61626c653a2063616c6c6572206973206e6f7420746865206f776e65726044820152fd5b6001600160a01b0316801561332157600052600360205260406000205490565b60405162461bcd60e51b815260206004820152602960248201527f4552433732313a2061646472657373207a65726f206973206e6f7420612076616044820152683634b21037bbb732b960b91b6064820152608490fd5b1561337f57565b60405162461bcd60e51b815260206004820152601860248201527f4552433732313a20696e76616c696420746f6b656e20494400000000000000006044820152606490fd5b6000908152600260205260409020546001600160a01b0316610817811515613378565b156133ee57565b60405162461bcd60e51b815260206004820152603d60248201527f4552433732313a20617070726f76652063616c6c6572206973206e6f7420746f60448201527f6b656e206f776e6572206f7220617070726f76656420666f7220616c6c0000006064820152608490fd5b60008181526002602052604090205461347c906001600160a01b03161515613378565b6000908152600460205260409020546001600160a01b031690565b1561349e57565b60405162461bcd60e51b815260206004820152602d60248201527f4552433732313a2063616c6c6572206973206e6f7420746f6b656e206f776e6560448201526c1c881bdc88185c1c1c9bdd9959609a1b6064820152608490fd5b60405190602082018281106001600160401b0382111761351d575b60405260008252565b613525610b13565b613514565b9061354e93929161353e610e1284336135b5565b613549838383613687565b6138d6565b1561355557565b60405162461bcd60e51b815260206004820152603260248201527f4552433732313a207472616e7366657220746f206e6f6e20455243373231526560448201527131b2b4bb32b91034b6b83632b6b2b73a32b960711b6064820152608490fd5b6001600160a01b03806135c7846133c4565b1692818316928484149485156135fd575b505083156135e7575b50505090565b6135f391929350613459565b16143880806135e1565b60009081526005602090815260408083206001600160a01b03949094168352929052205460ff16935038806135d8565b1561363457565b60405162461bcd60e51b815260206004820152602560248201527f4552433732313a207472616e736665722066726f6d20696e636f72726563742060448201526437bbb732b960d91b6064820152608490fd5b6136ab90613694846133c4565b6001600160a01b038281169390918216841461362d565b831692831561379e5761371d826136c6878461377796615082565b6136dc856136d661063f8a6133c4565b1461362d565b6137036136f3886000526004602052604060002090565b80546001600160a01b0319169055565b6001600160a01b0316600090815260036020526040902090565b80546000190190556001600160a01b038116600090815260036020526040902060018154019055613758856000526002602052604060002090565b80546001600160a01b0319166001600160a01b03909216919091179055565b7fddf252ad1be2c89b69c2b068fc378daa952ba7f163c4a11628f55a4df523b3ef600080a4565b60405162461bcd60e51b8152602060048201526024808201527f4552433732313a207472616e7366657220746f20746865207a65726f206164646044820152637265737360e01b6064820152608490fd5b600082815260046020526040902080546001600160a01b0319166001600160a01b0383161790556001600160a01b0380613828846133c4565b169116907f8c5be1e5ebec7d5bd14f71427d1e84f3dd0314c0f7b2291e5b200ac8c7c3b925600080a4565b9081602091031261050d5751610817816104fb565b6001600160a01b039182168152911660208201526040810191909152608060608201819052610817929101906107e1565b506040513d6000823e3d90fd5b3d156138d1573d906138b78261201c565b916138c56040519384610b9c565b82523d6000602084013e565b606090565b92909190823b156139d757613909926020926000604051809681958294630a85bd0160e11b9a8b85523360048601613868565b03926001600160a01b03165af1600091816139a7575b506139995761392c6138a6565b805190816139945760405162461bcd60e51b815260206004820152603260248201527f4552433732313a207472616e7366657220746f206e6f6e20455243373231526560448201527131b2b4bb32b91034b6b83632b6b2b73a32b960711b6064820152608490fd5b602001fd5b6001600160e01b0319161490565b6139c991925060203d81116139d0575b6139c18183610b9c565b810190613853565b903861391f565b503d6139b7565b50505050600190565b6139e981613301565b821015613a155760018060a01b0316600052600660205260406000209060005260205260406000205490565b60405162461bcd60e51b815260206004820152602b60248201527f455243373231456e756d657261626c653a206f776e657220696e646578206f7560448201526a74206f6620626f756e647360a81b6064820152608490fd5b15613a7557565b60405162461bcd60e51b815260206004820152601d60248201527f4d657373616765436c69656e743a206e6f7420617574686f72697a65640000006044820152606490fd5b50634e487b7160e01b600052601160045260246000fd5b6001906000198114613ae1570190565b613ae9613aba565b0190565b9190811015613afe575b60051b0190565b613b06611a00565b613af7565b3561ffff8116810361050d5790565b90601f8111613b2857505050565b600091825260208220906020601f850160051c83019410613b64575b601f0160051c01915b828110613b5957505050565b818155600101613b4d565b9092508290613b44565b9092916001600160401b038111613c36575b613b9481613b8e8454610a43565b84613b1a565b6000601f8211600114613bce5781929394600092613bc3575b50508160011b916000199060031b1c1916179055565b013590503880613bad565b601f19821694613be384600052602060002090565b91805b878110613c1e575083600195969710613c04575b505050811b019055565b0135600019600384901b60f8161c19169055388080613bfa565b90926020600181928686013581550194019101613be6565b613c3e610b13565b613b80565b9081602091031261050d57516108178161092f565b5190610bd882611dc0565b9081602091031261050d575161081781611dc0565b600b80546001600160a01b0319166001600160a01b03928316179055600b54613ca9906001600160a01b031661063f565b90613cf681604051809463647846a560e01b825281600460209788935afa908115613f12575b600091613ef5575b501660018060a01b03166001600160601b0360a01b600c541617600c55565b600c54613d0b906001600160a01b031661063f565b82828216613e65575b5050600b54613d2b906001600160a01b031661063f565b604051633fc8cef360e01b808252919083908581600481865afa908115613e58575b600091613e3b575b5016613d615750505050565b8391613dbc916040519182528382600481845afa918215613e2e575b600092613dff575b5060405163095ea7b360e01b81526001600160a01b0390911660048201526000196024820152938492839160009183906044820190565b0393165af18015613df2575b613dd4575b8080610aaa565b81613dea92903d106123bc576123ad8183610b9c565b503880613dcd565b613dfa613899565b613dc8565b613e20919250843d8611613e27575b613e188183610b9c565b810190613c43565b9038613d85565b503d613e0e565b613e36613899565b613d7d565b613e529150863d8811613e2757613e188183610b9c565b38613d55565b613e60613899565b613d4d565b600b54600092613eb591613e81906001600160a01b031661063f565b60405163095ea7b360e01b81526001600160a01b039091166004820152600019602482015293849283919082906044820190565b03925af18015613ee8575b613ecb575b82613d14565b613ee190833d85116123bc576123ad8183610b9c565b5038613ec5565b613ef0613899565b613ec0565b613f0c9150853d8711613e2757613e188183610b9c565b38613cd7565b613f1a613899565b613ccf565b15613f2657565b60405162461bcd60e51b815260206004820152600f60248201526e151c985b9cd9995c8819985a5b1959608a1b6044820152606490fd5b6000918252600f6020526040909120546001600160a01b03918216911614613f8457600090565b600190565b15613f9057565b60405162461bcd60e51b815260206004820152601d60248201527f41646f7074415065743a20496e73756666696369656e742066756e64730000006044820152606490fd5b15613fdc57565b60405162461bcd60e51b815260206004820152602d60248201527f41646f7074415065743a2063616c6c6572206973206e6f7420746865206f776e60448201526c195c881bd9881d1a19481b999d609a1b6064820152608490fd5b1561403e57565b60405162461bcd60e51b815260206004820152601d60248201527f41646f7074415065743a2050657420646f6573206e6f742065786973740000006044820152606490fd5b1561408a57565b60405162461bcd60e51b815260206004820152602160248201527f41646f7074415065743a2050657420697320616c72656164792061646f7074656044820152601960fa1b6064820152608490fd5b6201517f198101919082116140ea57565b610bd8613aba565b6203f47f198101919082116140ea57565b6206977f198101919082116140ea57565b62093a7f198101919082116140ea57565b93919290926141326132a9565b60125493600094855260209460158652604081209560408220928051926001600160401b0384116142cb575b6141728461416c8754610a43565b87613b1a565b82601f851160011461424657509460049794846141c5956141ee9c9b99956141bc956141ce9a9261423b575b50508160011b916000199060031b1c19161790555b600187016142d8565b600285016142d8565b600383016142d8565b0180546001600160a01b0319166001600160a01b03909216919091179055565b6141f96012546143ac565b610bd86142366012547f1ce4fd75358b7e2473b65d37352ef8fcc2630c7d157693ec1412f117fd52a324604051806121ba84829190602083019252565b601255565b01519050388061419e565b601f939291931985169061425f87600052602060002090565b94905b8282106142b3575050946001856141ee9c9b99956141bc956141ce9a956141c59960049e9b1061429a575b505050811b0190556141b3565b015160001960f88460031b161c1916905538808061428d565b80600186978294978701518155019601940190614262565b6142d3610b13565b61415e565b91909182516001600160401b03811161439f575b6142fa81613b8e8454610a43565b602080601f831160011461433557508192939460009261432a5750508160011b916000199060031b1c1916179055565b015190503880613bad565b90601f1983169561434b85600052602060002090565b926000905b8882106143875750508360019596971061436e57505050811b019055565b015160001960f88460031b161c19169055388080613bfa565b80600185968294968601518155019501930190614350565b6143a7610b13565b6142ec565b601854600160401b811015614403575b60018101806018558110156143f6575b60186000527fb13d2d76d1f4b7be834882e410b3e3a8afaf69f83600ae24db354391d2378d2e0155565b6143fe611a00565b6143cc565b61440b610b13565b6143bc565b601954600160401b811015614467575b600181018060195581101561445a575b60196000527f944998273e477b495144fb8794c914197f3ccb46be2900f4698fd0ef743c96950155565b614462611a00565b614430565b61446f610b13565b614420565b1561447b57565b60405162461bcd60e51b815260206004820152601c60248201527f4552433732313a20746f6b656e20616c7265616479206d696e746564000000006044820152606490fd5b6001600160a01b03811690811561458c5760008381526002602052604090205461456491906144fb906001600160a01b031615155b15614474565b6145048461511f565b61450e84826150e7565b600084815260026020526040902054614531906001600160a01b031615156144f5565b6001600160a01b038116600090815260036020526040902060018154019055613758846000526002602052604060002090565b60007fddf252ad1be2c89b69c2b068fc378daa952ba7f163c4a11628f55a4df523b3ef8180a4565b606460405162461bcd60e51b815260206004820152602060248201527f4552433732313a206d696e7420746f20746865207a65726f20616464726573736044820152fd5b9996939b9a979491926146066101409a97946145f8614614948e610160908181520190610a7d565b8d810360208f015290610a7d565b908b820360408d0152610a7d565b9a60608a0152608089015260a088015260c087015260e08601526101008501526101208401521515910152565b610817939260609260018060a01b03168252602082015281604082015201906107e1565b90916148267f25435a669953bbd4d68b1f0625d13ef5bdd4f7bd9370d48ecfa5eab0fe2d9de8936146986105e9846133c4565b6147fc6147ea6147f660066146b7876000526014602052604060002090565b0160086146ce886000526014602052604060002090565b01906147bc60076146e98a6000526014602052604060002090565b01896009614701826000526014602052604060002090565b0154614717826000526014602052604060002090565b54600161472e846000526014602052604060002090565b01546002614746856000526014602052604060002090565b015490600361475f866000526014602052604060002090565b0154926004614778876000526014602052604060002090565b0154946147ac600a6128bc60056147998b6000526014602052604060002090565b0154996000526014602052604060002090565b976040519b8c9b60208d016145d0565b03906147d0601f1992838101835282610b9c565b6147d98861482b565b604051938491898860208501614641565b03908101835282610b9c565b856149d8565b506040805193845260208401949094526001600160a01b0316928201929092529081906060820190565b0390a1565b6000614836826133c4565b6001600160a01b0390838183161584146148eb57614854915061511f565b61485d8361525a565b614866836133c4565b61487a846000526004602052604060002090565b80546001600160a01b03199081169091556001600160a01b0382166000908152600360205260409020841981540190556148be856000526002602052604060002090565b908154169055167fddf252ad1be2c89b69c2b068fc378daa952ba7f163c4a11628f55a4df523b3ef8280a4565b6148f491615193565b614854565b90604051608081018181106001600160401b0382111761495b575b604052606060ff6002839560018060a01b03815416855260405161493f81610c118160018601610a7d565b6020860152015461ffff8116604085015260101c161515910152565b614963610b13565b614914565b909161497f610817936040845260408401906107e1565b9160208184039101526107e1565b9081602091031261050d575190565b906149cd60009460809461ffff9398979860018060a01b03168552602085015260a0604085015260a08401906107e1565b951660608201520152565b906020906149f86149f384600052600f602052604060002090565b6148f9565b92614a066060850151151590565b614aaf575b600b54614a20906001600160a01b031661063f565b906000614a426040614a38885160018060a01b031690565b97015161ffff1690565b95614a6360405197889687958694633f6b724360e21b86526004860161499c565b03925af1908115614aa2575b600091614a7a575090565b610817915060203d8111614a9b575b614a938183610b9c565b81019061498d565b503d614a89565b614aaa613899565b614a6f565b90614ad78385015191614ac9604051938492878401614968565b03601f198101835282610b9c565b90614a0b565b90614baa614b2b614b9194610bd896614b23614b3f9560018060a01b0397614b0a89600b54163314613a6e565b600052600f602052878060406000205416911614613a6e565b810190614bb0565b602080829894969398518301019101614c2c565b98959a9994614b5598979894919493929361200f565b9b8c5260208c015260408b015260608a0152608089015260a088015260c087015260e08601526101008501526101208401521515610140830152565b614ba5856000526014602052604060002090565b614cc1565b166144c0565b9160608383031261050d578235614bc68161092f565b9260208101359260408201356001600160401b03811161050d576108179201612046565b81601f8201121561050d578051614c008161201c565b92614c0e6040519485610b9c565b8184526020828401011161050d5761081791602080850191016107be565b916101608383031261050d578251926001600160401b039384811161050d5783614c57918301614bea565b93602082015181811161050d5784614c70918401614bea565b93604083015191821161050d57614c88918301614bea565b9160608201519160808101519160a08201519160c08101519160e082015191610100810151916108176101406101208401519301613c58565b600a614d49610140610bd894805185556020810151600186015560408101516002860155606081015160038601556080810151600486015560a08101516005860155614d1460c0820151600687016142d8565b614d2560e0820151600787016142d8565b614d37610100820151600887016142d8565b61012081015160098601550151151590565b91019060ff801983541691151516179055565b15614d6357565b60405162461bcd60e51b815260206004820152602f60248201527f4552433732314d657461646174613a2055524920717565727920666f72206e6f60448201526e3732bc34b9ba32b73a103a37b5b2b760891b6064820152608490fd5b60405190614dcd82610b81565b600582526466616c736560d81b6020830152565b60405190614dee82610b81565b60048252637472756560e01b6020830152565b90613ae9602092828151948592016107be565b600092918154614e2381610a43565b92600191808316908115614e7b5750600114614e3f5750505050565b90919293945060005260209081600020906000915b858310614e6a5750505050019038808080610aaa565b805485840152918301918101614e54565b60ff1916845250505081151590910201915038808080610aaa565b60405190606082018281106001600160401b03821117614f06575b604052604082527f6768696a6b6c6d6e6f707172737475767778797a303132333435363738392b2f6040837f4142434445464748494a4b4c4d4e4f505152535455565758595a61626364656660208201520152565b614f0e610b13565b614eb1565b90600282018092116140ea57565b90602082018092116140ea57565b600281901b91906001600160fe1b038116036140ea57565b90614f518261201c565b614f5e6040519182610b9c565b8281528092614f6f601f199161201c565b0190602036910137565b80511561505957614f88614e96565b614fa4614f9f614f988451614f13565b6003900490565b614f2f565b91614fb6614fb184614f21565b614f47565b92835280815182019060208501935b82821061500757505050600390510680600114614ff657600214614fe7575090565b603d60f81b6000199091015290565b50613d3d60f01b6001199091015290565b9091936004906003809401938451600190603f9082828260121c16880101518553828282600c1c16880101518386015382828260061c1688010151600286015316850101519082015301939190614fc5565b506108176134f9565b6020906001600160401b03811161507a5760051b0190565b613b06610b13565b9091906001600160a01b0380821691826150c557506150a08361511f565b8316806150b3575050610bd8915061525a565b036150bc575050565b610bd8916150e7565b8382861684036150d7575b50506150a0565b6150e091615193565b38836150d0565b6040906150f381613301565b9260009160018060a01b0316825260066020528282208483526020528083832055815260076020522055565b60085481600052600960205280604060002055600160401b811015615186575b6001810180600855811015615179575b60086000527ff3f7a9fe364faab93b216da50a3214154f22a0a2b415b23a84c8169e8b636ee30155565b615181611a00565b61514f565b61518e610b13565b61513f565b906151f86151dd926151a481613301565b60001981019390841161524d575b600094818692835260076020526040832054868103615205575b506000526007602052604060002090565b556001600160a01b0316600090815260066020526040902090565b9082526020526040812055565b6001600160a01b0385168085526006602081815260408088208b89528252808820546000948552928252808420858952825280882083905591835260079052902055386151cc565b615255613aba565b6151b2565b600880546000199290838101818111615363575b61530a60009384928184526009602052846040852054911015615356575b8684526152f97ff3f7a9fe364faab93b216da50a3214154f22a0a2b415b23a84c8169e8b636ee2958681015490831015615349575b88865280837ff3f7a9fe364faab93b216da50a3214154f22a0a2b415b23a84c8169e8b636ee301556000526009602052604060002090565b556000526009602052604060002090565b5582549384156153355784019380851015615328575b838352015555565b615330611a00565b615320565b634e487b7160e01b83526031600452602483fd5b615351611a00565b6152c1565b61535e611a00565b61528c565b61536b613aba565b61526e565b90602091805182101561538257010190565b61538a611a00565b010190565b801561542b576000818181805b61541357506153aa81614f47565b935b6153b65750505090565b6000198101908111615406575b8091600a916153f0603084840681018091116153f9575b60f81b6001600160f81b031916861a9187615370565b530490816153ac565b615401613aba565b6153da565b61540e613aba565b6153c3565b9150615420600a91613ad1565b91048084929161539c565b5060405161543881610b81565b60018152600360fc1b60208201529056fea2646970667358221220d468a7107f09f0ab2605fe4a67fb7aff2c22c842e071a4613cecb52132f0063164736f6c63430008110033",
  "devdoc": {
    "kind": "dev",
    "methods": {
      "approve(address,uint256)": {
        "details": "See {IERC721-approve}."
      },
      "balanceOf(address)": {
        "details": "See {IERC721-balanceOf}."
      },
      "getApproved(uint256)": {
        "details": "See {IERC721-getApproved}."
      },
      "isApprovedForAll(address,address)": {
        "details": "See {IERC721-isApprovedForAll}."
      },
      "name()": {
        "details": "See {IERC721Metadata-name}."
      },
      "owner()": {
        "details": "Returns the address of the current owner."
      },
      "ownerOf(uint256)": {
        "details": "See {IERC721-ownerOf}."
      },
      "renounceOwnership()": {
        "details": "Leaves the contract without owner. It will not be possible to call `onlyOwner` functions. Can only be called by the current owner. NOTE: Renouncing ownership will leave the contract without an owner, thereby disabling any functionality that is only available to the owner."
      },
      "safeTransferFrom(address,address,uint256)": {
        "details": "See {IERC721-safeTransferFrom}."
      },
      "safeTransferFrom(address,address,uint256,bytes)": {
        "details": "See {IERC721-safeTransferFrom}."
      },
      "setApprovalForAll(address,bool)": {
        "details": "See {IERC721-setApprovalForAll}."
      },
      "symbol()": {
        "details": "See {IERC721Metadata-symbol}."
      },
      "tokenByIndex(uint256)": {
        "details": "See {IERC721Enumerable-tokenByIndex}."
      },
      "tokenOfOwnerByIndex(address,uint256)": {
        "details": "See {IERC721Enumerable-tokenOfOwnerByIndex}."
      },
      "tokenURI(uint256)": {
        "details": "See {IERC721Metadata-tokenURI}."
      },
      "totalSupply()": {
        "details": "See {IERC721Enumerable-totalSupply}."
      },
      "transferFrom(address,address,uint256)": {
        "details": "See {IERC721-transferFrom}."
      },
      "transferOwnership(address)": {
        "details": "Transfers ownership of the contract to a new account (`newOwner`). Can only be called by the current owner."
      }
    },
    "version": 1
  },
  "userdoc": {
    "kind": "user",
    "methods": {
      "configureClientExtended(address,uint256[],bytes[],uint16[])": {
        "notice": "OWNER "
      }
    },
    "version": 1
  },
  "storageLayout": {
    "storage": [
      {
        "astId": 138,
        "contract": "contracts/AdoptAPet.sol:AdoptAPet",
        "label": "_name",
        "offset": 0,
        "slot": "0",
        "type": "t_string_storage"
      },
      {
        "astId": 140,
        "contract": "contracts/AdoptAPet.sol:AdoptAPet",
        "label": "_symbol",
        "offset": 0,
        "slot": "1",
        "type": "t_string_storage"
      },
      {
        "astId": 144,
        "contract": "contracts/AdoptAPet.sol:AdoptAPet",
        "label": "_owners",
        "offset": 0,
        "slot": "2",
        "type": "t_mapping(t_uint256,t_address)"
      },
      {
        "astId": 148,
        "contract": "contracts/AdoptAPet.sol:AdoptAPet",
        "label": "_balances",
        "offset": 0,
        "slot": "3",
        "type": "t_mapping(t_address,t_uint256)"
      },
      {
        "astId": 152,
        "contract": "contracts/AdoptAPet.sol:AdoptAPet",
        "label": "_tokenApprovals",
        "offset": 0,
        "slot": "4",
        "type": "t_mapping(t_uint256,t_address)"
      },
      {
        "astId": 158,
        "contract": "contracts/AdoptAPet.sol:AdoptAPet",
        "label": "_operatorApprovals",
        "offset": 0,
        "slot": "5",
        "type": "t_mapping(t_address,t_mapping(t_address,t_bool))"
      },
      {
        "astId": 1188,
        "contract": "contracts/AdoptAPet.sol:AdoptAPet",
        "label": "_ownedTokens",
        "offset": 0,
        "slot": "6",
        "type": "t_mapping(t_address,t_mapping(t_uint256,t_uint256))"
      },
      {
        "astId": 1192,
        "contract": "contracts/AdoptAPet.sol:AdoptAPet",
        "label": "_ownedTokensIndex",
        "offset": 0,
        "slot": "7",
        "type": "t_mapping(t_uint256,t_uint256)"
      },
      {
        "astId": 1195,
        "contract": "contracts/AdoptAPet.sol:AdoptAPet",
        "label": "_allTokens",
        "offset": 0,
        "slot": "8",
        "type": "t_array(t_uint256)dyn_storage"
      },
      {
        "astId": 1199,
        "contract": "contracts/AdoptAPet.sol:AdoptAPet",
        "label": "_allTokensIndex",
        "offset": 0,
        "slot": "9",
        "type": "t_mapping(t_uint256,t_uint256)"
      },
      {
        "astId": 7,
        "contract": "contracts/AdoptAPet.sol:AdoptAPet",
        "label": "_owner",
        "offset": 0,
        "slot": "10",
        "type": "t_address"
      },
      {
        "astId": 3538,
        "contract": "contracts/AdoptAPet.sol:AdoptAPet",
        "label": "MESSAGEv3",
        "offset": 0,
        "slot": "11",
        "type": "t_contract(IMessageV3)3461"
      },
      {
        "astId": 3541,
        "contract": "contracts/AdoptAPet.sol:AdoptAPet",
        "label": "FEE_TOKEN",
        "offset": 0,
        "slot": "12",
        "type": "t_contract(IERC20cl)3265"
      },
      {
        "astId": 3544,
        "contract": "contracts/AdoptAPet.sol:AdoptAPet",
        "label": "FEATURE_GATEWAY",
        "offset": 0,
        "slot": "13",
        "type": "t_contract(IFeatureGateway)3534"
      },
      {
        "astId": 3551,
        "contract": "contracts/AdoptAPet.sol:AdoptAPet",
        "label": "FEATURES",
        "offset": 0,
        "slot": "14",
        "type": "t_mapping(t_uint256,t_mapping(t_uint32,t_struct(ChainData)3560_storage))"
      },
      {
        "astId": 3565,
        "contract": "contracts/AdoptAPet.sol:AdoptAPet",
        "label": "CHAINS",
        "offset": 0,
        "slot": "15",
        "type": "t_mapping(t_uint256,t_struct(ChainData)3560_storage)"
      },
      {
        "astId": 3567,
        "contract": "contracts/AdoptAPet.sol:AdoptAPet",
        "label": "MESSAGE_OWNER",
        "offset": 0,
        "slot": "16",
        "type": "t_address"
      },
      {
        "astId": 4527,
        "contract": "contracts/AdoptAPet.sol:AdoptAPet",
        "label": "nextNftId",
        "offset": 0,
        "slot": "17",
        "type": "t_uint256"
      },
      {
        "astId": 4529,
        "contract": "contracts/AdoptAPet.sol:AdoptAPet",
        "label": "nextShelterId",
        "offset": 0,
        "slot": "18",
        "type": "t_uint256"
      },
      {
        "astId": 4533,
        "contract": "contracts/AdoptAPet.sol:AdoptAPet",
        "label": "messages",
        "offset": 0,
        "slot": "19",
        "type": "t_mapping(t_uint256,t_string_storage)"
      },
      {
        "astId": 4538,
        "contract": "contracts/AdoptAPet.sol:AdoptAPet",
        "label": "pets",
        "offset": 0,
        "slot": "20",
        "type": "t_mapping(t_uint256,t_struct(PetData)4525_storage)"
      },
      {
        "astId": 4543,
        "contract": "contracts/AdoptAPet.sol:AdoptAPet",
        "label": "shelters",
        "offset": 0,
        "slot": "21",
        "type": "t_mapping(t_uint256,t_struct(ShelterData)4502_storage)"
      },
      {
        "astId": 4549,
        "contract": "contracts/AdoptAPet.sol:AdoptAPet",
        "label": "shelterManagers",
        "offset": 0,
        "slot": "22",
        "type": "t_mapping(t_uint256,t_mapping(t_address,t_bool))"
      },
      {
        "astId": 4553,
        "contract": "contracts/AdoptAPet.sol:AdoptAPet",
        "label": "shelterAccountant",
        "offset": 0,
        "slot": "23",
        "type": "t_mapping(t_uint256,t_address)"
      },
      {
        "astId": 4556,
        "contract": "contracts/AdoptAPet.sol:AdoptAPet",
        "label": "allShelters",
        "offset": 0,
        "slot": "24",
        "type": "t_array(t_uint256)dyn_storage"
      },
      {
        "astId": 4559,
        "contract": "contracts/AdoptAPet.sol:AdoptAPet",
        "label": "availablePets",
        "offset": 0,
        "slot": "25",
        "type": "t_array(t_uint256)dyn_storage"
      },
      {
        "astId": 4562,
        "contract": "contracts/AdoptAPet.sol:AdoptAPet",
        "label": "actionCost",
        "offset": 0,
        "slot": "26",
        "type": "t_uint256"
      }
    ],
    "types": {
      "t_address": {
        "encoding": "inplace",
        "label": "address",
        "numberOfBytes": "20"
      },
      "t_array(t_uint256)dyn_storage": {
        "base": "t_uint256",
        "encoding": "dynamic_array",
        "label": "uint256[]",
        "numberOfBytes": "32"
      },
      "t_bool": {
        "encoding": "inplace",
        "label": "bool",
        "numberOfBytes": "1"
      },
      "t_bytes_storage": {
        "encoding": "bytes",
        "label": "bytes",
        "numberOfBytes": "32"
      },
      "t_contract(IERC20cl)3265": {
        "encoding": "inplace",
        "label": "contract IERC20cl",
        "numberOfBytes": "20"
      },
      "t_contract(IFeatureGateway)3534": {
        "encoding": "inplace",
        "label": "contract IFeatureGateway",
        "numberOfBytes": "20"
      },
      "t_contract(IMessageV3)3461": {
        "encoding": "inplace",
        "label": "contract IMessageV3",
        "numberOfBytes": "20"
      },
      "t_mapping(t_address,t_bool)": {
        "encoding": "mapping",
        "key": "t_address",
        "label": "mapping(address => bool)",
        "numberOfBytes": "32",
        "value": "t_bool"
      },
      "t_mapping(t_address,t_mapping(t_address,t_bool))": {
        "encoding": "mapping",
        "key": "t_address",
        "label": "mapping(address => mapping(address => bool))",
        "numberOfBytes": "32",
        "value": "t_mapping(t_address,t_bool)"
      },
      "t_mapping(t_address,t_mapping(t_uint256,t_uint256))": {
        "encoding": "mapping",
        "key": "t_address",
        "label": "mapping(address => mapping(uint256 => uint256))",
        "numberOfBytes": "32",
        "value": "t_mapping(t_uint256,t_uint256)"
      },
      "t_mapping(t_address,t_uint256)": {
        "encoding": "mapping",
        "key": "t_address",
        "label": "mapping(address => uint256)",
        "numberOfBytes": "32",
        "value": "t_uint256"
      },
      "t_mapping(t_uint256,t_address)": {
        "encoding": "mapping",
        "key": "t_uint256",
        "label": "mapping(uint256 => address)",
        "numberOfBytes": "32",
        "value": "t_address"
      },
      "t_mapping(t_uint256,t_mapping(t_address,t_bool))": {
        "encoding": "mapping",
        "key": "t_uint256",
        "label": "mapping(uint256 => mapping(address => bool))",
        "numberOfBytes": "32",
        "value": "t_mapping(t_address,t_bool)"
      },
      "t_mapping(t_uint256,t_mapping(t_uint32,t_struct(ChainData)3560_storage))": {
        "encoding": "mapping",
        "key": "t_uint256",
        "label": "mapping(uint256 => mapping(uint32 => struct MessageClient.ChainData))",
        "numberOfBytes": "32",
        "value": "t_mapping(t_uint32,t_struct(ChainData)3560_storage)"
      },
      "t_mapping(t_uint256,t_string_storage)": {
        "encoding": "mapping",
        "key": "t_uint256",
        "label": "mapping(uint256 => string)",
        "numberOfBytes": "32",
        "value": "t_string_storage"
      },
      "t_mapping(t_uint256,t_struct(ChainData)3560_storage)": {
        "encoding": "mapping",
        "key": "t_uint256",
        "label": "mapping(uint256 => struct MessageClient.ChainData)",
        "numberOfBytes": "32",
        "value": "t_struct(ChainData)3560_storage"
      },
      "t_mapping(t_uint256,t_struct(PetData)4525_storage)": {
        "encoding": "mapping",
        "key": "t_uint256",
        "label": "mapping(uint256 => struct AdoptAPet.PetData)",
        "numberOfBytes": "32",
        "value": "t_struct(PetData)4525_storage"
      },
      "t_mapping(t_uint256,t_struct(ShelterData)4502_storage)": {
        "encoding": "mapping",
        "key": "t_uint256",
        "label": "mapping(uint256 => struct AdoptAPet.ShelterData)",
        "numberOfBytes": "32",
        "value": "t_struct(ShelterData)4502_storage"
      },
      "t_mapping(t_uint256,t_uint256)": {
        "encoding": "mapping",
        "key": "t_uint256",
        "label": "mapping(uint256 => uint256)",
        "numberOfBytes": "32",
        "value": "t_uint256"
      },
      "t_mapping(t_uint32,t_struct(ChainData)3560_storage)": {
        "encoding": "mapping",
        "key": "t_uint32",
        "label": "mapping(uint32 => struct MessageClient.ChainData)",
        "numberOfBytes": "32",
        "value": "t_struct(ChainData)3560_storage"
      },
      "t_string_storage": {
        "encoding": "bytes",
        "label": "string",
        "numberOfBytes": "32"
      },
      "t_struct(ChainData)3560_storage": {
        "encoding": "inplace",
        "label": "struct MessageClient.ChainData",
        "members": [
          {
            "astId": 3553,
            "contract": "contracts/AdoptAPet.sol:AdoptAPet",
            "label": "endpoint",
            "offset": 0,
            "slot": "0",
            "type": "t_address"
          },
          {
            "astId": 3555,
            "contract": "contracts/AdoptAPet.sol:AdoptAPet",
            "label": "endpointExtended",
            "offset": 0,
            "slot": "1",
            "type": "t_bytes_storage"
          },
          {
            "astId": 3557,
            "contract": "contracts/AdoptAPet.sol:AdoptAPet",
            "label": "confirmations",
            "offset": 0,
            "slot": "2",
            "type": "t_uint16"
          },
          {
            "astId": 3559,
            "contract": "contracts/AdoptAPet.sol:AdoptAPet",
            "label": "extended",
            "offset": 2,
            "slot": "2",
            "type": "t_bool"
          }
        ],
        "numberOfBytes": "96"
      },
      "t_struct(PetData)4525_storage": {
        "encoding": "inplace",
        "label": "struct AdoptAPet.PetData",
        "members": [
          {
            "astId": 4504,
            "contract": "contracts/AdoptAPet.sol:AdoptAPet",
            "label": "lastWalk",
            "offset": 0,
            "slot": "0",
            "type": "t_uint256"
          },
          {
            "astId": 4506,
            "contract": "contracts/AdoptAPet.sol:AdoptAPet",
            "label": "lastFeed",
            "offset": 0,
            "slot": "1",
            "type": "t_uint256"
          },
          {
            "astId": 4508,
            "contract": "contracts/AdoptAPet.sol:AdoptAPet",
            "label": "lastTreat",
            "offset": 0,
            "slot": "2",
            "type": "t_uint256"
          },
          {
            "astId": 4510,
            "contract": "contracts/AdoptAPet.sol:AdoptAPet",
            "label": "totalWalks",
            "offset": 0,
            "slot": "3",
            "type": "t_uint256"
          },
          {
            "astId": 4512,
            "contract": "contracts/AdoptAPet.sol:AdoptAPet",
            "label": "totalFeeds",
            "offset": 0,
            "slot": "4",
            "type": "t_uint256"
          },
          {
            "astId": 4514,
            "contract": "contracts/AdoptAPet.sol:AdoptAPet",
            "label": "totalTreats",
            "offset": 0,
            "slot": "5",
            "type": "t_uint256"
          },
          {
            "astId": 4516,
            "contract": "contracts/AdoptAPet.sol:AdoptAPet",
            "label": "name",
            "offset": 0,
            "slot": "6",
            "type": "t_string_storage"
          },
          {
            "astId": 4518,
            "contract": "contracts/AdoptAPet.sol:AdoptAPet",
            "label": "personality",
            "offset": 0,
            "slot": "7",
            "type": "t_string_storage"
          },
          {
            "astId": 4520,
            "contract": "contracts/AdoptAPet.sol:AdoptAPet",
            "label": "image",
            "offset": 0,
            "slot": "8",
            "type": "t_string_storage"
          },
          {
            "astId": 4522,
            "contract": "contracts/AdoptAPet.sol:AdoptAPet",
            "label": "shelterId",
            "offset": 0,
            "slot": "9",
            "type": "t_uint256"
          },
          {
            "astId": 4524,
            "contract": "contracts/AdoptAPet.sol:AdoptAPet",
            "label": "adopted",
            "offset": 0,
            "slot": "10",
            "type": "t_bool"
          }
        ],
        "numberOfBytes": "352"
      },
      "t_struct(ShelterData)4502_storage": {
        "encoding": "inplace",
        "label": "struct AdoptAPet.ShelterData",
        "members": [
          {
            "astId": 4493,
            "contract": "contracts/AdoptAPet.sol:AdoptAPet",
            "label": "name",
            "offset": 0,
            "slot": "0",
            "type": "t_string_storage"
          },
          {
            "astId": 4495,
            "contract": "contracts/AdoptAPet.sol:AdoptAPet",
            "label": "location",
            "offset": 0,
            "slot": "1",
            "type": "t_string_storage"
          },
          {
            "astId": 4497,
            "contract": "contracts/AdoptAPet.sol:AdoptAPet",
            "label": "website",
            "offset": 0,
            "slot": "2",
            "type": "t_string_storage"
          },
          {
            "astId": 4499,
            "contract": "contracts/AdoptAPet.sol:AdoptAPet",
            "label": "email",
            "offset": 0,
            "slot": "3",
            "type": "t_string_storage"
          },
          {
            "astId": 4501,
            "contract": "contracts/AdoptAPet.sol:AdoptAPet",
            "label": "accountant",
            "offset": 0,
            "slot": "4",
            "type": "t_address"
          }
        ],
        "numberOfBytes": "160"
      },
      "t_uint16": {
        "encoding": "inplace",
        "label": "uint16",
        "numberOfBytes": "2"
      },
      "t_uint256": {
        "encoding": "inplace",
        "label": "uint256",
        "numberOfBytes": "32"
      },
      "t_uint32": {
        "encoding": "inplace",
        "label": "uint32",
        "numberOfBytes": "4"
      }
    }
  }
}