{
  "address": "0x5d7365a89A07525Fe97C1B829A0C2Eb14A42fe72",
  "abi": [
    {
      "inputs": [],
      "stateMutability": "nonpayable",
      "type": "constructor"
    },
    {
      "anonymous": false,
      "inputs": [
        {
          "indexed": false,
          "internalType": "uint256",
          "name": "_actionCost",
          "type": "uint256"
        }
      ],
      "name": "ActionCostSet",
      "type": "event"
    },
    {
      "anonymous": false,
      "inputs": [
        {
          "indexed": true,
          "internalType": "address",
          "name": "owner",
          "type": "address"
        },
        {
          "indexed": true,
          "internalType": "address",
          "name": "approved",
          "type": "address"
        },
        {
          "indexed": true,
          "internalType": "uint256",
          "name": "tokenId",
          "type": "uint256"
        }
      ],
      "name": "Approval",
      "type": "event"
    },
    {
      "anonymous": false,
      "inputs": [
        {
          "indexed": true,
          "internalType": "address",
          "name": "owner",
          "type": "address"
        },
        {
          "indexed": true,
          "internalType": "address",
          "name": "operator",
          "type": "address"
        },
        {
          "indexed": false,
          "internalType": "bool",
          "name": "approved",
          "type": "bool"
        }
      ],
      "name": "ApprovalForAll",
      "type": "event"
    },
    {
      "anonymous": false,
      "inputs": [
        {
          "indexed": false,
          "internalType": "address",
          "name": "previousOwner",
          "type": "address"
        },
        {
          "indexed": false,
          "internalType": "address",
          "name": "newOwner",
          "type": "address"
        }
      ],
      "name": "MessageOwnershipTransferred",
      "type": "event"
    },
    {
      "anonymous": false,
      "inputs": [
        {
          "indexed": false,
          "internalType": "uint256",
          "name": "_nftId",
          "type": "uint256"
        }
      ],
      "name": "MetadataUpdate",
      "type": "event"
    },
    {
      "anonymous": false,
      "inputs": [
        {
          "indexed": true,
          "internalType": "address",
          "name": "previousOwner",
          "type": "address"
        },
        {
          "indexed": true,
          "internalType": "address",
          "name": "newOwner",
          "type": "address"
        }
      ],
      "name": "OwnershipTransferred",
      "type": "event"
    },
    {
      "anonymous": false,
      "inputs": [
        {
          "indexed": false,
          "internalType": "uint256",
          "name": "_nftId",
          "type": "uint256"
        }
      ],
      "name": "PetAdded",
      "type": "event"
    },
    {
      "anonymous": false,
      "inputs": [
        {
          "indexed": false,
          "internalType": "uint256",
          "name": "_nftId",
          "type": "uint256"
        }
      ],
      "name": "PetAdopted",
      "type": "event"
    },
    {
      "anonymous": false,
      "inputs": [
        {
          "indexed": false,
          "internalType": "uint256",
          "name": "_nftId",
          "type": "uint256"
        },
        {
          "indexed": false,
          "internalType": "uint256",
          "name": "_destChainId",
          "type": "uint256"
        },
        {
          "indexed": false,
          "internalType": "address",
          "name": "_recipient",
          "type": "address"
        }
      ],
      "name": "PetBridged",
      "type": "event"
    },
    {
      "anonymous": false,
      "inputs": [
        {
          "indexed": false,
          "internalType": "uint256",
          "name": "_nftId",
          "type": "uint256"
        }
      ],
      "name": "PetFed",
      "type": "event"
    },
    {
      "anonymous": false,
      "inputs": [
        {
          "indexed": false,
          "internalType": "uint256",
          "name": "_nftId",
          "type": "uint256"
        }
      ],
      "name": "PetRescued",
      "type": "event"
    },
    {
      "anonymous": false,
      "inputs": [
        {
          "indexed": false,
          "internalType": "uint256",
          "name": "_nftId",
          "type": "uint256"
        }
      ],
      "name": "PetTreated",
      "type": "event"
    },
    {
      "anonymous": false,
      "inputs": [
        {
          "indexed": false,
          "internalType": "uint256",
          "name": "_nftId",
          "type": "uint256"
        }
      ],
      "name": "PetWalked",
      "type": "event"
    },
    {
      "anonymous": false,
      "inputs": [
        {
          "indexed": false,
          "internalType": "address",
          "name": "owner",
          "type": "address"
        },
        {
          "indexed": false,
          "internalType": "address",
          "name": "token",
          "type": "address"
        },
        {
          "indexed": false,
          "internalType": "uint256",
          "name": "amount",
          "type": "uint256"
        }
      ],
      "name": "RecoverToken",
      "type": "event"
    },
    {
      "anonymous": false,
      "inputs": [
        {
          "indexed": false,
          "internalType": "uint256",
          "name": "txId",
          "type": "uint256"
        },
        {
          "indexed": false,
          "internalType": "uint256",
          "name": "destinationChainId",
          "type": "uint256"
        },
        {
          "indexed": false,
          "internalType": "uint32",
          "name": "featureId",
          "type": "uint32"
        },
        {
          "indexed": false,
          "internalType": "bytes",
          "name": "featureData",
          "type": "bytes"
        }
      ],
      "name": "SendMessageWithFeature",
      "type": "event"
    },
    {
      "anonymous": false,
      "inputs": [
        {
          "indexed": false,
          "internalType": "address",
          "name": "owner",
          "type": "address"
        },
        {
          "indexed": false,
          "internalType": "address",
          "name": "exsig",
          "type": "address"
        }
      ],
      "name": "SetExsig",
      "type": "event"
    },
    {
      "anonymous": false,
      "inputs": [
        {
          "indexed": false,
          "internalType": "address",
          "name": "owner",
          "type": "address"
        },
        {
          "indexed": false,
          "internalType": "uint256",
          "name": "maxfee",
          "type": "uint256"
        }
      ],
      "name": "SetMaxfee",
      "type": "event"
    },
    {
      "anonymous": false,
      "inputs": [
        {
          "indexed": false,
          "internalType": "address",
          "name": "owner",
          "type": "address"
        },
        {
          "indexed": false,
          "internalType": "uint256",
          "name": "maxGas",
          "type": "uint256"
        }
      ],
      "name": "SetMaxgas",
      "type": "event"
    },
    {
      "anonymous": false,
      "inputs": [
        {
          "indexed": false,
          "internalType": "uint256",
          "name": "_shelterId",
          "type": "uint256"
        }
      ],
      "name": "ShelterAdded",
      "type": "event"
    },
    {
      "anonymous": false,
      "inputs": [
        {
          "indexed": false,
          "internalType": "uint256",
          "name": "_shelterId",
          "type": "uint256"
        },
        {
          "indexed": false,
          "internalType": "address",
          "name": "_manager",
          "type": "address"
        }
      ],
      "name": "ShelterManagerAdded",
      "type": "event"
    },
    {
      "anonymous": false,
      "inputs": [
        {
          "indexed": false,
          "internalType": "uint256",
          "name": "_shelterId",
          "type": "uint256"
        },
        {
          "indexed": false,
          "internalType": "address",
          "name": "_manager",
          "type": "address"
        }
      ],
      "name": "ShelterManagerRemoved",
      "type": "event"
    },
    {
      "anonymous": false,
      "inputs": [
        {
          "indexed": true,
          "internalType": "address",
          "name": "from",
          "type": "address"
        },
        {
          "indexed": true,
          "internalType": "address",
          "name": "to",
          "type": "address"
        },
        {
          "indexed": true,
          "internalType": "uint256",
          "name": "tokenId",
          "type": "uint256"
        }
      ],
      "name": "Transfer",
      "type": "event"
    },
    {
      "stateMutability": "payable",
      "type": "fallback"
    },
    {
      "inputs": [
        {
          "internalType": "uint256",
          "name": "",
          "type": "uint256"
        }
      ],
      "name": "CHAINS",
      "outputs": [
        {
          "internalType": "address",
          "name": "endpoint",
          "type": "address"
        },
        {
          "internalType": "bytes",
          "name": "endpointExtended",
          "type": "bytes"
        },
        {
          "internalType": "uint16",
          "name": "confirmations",
          "type": "uint16"
        },
        {
          "internalType": "bool",
          "name": "extended",
          "type": "bool"
        }
      ],
      "stateMutability": "view",
      "type": "function"
    },
    {
      "inputs": [
        {
          "internalType": "uint256",
          "name": "",
          "type": "uint256"
        },
        {
          "internalType": "uint32",
          "name": "",
          "type": "uint32"
        }
      ],
      "name": "FEATURES",
      "outputs": [
        {
          "internalType": "address",
          "name": "endpoint",
          "type": "address"
        },
        {
          "internalType": "bytes",
          "name": "endpointExtended",
          "type": "bytes"
        },
        {
          "internalType": "uint16",
          "name": "confirmations",
          "type": "uint16"
        },
        {
          "internalType": "bool",
          "name": "extended",
          "type": "bool"
        }
      ],
      "stateMutability": "view",
      "type": "function"
    },
    {
      "inputs": [],
      "name": "FEATURE_GATEWAY",
      "outputs": [
        {
          "internalType": "contract IFeatureGateway",
          "name": "",
          "type": "address"
        }
      ],
      "stateMutability": "view",
      "type": "function"
    },
    {
      "inputs": [],
      "name": "FEE_TOKEN",
      "outputs": [
        {
          "internalType": "contract IERC20cl",
          "name": "",
          "type": "address"
        }
      ],
      "stateMutability": "view",
      "type": "function"
    },
    {
      "inputs": [],
      "name": "MESSAGE_OWNER",
      "outputs": [
        {
          "internalType": "address",
          "name": "",
          "type": "address"
        }
      ],
      "stateMutability": "view",
      "type": "function"
    },
    {
      "inputs": [],
      "name": "MESSAGEv3",
      "outputs": [
        {
          "internalType": "contract IMessageV3",
          "name": "",
          "type": "address"
        }
      ],
      "stateMutability": "view",
      "type": "function"
    },
    {
      "inputs": [],
      "name": "actionCost",
      "outputs": [
        {
          "internalType": "uint256",
          "name": "",
          "type": "uint256"
        }
      ],
      "stateMutability": "view",
      "type": "function"
    },
    {
      "inputs": [
        {
          "internalType": "uint256",
          "name": "_shelterId",
          "type": "uint256"
        },
        {
          "internalType": "string",
          "name": "_name",
          "type": "string"
        },
        {
          "internalType": "string",
          "name": "_personality",
          "type": "string"
        }
      ],
      "name": "addPet",
      "outputs": [],
      "stateMutability": "nonpayable",
      "type": "function"
    },
    {
      "inputs": [
        {
          "internalType": "address",
          "name": "_accountant",
          "type": "address"
        },
        {
          "internalType": "string",
          "name": "_name",
          "type": "string"
        },
        {
          "internalType": "string",
          "name": "_location",
          "type": "string"
        },
        {
          "internalType": "string",
          "name": "_website",
          "type": "string"
        },
        {
          "internalType": "string",
          "name": "_email",
          "type": "string"
        }
      ],
      "name": "addShelter",
      "outputs": [],
      "stateMutability": "nonpayable",
      "type": "function"
    },
    {
      "inputs": [
        {
          "internalType": "uint256",
          "name": "_shelterId",
          "type": "uint256"
        },
        {
          "internalType": "address",
          "name": "_manager",
          "type": "address"
        }
      ],
      "name": "addShelterManager",
      "outputs": [],
      "stateMutability": "nonpayable",
      "type": "function"
    },
    {
      "inputs": [
        {
          "internalType": "uint256",
          "name": "_nftId",
          "type": "uint256"
        }
      ],
      "name": "adoptPet",
      "outputs": [],
      "stateMutability": "nonpayable",
      "type": "function"
    },
    {
      "inputs": [
        {
          "internalType": "uint256",
          "name": "",
          "type": "uint256"
        }
      ],
      "name": "allShelters",
      "outputs": [
        {
          "internalType": "uint256",
          "name": "",
          "type": "uint256"
        }
      ],
      "stateMutability": "view",
      "type": "function"
    },
    {
      "inputs": [
        {
          "internalType": "address",
          "name": "to",
          "type": "address"
        },
        {
          "internalType": "uint256",
          "name": "tokenId",
          "type": "uint256"
        }
      ],
      "name": "approve",
      "outputs": [],
      "stateMutability": "nonpayable",
      "type": "function"
    },
    {
      "inputs": [
        {
          "internalType": "uint256",
          "name": "",
          "type": "uint256"
        }
      ],
      "name": "availablePets",
      "outputs": [
        {
          "internalType": "uint256",
          "name": "",
          "type": "uint256"
        }
      ],
      "stateMutability": "view",
      "type": "function"
    },
    {
      "inputs": [
        {
          "internalType": "address",
          "name": "owner",
          "type": "address"
        }
      ],
      "name": "balanceOf",
      "outputs": [
        {
          "internalType": "uint256",
          "name": "",
          "type": "uint256"
        }
      ],
      "stateMutability": "view",
      "type": "function"
    },
    {
      "inputs": [
        {
          "internalType": "uint256",
          "name": "_destChainId",
          "type": "uint256"
        },
        {
          "internalType": "address",
          "name": "_recipient",
          "type": "address"
        },
        {
          "internalType": "uint256",
          "name": "_nftId",
          "type": "uint256"
        }
      ],
      "name": "bridge",
      "outputs": [],
      "stateMutability": "nonpayable",
      "type": "function"
    },
    {
      "inputs": [
        {
          "internalType": "address",
          "name": "_messageV3",
          "type": "address"
        },
        {
          "internalType": "uint256[]",
          "name": "_chains",
          "type": "uint256[]"
        },
        {
          "internalType": "address[]",
          "name": "_endpoints",
          "type": "address[]"
        },
        {
          "internalType": "uint16[]",
          "name": "_confirmations",
          "type": "uint16[]"
        }
      ],
      "name": "configureClient",
      "outputs": [],
      "stateMutability": "nonpayable",
      "type": "function"
    },
    {
      "inputs": [
        {
          "internalType": "address",
          "name": "_messageV3",
          "type": "address"
        },
        {
          "internalType": "uint256[]",
          "name": "_chains",
          "type": "uint256[]"
        },
        {
          "internalType": "bytes[]",
          "name": "_endpoints",
          "type": "bytes[]"
        },
        {
          "internalType": "uint16[]",
          "name": "_confirmations",
          "type": "uint16[]"
        }
      ],
      "name": "configureClientExtended",
      "outputs": [],
      "stateMutability": "nonpayable",
      "type": "function"
    },
    {
      "inputs": [
        {
          "internalType": "address",
          "name": "_featureGateway",
          "type": "address"
        }
      ],
      "name": "configureFeatureGateway",
      "outputs": [],
      "stateMutability": "nonpayable",
      "type": "function"
    },
    {
      "inputs": [
        {
          "internalType": "uint256",
          "name": "_nftId",
          "type": "uint256"
        }
      ],
      "name": "feed",
      "outputs": [],
      "stateMutability": "payable",
      "type": "function"
    },
    {
      "inputs": [],
      "name": "getAllShelters",
      "outputs": [
        {
          "internalType": "uint256[]",
          "name": "",
          "type": "uint256[]"
        }
      ],
      "stateMutability": "view",
      "type": "function"
    },
    {
      "inputs": [
        {
          "internalType": "uint256",
          "name": "tokenId",
          "type": "uint256"
        }
      ],
      "name": "getApproved",
      "outputs": [
        {
          "internalType": "address",
          "name": "",
          "type": "address"
        }
      ],
      "stateMutability": "view",
      "type": "function"
    },
    {
      "inputs": [],
      "name": "getAvailablePets",
      "outputs": [
        {
          "internalType": "uint256[]",
          "name": "",
          "type": "uint256[]"
        }
      ],
      "stateMutability": "view",
      "type": "function"
    },
    {
      "inputs": [
        {
          "internalType": "uint256",
          "name": "_nftId",
          "type": "uint256"
        }
      ],
      "name": "getLastMessage",
      "outputs": [
        {
          "internalType": "string",
          "name": "",
          "type": "string"
        }
      ],
      "stateMutability": "view",
      "type": "function"
    },
    {
      "inputs": [
        {
          "internalType": "uint256",
          "name": "_nftId",
          "type": "uint256"
        }
      ],
      "name": "getPet",
      "outputs": [
        {
          "components": [
            {
              "internalType": "uint256",
              "name": "lastWalk",
              "type": "uint256"
            },
            {
              "internalType": "uint256",
              "name": "lastFeed",
              "type": "uint256"
            },
            {
              "internalType": "uint256",
              "name": "lastTreat",
              "type": "uint256"
            },
            {
              "internalType": "uint256",
              "name": "totalWalks",
              "type": "uint256"
            },
            {
              "internalType": "uint256",
              "name": "totalFeeds",
              "type": "uint256"
            },
            {
              "internalType": "uint256",
              "name": "totalTreats",
              "type": "uint256"
            },
            {
              "internalType": "string",
              "name": "name",
              "type": "string"
            },
            {
              "internalType": "string",
              "name": "personality",
              "type": "string"
            },
            {
              "internalType": "uint256",
              "name": "shelterId",
              "type": "uint256"
            },
            {
              "internalType": "bool",
              "name": "adopted",
              "type": "bool"
            }
          ],
          "internalType": "struct AdoptAPet.PetData",
          "name": "",
          "type": "tuple"
        }
      ],
      "stateMutability": "view",
      "type": "function"
    },
    {
      "inputs": [
        {
          "internalType": "uint256",
          "name": "_shelterId",
          "type": "uint256"
        }
      ],
      "name": "getShelter",
      "outputs": [
        {
          "components": [
            {
              "internalType": "string",
              "name": "name",
              "type": "string"
            },
            {
              "internalType": "string",
              "name": "location",
              "type": "string"
            },
            {
              "internalType": "string",
              "name": "website",
              "type": "string"
            },
            {
              "internalType": "string",
              "name": "email",
              "type": "string"
            },
            {
              "internalType": "address",
              "name": "accountant",
              "type": "address"
            }
          ],
          "internalType": "struct AdoptAPet.ShelterData",
          "name": "",
          "type": "tuple"
        }
      ],
      "stateMutability": "view",
      "type": "function"
    },
    {
      "inputs": [
        {
          "internalType": "address",
          "name": "owner",
          "type": "address"
        },
        {
          "internalType": "address",
          "name": "operator",
          "type": "address"
        }
      ],
      "name": "isApprovedForAll",
      "outputs": [
        {
          "internalType": "bool",
          "name": "",
          "type": "bool"
        }
      ],
      "stateMutability": "view",
      "type": "function"
    },
    {
      "inputs": [
        {
          "internalType": "address",
          "name": "_sender",
          "type": "address"
        },
        {
          "internalType": "uint256",
          "name": "_sourceChainId",
          "type": "uint256"
        }
      ],
      "name": "isAuthorized",
      "outputs": [
        {
          "internalType": "bool",
          "name": "",
          "type": "bool"
        }
      ],
      "stateMutability": "view",
      "type": "function"
    },
    {
      "inputs": [
        {
          "internalType": "address",
          "name": "_sender",
          "type": "address"
        },
        {
          "internalType": "uint256",
          "name": "_sourceChainId",
          "type": "uint256"
        }
      ],
      "name": "isSelf",
      "outputs": [
        {
          "internalType": "bool",
          "name": "",
          "type": "bool"
        }
      ],
      "stateMutability": "view",
      "type": "function"
    },
    {
      "inputs": [
        {
          "internalType": "uint256",
          "name": "",
          "type": "uint256"
        },
        {
          "internalType": "uint256",
          "name": "_sourceChainId",
          "type": "uint256"
        },
        {
          "internalType": "address",
          "name": "_sender",
          "type": "address"
        },
        {
          "internalType": "address",
          "name": "",
          "type": "address"
        },
        {
          "internalType": "uint256",
          "name": "",
          "type": "uint256"
        },
        {
          "internalType": "bytes",
          "name": "_data",
          "type": "bytes"
        }
      ],
      "name": "messageProcess",
      "outputs": [],
      "stateMutability": "nonpayable",
      "type": "function"
    },
    {
      "inputs": [
        {
          "internalType": "uint256",
          "name": "",
          "type": "uint256"
        }
      ],
      "name": "messages",
      "outputs": [
        {
          "internalType": "string",
          "name": "",
          "type": "string"
        }
      ],
      "stateMutability": "view",
      "type": "function"
    },
    {
      "inputs": [],
      "name": "name",
      "outputs": [
        {
          "internalType": "string",
          "name": "",
          "type": "string"
        }
      ],
      "stateMutability": "view",
      "type": "function"
    },
    {
      "inputs": [],
      "name": "nextNftId",
      "outputs": [
        {
          "internalType": "uint256",
          "name": "",
          "type": "uint256"
        }
      ],
      "stateMutability": "view",
      "type": "function"
    },
    {
      "inputs": [],
      "name": "nextShelterId",
      "outputs": [
        {
          "internalType": "uint256",
          "name": "",
          "type": "uint256"
        }
      ],
      "stateMutability": "view",
      "type": "function"
    },
    {
      "inputs": [],
      "name": "owner",
      "outputs": [
        {
          "internalType": "address",
          "name": "",
          "type": "address"
        }
      ],
      "stateMutability": "view",
      "type": "function"
    },
    {
      "inputs": [
        {
          "internalType": "uint256",
          "name": "tokenId",
          "type": "uint256"
        }
      ],
      "name": "ownerOf",
      "outputs": [
        {
          "internalType": "address",
          "name": "",
          "type": "address"
        }
      ],
      "stateMutability": "view",
      "type": "function"
    },
    {
      "inputs": [
        {
          "internalType": "uint256",
          "name": "",
          "type": "uint256"
        }
      ],
      "name": "pets",
      "outputs": [
        {
          "internalType": "uint256",
          "name": "lastWalk",
          "type": "uint256"
        },
        {
          "internalType": "uint256",
          "name": "lastFeed",
          "type": "uint256"
        },
        {
          "internalType": "uint256",
          "name": "lastTreat",
          "type": "uint256"
        },
        {
          "internalType": "uint256",
          "name": "totalWalks",
          "type": "uint256"
        },
        {
          "internalType": "uint256",
          "name": "totalFeeds",
          "type": "uint256"
        },
        {
          "internalType": "uint256",
          "name": "totalTreats",
          "type": "uint256"
        },
        {
          "internalType": "string",
          "name": "name",
          "type": "string"
        },
        {
          "internalType": "string",
          "name": "personality",
          "type": "string"
        },
        {
          "internalType": "uint256",
          "name": "shelterId",
          "type": "uint256"
        },
        {
          "internalType": "bool",
          "name": "adopted",
          "type": "bool"
        }
      ],
      "stateMutability": "view",
      "type": "function"
    },
    {
      "inputs": [
        {
          "internalType": "address",
          "name": "_token",
          "type": "address"
        },
        {
          "internalType": "uint256",
          "name": "_amount",
          "type": "uint256"
        }
      ],
      "name": "recoverToken",
      "outputs": [],
      "stateMutability": "nonpayable",
      "type": "function"
    },
    {
      "inputs": [
        {
          "internalType": "uint256",
          "name": "_shelterId",
          "type": "uint256"
        },
        {
          "internalType": "address",
          "name": "_manager",
          "type": "address"
        }
      ],
      "name": "removeShelterManager",
      "outputs": [],
      "stateMutability": "nonpayable",
      "type": "function"
    },
    {
      "inputs": [],
      "name": "renounceOwnership",
      "outputs": [],
      "stateMutability": "nonpayable",
      "type": "function"
    },
    {
      "inputs": [
        {
          "internalType": "uint256",
          "name": "_nftId",
          "type": "uint256"
        }
      ],
      "name": "rescue",
      "outputs": [],
      "stateMutability": "payable",
      "type": "function"
    },
    {
      "inputs": [
        {
          "internalType": "address",
          "name": "from",
          "type": "address"
        },
        {
          "internalType": "address",
          "name": "to",
          "type": "address"
        },
        {
          "internalType": "uint256",
          "name": "tokenId",
          "type": "uint256"
        }
      ],
      "name": "safeTransferFrom",
      "outputs": [],
      "stateMutability": "nonpayable",
      "type": "function"
    },
    {
      "inputs": [
        {
          "internalType": "address",
          "name": "from",
          "type": "address"
        },
        {
          "internalType": "address",
          "name": "to",
          "type": "address"
        },
        {
          "internalType": "uint256",
          "name": "tokenId",
          "type": "uint256"
        },
        {
          "internalType": "bytes",
          "name": "data",
          "type": "bytes"
        }
      ],
      "name": "safeTransferFrom",
      "outputs": [],
      "stateMutability": "nonpayable",
      "type": "function"
    },
    {
      "inputs": [
        {
          "internalType": "uint256",
          "name": "_actionCost",
          "type": "uint256"
        }
      ],
      "name": "setActionCost",
      "outputs": [],
      "stateMutability": "nonpayable",
      "type": "function"
    },
    {
      "inputs": [
        {
          "internalType": "address",
          "name": "operator",
          "type": "address"
        },
        {
          "internalType": "bool",
          "name": "approved",
          "type": "bool"
        }
      ],
      "name": "setApprovalForAll",
      "outputs": [],
      "stateMutability": "nonpayable",
      "type": "function"
    },
    {
      "inputs": [
        {
          "internalType": "address",
          "name": "_signer",
          "type": "address"
        }
      ],
      "name": "setExsig",
      "outputs": [],
      "stateMutability": "nonpayable",
      "type": "function"
    },
    {
      "inputs": [
        {
          "internalType": "uint256",
          "name": "_maxFee",
          "type": "uint256"
        }
      ],
      "name": "setMaxfee",
      "outputs": [],
      "stateMutability": "nonpayable",
      "type": "function"
    },
    {
      "inputs": [
        {
          "internalType": "uint256",
          "name": "_maxGas",
          "type": "uint256"
        }
      ],
      "name": "setMaxgas",
      "outputs": [],
      "stateMutability": "nonpayable",
      "type": "function"
    },
    {
      "inputs": [
        {
          "internalType": "uint256",
          "name": "",
          "type": "uint256"
        }
      ],
      "name": "shelterAccountant",
      "outputs": [
        {
          "internalType": "address",
          "name": "",
          "type": "address"
        }
      ],
      "stateMutability": "view",
      "type": "function"
    },
    {
      "inputs": [
        {
          "internalType": "uint256",
          "name": "",
          "type": "uint256"
        },
        {
          "internalType": "address",
          "name": "",
          "type": "address"
        }
      ],
      "name": "shelterManagers",
      "outputs": [
        {
          "internalType": "bool",
          "name": "",
          "type": "bool"
        }
      ],
      "stateMutability": "view",
      "type": "function"
    },
    {
      "inputs": [
        {
          "internalType": "uint256",
          "name": "",
          "type": "uint256"
        }
      ],
      "name": "shelters",
      "outputs": [
        {
          "internalType": "string",
          "name": "name",
          "type": "string"
        },
        {
          "internalType": "string",
          "name": "location",
          "type": "string"
        },
        {
          "internalType": "string",
          "name": "website",
          "type": "string"
        },
        {
          "internalType": "string",
          "name": "email",
          "type": "string"
        },
        {
          "internalType": "address",
          "name": "accountant",
          "type": "address"
        }
      ],
      "stateMutability": "view",
      "type": "function"
    },
    {
      "inputs": [
        {
          "internalType": "bytes4",
          "name": "interfaceId",
          "type": "bytes4"
        }
      ],
      "name": "supportsInterface",
      "outputs": [
        {
          "internalType": "bool",
          "name": "",
          "type": "bool"
        }
      ],
      "stateMutability": "view",
      "type": "function"
    },
    {
      "inputs": [],
      "name": "symbol",
      "outputs": [
        {
          "internalType": "string",
          "name": "",
          "type": "string"
        }
      ],
      "stateMutability": "view",
      "type": "function"
    },
    {
      "inputs": [
        {
          "internalType": "uint256",
          "name": "index",
          "type": "uint256"
        }
      ],
      "name": "tokenByIndex",
      "outputs": [
        {
          "internalType": "uint256",
          "name": "",
          "type": "uint256"
        }
      ],
      "stateMutability": "view",
      "type": "function"
    },
    {
      "inputs": [
        {
          "internalType": "address",
          "name": "owner",
          "type": "address"
        },
        {
          "internalType": "uint256",
          "name": "index",
          "type": "uint256"
        }
      ],
      "name": "tokenOfOwnerByIndex",
      "outputs": [
        {
          "internalType": "uint256",
          "name": "",
          "type": "uint256"
        }
      ],
      "stateMutability": "view",
      "type": "function"
    },
    {
      "inputs": [
        {
          "internalType": "uint256",
          "name": "tokenId",
          "type": "uint256"
        }
      ],
      "name": "tokenURI",
      "outputs": [
        {
          "internalType": "string",
          "name": "",
          "type": "string"
        }
      ],
      "stateMutability": "view",
      "type": "function"
    },
    {
      "inputs": [],
      "name": "totalSupply",
      "outputs": [
        {
          "internalType": "uint256",
          "name": "",
          "type": "uint256"
        }
      ],
      "stateMutability": "view",
      "type": "function"
    },
    {
      "inputs": [
        {
          "internalType": "address",
          "name": "from",
          "type": "address"
        },
        {
          "internalType": "address",
          "name": "to",
          "type": "address"
        },
        {
          "internalType": "uint256",
          "name": "tokenId",
          "type": "uint256"
        }
      ],
      "name": "transferFrom",
      "outputs": [],
      "stateMutability": "nonpayable",
      "type": "function"
    },
    {
      "inputs": [
        {
          "internalType": "address",
          "name": "_newMessageOwner",
          "type": "address"
        }
      ],
      "name": "transferMessageOwnership",
      "outputs": [],
      "stateMutability": "nonpayable",
      "type": "function"
    },
    {
      "inputs": [
        {
          "internalType": "address",
          "name": "newOwner",
          "type": "address"
        }
      ],
      "name": "transferOwnership",
      "outputs": [],
      "stateMutability": "nonpayable",
      "type": "function"
    },
    {
      "inputs": [
        {
          "internalType": "uint256",
          "name": "_nftId",
          "type": "uint256"
        }
      ],
      "name": "treat",
      "outputs": [],
      "stateMutability": "payable",
      "type": "function"
    },
    {
      "inputs": [
        {
          "internalType": "uint256",
          "name": "_nftId",
          "type": "uint256"
        }
      ],
      "name": "walk",
      "outputs": [],
      "stateMutability": "payable",
      "type": "function"
    },
    {
      "inputs": [
        {
          "internalType": "address",
          "name": "owner",
          "type": "address"
        }
      ],
      "name": "walletOfOwner",
      "outputs": [
        {
          "internalType": "uint256[]",
          "name": "",
          "type": "uint256[]"
        }
      ],
      "stateMutability": "view",
      "type": "function"
    },
    {
      "stateMutability": "payable",
      "type": "receive"
    }
  ],
  "transactionHash": "0x4f3fcff429530072d7e9389cab39c43f00f696f51086afa98688f2ea7df2e092",
  "args": [],
  "numDeployments": 5,
  "solcInputHash": "4f9d5867139b442a05ec82513a78527f",
  "bytecode": "0x6080346200039d576001600160401b03906040908082018381118282101762000387578252600b81526020906a10591bdc1d08104814195d60aa1b828201528251938385018581108282111762000387578452600385526204141560ec1b83860152815181811162000387576000938454916001948584811c941680156200037c575b8385101462000368578190601f9485811162000315575b508390858311600114620002b1578892620002a5575b5050600019600383901b1c191690851b1785555b8651928311620002915783548481811c9116801562000286575b8282101462000272578281116200022a575b5080918311600114620001c3575083949582939492620001b7575b5050600019600383901b1c191690821b1790555b600a8054336001600160a01b03198083168217909355935193906001600160a01b03167f8be0079c531659141344cd1fd0a4f28419497f9722a3daafe3b4186f6b6457e08480a333906010541617601055655af3107a4000601a5561271090814602914683041446151715620001a35750806011556012556153979081620003a38239f35b634e487b7160e01b81526011600452602490fd5b0151905038806200010a565b90601f198316968486528286209286905b89821062000212575050838596979810620001f8575b505050811b0190556200011e565b015160001960f88460031b161c19169055388080620001ea565b808785968294968601518155019501930190620001d4565b8486528186208380860160051c82019284871062000268575b0160051c019085905b8281106200025c575050620000ef565b8781550185906200024c565b9250819262000243565b634e487b7160e01b86526022600452602486fd5b90607f1690620000dd565b634e487b7160e01b85526041600452602485fd5b015190503880620000af565b8880528489208894509190601f1984168a5b87828210620002fe5750508411620002e4575b505050811b018555620000c3565b015160001960f88460031b161c19169055388080620002d6565b8385015186558b97909501949384019301620002c3565b9091508780528388208580850160051c8201928686106200035e575b918991869594930160051c01915b8281106200034f57505062000099565b8a81558594508991016200033f565b9250819262000331565b634e487b7160e01b87526022600452602487fd5b93607f169362000082565b634e487b7160e01b600052604160045260246000fd5b600080fdfe60806040526004361015610018575b361561001657005b005b60003560e01c806301ffc9a7146104f257806302b3b368146104e95780630581f59d146104e057806306fdde03146104d7578063081812fc146104ce578063095ea7b3146104c55780630d029802146104bc5780630d80fefd146103c057806318160ddd146104b357806319b81577146104aa57806320bfe3421461049857806323b872dd146104a15780632972b0f0146104985780632ee02d7c1461048f5780632f745c59146104865780632f820a5f1461047d57806342842e0e14610474578063438b63001461046b5780634f139b49146104625780634f154c54146104595780634f6ccce714610450578063559b2f6514610447578063585c7edd1461043e57806359d55194146104355780635b77a6a61461042c5780635f46e740146104235780636352211e1461041a5780636ac053ad146104115780637044cd7e1461040857806370a08231146103ff578063715018a6146103f657806373717b08146103ed578063788063f0146103e4578063794b4643146103db5780637a29fa66146103d25780637b84044d146103c9578063823a1db1146103c0578063853c75d8146103b75780638da5cb5b146103ae57806392ae12fd146103a557806393f1da4f1461039c57806395d89b41146103935780639877f2f31461038a5780639e0d0ef814610381578063a22cb46514610378578063a2db91691461036f578063a771ac1514610366578063b29a81401461035d578063b479a96114610354578063b7f494a41461034b578063b88d4fde14610342578063bb0b983014610339578063bd3d9a2114610330578063c60853f614610327578063c87b56dd1461031e578063c96fba4014610315578063cfb869bf1461030c578063e47ad74d14610303578063e985e9c5146102fa578063f2fde38b146102f1578063f52a9198146102e8578063f59dfdfb146102df5763f71941380361000e576102da61320c565b61000e565b506102da613147565b506102da6130e3565b506102da61301a565b506102da612fbd565b506102da612edb565b506102da612e4f565b506102da612dd3565b506102da61271f565b506102da612642565b506102da61260d565b506102da6125e3565b506102da61258c565b506102da612447565b506102da61235f565b506102da612246565b506102da6121b5565b506102da6120da565b506102da611f70565b506102da611df2565b506102da611cdc565b506102da611c36565b506102da611c17565b506102da611bae565b506102da611b4d565b506102da611b23565b506102da610bda565b506102da611a8e565b506102da611a3c565b506102da611a1d565b506102da6119cb565b506102da61198a565b506102da61192b565b506102da611903565b506102da611867565b506102da6116a9565b506102da61168a565b506102da61161a565b506102da6115c3565b506102da6114c4565b506102da6113b5565b506102da611328565b506102da61127c565b506102da6111f4565b506102da6111a7565b506102da611101565b506102da61107f565b506102da610fdb565b506102da610fa7565b506102da610ea5565b506102da610d78565b506102da610dda565b506102da610c4b565b506102da610c2c565b506102da610a19565b506102da610940565b506102da6108fe565b506102da61081a565b506102da6106de565b506102da61059b565b506102da610512565b6001600160e01b031981160361050d57565b600080fd5b503461050d57602036600319011261050d576020600435610532816104fb565b63ffffffff60e01b1663780e9d6360e01b8114908115610558575b506040519015158152f35b6380ac58cd60e01b81149150811561058a575b8115610579575b503861054d565b6301ffc9a760e01b14905038610572565b635b5e139f60e01b8114915061056b565b50602036600319011261050d577f270b33e55d2417c1b1aef69f10fe745f3b7c907307cd45c038ef7f5490d655326106c26004356105dd601a54341015613f3d565b6105f96105e982613378565b6001600160a01b03163314613f89565b600080808061064b61063f61063f61063260086106208a6000526014602052604060002090565b01546000526017602052604060002090565b546001600160a01b031690565b6001600160a01b031690565b819034156106d4575b3491f1156106c7575b6005610673826000526014602052604060002090565b426002820155016106848154613a85565b90556040518181527ff8e1a15aba9398e019f0b49df1a4fde98ee17ae345cb5f6b5e2c27f5033e8ce790602090a16040519081529081906020820190565b0390a1005b6106cf61384d565b61065d565b6108fc9150610654565b50602036600319011261050d577f01907761d11c22471f309f9f408da0f1f10120847e63448528be36911ab6bca16106c2600435610720601a54341015613f3d565b61072c6105e982613378565b600080808061075361063f61063f61063260086106208a6000526014602052604060002090565b819034156107a9575b3491f11561079c575b4261077a826000526014602052604060002090565b556003610791826000526014602052604060002090565b016106848154613a85565b6107a461384d565b610765565b6108fc915061075c565b600091031261050d57565b60005b8381106107d15750506000910152565b81810151838201526020016107c1565b906020916107fa815180928185528580860191016107be565b601f01601f1916010190565b9060206108179281815201906107e1565b90565b503461050d576000806003193601126108fb576040519080805461083d81610a43565b808552916001918083169081156108d15750600114610877575b6108738561086781870382610b9c565b60405191829182610806565b0390f35b80809450527f290decd9548b62a8d60345a988386fc84ba6bc95484008f6362f93160ef3e5635b8284106108b957505050810160200161086782610873610857565b8054602085870181019190915290930192810161089e565b8695506108739693506020925061086794915060ff191682840152151560051b8201019293610857565b80fd5b503461050d57602036600319011261050d57602061091d60043561340d565b6040516001600160a01b039091168152f35b6001600160a01b0381160361050d57565b503461050d57604036600319011261050d5760043561095e8161092f565b60243561096a81613378565b916001600160a01b0380841690821681146109ca576100169361099791331490811561099c575b5061339b565b6137a3565b6001600160a01b0316600090815260056020908152604080832033845290915290205460ff16905038610991565b60405162461bcd60e51b815260206004820152602160248201527f4552433732313a20617070726f76616c20746f2063757272656e74206f776e656044820152603960f91b6064820152608490fd5b503461050d57600036600319011261050d57600b546040516001600160a01b039091168152602090f35b90600182811c92168015610a73575b6020831014610a5d57565b634e487b7160e01b600052602260045260246000fd5b91607f1691610a52565b9060009291805491610a8e83610a43565b918282526001938481169081600014610af05750600114610ab0575b50505050565b90919394506000526020928360002092846000945b838610610adc575050505001019038808080610aaa565b805485870183015294019385908201610ac5565b9294505050602093945060ff191683830152151560051b01019038808080610aaa565b50634e487b7160e01b600052604160045260246000fd5b61014081019081106001600160401b03821117610b4657604052565b610b4e610b13565b604052565b60a081019081106001600160401b03821117610b4657604052565b6001600160401b038111610b4657604052565b604081019081106001600160401b03821117610b4657604052565b90601f801991011681019081106001600160401b03821117610b4657604052565b90610bd8610bd19260405193848092610a7d565b0383610b9c565b565b503461050d57602036600319011261050d576004356000526013602052610873610c11610c18604060002060405192838092610a7d565b0382610b9c565b6040519182916020835260208301906107e1565b503461050d57600036600319011261050d576020600854604051908152f35b503461050d57602036600319011261050d57600435600081815260026020526040902054610c83906001600160a01b03161515613feb565b610c8c81613378565b306001600160a01b0390911603610d25576106c27f87b11a36a7d8951907601f47f6fa4a32bffadebbff2e4894922b25922d340d859142610cd7826000526014602052604060002090565b55426001610cef836000526014602052604060002090565b0155426002610d08836000526014602052604060002090565b0155610d1581333061363b565b6040519081529081906020820190565b60405162461bcd60e51b815260206004820152602560248201527f41646f7074415065743a20416c72656164792061646f7074656420627920736f6044820152646d656f6e6560d81b6064820152608490fd5b503461050d57604036600319011261050d576020610da4600435610d9b8161092f565b60243590613f11565b6040519015158152f35b606090600319011261050d57600435610dc68161092f565b90602435610dd38161092f565b9060443590565b503461050d57610016610dec36610dae565b91610dff610dfa8433613569565b61344b565b61363b565b9181601f8401121561050d578235916001600160401b03831161050d576020808501948460051b01011161050d57565b608060031982011261050d57600435610e4c8161092f565b916001600160401b0360243581811161050d5783610e6c91600401610e04565b9390939260443583811161050d5782610e8791600401610e04565b9390939260643591821161050d57610ea191600401610e04565b9091565b503461050d57610eb436610e34565b610ed060018060a0989794989695961b03601054163314613a22565b60005b828110610ee35761001688613c2c565b80610f9d610f47888888610f88868a8f610f04610fa29b8d610f0993613aa1565b613abf565b95610f15838383613aa1565b35600052610f47610f4c84600f986020988a8a5260029c8d9c60409d8e600020019061ffff1661ffff19825416179055565b613aa1565b35610f568161092f565b610f61858585613aa1565b35600052878752886000209060018060a01b03166001600160601b0360a01b825416179055565b35600052526000200162ff0000198154169055565b613a85565b610ed3565b503461050d57604036600319011261050d576020610fd3600435610fca8161092f565b60243590613994565b604051908152f35b503461050d57606036600319011261050d57602435600435610ffc8261092f565b6000818152600f60205260409020546001600160a01b0316156110265761001691604435916145d3565b60405162461bcd60e51b815260206004820152602b60248201527f4d657373616765436c69656e743a2064657374696e6174696f6e20636861696e60448201526a206e6f742061637469766560a81b6064820152608490fd5b503461050d5761001661109136610dae565b9060405192602084018481106001600160401b038211176110b9575b604052600084526134de565b6110c1610b13565b6110ad565b6020908160408183019282815285518094520193019160005b8281106110ed575050505090565b8351855293810193928101926001016110df565b503461050d5760208060031936011261050d57600435906111218261092f565b61112a826132b5565b9061113482614f7a565b926111426040519485610b9c565b828452601f1961115184614f7a565b01368386013760005b83811061116f576040518061087387826110c6565b8061117d6111959284613994565b865182101561119a575b848260051b88010152613a85565b61115a565b6111a26119b4565b611187565b503461050d57602036600319011261050d577fc01bd9c884731622f1af5796e1e37246a27b50e2999f80f11e30e9ed2e3a186860206004356111e761325d565b80601a55604051908152a1005b503461050d57600036600319011261050d57604051806019549182815260208091019260196000527f944998273e477b495144fb8794c914197f3ccb46be2900f4698fd0ef743c9695916000905b828210611265576108738561125981890382610b9c565b604051918291826110c6565b835486529485019460019384019390910190611242565b503461050d57602036600319011261050d576004356008548110156112ce5760086000527ff3f7a9fe364faab93b216da50a3214154f22a0a2b415b23a84c8169e8b636ee30154604051908152602090f35b60405162461bcd60e51b815260206004820152602c60248201527f455243373231456e756d657261626c653a20676c6f62616c20696e646578206f60448201526b7574206f6620626f756e647360a01b6064820152608490fd5b503461050d57602036600319011261050d577fe1a25f463c6504824e91268b5b2c05658d5358c9c1698a85346cfae5336a642e6106c260043561136a8161092f565b6010546001600160a01b036113823382841614613a22565b6001600160a01b031990911690821617601055604080513381526001600160a01b03909216602083015290918291820190565b503461050d57600036600319011261050d57604051806018549182815260208091019260186000527fb13d2d76d1f4b7be834882e410b3e3a8afaf69f83600ae24db354391d2378d2e916000905b82821061141a576108738561125981890382610b9c565b835486529485019460019384019390910190611403565b610817906020815282516020820152602083015160408201526040830151606082015260608301516080820152608083015160a082015260a083015160c082015260c083015161148f610140918260e08501526101608401906107e1565b936114ad60e08201519561010096601f1986830301888701526107e1565b948101516101208481019190915201511515910152565b503461050d57602036600319011261050d576108736040516114e581610b2a565b6115b76000918281528260208201528260408201528260608201528260808201528260a0820152606060c0820152606060e08201526115af6009604061010095808786015280610120809601526004358152601460205220611545611d74565b958154875260018201546020880152600282015460408801526003820154606088015260048201546080880152600582015460a088015261158860068301610bbd565b60c088015261159960078301610bbd565b60e0880152600882015490870152015460ff1690565b151590830152565b60405191829182611431565b503461050d57604036600319011261050d57602060ff61160e6024356115e88161092f565b6004356000526016845260406000209060018060a01b0316600052602052604060002090565b54166040519015158152f35b503461050d5760c036600319011261050d576044356116388161092f565b61164360643561092f565b60a435906001600160401b039081831161050d573660238401121561050d57826004013591821161050d57366024838501011161050d576024610016930190602435614a33565b503461050d57602036600319011261050d57602061091d600435613378565b50602036600319011261050d576004356116c7601a54341015613f3d565b6000818152600260205260409020546116ea906001600160a01b03161515613feb565b6116fe816000526014602052604060002090565b61171561170f600983015460ff1690565b15614037565b60018101546117234261408d565b119081156117f5575b81156117df575b5015611772576106c281610d158161176b7f6e8cd1f70db1aa72284733203457cea2522ddaeb381b13f68877ae170f8147ca95613378565b339061363b565b6040805162461bcd60e51b81526020600482015260248101919091527f41646f7074415065743a20506574206973206265696e672074616b656e20636160448201527f7265206f662e2043616e6e6f742072657475726e20746f207368656c7465722e6064820152608490fd5b6002915001546117ee4261408d565b1138611733565b809150546118024261408d565b119061172c565b939060809361183b6118579461182d611849949a999a60a08a5260a08a01906107e1565b9088820360208a01526107e1565b9086820360408801526107e1565b9084820360608601526107e1565b6001600160a01b03909416910152565b503461050d57602036600319011261050d576004356000526015602052604080600020906108738151916118a68361189f8187610a7d565b0384610b9c565b8051936118c1856118ba8160018501610a7d565b0386610b9c565b81516118d481610c118160028601610a7d565b8251916118e88361189f8160038501610a7d565b6004015492519586956001600160a01b039094169386611809565b503461050d57602036600319011261050d576020610fd36004356119268161092f565b6132b5565b503461050d576000806003193601126108fb5761194661325d565b600a80546001600160a01b0319811690915581906001600160a01b03167f8be0079c531659141344cd1fd0a4f28419497f9722a3daafe3b4186f6b6457e08280a380f35b503461050d57600036600319011261050d57600c546040516001600160a01b039091168152602090f35b50634e487b7160e01b600052603260045260246000fd5b503461050d57602036600319011261050d5760043560195481101561050d5760209060196000527f944998273e477b495144fb8794c914197f3ccb46be2900f4698fd0ef743c96950154604051908152f35b503461050d57600036600319011261050d576020601254604051908152f35b503461050d57602036600319011261050d5760043560185481101561050d5760209060186000527fb13d2d76d1f4b7be834882e410b3e3a8afaf69f83600ae24db354391d2378d2e0154604051908152f35b503461050d57604036600319011261050d577fd8b7d7a23c5842ffa9123c6ca5422f27d20e7eb242f4afb8f45f871e5b9537c9602435600435611ad08261092f565b611ad861325d565b60008181526016602090815260408083206001600160a01b03861684529091529020805460ff19169055604080519182526001600160a01b03909216602082015290819081016106c2565b503461050d57600036600319011261050d576010546040516001600160a01b039091168152602090f35b503461050d57600036600319011261050d57600a546040516001600160a01b039091168152602090f35b92949390611ba060609361ffff9260018060a01b031686526080602087015260808601906107e1565b951660408401521515910152565b503461050d57602036600319011261050d57600435600052600f602052604060002060018060a01b0381541690610873600260405192611bfc84611bf58160018501610a7d565b0385610b9c565b015460405193849361ffff60ff8460101c1693169185611b77565b503461050d57600036600319011261050d576020601154604051908152f35b503461050d576000806003193601126108fb5760405190806001805491611c5c83610a43565b808652928281169081156108d15750600114611c82576108738561086781870382610b9c565b92508083527fb10e2d527612073b26eecdfd717e6a320cf44b4afac2b0732d9fcbe2b7fa0cf65b828410611cc457505050810160200161086782610873610857565b80546020858701810191909152909301928101611ca9565b503461050d57604036600319011261050d577fecf4bb70ae42517181404f9ef6d941228f6c18e8d51f9bf514419aa6631d304a602435600435611d1e8261092f565b611d2661325d565b60008181526016602090815260408083206001600160a01b03861684529091529020805460ff19166001179055604080519182526001600160a01b03909216602082015290819081016106c2565b60405190610bd882610b2a565b6020906001600160401b038111611d9e575b601f01601f19160190565b611da6610b13565b611d93565b81601f8201121561050d57803590611dc282611d81565b92611dd06040519485610b9c565b8284526020838301011161050d57816000926020809301838601378301015290565b503461050d57606036600319011261050d576004356001600160401b0360243581811161050d57611e27903690600401611dab565b9060443590811161050d57611e40903690600401611dab565b9082600052601660205260ff611e6b60406000203360018060a01b0316600052602052604060002090565b541615611f0757611eb0600892611e8460115430614441565b611ea7611e9d6011546000526014602052604060002090565b9360068501614259565b60078301614259565b0155611ebd60115461432d565b610016611f026011547ff825db3e178c42c2ac2b80d9c8c675cb849fbaff1f0975fa5379016980f41b1f60405180611efa84829190602083019252565b0390a1613a85565b601155565b60405162461bcd60e51b815260206004820152603160248201527f41646f7074415065743a2063616c6c6572206973206e6f742061206d616e616760448201527032b91037b3103a34329039b432b63a32b960791b6064820152608490fd5b8015150361050d57565b503461050d57604036600319011261050d57600435611f8e8161092f565b602435611f9a81611f66565b6001600160a01b0382169133831461201c5781611fd9611fea9233600052600560205260406000209060018060a01b0316600052602052604060002090565b9060ff801983541691151516179055565b604051901515815233907f17307eab39ab6107e8899845ad3d59bd9653f200f220920489ca2b5937696c3190602090a3005b60405162461bcd60e51b815260206004820152601960248201527f4552433732313a20617070726f766520746f2063616c6c6572000000000000006044820152606490fd5b6020815260a06120c761207f845183602086015260c08501906107e1565b6120b261209e602087015192601f1993848883030160408901526107e1565b6040870151838783030160608801526107e1565b906060860151908583030160808601526107e1565b926080600180841b039101511691015290565b503461050d57602036600319011261050d5761087360408051906120fd82610b53565b6000608060609384815284602082015284848201528480820152015260043560005260156020526121ab61219b60048360002084519561213c87610b53565b855161214c81610c118186610a7d565b8752855161216181610c118160018701610a7d565b6020880152855161217981610c118160028701610a7d565b8688015261218960038301610bbd565b9087015201546001600160a01b031690565b6001600160a01b03166080840152565b5191829182612061565b503461050d5760a036600319011261050d576004356121d38161092f565b6001600160401b039060243582811161050d576121f4903690600401611dab565b60443583811161050d5761220c903690600401611dab565b60643584811161050d57612224903690600401611dab565b9160843594851161050d57612240610016953690600401611dab565b936140a6565b503461050d57604036600319011261050d577f16a1412f01b73c390eb2548427101644aa86c1443c272f73df00fb74c48fe4996004356122858161092f565b6024359060018060a01b0361229f81601054163314613a22565b8116806122e857506122c1600080808086335af16122bb61385a565b50613ed3565b604080513381526001600160a01b03909216602083015281019190915280606081016106c2565b60405163a9059cbb60e01b81523360048201526024810184905290602090829060449082906000905af18015612352575b612324575b506122c1565b6123449060203d811161234b575b61233c8183610b9c565b810190613c17565b503861231e565b503d612332565b61235a61384d565b612319565b503461050d57600060203660031901126108fb576004358160018060a01b0361238d81601054163314613a22565b600b5416803b1561244357819060246040518094819363b479a96160e01b83528760048401525af18015612436575b6123ff575b506040805133815260208101929092527f7b6bdf5a54b984bdb41e777eb126123085d57633ab56d408d9a1d39dd894e7bb9190819081015b0390a180f35b7f7b6bdf5a54b984bdb41e777eb126123085d57633ab56d408d9a1d39dd894e7bb919261242e6123f992610b6e565b9291506123c1565b61243e61384d565b6123bc565b5080fd5b503461050d5761245636610e34565b61247160018060a09998969497991b03601054163314613a22565b60005b8781106124845761001687613c2c565b612492610f04828489613aa1565b9061249e818a88613aa1565b356000526020600f81526124c6600293846040600020019061ffff1661ffff19825416179055565b8582101561257f575b8160051b850135601e198636030181121561050d578501908135916001600160401b03831161050d570192813603841361050d576125366125569261257a9560016125308f8861251f918f613aa1565b35600052600f602052604060002090565b01613b22565b61254461251f848d8b613aa1565b01805462ff0000191662010000179055565b610f9d61256761251f838c8a613aa1565b80546001600160a01b0319166001179055565b612474565b6125876119b4565b6124cf565b503461050d57608036600319011261050d576004356125aa8161092f565b6024356125b68161092f565b606435916001600160401b03831161050d576125d9610016933690600401611dab565b91604435916134de565b503461050d57600036600319011261050d57600d546040516001600160a01b039091168152602090f35b503461050d57602036600319011261050d576004356000526017602052602060018060a01b0360406000205416604051908152f35b503461050d57602036600319011261050d576004356126608161092f565b6010546001600160a01b03906126799082163314613a22565b80600b541691823b1561050d576000807f3785abad972484d82ebc033d8eb190737cd209b24e7f853dd622e415c3f537a29460246106c295604051948593849263630429fb60e11b8452881660048401525af18015612712575b6126f9575b50604080513381526001600160a01b03909216602083015290918291820190565b8061270661270c92610b6e565b806107b3565b386126d8565b61271a61384d565b6126d3565b503461050d57602036600319011261050d57600435600081815260026020526040902054612757906001600160a01b03161515614c74565b612760816152a7565b6006612776836000526014602052604060002090565b019161279561278f826000526014602052604060002090565b546152a7565b906127b660016127af836000526014602052604060002090565b01546152a7565b6127cf60026127af846000526014602052604060002090565b6127e860036127af856000526014602052604060002090565b61280160046127af866000526014602052604060002090565b61281a60056127af876000526014602052604060002090565b9061283c6009612834886000526014602052604060002090565b015460ff1690565b15612dc557612849614cf9565b925b61285f876000526014602052604060002090565b60080154612877906000526015602052604060002090565b9461288c886000526014602052604060002090565b600801546128a4906000526015602052604060002090565b600101966128bc896000526014602052604060002090565b600801546128d4906000526015602052604060002090565b600201986128ec906000526014602052604060002090565b60080154612904906000526015602052604060002090565b604051757b226e616d65223a2241646f7074204120506574202360501b60208201529c8d9c6003929092019b9160368e0161293e91614d19565b61088b60f21b81526002017f226465736372697074696f6e223a2241646f7074204120506574204e4654222c81526020017f22696d616765223a2268747470733a2f2f656e637279707465642d74626e302e81527f677374617469632e636f6d2f696d616765733f713d74626e3a414e643947635460208201527f4e6e4779584a69516b6d614533455a446c6a76644e43456137663233325678546040820152661c1219c99cc88b60ca1b60608201526067016d2261747472696275746573223a5b60901b8152600e017f7b2274726169745f74797065223a224e616d65222c2276616c7565223a2200008152601e01612a3791614d2c565b62089f4b60ea1b81526003017f7b2274726169745f74797065223a224c6173742057616c6b222c2276616c7565815262111d1160e91b6020820152602301612a7e91614d19565b62089f4b60ea1b81526003017f7b2274726169745f74797065223a224c6173742046656564222c2276616c7565815262111d1160e91b6020820152602301612ac591614d19565b62089f4b60ea1b81526003017f7b2274726169745f74797065223a224c617374205472656174222c2276616c7581526332911d1160e11b6020820152602401612b0d91614d19565b62089f4b60ea1b81526003017f7b2274726169745f74797065223a22546f74616c2057616c6b73222c2276616c8152643ab2911d1160d91b6020820152602501612b5691614d19565b62089f4b60ea1b81526003017f7b2274726169745f74797065223a22546f74616c204665656473222c2276616c8152643ab2911d1160d91b6020820152602501612b9f91614d19565b62089f4b60ea1b81526003017f7b2274726169745f74797065223a22546f74616c20547265617473222c227661815265363ab2911d1160d11b6020820152602601612be991614d19565b62089f4b60ea1b81526003017f7b2274726169745f74797065223a2241646f70746564222c2276616c7565223a8152601160f91b6020820152602101612c2e91614d19565b62089f4b60ea1b81526003017f7b2274726169745f74797065223a225368656c746572222c2276616c7565223a8152601160f91b6020820152602101612c7391614d2c565b62089f4b60ea1b81526003017f7b2274726169745f74797065223a224c6f636174696f6e222c2276616c7565228152611d1160f11b6020820152602201612cb991614d2c565b62089f4b60ea1b81526003017f7b2274726169745f74797065223a2257656273697465222c2276616c7565223a8152601160f91b6020820152602101612cfe91614d2c565b62089f4b60ea1b81526003017f7b2274726169745f74797065223a22456d61696c222c2276616c7565223a22008152601f01612d3991614d2c565b61227d60f01b8152600201615d7d60f01b81526002010390601f19918281018252612d649082610b9c565b612d6d90614e91565b6040517f646174613a6170706c69636174696f6e2f6a736f6e3b6261736536342c000000602082015291908290603d8201612da791614d19565b039081018252612db79082610b9c565b604051610873819282610806565b612dcd614cd8565b9261284b565b503461050d57600036600319011261050d576020601a54604051908152f35b989a99969293612e3394612e4197936101209a97938c5260208c015260408b015260608a0152608089015260a08801526101408060c08901528701906107e1565b9085820360e08701526107e1565b946101008401521515910152565b503461050d57602036600319011261050d5760043560005260146020526040600020805461087360018301549260028101549060038101546004820154600583015460405191612ea68361189f8160068901610a7d565b60405193612ebb856118ba8160078a01610a7d565b612ece6009600888015497015460ff1690565b966040519a8b9a8b612df2565b503461050d57600060203660031901126108fb576004358160018060a01b03612f0981601054163314613a22565b600b5416803b1561244357819060246040518094819363e47ad74d60e01b83528760048401525af18015612fb0575b612f79575b506040805133815260208101929092527f83f76efc0c025b2e3779f7bcead5a89ddaf05dc7829157cdab021a8591e7a6f99190819081016123f9565b7f83f76efc0c025b2e3779f7bcead5a89ddaf05dc7829157cdab021a8591e7a6f99192612fa86123f992610b6e565b929150612f3d565b612fb861384d565b612f38565b503461050d57604036600319011261050d57602060ff61160e600435612fe28161092f565b60243590612fef8261092f565b60018060a01b03166000526005845260406000209060018060a01b0316600052602052604060002090565b503461050d57602036600319011261050d576004356130388161092f565b61304061325d565b6001600160a01b0390811690811561308f57600a54826001600160601b0360a01b821617600a55167f8be0079c531659141344cd1fd0a4f28419497f9722a3daafe3b4186f6b6457e0600080a3005b60405162461bcd60e51b815260206004820152602660248201527f4f776e61626c653a206e6577206f776e657220697320746865207a65726f206160448201526564647265737360d01b6064820152608490fd5b503461050d57604036600319011261050d5760243563ffffffff811680910361050d57600435600052600e602052604060002090600052602052604060002060018060a01b0381541690610873600260405192611bfc84611bf58160018501610a7d565b50602036600319011261050d577ff8d8affc4b5aa6fcef5154d041bf3d413d11797d4fa2429f49915f505863d31a6106c2600435613189601a54341015613f3d565b6131956105e982613378565b60008080806131bc61063f61063f61063260086106208a6000526014602052604060002090565b81903415613202575b3491f1156131f5575b60046131e4826000526014602052604060002090565b426001820155016106848154613a85565b6131fd61384d565b6131ce565b6108fc91506131c5565b503461050d57602036600319011261050d5760043561322a8161092f565b6010546001600160a01b0391906132449083163314613a22565b166001600160601b0360a01b600d541617600d55600080f35b600a546001600160a01b0316330361327157565b606460405162461bcd60e51b815260206004820152602060248201527f4f776e61626c653a2063616c6c6572206973206e6f7420746865206f776e65726044820152fd5b6001600160a01b031680156132d557600052600360205260406000205490565b60405162461bcd60e51b815260206004820152602960248201527f4552433732313a2061646472657373207a65726f206973206e6f7420612076616044820152683634b21037bbb732b960b91b6064820152608490fd5b1561333357565b60405162461bcd60e51b815260206004820152601860248201527f4552433732313a20696e76616c696420746f6b656e20494400000000000000006044820152606490fd5b6000908152600260205260409020546001600160a01b031661081781151561332c565b156133a257565b60405162461bcd60e51b815260206004820152603d60248201527f4552433732313a20617070726f76652063616c6c6572206973206e6f7420746f60448201527f6b656e206f776e6572206f7220617070726f76656420666f7220616c6c0000006064820152608490fd5b600081815260026020526040902054613430906001600160a01b0316151561332c565b6000908152600460205260409020546001600160a01b031690565b1561345257565b60405162461bcd60e51b815260206004820152602d60248201527f4552433732313a2063616c6c6572206973206e6f7420746f6b656e206f776e6560448201526c1c881bdc88185c1c1c9bdd9959609a1b6064820152608490fd5b60405190602082018281106001600160401b038211176134d1575b60405260008252565b6134d9610b13565b6134c8565b906135029392916134f2610dfa8433613569565b6134fd83838361363b565b61388a565b1561350957565b60405162461bcd60e51b815260206004820152603260248201527f4552433732313a207472616e7366657220746f206e6f6e20455243373231526560448201527131b2b4bb32b91034b6b83632b6b2b73a32b960711b6064820152608490fd5b6001600160a01b038061357b84613378565b1692818316928484149485156135b1575b5050831561359b575b50505090565b6135a79192935061340d565b1614388080613595565b60009081526005602090815260408083206001600160a01b03949094168352929052205460ff169350388061358c565b156135e857565b60405162461bcd60e51b815260206004820152602560248201527f4552433732313a207472616e736665722066726f6d20696e636f72726563742060448201526437bbb732b960d91b6064820152608490fd5b61365f9061364884613378565b6001600160a01b03828116939091821684146135e1565b8316928315613752576136d18261367a878461372b96614f9a565b6136908561368a61063f8a613378565b146135e1565b6136b76136a7886000526004602052604060002090565b80546001600160a01b0319169055565b6001600160a01b0316600090815260036020526040902090565b80546000190190556001600160a01b03811660009081526003602052604090206001815401905561370c856000526002602052604060002090565b80546001600160a01b0319166001600160a01b03909216919091179055565b7fddf252ad1be2c89b69c2b068fc378daa952ba7f163c4a11628f55a4df523b3ef600080a4565b60405162461bcd60e51b8152602060048201526024808201527f4552433732313a207472616e7366657220746f20746865207a65726f206164646044820152637265737360e01b6064820152608490fd5b600082815260046020526040902080546001600160a01b0319166001600160a01b0383161790556001600160a01b03806137dc84613378565b169116907f8c5be1e5ebec7d5bd14f71427d1e84f3dd0314c0f7b2291e5b200ac8c7c3b925600080a4565b9081602091031261050d5751610817816104fb565b6001600160a01b039182168152911660208201526040810191909152608060608201819052610817929101906107e1565b506040513d6000823e3d90fd5b3d15613885573d9061386b82611d81565b916138796040519384610b9c565b82523d6000602084013e565b606090565b92909190823b1561398b576138bd926020926000604051809681958294630a85bd0160e11b9a8b8552336004860161381c565b03926001600160a01b03165af16000918161395b575b5061394d576138e061385a565b805190816139485760405162461bcd60e51b815260206004820152603260248201527f4552433732313a207472616e7366657220746f206e6f6e20455243373231526560448201527131b2b4bb32b91034b6b83632b6b2b73a32b960711b6064820152608490fd5b602001fd5b6001600160e01b0319161490565b61397d91925060203d8111613984575b6139758183610b9c565b810190613807565b90386138d3565b503d61396b565b50505050600190565b61399d816132b5565b8210156139c95760018060a01b0316600052600660205260406000209060005260205260406000205490565b60405162461bcd60e51b815260206004820152602b60248201527f455243373231456e756d657261626c653a206f776e657220696e646578206f7560448201526a74206f6620626f756e647360a81b6064820152608490fd5b15613a2957565b60405162461bcd60e51b815260206004820152601d60248201527f4d657373616765436c69656e743a206e6f7420617574686f72697a65640000006044820152606490fd5b50634e487b7160e01b600052601160045260246000fd5b6001906000198114613a95570190565b613a9d613a6e565b0190565b9190811015613ab2575b60051b0190565b613aba6119b4565b613aab565b3561ffff8116810361050d5790565b90601f8111613adc57505050565b600091825260208220906020601f850160051c83019410613b18575b601f0160051c01915b828110613b0d57505050565b818155600101613b01565b9092508290613af8565b9092916001600160401b038111613bea575b613b4881613b428454610a43565b84613ace565b6000601f8211600114613b825781929394600092613b77575b50508160011b916000199060031b1c1916179055565b013590503880613b61565b601f19821694613b9784600052602060002090565b91805b878110613bd2575083600195969710613bb8575b505050811b019055565b0135600019600384901b60f8161c19169055388080613bae565b90926020600181928686013581550194019101613b9a565b613bf2610b13565b613b34565b9081602091031261050d57516108178161092f565b5190610bd882611f66565b9081602091031261050d575161081781611f66565b600b80546001600160a01b0319166001600160a01b03928316179055600b54613c5d906001600160a01b031661063f565b90613caa81604051809463647846a560e01b825281600460209788935afa908115613ec6575b600091613ea9575b501660018060a01b03166001600160601b0360a01b600c541617600c55565b600c54613cbf906001600160a01b031661063f565b82828216613e19575b5050600b54613cdf906001600160a01b031661063f565b604051633fc8cef360e01b808252919083908581600481865afa908115613e0c575b600091613def575b5016613d155750505050565b8391613d70916040519182528382600481845afa918215613de2575b600092613db3575b5060405163095ea7b360e01b81526001600160a01b0390911660048201526000196024820152938492839160009183906044820190565b0393165af18015613da6575b613d88575b8080610aaa565b81613d9e92903d1061234b5761233c8183610b9c565b503880613d81565b613dae61384d565b613d7c565b613dd4919250843d8611613ddb575b613dcc8183610b9c565b810190613bf7565b9038613d39565b503d613dc2565b613dea61384d565b613d31565b613e069150863d8811613ddb57613dcc8183610b9c565b38613d09565b613e1461384d565b613d01565b600b54600092613e6991613e35906001600160a01b031661063f565b60405163095ea7b360e01b81526001600160a01b039091166004820152600019602482015293849283919082906044820190565b03925af18015613e9c575b613e7f575b82613cc8565b613e9590833d851161234b5761233c8183610b9c565b5038613e79565b613ea461384d565b613e74565b613ec09150853d8711613ddb57613dcc8183610b9c565b38613c8b565b613ece61384d565b613c83565b15613eda57565b60405162461bcd60e51b815260206004820152600f60248201526e151c985b9cd9995c8819985a5b1959608a1b6044820152606490fd5b6000918252600f6020526040909120546001600160a01b03918216911614613f3857600090565b600190565b15613f4457565b60405162461bcd60e51b815260206004820152601d60248201527f41646f7074415065743a20496e73756666696369656e742066756e64730000006044820152606490fd5b15613f9057565b60405162461bcd60e51b815260206004820152602d60248201527f41646f7074415065743a2063616c6c6572206973206e6f7420746865206f776e60448201526c195c881bd9881d1a19481b999d609a1b6064820152608490fd5b15613ff257565b60405162461bcd60e51b815260206004820152601d60248201527f41646f7074415065743a2050657420646f6573206e6f742065786973740000006044820152606490fd5b1561403e57565b60405162461bcd60e51b815260206004820152602160248201527f41646f7074415065743a2050657420697320616c72656164792061646f7074656044820152601960fa1b6064820152608490fd5b62093a7f1981019190821161409e57565b610bd8613a6e565b93919290926140b361325d565b60125493600094855260209460158652604081209560408220928051926001600160401b03841161424c575b6140f3846140ed8754610a43565b87613ace565b82601f85116001146141c757509460049794846141469561416f9c9b999561413d9561414f9a926141bc575b50508160011b916000199060031b1c19161790555b60018701614259565b60028501614259565b60038301614259565b0180546001600160a01b0319166001600160a01b03909216919091179055565b61417a601254614391565b610bd86141b76012547f1ce4fd75358b7e2473b65d37352ef8fcc2630c7d157693ec1412f117fd52a32460405180611efa84829190602083019252565b601255565b01519050388061411f565b601f93929193198516906141e087600052602060002090565b94905b8282106142345750509460018561416f9c9b999561413d9561414f9a956141469960049e9b1061421b575b505050811b019055614134565b015160001960f88460031b161c1916905538808061420e565b806001869782949787015181550196019401906141e3565b614254610b13565b6140df565b91909182516001600160401b038111614320575b61427b81613b428454610a43565b602080601f83116001146142b65750819293946000926142ab5750508160011b916000199060031b1c1916179055565b015190503880613b61565b90601f198316956142cc85600052602060002090565b926000905b888210614308575050836001959697106142ef57505050811b019055565b015160001960f88460031b161c19169055388080613bae565b806001859682949686015181550195019301906142d1565b614328610b13565b61426d565b601954600160401b811015614384575b6001810180601955811015614377575b60196000527f944998273e477b495144fb8794c914197f3ccb46be2900f4698fd0ef743c96950155565b61437f6119b4565b61434d565b61438c610b13565b61433d565b601854600160401b8110156143e8575b60018101806018558110156143db575b60186000527fb13d2d76d1f4b7be834882e410b3e3a8afaf69f83600ae24db354391d2378d2e0155565b6143e36119b4565b6143b1565b6143f0610b13565b6143a1565b156143fc57565b60405162461bcd60e51b815260206004820152601c60248201527f4552433732313a20746f6b656e20616c7265616479206d696e746564000000006044820152606490fd5b6001600160a01b03811690811561450d576000838152600260205260409020546144e5919061447c906001600160a01b031615155b156143f5565b61448584615037565b61448f8482614fff565b6000848152600260205260409020546144b2906001600160a01b03161515614476565b6001600160a01b03811660009081526003602052604090206001815401905561370c846000526002602052604060002090565b60007fddf252ad1be2c89b69c2b068fc378daa952ba7f163c4a11628f55a4df523b3ef8180a4565b606460405162461bcd60e51b815260206004820152602060248201527f4552433732313a206d696e7420746f20746865207a65726f20616464726573736044820152fd5b9895929a99969390610120989592614575614583928c6101408091528d0190610a7d565b908b820360208d0152610a7d565b9a60408a01526060890152608088015260a087015260c086015260e08501526101008401521515910152565b610817939260609260018060a01b03168252602082015281604082015201906107e1565b909161477c7f25435a669953bbd4d68b1f0625d13ef5bdd4f7bd9370d48ecfa5eab0fe2d9de8936146066105e984613378565b61475261474061474c6006614625876000526014602052604060002090565b01600761463c886000526014602052604060002090565b019061471260086146578a6000526014602052604060002090565b01548961466e816000526014602052604060002090565b546001614685836000526014602052604060002090565b0154600261469d846000526014602052604060002090565b015460036146b5856000526014602052604060002090565b01549160046146ce866000526014602052604060002090565b015493614702600961283460056146ef8a6000526014602052604060002090565b0154986000526014602052604060002090565b966040519a8b9a60208c01614551565b0390614726601f1992838101835282610b9c565b61472f88614781565b6040519384918988602085016145af565b03908101835282610b9c565b8561492e565b506040805193845260208401949094526001600160a01b0316928201929092529081906060820190565b0390a1565b600061478c82613378565b6001600160a01b039083818316158414614841576147aa9150615037565b6147b383615172565b6147bc83613378565b6147d0846000526004602052604060002090565b80546001600160a01b03199081169091556001600160a01b038216600090815260036020526040902084198154019055614814856000526002602052604060002090565b908154169055167fddf252ad1be2c89b69c2b068fc378daa952ba7f163c4a11628f55a4df523b3ef8280a4565b61484a916150ab565b6147aa565b90604051608081018181106001600160401b038211176148b1575b604052606060ff6002839560018060a01b03815416855260405161489581610c118160018601610a7d565b6020860152015461ffff8116604085015260101c161515910152565b6148b9610b13565b61486a565b90916148d5610817936040845260408401906107e1565b9160208184039101526107e1565b9081602091031261050d575190565b9061492360009460809461ffff9398979860018060a01b03168552602085015260a0604085015260a08401906107e1565b951660608201520152565b9060209061494e61494984600052600f602052604060002090565b61484f565b9261495c6060850151151590565b614a05575b600b54614976906001600160a01b031661063f565b906000614998604061498e885160018060a01b031690565b97015161ffff1690565b956149b960405197889687958694633f6b724360e21b8652600486016148f2565b03925af19081156149f8575b6000916149d0575090565b610817915060203d81116149f1575b6149e98183610b9c565b8101906148e3565b503d6149df565b614a0061384d565b6149c5565b90614a2d8385015191614a1f6040519384928784016148be565b03601f198101835282610b9c565b90614961565b9392614a6960018060a01b0392614a4f84600b54163314613a22565b6000968752600f6020528380604089205416911614613a22565b8201936060838603126108fb57823590614a828261092f565b6020840135936040810135916001600160401b0383116108fb5750614ac5614ab6610bd89798614b2794614b0e9401611dab565b60208082518301019101614b6f565b9795999894614ad8949194939293611d74565b9a8b5260208b015260408a01526060890152608088015260a087015260c086015260e08501526101008401521515610120830152565b614b22856000526014602052604060002090565b614beb565b16614441565b81601f8201121561050d578051614b4381611d81565b92614b516040519485610b9c565b8184526020828401011161050d5761081791602080850191016107be565b9190916101408184031261050d5780516001600160401b039081811161050d5784614b9b918401614b2d565b93602083015191821161050d57614bb3918301614b2d565b9160408201519160608101519160808201519160a08101519160c08201519160e0810151916108176101206101008401519301613c0c565b6009614c61610120610bd894805185556020810151600186015560408101516002860155606081015160038601556080810151600486015560a08101516005860155614c3e60c082015160068701614259565b614c4f60e082015160078701614259565b61010081015160088601550151151590565b91019060ff801983541691151516179055565b15614c7b57565b60405162461bcd60e51b815260206004820152602f60248201527f4552433732314d657461646174613a2055524920717565727920666f72206e6f60448201526e3732bc34b9ba32b73a103a37b5b2b760891b6064820152608490fd5b60405190614ce582610b81565b600582526466616c736560d81b6020830152565b60405190614d0682610b81565b60048252637472756560e01b6020830152565b90613a9d602092828151948592016107be565b600092918154614d3b81610a43565b92600191808316908115614d935750600114614d575750505050565b90919293945060005260209081600020906000915b858310614d825750505050019038808080610aaa565b805485840152918301918101614d6c565b60ff1916845250505081151590910201915038808080610aaa565b60405190606082018281106001600160401b03821117614e1e575b604052604082527f6768696a6b6c6d6e6f707172737475767778797a303132333435363738392b2f6040837f4142434445464748494a4b4c4d4e4f505152535455565758595a61626364656660208201520152565b614e26610b13565b614dc9565b906002820180921161409e57565b906020820180921161409e57565b600281901b91906001600160fe1b0381160361409e57565b90614e6982611d81565b614e766040519182610b9c565b8281528092614e87601f1991611d81565b0190602036910137565b805115614f7157614ea0614dae565b614ebc614eb7614eb08451614e2b565b6003900490565b614e47565b91614ece614ec984614e39565b614e5f565b92835280815182019060208501935b828210614f1f57505050600390510680600114614f0e57600214614eff575090565b603d60f81b6000199091015290565b50613d3d60f01b6001199091015290565b9091936004906003809401938451600190603f9082828260121c16880101518553828282600c1c16880101518386015382828260061c1688010151600286015316850101519082015301939190614edd565b506108176134ad565b6020906001600160401b038111614f925760051b0190565b613aba610b13565b9091906001600160a01b038082169182614fdd5750614fb883615037565b831680614fcb575050610bd89150615172565b03614fd4575050565b610bd891614fff565b838286168403614fef575b5050614fb8565b614ff8916150ab565b3883614fe8565b60409061500b816132b5565b9260009160018060a01b0316825260066020528282208483526020528083832055815260076020522055565b60085481600052600960205280604060002055600160401b81101561509e575b6001810180600855811015615091575b60086000527ff3f7a9fe364faab93b216da50a3214154f22a0a2b415b23a84c8169e8b636ee30155565b6150996119b4565b615067565b6150a6610b13565b615057565b906151106150f5926150bc816132b5565b600019810193908411615165575b60009481869283526007602052604083205486810361511d575b506000526007602052604060002090565b556001600160a01b0316600090815260066020526040902090565b9082526020526040812055565b6001600160a01b0385168085526006602081815260408088208b89528252808820546000948552928252808420858952825280882083905591835260079052902055386150e4565b61516d613a6e565b6150ca565b60088054600019929083810181811161527b575b6152226000938492818452600960205284604085205491101561526e575b8684526152117ff3f7a9fe364faab93b216da50a3214154f22a0a2b415b23a84c8169e8b636ee2958681015490831015615261575b88865280837ff3f7a9fe364faab93b216da50a3214154f22a0a2b415b23a84c8169e8b636ee301556000526009602052604060002090565b556000526009602052604060002090565b55825493841561524d5784019380851015615240575b838352015555565b6152486119b4565b615238565b634e487b7160e01b83526031600452602483fd5b6152696119b4565b6151d9565b6152766119b4565b6151a4565b615283613a6e565b615186565b90602091805182101561529a57010190565b6152a26119b4565b010190565b8015615343576000818181805b61532b57506152c281614e5f565b935b6152ce5750505090565b600019810190811161531e575b8091600a9161530860308484068101809111615311575b60f81b6001600160f81b031916861a9187615288565b530490816152c4565b615319613a6e565b6152f2565b615326613a6e565b6152db565b9150615338600a91613a85565b9104808492916152b4565b5060405161535081610b81565b60018152600360fc1b60208201529056fea26469706673582212206da1a00486a4bdc468842c904f849be1a7740318733517bb422a6fece681d37764736f6c63430008110033",
  "devdoc": {
    "kind": "dev",
    "methods": {
      "approve(address,uint256)": {
        "details": "See {IERC721-approve}."
      },
      "balanceOf(address)": {
        "details": "See {IERC721-balanceOf}."
      },
      "getApproved(uint256)": {
        "details": "See {IERC721-getApproved}."
      },
      "isApprovedForAll(address,address)": {
        "details": "See {IERC721-isApprovedForAll}."
      },
      "name()": {
        "details": "See {IERC721Metadata-name}."
      },
      "owner()": {
        "details": "Returns the address of the current owner."
      },
      "ownerOf(uint256)": {
        "details": "See {IERC721-ownerOf}."
      },
      "renounceOwnership()": {
        "details": "Leaves the contract without owner. It will not be possible to call `onlyOwner` functions. Can only be called by the current owner. NOTE: Renouncing ownership will leave the contract without an owner, thereby disabling any functionality that is only available to the owner."
      },
      "safeTransferFrom(address,address,uint256)": {
        "details": "See {IERC721-safeTransferFrom}."
      },
      "safeTransferFrom(address,address,uint256,bytes)": {
        "details": "See {IERC721-safeTransferFrom}."
      },
      "setApprovalForAll(address,bool)": {
        "details": "See {IERC721-setApprovalForAll}."
      },
      "symbol()": {
        "details": "See {IERC721Metadata-symbol}."
      },
      "tokenByIndex(uint256)": {
        "details": "See {IERC721Enumerable-tokenByIndex}."
      },
      "tokenOfOwnerByIndex(address,uint256)": {
        "details": "See {IERC721Enumerable-tokenOfOwnerByIndex}."
      },
      "tokenURI(uint256)": {
        "details": "See {IERC721Metadata-tokenURI}."
      },
      "totalSupply()": {
        "details": "See {IERC721Enumerable-totalSupply}."
      },
      "transferFrom(address,address,uint256)": {
        "details": "See {IERC721-transferFrom}."
      },
      "transferOwnership(address)": {
        "details": "Transfers ownership of the contract to a new account (`newOwner`). Can only be called by the current owner."
      }
    },
    "version": 1
  },
  "userdoc": {
    "kind": "user",
    "methods": {
      "configureClientExtended(address,uint256[],bytes[],uint16[])": {
        "notice": "OWNER "
      }
    },
    "version": 1
  },
  "storageLayout": {
    "storage": [
      {
        "astId": 138,
        "contract": "contracts/AdoptAPet.sol:AdoptAPet",
        "label": "_name",
        "offset": 0,
        "slot": "0",
        "type": "t_string_storage"
      },
      {
        "astId": 140,
        "contract": "contracts/AdoptAPet.sol:AdoptAPet",
        "label": "_symbol",
        "offset": 0,
        "slot": "1",
        "type": "t_string_storage"
      },
      {
        "astId": 144,
        "contract": "contracts/AdoptAPet.sol:AdoptAPet",
        "label": "_owners",
        "offset": 0,
        "slot": "2",
        "type": "t_mapping(t_uint256,t_address)"
      },
      {
        "astId": 148,
        "contract": "contracts/AdoptAPet.sol:AdoptAPet",
        "label": "_balances",
        "offset": 0,
        "slot": "3",
        "type": "t_mapping(t_address,t_uint256)"
      },
      {
        "astId": 152,
        "contract": "contracts/AdoptAPet.sol:AdoptAPet",
        "label": "_tokenApprovals",
        "offset": 0,
        "slot": "4",
        "type": "t_mapping(t_uint256,t_address)"
      },
      {
        "astId": 158,
        "contract": "contracts/AdoptAPet.sol:AdoptAPet",
        "label": "_operatorApprovals",
        "offset": 0,
        "slot": "5",
        "type": "t_mapping(t_address,t_mapping(t_address,t_bool))"
      },
      {
        "astId": 1188,
        "contract": "contracts/AdoptAPet.sol:AdoptAPet",
        "label": "_ownedTokens",
        "offset": 0,
        "slot": "6",
        "type": "t_mapping(t_address,t_mapping(t_uint256,t_uint256))"
      },
      {
        "astId": 1192,
        "contract": "contracts/AdoptAPet.sol:AdoptAPet",
        "label": "_ownedTokensIndex",
        "offset": 0,
        "slot": "7",
        "type": "t_mapping(t_uint256,t_uint256)"
      },
      {
        "astId": 1195,
        "contract": "contracts/AdoptAPet.sol:AdoptAPet",
        "label": "_allTokens",
        "offset": 0,
        "slot": "8",
        "type": "t_array(t_uint256)dyn_storage"
      },
      {
        "astId": 1199,
        "contract": "contracts/AdoptAPet.sol:AdoptAPet",
        "label": "_allTokensIndex",
        "offset": 0,
        "slot": "9",
        "type": "t_mapping(t_uint256,t_uint256)"
      },
      {
        "astId": 7,
        "contract": "contracts/AdoptAPet.sol:AdoptAPet",
        "label": "_owner",
        "offset": 0,
        "slot": "10",
        "type": "t_address"
      },
      {
        "astId": 3538,
        "contract": "contracts/AdoptAPet.sol:AdoptAPet",
        "label": "MESSAGEv3",
        "offset": 0,
        "slot": "11",
        "type": "t_contract(IMessageV3)3461"
      },
      {
        "astId": 3541,
        "contract": "contracts/AdoptAPet.sol:AdoptAPet",
        "label": "FEE_TOKEN",
        "offset": 0,
        "slot": "12",
        "type": "t_contract(IERC20cl)3265"
      },
      {
        "astId": 3544,
        "contract": "contracts/AdoptAPet.sol:AdoptAPet",
        "label": "FEATURE_GATEWAY",
        "offset": 0,
        "slot": "13",
        "type": "t_contract(IFeatureGateway)3534"
      },
      {
        "astId": 3551,
        "contract": "contracts/AdoptAPet.sol:AdoptAPet",
        "label": "FEATURES",
        "offset": 0,
        "slot": "14",
        "type": "t_mapping(t_uint256,t_mapping(t_uint32,t_struct(ChainData)3560_storage))"
      },
      {
        "astId": 3565,
        "contract": "contracts/AdoptAPet.sol:AdoptAPet",
        "label": "CHAINS",
        "offset": 0,
        "slot": "15",
        "type": "t_mapping(t_uint256,t_struct(ChainData)3560_storage)"
      },
      {
        "astId": 3567,
        "contract": "contracts/AdoptAPet.sol:AdoptAPet",
        "label": "MESSAGE_OWNER",
        "offset": 0,
        "slot": "16",
        "type": "t_address"
      },
      {
        "astId": 4525,
        "contract": "contracts/AdoptAPet.sol:AdoptAPet",
        "label": "nextNftId",
        "offset": 0,
        "slot": "17",
        "type": "t_uint256"
      },
      {
        "astId": 4527,
        "contract": "contracts/AdoptAPet.sol:AdoptAPet",
        "label": "nextShelterId",
        "offset": 0,
        "slot": "18",
        "type": "t_uint256"
      },
      {
        "astId": 4531,
        "contract": "contracts/AdoptAPet.sol:AdoptAPet",
        "label": "messages",
        "offset": 0,
        "slot": "19",
        "type": "t_mapping(t_uint256,t_string_storage)"
      },
      {
        "astId": 4536,
        "contract": "contracts/AdoptAPet.sol:AdoptAPet",
        "label": "pets",
        "offset": 0,
        "slot": "20",
        "type": "t_mapping(t_uint256,t_struct(PetData)4523_storage)"
      },
      {
        "astId": 4541,
        "contract": "contracts/AdoptAPet.sol:AdoptAPet",
        "label": "shelters",
        "offset": 0,
        "slot": "21",
        "type": "t_mapping(t_uint256,t_struct(ShelterData)4502_storage)"
      },
      {
        "astId": 4547,
        "contract": "contracts/AdoptAPet.sol:AdoptAPet",
        "label": "shelterManagers",
        "offset": 0,
        "slot": "22",
        "type": "t_mapping(t_uint256,t_mapping(t_address,t_bool))"
      },
      {
        "astId": 4551,
        "contract": "contracts/AdoptAPet.sol:AdoptAPet",
        "label": "shelterAccountant",
        "offset": 0,
        "slot": "23",
        "type": "t_mapping(t_uint256,t_address)"
      },
      {
        "astId": 4554,
        "contract": "contracts/AdoptAPet.sol:AdoptAPet",
        "label": "allShelters",
        "offset": 0,
        "slot": "24",
        "type": "t_array(t_uint256)dyn_storage"
      },
      {
        "astId": 4557,
        "contract": "contracts/AdoptAPet.sol:AdoptAPet",
        "label": "availablePets",
        "offset": 0,
        "slot": "25",
        "type": "t_array(t_uint256)dyn_storage"
      },
      {
        "astId": 4560,
        "contract": "contracts/AdoptAPet.sol:AdoptAPet",
        "label": "actionCost",
        "offset": 0,
        "slot": "26",
        "type": "t_uint256"
      }
    ],
    "types": {
      "t_address": {
        "encoding": "inplace",
        "label": "address",
        "numberOfBytes": "20"
      },
      "t_array(t_uint256)dyn_storage": {
        "base": "t_uint256",
        "encoding": "dynamic_array",
        "label": "uint256[]",
        "numberOfBytes": "32"
      },
      "t_bool": {
        "encoding": "inplace",
        "label": "bool",
        "numberOfBytes": "1"
      },
      "t_bytes_storage": {
        "encoding": "bytes",
        "label": "bytes",
        "numberOfBytes": "32"
      },
      "t_contract(IERC20cl)3265": {
        "encoding": "inplace",
        "label": "contract IERC20cl",
        "numberOfBytes": "20"
      },
      "t_contract(IFeatureGateway)3534": {
        "encoding": "inplace",
        "label": "contract IFeatureGateway",
        "numberOfBytes": "20"
      },
      "t_contract(IMessageV3)3461": {
        "encoding": "inplace",
        "label": "contract IMessageV3",
        "numberOfBytes": "20"
      },
      "t_mapping(t_address,t_bool)": {
        "encoding": "mapping",
        "key": "t_address",
        "label": "mapping(address => bool)",
        "numberOfBytes": "32",
        "value": "t_bool"
      },
      "t_mapping(t_address,t_mapping(t_address,t_bool))": {
        "encoding": "mapping",
        "key": "t_address",
        "label": "mapping(address => mapping(address => bool))",
        "numberOfBytes": "32",
        "value": "t_mapping(t_address,t_bool)"
      },
      "t_mapping(t_address,t_mapping(t_uint256,t_uint256))": {
        "encoding": "mapping",
        "key": "t_address",
        "label": "mapping(address => mapping(uint256 => uint256))",
        "numberOfBytes": "32",
        "value": "t_mapping(t_uint256,t_uint256)"
      },
      "t_mapping(t_address,t_uint256)": {
        "encoding": "mapping",
        "key": "t_address",
        "label": "mapping(address => uint256)",
        "numberOfBytes": "32",
        "value": "t_uint256"
      },
      "t_mapping(t_uint256,t_address)": {
        "encoding": "mapping",
        "key": "t_uint256",
        "label": "mapping(uint256 => address)",
        "numberOfBytes": "32",
        "value": "t_address"
      },
      "t_mapping(t_uint256,t_mapping(t_address,t_bool))": {
        "encoding": "mapping",
        "key": "t_uint256",
        "label": "mapping(uint256 => mapping(address => bool))",
        "numberOfBytes": "32",
        "value": "t_mapping(t_address,t_bool)"
      },
      "t_mapping(t_uint256,t_mapping(t_uint32,t_struct(ChainData)3560_storage))": {
        "encoding": "mapping",
        "key": "t_uint256",
        "label": "mapping(uint256 => mapping(uint32 => struct MessageClient.ChainData))",
        "numberOfBytes": "32",
        "value": "t_mapping(t_uint32,t_struct(ChainData)3560_storage)"
      },
      "t_mapping(t_uint256,t_string_storage)": {
        "encoding": "mapping",
        "key": "t_uint256",
        "label": "mapping(uint256 => string)",
        "numberOfBytes": "32",
        "value": "t_string_storage"
      },
      "t_mapping(t_uint256,t_struct(ChainData)3560_storage)": {
        "encoding": "mapping",
        "key": "t_uint256",
        "label": "mapping(uint256 => struct MessageClient.ChainData)",
        "numberOfBytes": "32",
        "value": "t_struct(ChainData)3560_storage"
      },
      "t_mapping(t_uint256,t_struct(PetData)4523_storage)": {
        "encoding": "mapping",
        "key": "t_uint256",
        "label": "mapping(uint256 => struct AdoptAPet.PetData)",
        "numberOfBytes": "32",
        "value": "t_struct(PetData)4523_storage"
      },
      "t_mapping(t_uint256,t_struct(ShelterData)4502_storage)": {
        "encoding": "mapping",
        "key": "t_uint256",
        "label": "mapping(uint256 => struct AdoptAPet.ShelterData)",
        "numberOfBytes": "32",
        "value": "t_struct(ShelterData)4502_storage"
      },
      "t_mapping(t_uint256,t_uint256)": {
        "encoding": "mapping",
        "key": "t_uint256",
        "label": "mapping(uint256 => uint256)",
        "numberOfBytes": "32",
        "value": "t_uint256"
      },
      "t_mapping(t_uint32,t_struct(ChainData)3560_storage)": {
        "encoding": "mapping",
        "key": "t_uint32",
        "label": "mapping(uint32 => struct MessageClient.ChainData)",
        "numberOfBytes": "32",
        "value": "t_struct(ChainData)3560_storage"
      },
      "t_string_storage": {
        "encoding": "bytes",
        "label": "string",
        "numberOfBytes": "32"
      },
      "t_struct(ChainData)3560_storage": {
        "encoding": "inplace",
        "label": "struct MessageClient.ChainData",
        "members": [
          {
            "astId": 3553,
            "contract": "contracts/AdoptAPet.sol:AdoptAPet",
            "label": "endpoint",
            "offset": 0,
            "slot": "0",
            "type": "t_address"
          },
          {
            "astId": 3555,
            "contract": "contracts/AdoptAPet.sol:AdoptAPet",
            "label": "endpointExtended",
            "offset": 0,
            "slot": "1",
            "type": "t_bytes_storage"
          },
          {
            "astId": 3557,
            "contract": "contracts/AdoptAPet.sol:AdoptAPet",
            "label": "confirmations",
            "offset": 0,
            "slot": "2",
            "type": "t_uint16"
          },
          {
            "astId": 3559,
            "contract": "contracts/AdoptAPet.sol:AdoptAPet",
            "label": "extended",
            "offset": 2,
            "slot": "2",
            "type": "t_bool"
          }
        ],
        "numberOfBytes": "96"
      },
      "t_struct(PetData)4523_storage": {
        "encoding": "inplace",
        "label": "struct AdoptAPet.PetData",
        "members": [
          {
            "astId": 4504,
            "contract": "contracts/AdoptAPet.sol:AdoptAPet",
            "label": "lastWalk",
            "offset": 0,
            "slot": "0",
            "type": "t_uint256"
          },
          {
            "astId": 4506,
            "contract": "contracts/AdoptAPet.sol:AdoptAPet",
            "label": "lastFeed",
            "offset": 0,
            "slot": "1",
            "type": "t_uint256"
          },
          {
            "astId": 4508,
            "contract": "contracts/AdoptAPet.sol:AdoptAPet",
            "label": "lastTreat",
            "offset": 0,
            "slot": "2",
            "type": "t_uint256"
          },
          {
            "astId": 4510,
            "contract": "contracts/AdoptAPet.sol:AdoptAPet",
            "label": "totalWalks",
            "offset": 0,
            "slot": "3",
            "type": "t_uint256"
          },
          {
            "astId": 4512,
            "contract": "contracts/AdoptAPet.sol:AdoptAPet",
            "label": "totalFeeds",
            "offset": 0,
            "slot": "4",
            "type": "t_uint256"
          },
          {
            "astId": 4514,
            "contract": "contracts/AdoptAPet.sol:AdoptAPet",
            "label": "totalTreats",
            "offset": 0,
            "slot": "5",
            "type": "t_uint256"
          },
          {
            "astId": 4516,
            "contract": "contracts/AdoptAPet.sol:AdoptAPet",
            "label": "name",
            "offset": 0,
            "slot": "6",
            "type": "t_string_storage"
          },
          {
            "astId": 4518,
            "contract": "contracts/AdoptAPet.sol:AdoptAPet",
            "label": "personality",
            "offset": 0,
            "slot": "7",
            "type": "t_string_storage"
          },
          {
            "astId": 4520,
            "contract": "contracts/AdoptAPet.sol:AdoptAPet",
            "label": "shelterId",
            "offset": 0,
            "slot": "8",
            "type": "t_uint256"
          },
          {
            "astId": 4522,
            "contract": "contracts/AdoptAPet.sol:AdoptAPet",
            "label": "adopted",
            "offset": 0,
            "slot": "9",
            "type": "t_bool"
          }
        ],
        "numberOfBytes": "320"
      },
      "t_struct(ShelterData)4502_storage": {
        "encoding": "inplace",
        "label": "struct AdoptAPet.ShelterData",
        "members": [
          {
            "astId": 4493,
            "contract": "contracts/AdoptAPet.sol:AdoptAPet",
            "label": "name",
            "offset": 0,
            "slot": "0",
            "type": "t_string_storage"
          },
          {
            "astId": 4495,
            "contract": "contracts/AdoptAPet.sol:AdoptAPet",
            "label": "location",
            "offset": 0,
            "slot": "1",
            "type": "t_string_storage"
          },
          {
            "astId": 4497,
            "contract": "contracts/AdoptAPet.sol:AdoptAPet",
            "label": "website",
            "offset": 0,
            "slot": "2",
            "type": "t_string_storage"
          },
          {
            "astId": 4499,
            "contract": "contracts/AdoptAPet.sol:AdoptAPet",
            "label": "email",
            "offset": 0,
            "slot": "3",
            "type": "t_string_storage"
          },
          {
            "astId": 4501,
            "contract": "contracts/AdoptAPet.sol:AdoptAPet",
            "label": "accountant",
            "offset": 0,
            "slot": "4",
            "type": "t_address"
          }
        ],
        "numberOfBytes": "160"
      },
      "t_uint16": {
        "encoding": "inplace",
        "label": "uint16",
        "numberOfBytes": "2"
      },
      "t_uint256": {
        "encoding": "inplace",
        "label": "uint256",
        "numberOfBytes": "32"
      },
      "t_uint32": {
        "encoding": "inplace",
        "label": "uint32",
        "numberOfBytes": "4"
      }
    }
  }
}