{
  "address": "0x098B2b216150596cCD5133599749aC8bDE570673",
  "abi": [
    {
      "inputs": [],
      "stateMutability": "nonpayable",
      "type": "constructor"
    },
    {
      "anonymous": false,
      "inputs": [
        {
          "indexed": true,
          "internalType": "address",
          "name": "owner",
          "type": "address"
        },
        {
          "indexed": true,
          "internalType": "address",
          "name": "approved",
          "type": "address"
        },
        {
          "indexed": true,
          "internalType": "uint256",
          "name": "tokenId",
          "type": "uint256"
        }
      ],
      "name": "Approval",
      "type": "event"
    },
    {
      "anonymous": false,
      "inputs": [
        {
          "indexed": true,
          "internalType": "address",
          "name": "owner",
          "type": "address"
        },
        {
          "indexed": true,
          "internalType": "address",
          "name": "operator",
          "type": "address"
        },
        {
          "indexed": false,
          "internalType": "bool",
          "name": "approved",
          "type": "bool"
        }
      ],
      "name": "ApprovalForAll",
      "type": "event"
    },
    {
      "anonymous": false,
      "inputs": [
        {
          "indexed": false,
          "internalType": "address",
          "name": "previousOwner",
          "type": "address"
        },
        {
          "indexed": false,
          "internalType": "address",
          "name": "newOwner",
          "type": "address"
        }
      ],
      "name": "MessageOwnershipTransferred",
      "type": "event"
    },
    {
      "anonymous": false,
      "inputs": [
        {
          "indexed": false,
          "internalType": "uint256",
          "name": "_nftId",
          "type": "uint256"
        }
      ],
      "name": "MetadataUpdate",
      "type": "event"
    },
    {
      "anonymous": false,
      "inputs": [
        {
          "indexed": true,
          "internalType": "address",
          "name": "previousOwner",
          "type": "address"
        },
        {
          "indexed": true,
          "internalType": "address",
          "name": "newOwner",
          "type": "address"
        }
      ],
      "name": "OwnershipTransferred",
      "type": "event"
    },
    {
      "anonymous": false,
      "inputs": [
        {
          "indexed": false,
          "internalType": "address",
          "name": "owner",
          "type": "address"
        },
        {
          "indexed": false,
          "internalType": "address",
          "name": "token",
          "type": "address"
        },
        {
          "indexed": false,
          "internalType": "uint256",
          "name": "amount",
          "type": "uint256"
        }
      ],
      "name": "RecoverToken",
      "type": "event"
    },
    {
      "anonymous": false,
      "inputs": [
        {
          "indexed": false,
          "internalType": "uint256",
          "name": "txId",
          "type": "uint256"
        },
        {
          "indexed": false,
          "internalType": "uint256",
          "name": "destinationChainId",
          "type": "uint256"
        },
        {
          "indexed": false,
          "internalType": "uint32",
          "name": "featureId",
          "type": "uint32"
        },
        {
          "indexed": false,
          "internalType": "bytes",
          "name": "featureData",
          "type": "bytes"
        }
      ],
      "name": "SendMessageWithFeature",
      "type": "event"
    },
    {
      "anonymous": false,
      "inputs": [
        {
          "indexed": false,
          "internalType": "address",
          "name": "owner",
          "type": "address"
        },
        {
          "indexed": false,
          "internalType": "address",
          "name": "exsig",
          "type": "address"
        }
      ],
      "name": "SetExsig",
      "type": "event"
    },
    {
      "anonymous": false,
      "inputs": [
        {
          "indexed": false,
          "internalType": "address",
          "name": "owner",
          "type": "address"
        },
        {
          "indexed": false,
          "internalType": "uint256",
          "name": "maxfee",
          "type": "uint256"
        }
      ],
      "name": "SetMaxfee",
      "type": "event"
    },
    {
      "anonymous": false,
      "inputs": [
        {
          "indexed": false,
          "internalType": "address",
          "name": "owner",
          "type": "address"
        },
        {
          "indexed": false,
          "internalType": "uint256",
          "name": "maxGas",
          "type": "uint256"
        }
      ],
      "name": "SetMaxgas",
      "type": "event"
    },
    {
      "anonymous": false,
      "inputs": [
        {
          "indexed": true,
          "internalType": "address",
          "name": "from",
          "type": "address"
        },
        {
          "indexed": true,
          "internalType": "address",
          "name": "to",
          "type": "address"
        },
        {
          "indexed": true,
          "internalType": "uint256",
          "name": "tokenId",
          "type": "uint256"
        }
      ],
      "name": "Transfer",
      "type": "event"
    },
    {
      "stateMutability": "payable",
      "type": "fallback"
    },
    {
      "inputs": [
        {
          "internalType": "uint256",
          "name": "",
          "type": "uint256"
        }
      ],
      "name": "CHAINS",
      "outputs": [
        {
          "internalType": "address",
          "name": "endpoint",
          "type": "address"
        },
        {
          "internalType": "bytes",
          "name": "endpointExtended",
          "type": "bytes"
        },
        {
          "internalType": "uint16",
          "name": "confirmations",
          "type": "uint16"
        },
        {
          "internalType": "bool",
          "name": "extended",
          "type": "bool"
        }
      ],
      "stateMutability": "view",
      "type": "function"
    },
    {
      "inputs": [
        {
          "internalType": "uint256",
          "name": "",
          "type": "uint256"
        },
        {
          "internalType": "uint32",
          "name": "",
          "type": "uint32"
        }
      ],
      "name": "FEATURES",
      "outputs": [
        {
          "internalType": "address",
          "name": "endpoint",
          "type": "address"
        },
        {
          "internalType": "bytes",
          "name": "endpointExtended",
          "type": "bytes"
        },
        {
          "internalType": "uint16",
          "name": "confirmations",
          "type": "uint16"
        },
        {
          "internalType": "bool",
          "name": "extended",
          "type": "bool"
        }
      ],
      "stateMutability": "view",
      "type": "function"
    },
    {
      "inputs": [],
      "name": "FEATURE_GATEWAY",
      "outputs": [
        {
          "internalType": "contract IFeatureGateway",
          "name": "",
          "type": "address"
        }
      ],
      "stateMutability": "view",
      "type": "function"
    },
    {
      "inputs": [],
      "name": "FEE_TOKEN",
      "outputs": [
        {
          "internalType": "contract IERC20cl",
          "name": "",
          "type": "address"
        }
      ],
      "stateMutability": "view",
      "type": "function"
    },
    {
      "inputs": [],
      "name": "MESSAGE_OWNER",
      "outputs": [
        {
          "internalType": "address",
          "name": "",
          "type": "address"
        }
      ],
      "stateMutability": "view",
      "type": "function"
    },
    {
      "inputs": [],
      "name": "MESSAGEv3",
      "outputs": [
        {
          "internalType": "contract IMessageV3",
          "name": "",
          "type": "address"
        }
      ],
      "stateMutability": "view",
      "type": "function"
    },
    {
      "inputs": [
        {
          "internalType": "uint256",
          "name": "_shelterId",
          "type": "uint256"
        },
        {
          "internalType": "string",
          "name": "_name",
          "type": "string"
        },
        {
          "internalType": "string",
          "name": "_personality",
          "type": "string"
        }
      ],
      "name": "addPet",
      "outputs": [],
      "stateMutability": "nonpayable",
      "type": "function"
    },
    {
      "inputs": [
        {
          "internalType": "string",
          "name": "_name",
          "type": "string"
        },
        {
          "internalType": "string",
          "name": "_location",
          "type": "string"
        },
        {
          "internalType": "string",
          "name": "_website",
          "type": "string"
        },
        {
          "internalType": "string",
          "name": "_email",
          "type": "string"
        }
      ],
      "name": "addShelter",
      "outputs": [],
      "stateMutability": "nonpayable",
      "type": "function"
    },
    {
      "inputs": [
        {
          "internalType": "uint256",
          "name": "_shelterId",
          "type": "uint256"
        },
        {
          "internalType": "address",
          "name": "_manager",
          "type": "address"
        }
      ],
      "name": "addShelterManager",
      "outputs": [],
      "stateMutability": "nonpayable",
      "type": "function"
    },
    {
      "inputs": [
        {
          "internalType": "uint256",
          "name": "_nftId",
          "type": "uint256"
        }
      ],
      "name": "adoptPet",
      "outputs": [],
      "stateMutability": "nonpayable",
      "type": "function"
    },
    {
      "inputs": [
        {
          "internalType": "uint256",
          "name": "",
          "type": "uint256"
        }
      ],
      "name": "allShelters",
      "outputs": [
        {
          "internalType": "uint256",
          "name": "",
          "type": "uint256"
        }
      ],
      "stateMutability": "view",
      "type": "function"
    },
    {
      "inputs": [
        {
          "internalType": "address",
          "name": "to",
          "type": "address"
        },
        {
          "internalType": "uint256",
          "name": "tokenId",
          "type": "uint256"
        }
      ],
      "name": "approve",
      "outputs": [],
      "stateMutability": "nonpayable",
      "type": "function"
    },
    {
      "inputs": [
        {
          "internalType": "uint256",
          "name": "",
          "type": "uint256"
        }
      ],
      "name": "availablePets",
      "outputs": [
        {
          "internalType": "uint256",
          "name": "",
          "type": "uint256"
        }
      ],
      "stateMutability": "view",
      "type": "function"
    },
    {
      "inputs": [
        {
          "internalType": "address",
          "name": "owner",
          "type": "address"
        }
      ],
      "name": "balanceOf",
      "outputs": [
        {
          "internalType": "uint256",
          "name": "",
          "type": "uint256"
        }
      ],
      "stateMutability": "view",
      "type": "function"
    },
    {
      "inputs": [
        {
          "internalType": "uint256",
          "name": "_destChainId",
          "type": "uint256"
        },
        {
          "internalType": "address",
          "name": "_recipient",
          "type": "address"
        },
        {
          "internalType": "uint256",
          "name": "_nftId",
          "type": "uint256"
        }
      ],
      "name": "bridge",
      "outputs": [],
      "stateMutability": "nonpayable",
      "type": "function"
    },
    {
      "inputs": [
        {
          "internalType": "address",
          "name": "_messageV3",
          "type": "address"
        },
        {
          "internalType": "uint256[]",
          "name": "_chains",
          "type": "uint256[]"
        },
        {
          "internalType": "address[]",
          "name": "_endpoints",
          "type": "address[]"
        },
        {
          "internalType": "uint16[]",
          "name": "_confirmations",
          "type": "uint16[]"
        }
      ],
      "name": "configureClient",
      "outputs": [],
      "stateMutability": "nonpayable",
      "type": "function"
    },
    {
      "inputs": [
        {
          "internalType": "address",
          "name": "_messageV3",
          "type": "address"
        },
        {
          "internalType": "uint256[]",
          "name": "_chains",
          "type": "uint256[]"
        },
        {
          "internalType": "bytes[]",
          "name": "_endpoints",
          "type": "bytes[]"
        },
        {
          "internalType": "uint16[]",
          "name": "_confirmations",
          "type": "uint16[]"
        }
      ],
      "name": "configureClientExtended",
      "outputs": [],
      "stateMutability": "nonpayable",
      "type": "function"
    },
    {
      "inputs": [
        {
          "internalType": "address",
          "name": "_featureGateway",
          "type": "address"
        }
      ],
      "name": "configureFeatureGateway",
      "outputs": [],
      "stateMutability": "nonpayable",
      "type": "function"
    },
    {
      "inputs": [
        {
          "internalType": "uint256",
          "name": "_nftId",
          "type": "uint256"
        }
      ],
      "name": "feed",
      "outputs": [],
      "stateMutability": "nonpayable",
      "type": "function"
    },
    {
      "inputs": [],
      "name": "getAllShelters",
      "outputs": [
        {
          "internalType": "uint256[]",
          "name": "",
          "type": "uint256[]"
        }
      ],
      "stateMutability": "view",
      "type": "function"
    },
    {
      "inputs": [
        {
          "internalType": "uint256",
          "name": "tokenId",
          "type": "uint256"
        }
      ],
      "name": "getApproved",
      "outputs": [
        {
          "internalType": "address",
          "name": "",
          "type": "address"
        }
      ],
      "stateMutability": "view",
      "type": "function"
    },
    {
      "inputs": [],
      "name": "getAvailablePets",
      "outputs": [
        {
          "internalType": "uint256[]",
          "name": "",
          "type": "uint256[]"
        }
      ],
      "stateMutability": "view",
      "type": "function"
    },
    {
      "inputs": [
        {
          "internalType": "uint256",
          "name": "_nftId",
          "type": "uint256"
        }
      ],
      "name": "getLastMessage",
      "outputs": [
        {
          "internalType": "string",
          "name": "",
          "type": "string"
        }
      ],
      "stateMutability": "view",
      "type": "function"
    },
    {
      "inputs": [
        {
          "internalType": "uint256",
          "name": "_nftId",
          "type": "uint256"
        }
      ],
      "name": "getPet",
      "outputs": [
        {
          "components": [
            {
              "internalType": "uint256",
              "name": "lastWalk",
              "type": "uint256"
            },
            {
              "internalType": "uint256",
              "name": "lastFeed",
              "type": "uint256"
            },
            {
              "internalType": "uint256",
              "name": "lastTreat",
              "type": "uint256"
            },
            {
              "internalType": "uint256",
              "name": "totalWalks",
              "type": "uint256"
            },
            {
              "internalType": "uint256",
              "name": "totalFeeds",
              "type": "uint256"
            },
            {
              "internalType": "uint256",
              "name": "totalTreats",
              "type": "uint256"
            },
            {
              "internalType": "string",
              "name": "name",
              "type": "string"
            },
            {
              "internalType": "string",
              "name": "personality",
              "type": "string"
            },
            {
              "internalType": "uint256",
              "name": "shelterId",
              "type": "uint256"
            },
            {
              "internalType": "bool",
              "name": "adopted",
              "type": "bool"
            }
          ],
          "internalType": "struct AdoptAPet.PetData",
          "name": "",
          "type": "tuple"
        }
      ],
      "stateMutability": "view",
      "type": "function"
    },
    {
      "inputs": [
        {
          "internalType": "uint256",
          "name": "_shelterId",
          "type": "uint256"
        }
      ],
      "name": "getShelter",
      "outputs": [
        {
          "components": [
            {
              "internalType": "string",
              "name": "name",
              "type": "string"
            },
            {
              "internalType": "string",
              "name": "location",
              "type": "string"
            },
            {
              "internalType": "string",
              "name": "website",
              "type": "string"
            },
            {
              "internalType": "string",
              "name": "email",
              "type": "string"
            }
          ],
          "internalType": "struct AdoptAPet.ShelterData",
          "name": "",
          "type": "tuple"
        }
      ],
      "stateMutability": "view",
      "type": "function"
    },
    {
      "inputs": [
        {
          "internalType": "address",
          "name": "owner",
          "type": "address"
        },
        {
          "internalType": "address",
          "name": "operator",
          "type": "address"
        }
      ],
      "name": "isApprovedForAll",
      "outputs": [
        {
          "internalType": "bool",
          "name": "",
          "type": "bool"
        }
      ],
      "stateMutability": "view",
      "type": "function"
    },
    {
      "inputs": [
        {
          "internalType": "address",
          "name": "_sender",
          "type": "address"
        },
        {
          "internalType": "uint256",
          "name": "_sourceChainId",
          "type": "uint256"
        }
      ],
      "name": "isAuthorized",
      "outputs": [
        {
          "internalType": "bool",
          "name": "",
          "type": "bool"
        }
      ],
      "stateMutability": "view",
      "type": "function"
    },
    {
      "inputs": [
        {
          "internalType": "address",
          "name": "_sender",
          "type": "address"
        },
        {
          "internalType": "uint256",
          "name": "_sourceChainId",
          "type": "uint256"
        }
      ],
      "name": "isSelf",
      "outputs": [
        {
          "internalType": "bool",
          "name": "",
          "type": "bool"
        }
      ],
      "stateMutability": "view",
      "type": "function"
    },
    {
      "inputs": [
        {
          "internalType": "uint256",
          "name": "",
          "type": "uint256"
        },
        {
          "internalType": "uint256",
          "name": "_sourceChainId",
          "type": "uint256"
        },
        {
          "internalType": "address",
          "name": "_sender",
          "type": "address"
        },
        {
          "internalType": "address",
          "name": "",
          "type": "address"
        },
        {
          "internalType": "uint256",
          "name": "",
          "type": "uint256"
        },
        {
          "internalType": "bytes",
          "name": "_data",
          "type": "bytes"
        }
      ],
      "name": "messageProcess",
      "outputs": [],
      "stateMutability": "nonpayable",
      "type": "function"
    },
    {
      "inputs": [
        {
          "internalType": "uint256",
          "name": "",
          "type": "uint256"
        }
      ],
      "name": "messages",
      "outputs": [
        {
          "internalType": "string",
          "name": "",
          "type": "string"
        }
      ],
      "stateMutability": "view",
      "type": "function"
    },
    {
      "inputs": [],
      "name": "name",
      "outputs": [
        {
          "internalType": "string",
          "name": "",
          "type": "string"
        }
      ],
      "stateMutability": "view",
      "type": "function"
    },
    {
      "inputs": [],
      "name": "nextNftId",
      "outputs": [
        {
          "internalType": "uint256",
          "name": "",
          "type": "uint256"
        }
      ],
      "stateMutability": "view",
      "type": "function"
    },
    {
      "inputs": [],
      "name": "nextShelterId",
      "outputs": [
        {
          "internalType": "uint256",
          "name": "",
          "type": "uint256"
        }
      ],
      "stateMutability": "view",
      "type": "function"
    },
    {
      "inputs": [],
      "name": "owner",
      "outputs": [
        {
          "internalType": "address",
          "name": "",
          "type": "address"
        }
      ],
      "stateMutability": "view",
      "type": "function"
    },
    {
      "inputs": [
        {
          "internalType": "uint256",
          "name": "tokenId",
          "type": "uint256"
        }
      ],
      "name": "ownerOf",
      "outputs": [
        {
          "internalType": "address",
          "name": "",
          "type": "address"
        }
      ],
      "stateMutability": "view",
      "type": "function"
    },
    {
      "inputs": [
        {
          "internalType": "uint256",
          "name": "",
          "type": "uint256"
        }
      ],
      "name": "pets",
      "outputs": [
        {
          "internalType": "uint256",
          "name": "lastWalk",
          "type": "uint256"
        },
        {
          "internalType": "uint256",
          "name": "lastFeed",
          "type": "uint256"
        },
        {
          "internalType": "uint256",
          "name": "lastTreat",
          "type": "uint256"
        },
        {
          "internalType": "uint256",
          "name": "totalWalks",
          "type": "uint256"
        },
        {
          "internalType": "uint256",
          "name": "totalFeeds",
          "type": "uint256"
        },
        {
          "internalType": "uint256",
          "name": "totalTreats",
          "type": "uint256"
        },
        {
          "internalType": "string",
          "name": "name",
          "type": "string"
        },
        {
          "internalType": "string",
          "name": "personality",
          "type": "string"
        },
        {
          "internalType": "uint256",
          "name": "shelterId",
          "type": "uint256"
        },
        {
          "internalType": "bool",
          "name": "adopted",
          "type": "bool"
        }
      ],
      "stateMutability": "view",
      "type": "function"
    },
    {
      "inputs": [
        {
          "internalType": "address",
          "name": "_token",
          "type": "address"
        },
        {
          "internalType": "uint256",
          "name": "_amount",
          "type": "uint256"
        }
      ],
      "name": "recoverToken",
      "outputs": [],
      "stateMutability": "nonpayable",
      "type": "function"
    },
    {
      "inputs": [
        {
          "internalType": "uint256",
          "name": "_shelterId",
          "type": "uint256"
        },
        {
          "internalType": "address",
          "name": "_manager",
          "type": "address"
        }
      ],
      "name": "removeShelterManager",
      "outputs": [],
      "stateMutability": "nonpayable",
      "type": "function"
    },
    {
      "inputs": [],
      "name": "renounceOwnership",
      "outputs": [],
      "stateMutability": "nonpayable",
      "type": "function"
    },
    {
      "inputs": [
        {
          "internalType": "uint256",
          "name": "_nftId",
          "type": "uint256"
        }
      ],
      "name": "rescue",
      "outputs": [],
      "stateMutability": "nonpayable",
      "type": "function"
    },
    {
      "inputs": [
        {
          "internalType": "address",
          "name": "from",
          "type": "address"
        },
        {
          "internalType": "address",
          "name": "to",
          "type": "address"
        },
        {
          "internalType": "uint256",
          "name": "tokenId",
          "type": "uint256"
        }
      ],
      "name": "safeTransferFrom",
      "outputs": [],
      "stateMutability": "nonpayable",
      "type": "function"
    },
    {
      "inputs": [
        {
          "internalType": "address",
          "name": "from",
          "type": "address"
        },
        {
          "internalType": "address",
          "name": "to",
          "type": "address"
        },
        {
          "internalType": "uint256",
          "name": "tokenId",
          "type": "uint256"
        },
        {
          "internalType": "bytes",
          "name": "data",
          "type": "bytes"
        }
      ],
      "name": "safeTransferFrom",
      "outputs": [],
      "stateMutability": "nonpayable",
      "type": "function"
    },
    {
      "inputs": [
        {
          "internalType": "address",
          "name": "operator",
          "type": "address"
        },
        {
          "internalType": "bool",
          "name": "approved",
          "type": "bool"
        }
      ],
      "name": "setApprovalForAll",
      "outputs": [],
      "stateMutability": "nonpayable",
      "type": "function"
    },
    {
      "inputs": [
        {
          "internalType": "address",
          "name": "_signer",
          "type": "address"
        }
      ],
      "name": "setExsig",
      "outputs": [],
      "stateMutability": "nonpayable",
      "type": "function"
    },
    {
      "inputs": [
        {
          "internalType": "uint256",
          "name": "_maxFee",
          "type": "uint256"
        }
      ],
      "name": "setMaxfee",
      "outputs": [],
      "stateMutability": "nonpayable",
      "type": "function"
    },
    {
      "inputs": [
        {
          "internalType": "uint256",
          "name": "_maxGas",
          "type": "uint256"
        }
      ],
      "name": "setMaxgas",
      "outputs": [],
      "stateMutability": "nonpayable",
      "type": "function"
    },
    {
      "inputs": [
        {
          "internalType": "uint256",
          "name": "",
          "type": "uint256"
        },
        {
          "internalType": "address",
          "name": "",
          "type": "address"
        }
      ],
      "name": "shelterManagers",
      "outputs": [
        {
          "internalType": "bool",
          "name": "",
          "type": "bool"
        }
      ],
      "stateMutability": "view",
      "type": "function"
    },
    {
      "inputs": [
        {
          "internalType": "uint256",
          "name": "",
          "type": "uint256"
        }
      ],
      "name": "shelters",
      "outputs": [
        {
          "internalType": "string",
          "name": "name",
          "type": "string"
        },
        {
          "internalType": "string",
          "name": "location",
          "type": "string"
        },
        {
          "internalType": "string",
          "name": "website",
          "type": "string"
        },
        {
          "internalType": "string",
          "name": "email",
          "type": "string"
        }
      ],
      "stateMutability": "view",
      "type": "function"
    },
    {
      "inputs": [
        {
          "internalType": "bytes4",
          "name": "interfaceId",
          "type": "bytes4"
        }
      ],
      "name": "supportsInterface",
      "outputs": [
        {
          "internalType": "bool",
          "name": "",
          "type": "bool"
        }
      ],
      "stateMutability": "view",
      "type": "function"
    },
    {
      "inputs": [],
      "name": "symbol",
      "outputs": [
        {
          "internalType": "string",
          "name": "",
          "type": "string"
        }
      ],
      "stateMutability": "view",
      "type": "function"
    },
    {
      "inputs": [
        {
          "internalType": "uint256",
          "name": "index",
          "type": "uint256"
        }
      ],
      "name": "tokenByIndex",
      "outputs": [
        {
          "internalType": "uint256",
          "name": "",
          "type": "uint256"
        }
      ],
      "stateMutability": "view",
      "type": "function"
    },
    {
      "inputs": [
        {
          "internalType": "address",
          "name": "owner",
          "type": "address"
        },
        {
          "internalType": "uint256",
          "name": "index",
          "type": "uint256"
        }
      ],
      "name": "tokenOfOwnerByIndex",
      "outputs": [
        {
          "internalType": "uint256",
          "name": "",
          "type": "uint256"
        }
      ],
      "stateMutability": "view",
      "type": "function"
    },
    {
      "inputs": [
        {
          "internalType": "uint256",
          "name": "tokenId",
          "type": "uint256"
        }
      ],
      "name": "tokenURI",
      "outputs": [
        {
          "internalType": "string",
          "name": "",
          "type": "string"
        }
      ],
      "stateMutability": "view",
      "type": "function"
    },
    {
      "inputs": [],
      "name": "totalSupply",
      "outputs": [
        {
          "internalType": "uint256",
          "name": "",
          "type": "uint256"
        }
      ],
      "stateMutability": "view",
      "type": "function"
    },
    {
      "inputs": [
        {
          "internalType": "address",
          "name": "from",
          "type": "address"
        },
        {
          "internalType": "address",
          "name": "to",
          "type": "address"
        },
        {
          "internalType": "uint256",
          "name": "tokenId",
          "type": "uint256"
        }
      ],
      "name": "transferFrom",
      "outputs": [],
      "stateMutability": "nonpayable",
      "type": "function"
    },
    {
      "inputs": [
        {
          "internalType": "address",
          "name": "_newMessageOwner",
          "type": "address"
        }
      ],
      "name": "transferMessageOwnership",
      "outputs": [],
      "stateMutability": "nonpayable",
      "type": "function"
    },
    {
      "inputs": [
        {
          "internalType": "address",
          "name": "newOwner",
          "type": "address"
        }
      ],
      "name": "transferOwnership",
      "outputs": [],
      "stateMutability": "nonpayable",
      "type": "function"
    },
    {
      "inputs": [
        {
          "internalType": "uint256",
          "name": "_nftId",
          "type": "uint256"
        }
      ],
      "name": "treat",
      "outputs": [],
      "stateMutability": "nonpayable",
      "type": "function"
    },
    {
      "inputs": [
        {
          "internalType": "uint256",
          "name": "_nftId",
          "type": "uint256"
        }
      ],
      "name": "walk",
      "outputs": [],
      "stateMutability": "nonpayable",
      "type": "function"
    },
    {
      "inputs": [
        {
          "internalType": "address",
          "name": "owner",
          "type": "address"
        }
      ],
      "name": "walletOfOwner",
      "outputs": [
        {
          "internalType": "uint256[]",
          "name": "",
          "type": "uint256[]"
        }
      ],
      "stateMutability": "view",
      "type": "function"
    },
    {
      "stateMutability": "payable",
      "type": "receive"
    }
  ],
  "transactionHash": "0x21a7a564c0edab42d575f2184be7e5aa18d400ba219519ffb3925fdd930f3466",
  "args": [],
  "numDeployments": 3,
  "solcInputHash": "c73b8fa901a94afd02d16c2496b69713",
  "bytecode": "0x60803462000393576001600160401b0390604090808201838111828210176200037d578252600b81526020906a10591bdc1d08104814195d60aa1b82820152825193838501858110828211176200037d578452600385526204141560ec1b8386015281518181116200037d576000938454916001948584811c9416801562000372575b838510146200035e578190601f948581116200030b575b508390858311600114620002a75788926200029b575b5050600019600383901b1c191690851b1785555b8651928311620002875783548481811c911680156200027c575b82821014620002685782811162000220575b5080918311600114620001b9575083949582939492620001ad575b5050600019600383901b1c191690821b1790555b600a8054336001600160a01b03198083168217909355935193906001600160a01b03167f8be0079c531659141344cd1fd0a4f28419497f9722a3daafe3b4186f6b6457e08480a3339060105416176010556127109081460291468304144615171562000199575080601155601255614e219081620003998239f35b634e487b7160e01b81526011600452602490fd5b0151905038806200010a565b90601f198316968486528286209286905b89821062000208575050838596979810620001ee575b505050811b0190556200011e565b015160001960f88460031b161c19169055388080620001e0565b808785968294968601518155019501930190620001ca565b8486528186208380860160051c8201928487106200025e575b0160051c019085905b82811062000252575050620000ef565b87815501859062000242565b9250819262000239565b634e487b7160e01b86526022600452602486fd5b90607f1690620000dd565b634e487b7160e01b85526041600452602485fd5b015190503880620000af565b8880528489208894509190601f1984168a5b87828210620002f45750508411620002da575b505050811b018555620000c3565b015160001960f88460031b161c19169055388080620002cc565b8385015186558b97909501949384019301620002b9565b9091508780528388208580850160051c82019286861062000354575b918991869594930160051c01915b8281106200034557505062000099565b8a815585945089910162000335565b9250819262000327565b634e487b7160e01b87526022600452602487fd5b93607f169362000082565b634e487b7160e01b600052604160045260246000fd5b600080fdfe60806040526004361015610018575b361561001657005b005b60003560e01c806301ffc9a7146104b657806302b3b368146104ad5780630581f59d146104a457806306fdde031461049b578063081812fc14610492578063095ea7b3146104895780630d029802146104805780630d80fefd1461038d57806318160ddd1461047757806319b815771461046e57806320bfe3421461045c57806323b872dd146104655780632972b0f01461045c5780632ee02d7c146104535780632f745c591461044a5780632f820a5f1461044157806342842e0e14610438578063438b63001461042f5780634f154c54146104265780634f6ccce71461041d578063559b2f6514610414578063585c7edd1461040b57806359d55194146104025780635b77a6a6146103f95780635f46e740146103f05780636352211e146103e75780636ac053ad146103de5780637044cd7e146103d557806370a08231146103cc578063715018a6146103c357806373717b08146103ba578063788063f0146103b1578063794b4643146103a85780637a29fa661461039f5780637b84044d14610396578063823a1db11461038d578063853c75d8146103845780638da5cb5b1461037b57806392ae12fd1461037257806393f1da4f1461036957806395d89b41146103605780639877f2f3146103575780639e0d0ef81461034e578063a22cb46514610345578063a2db91691461033c578063b29a814014610333578063b479a9611461032a578063b7f494a414610321578063b88d4fde14610318578063bb0b98301461030f578063c60853f614610306578063c87b56dd146102fd578063cfb869bf146102f4578063e47ad74d146102eb578063e985e9c5146102e2578063f2fde38b146102d9578063f52a9198146102d0578063f59dfdfb146102c7578063f7194138146102be5763f9bf93220361000e576102b9612d73565b61000e565b506102b9612d22565b506102b9612cbe565b506102b9612c5a565b506102b9612b91565b506102b9612b34565b506102b9612a52565b506102b96129bf565b506102b96122ae565b506102b96121d1565b506102b96121a7565b506102b9612150565b506102b961200b565b506102b9611f23565b506102b9611e0a565b506102b9611d54565b506102b9611bfd565b506102b9611ab6565b506102b9611a0a565b506102b9611964565b506102b9611945565b506102b96118dc565b506102b961187b565b506102b9611851565b506102b9610a6a565b506102b96117f7565b506102b96117a5565b506102b9611786565b506102b9611734565b506102b96116f3565b506102b9611694565b506102b961166c565b506102b96115a6565b506102b9611474565b506102b9611455565b506102b96113e5565b506102b961138e565b506102b961128f565b506102b9611180565b506102b96110ee565b506102b9611042565b506102b9610fba565b506102b9610f14565b506102b9610e92565b506102b9610dee565b506102b9610dba565b506102b9610cb8565b506102b9610b8b565b506102b9610bed565b506102b9610adb565b506102b9610abc565b506102b96108a9565b506102b96107d0565b506102b961078e565b506102b96106aa565b506102b96105de565b506102b961055f565b506102b96104d6565b6001600160e01b03198116036104d157565b600080fd5b50346104d15760203660031901126104d15760206004356104f6816104bf565b63ffffffff60e01b1663780e9d6360e01b811490811561051c575b506040519015158152f35b6380ac58cd60e01b81149150811561054e575b811561053d575b5038610511565b6301ffc9a760e01b14905038610536565b635b5e139f60e01b8114915061052f565b50346104d15760203660031901126104d1577ff8e1a15aba9398e019f0b49df1a4fde98ee17ae345cb5f6b5e2c27f5033e8ce760206004356105b36105a382612f12565b6001600160a01b03163314613ae3565b806000526014825260056040600020426002820155016105d3815461362b565b9055604051908152a1005b50346104d15760203660031901126104d1577ff8e1a15aba9398e019f0b49df1a4fde98ee17ae345cb5f6b5e2c27f5033e8ce760206004356106226105a382612f12565b80600052601482524260406000205560036040600020016105d3815461362b565b60009103126104d157565b60005b8381106106615750506000910152565b8181015183820152602001610651565b9060209161068a8151809281855285808601910161064e565b601f01601f1916010190565b9060206106a7928181520190610671565b90565b50346104d15760008060031936011261078b57604051908080546106cd816108d3565b808552916001918083169081156107615750600114610707575b610703856106f781870382610a2c565b60405191829182610696565b0390f35b80809450527f290decd9548b62a8d60345a988386fc84ba6bc95484008f6362f93160ef3e5635b8284106107495750505081016020016106f7826107036106e7565b8054602085870181019190915290930192810161072e565b869550610703969350602092506106f794915060ff191682840152151560051b82010192936106e7565b80fd5b50346104d15760203660031901126104d15760206107ad600435612fa7565b6040516001600160a01b039091168152f35b6001600160a01b038116036104d157565b50346104d15760403660031901126104d1576004356107ee816107bf565b6024356107fa81612f12565b916001600160a01b03808416908216811461085a576100169361082791331490811561082c575b50612f35565b613349565b6001600160a01b0316600090815260056020908152604080832033845290915290205460ff16905038610821565b60405162461bcd60e51b815260206004820152602160248201527f4552433732313a20617070726f76616c20746f2063757272656e74206f776e656044820152603960f91b6064820152608490fd5b50346104d15760003660031901126104d157600b546040516001600160a01b039091168152602090f35b90600182811c92168015610903575b60208310146108ed57565b634e487b7160e01b600052602260045260246000fd5b91607f16916108e2565b906000929180549161091e836108d3565b9182825260019384811690816000146109805750600114610940575b50505050565b90919394506000526020928360002092846000945b83861061096c57505050500101903880808061093a565b805485870183015294019385908201610955565b9294505050602093945060ff191683830152151560051b0101903880808061093a565b50634e487b7160e01b600052604160045260246000fd5b61014081019081106001600160401b038211176109d657604052565b6109de6109a3565b604052565b608081019081106001600160401b038211176109d657604052565b6001600160401b0381116109d657604052565b604081019081106001600160401b038211176109d657604052565b90601f801991011681019081106001600160401b038211176109d657604052565b90610a68610a61926040519384809261090d565b0383610a2c565b565b50346104d15760203660031901126104d1576004356000526013602052610703610aa1610aa860406000206040519283809261090d565b0382610a2c565b604051918291602083526020830190610671565b50346104d15760003660031901126104d1576020600854604051908152f35b50346104d15760203660031901126104d157600435600081815260026020526040902054610b13906001600160a01b03161515613b45565b610b1c81612f12565b306001600160a01b0390911603610b38576100169033306131d5565b60405162461bcd60e51b815260206004820152602560248201527f41646f7074415065743a20416c72656164792061646f7074656420627920736f6044820152646d656f6e6560d81b6064820152608490fd5b50346104d15760403660031901126104d1576020610bb7600435610bae816107bf565b60243590613ab7565b6040519015158152f35b60609060031901126104d157600435610bd9816107bf565b90602435610be6816107bf565b9060443590565b50346104d157610016610bff36610bc1565b91610c12610c0d8433613103565b612fe5565b6131d5565b9181601f840112156104d1578235916001600160401b0383116104d1576020808501948460051b0101116104d157565b60806003198201126104d157600435610c5f816107bf565b916001600160401b036024358181116104d15783610c7f91600401610c17565b939093926044358381116104d15782610c9a91600401610c17565b939093926064359182116104d157610cb491600401610c17565b9091565b50346104d157610cc736610c47565b610ce360018060a0989794989695961b036010541633146135c8565b60005b828110610cf657610016886137d2565b80610db0610d5a888888610d9b868a8f610d17610db59b8d610d1c93613647565b613665565b95610d28838383613647565b35600052610d5a610d5f84600f986020988a8a5260029c8d9c60409d8e600020019061ffff1661ffff19825416179055565b613647565b35610d69816107bf565b610d74858585613647565b35600052878752886000209060018060a01b03166001600160601b0360a01b825416179055565b35600052526000200162ff0000198154169055565b61362b565b610ce6565b50346104d15760403660031901126104d1576020610de6600435610ddd816107bf565b6024359061353a565b604051908152f35b50346104d15760603660031901126104d157602435600435610e0f826107bf565b6000818152600f60205260409020546001600160a01b031615610e395761001691604435916140ce565b60405162461bcd60e51b815260206004820152602b60248201527f4d657373616765436c69656e743a2064657374696e6174696f6e20636861696e60448201526a206e6f742061637469766560a81b6064820152608490fd5b50346104d157610016610ea436610bc1565b9060405192602084018481106001600160401b03821117610ecc575b60405260008452613078565b610ed46109a3565b610ec0565b6020908160408183019282815285518094520193019160005b828110610f00575050505090565b835185529381019392810192600101610ef2565b50346104d1576020806003193601126104d15760043590610f34826107bf565b610f3d82612e4f565b90610f4782614a04565b92610f556040519485610a2c565b828452601f19610f6484614a04565b01368386013760005b838110610f8257604051806107038782610ed9565b80610f90610fa8928461353a565b8651821015610fad575b848260051b8801015261362b565b610f6d565b610fb561171d565b610f9a565b50346104d15760003660031901126104d157604051806018549182815260208091019260186000527fb13d2d76d1f4b7be834882e410b3e3a8afaf69f83600ae24db354391d2378d2e916000905b82821061102b576107038561101f81890382610a2c565b60405191829182610ed9565b835486529485019460019384019390910190611008565b50346104d15760203660031901126104d1576004356008548110156110945760086000527ff3f7a9fe364faab93b216da50a3214154f22a0a2b415b23a84c8169e8b636ee30154604051908152602090f35b60405162461bcd60e51b815260206004820152602c60248201527f455243373231456e756d657261626c653a20676c6f62616c20696e646578206f60448201526b7574206f6620626f756e647360a01b6064820152608490fd5b50346104d15760203660031901126104d1577fe1a25f463c6504824e91268b5b2c05658d5358c9c1698a85346cfae5336a642e61117b600435611130816107bf565b6010546001600160a01b0361114833828416146135c8565b6001600160a01b031990911690821617601055604080513381526001600160a01b03909216602083015290918291820190565b0390a1005b50346104d15760003660031901126104d157604051806017549182815260208091019260176000527fc624b66cc0138b8fabc209247f72d758e1cf3343756d543badbf24212bed8c15916000905b8282106111e5576107038561101f81890382610a2c565b8354865294850194600193840193909101906111ce565b6106a7906020815282516020820152602083015160408201526040830151606082015260608301516080820152608083015160a082015260a083015160c082015260c083015161125a610140918260e0850152610160840190610671565b9361127860e08201519561010096601f198683030188870152610671565b948101516101208481019190915201511515910152565b50346104d15760203660031901126104d1576107036040516112b0816109ba565b6113826000918281528260208201528260408201528260608201528260808201528260a0820152606060c0820152606060e082015261137a6009604061010095808786015280610120809601526004358152601460205220611310611a38565b958154875260018201546020880152600282015460408801526003820154606088015260048201546080880152600582015460a088015261135360068301610a4d565b60c088015261136460078301610a4d565b60e0880152600882015490870152015460ff1690565b151590830152565b604051918291826111fc565b50346104d15760403660031901126104d157602060ff6113d96024356113b3816107bf565b6004356000526016845260406000209060018060a01b0316600052602052604060002090565b54166040519015158152f35b50346104d15760c03660031901126104d157604435611403816107bf565b61140e6064356107bf565b60a435906001600160401b03908183116104d157366023840112156104d15782600401359182116104d15736602483850101116104d15760246100169301906024356144bd565b50346104d15760203660031901126104d15760206107ad600435612f12565b50346104d15760203660031901126104d1576004356000818152600260205260409020546114ac906001600160a01b03161515613b45565b6114c0816000526014602052604060002090565b6114d76114d1600983015460ff1690565b15613b91565b60018101546114e542613be7565b11908115611592575b811561157c575b501561150f578061150861001692612f12565b33906131d5565b6040805162461bcd60e51b81526020600482015260248101919091527f41646f7074415065743a20506574206973206265696e672074616b656e20636160448201527f7265206f662e2043616e6e6f742072657475726e20746f207368656c7465722e6064820152608490fd5b60029150015461158b42613be7565b11386114f5565b8091505461159f42613be7565b11906114ee565b50346104d15760203660031901126104d15760043560005260156020526116436040610703600361165e83600020938051946115ed866115e6818461090d565b0387610a2c565b611651825161160381610aa1816001870161090d565b6116308451936116218561161a816002850161090d565b0386610a2c565b6115e68651809981930161090d565b835198899860808a5260808a0190610671565b9088820360208a0152610671565b9186830390870152610671565b908382036060850152610671565b50346104d15760203660031901126104d1576020610de660043561168f816107bf565b612e4f565b50346104d15760008060031936011261078b576116af612df7565b600a80546001600160a01b0319811690915581906001600160a01b03167f8be0079c531659141344cd1fd0a4f28419497f9722a3daafe3b4186f6b6457e08280a380f35b50346104d15760003660031901126104d157600c546040516001600160a01b039091168152602090f35b50634e487b7160e01b600052603260045260246000fd5b50346104d15760203660031901126104d1576004356018548110156104d15760209060186000527fb13d2d76d1f4b7be834882e410b3e3a8afaf69f83600ae24db354391d2378d2e0154604051908152f35b50346104d15760003660031901126104d1576020601254604051908152f35b50346104d15760203660031901126104d1576004356017548110156104d15760209060176000527fc624b66cc0138b8fabc209247f72d758e1cf3343756d543badbf24212bed8c150154604051908152f35b50346104d15760403660031901126104d157611847602435611818816107bf565b611820612df7565b600435600052601660205260406000209060018060a01b0316600052602052604060002090565b805460ff19169055005b50346104d15760003660031901126104d1576010546040516001600160a01b039091168152602090f35b50346104d15760003660031901126104d157600a546040516001600160a01b039091168152602090f35b929493906118ce60609361ffff9260018060a01b03168652608060208701526080860190610671565b951660408401521515910152565b50346104d15760203660031901126104d157600435600052600f602052604060002060018060a01b038154169061070360026040519261192a84611923816001850161090d565b0385610a2c565b015460405193849361ffff60ff8460101c16931691856118a5565b50346104d15760003660031901126104d1576020601154604051908152f35b50346104d15760008060031936011261078b576040519080600180549161198a836108d3565b8086529282811690811561076157506001146119b057610703856106f781870382610a2c565b92508083527fb10e2d527612073b26eecdfd717e6a320cf44b4afac2b0732d9fcbe2b7fa0cf65b8284106119f25750505081016020016106f7826107036106e7565b805460208587018101919091529093019281016119d7565b50346104d15760403660031901126104d157611a2b602435611818816107bf565b805460ff19166001179055005b60405190610a68826109ba565b6020906001600160401b038111611a62575b601f01601f19160190565b611a6a6109a3565b611a57565b81601f820112156104d157803590611a8682611a45565b92611a946040519485610a2c565b828452602083830101116104d157816000926020809301838601378301015290565b50346104d15760603660031901126104d1576004356001600160401b036024358181116104d157611aeb903690600401611a6f565b906044359081116104d157611b04903690600401611a6f565b9082600052601660205260ff611b2f60406000203360018060a01b0316600052602052604060002090565b541615611b9457611b74600892611b4860115430613f3c565b611b6b611b616011546000526014602052604060002090565b9360068501613d54565b60078301613d54565b0155611b81601154613e28565b610016611b8f60115461362b565b601155565b60405162461bcd60e51b815260206004820152603160248201527f41646f7074415065743a2063616c6c6572206973206e6f742061206d616e616760448201527032b91037b3103a34329039b432b63a32b960791b6064820152608490fd5b801515036104d157565b50346104d15760403660031901126104d157600435611c1b816107bf565b602435611c2781611bf3565b6001600160a01b03821691338314611ca95781611c66611c779233600052600560205260406000209060018060a01b0316600052602052604060002090565b9060ff801983541691151516179055565b604051901515815233907f17307eab39ab6107e8899845ad3d59bd9653f200f220920489ca2b5937696c3190602090a3005b60405162461bcd60e51b815260206004820152601960248201527f4552433732313a20617070726f766520746f2063616c6c6572000000000000006044820152606490fd5b906106a79160208152611d0d82516080602084015260a0830190610671565b9060806060611d44611d31602087015195601f199687878303016040880152610671565b6040870151868683030184870152610671565b9401519282850301910152610671565b50346104d15760203660031901126104d1576107036040805190611d77826109e3565b606080838180955281602082015281848201520152600435600052601560205260038160002092611dfd835194611dad866109e3565b8451611dbd81610aa1818561090d565b86528451611dd281610aa1816001860161090d565b60208701528451611dea81610aa1816002860161090d565b85870152610a618551809581930161090d565b8301525191829182611cee565b50346104d15760403660031901126104d1577f16a1412f01b73c390eb2548427101644aa86c1443c272f73df00fb74c48fe499600435611e49816107bf565b6024359060018060a01b03611e63816010541633146135c8565b811680611eac5750611e85600080808086335af1611e7f613400565b50613a79565b604080513381526001600160a01b039092166020830152810191909152806060810161117b565b60405163a9059cbb60e01b81523360048201526024810184905290602090829060449082906000905af18015611f16575b611ee8575b50611e85565b611f089060203d8111611f0f575b611f008183610a2c565b8101906137bd565b5038611ee2565b503d611ef6565b611f1e6133f3565b611edd565b50346104d1576000602036600319011261078b576004358160018060a01b03611f51816010541633146135c8565b600b5416803b1561200757819060246040518094819363b479a96160e01b83528760048401525af18015611ffa575b611fc3575b506040805133815260208101929092527f7b6bdf5a54b984bdb41e777eb126123085d57633ab56d408d9a1d39dd894e7bb9190819081015b0390a180f35b7f7b6bdf5a54b984bdb41e777eb126123085d57633ab56d408d9a1d39dd894e7bb9192611ff2611fbd926109fe565b929150611f85565b6120026133f3565b611f80565b5080fd5b50346104d15761201a36610c47565b61203560018060a09998969497991b036010541633146135c8565b60005b87811061204857610016876137d2565b612056610d17828489613647565b90612062818a88613647565b356000526020600f815261208a600293846040600020019061ffff1661ffff19825416179055565b85821015612143575b8160051b850135601e19863603018112156104d1578501908135916001600160401b0383116104d157019281360384136104d1576120fa61211a9261213e9560016120f48f886120e3918f613647565b35600052600f602052604060002090565b016136c8565b6121086120e3848d8b613647565b01805462ff0000191662010000179055565b610db061212b6120e3838c8a613647565b80546001600160a01b0319166001179055565b612038565b61214b61171d565b612093565b50346104d15760803660031901126104d15760043561216e816107bf565b60243561217a816107bf565b606435916001600160401b0383116104d15761219d610016933690600401611a6f565b9160443591613078565b50346104d15760003660031901126104d157600d546040516001600160a01b039091168152602090f35b50346104d15760203660031901126104d1576004356121ef816107bf565b6010546001600160a01b039061220890821633146135c8565b80600b541691823b156104d1576000807f3785abad972484d82ebc033d8eb190737cd209b24e7f853dd622e415c3f537a294602461117b95604051948593849263630429fb60e11b8452881660048401525af180156122a1575b612288575b50604080513381526001600160a01b03909216602083015290918291820190565b8061229561229b926109fe565b80610643565b38612267565b6122a96133f3565b612262565b50346104d15760203660031901126104d1576004356000818152600260205260409020546122e6906001600160a01b031615156146fe565b6122ef81614d31565b6006612305836000526014602052604060002090565b019161232461231e826000526014602052604060002090565b54614d31565b90612345600161233e836000526014602052604060002090565b0154614d31565b61235e600261233e846000526014602052604060002090565b612377600361233e856000526014602052604060002090565b612390600461233e866000526014602052604060002090565b6123a9600561233e876000526014602052604060002090565b906123cb60096123c3886000526014602052604060002090565b015460ff1690565b15612954576123d8614783565b925b6123ee876000526014602052604060002090565b60080154612406906000526015602052604060002090565b9461241b886000526014602052604060002090565b60080154612433906000526015602052604060002090565b6001019661244b896000526014602052604060002090565b60080154612463906000526015602052604060002090565b6002019861247b906000526014602052604060002090565b60080154612493906000526015602052604060002090565b604051757b226e616d65223a2241646f7074204120506574202360501b60208201529c8d9c6003929092019b9160368e016124cd916147a3565b61088b60f21b81526002017f226465736372697074696f6e223a2241646f7074204120506574204e4654222c81526020017f22696d616765223a2268747470733a2f2f656e637279707465642d74626e302e81527f677374617469632e636f6d2f696d616765733f713d74626e3a414e643947635460208201527f4e6e4779584a69516b6d614533455a446c6a76644e43456137663233325678546040820152661c1219c99cc88b60ca1b60608201526067016d2261747472696275746573223a5b60901b8152600e017f7b2274726169745f74797065223a224e616d65222c2276616c7565223a2200008152601e016125c6916147b6565b62089f4b60ea1b81526003017f7b2274726169745f74797065223a224c6173742057616c6b222c2276616c7565815262111d1160e91b602082015260230161260d916147a3565b62089f4b60ea1b81526003017f7b2274726169745f74797065223a224c6173742046656564222c2276616c7565815262111d1160e91b6020820152602301612654916147a3565b62089f4b60ea1b81526003017f7b2274726169745f74797065223a224c617374205472656174222c2276616c7581526332911d1160e11b602082015260240161269c916147a3565b62089f4b60ea1b81526003017f7b2274726169745f74797065223a22546f74616c2057616c6b73222c2276616c8152643ab2911d1160d91b60208201526025016126e5916147a3565b62089f4b60ea1b81526003017f7b2274726169745f74797065223a22546f74616c204665656473222c2276616c8152643ab2911d1160d91b602082015260250161272e916147a3565b62089f4b60ea1b81526003017f7b2274726169745f74797065223a22546f74616c20547265617473222c227661815265363ab2911d1160d11b6020820152602601612778916147a3565b62089f4b60ea1b81526003017f7b2274726169745f74797065223a2241646f70746564222c2276616c7565223a8152601160f91b60208201526021016127bd916147a3565b62089f4b60ea1b81526003017f7b2274726169745f74797065223a225368656c746572222c2276616c7565223a8152601160f91b6020820152602101612802916147b6565b62089f4b60ea1b81526003017f7b2274726169745f74797065223a224c6f636174696f6e222c2276616c7565228152611d1160f11b6020820152602201612848916147b6565b62089f4b60ea1b81526003017f7b2274726169745f74797065223a2257656273697465222c2276616c7565223a8152601160f91b602082015260210161288d916147b6565b62089f4b60ea1b81526003017f7b2274726169745f74797065223a22456d61696c222c2276616c7565223a22008152601f016128c8916147b6565b61227d60f01b8152600201615d7d60f01b81526002010390601f199182810182526128f39082610a2c565b6128fc9061491b565b6040517f646174613a6170706c69636174696f6e2f6a736f6e3b6261736536342c000000602082015291908290603d8201612936916147a3565b0390810182526129469082610a2c565b604051610703819282610696565b61295c614762565b926123da565b989a999692936129a3946129b197936101209a97938c5260208c015260408b015260608a0152608089015260a08801526101408060c0890152870190610671565b9085820360e0870152610671565b946101008401521515910152565b50346104d15760203660031901126104d15760043560005260146020526040600020805461070360018301549260028101549060038101546004820154600583015460405191612a1d83612a16816006890161090d565b0384610a2c565b60405193612a328561161a8160078a0161090d565b612a456009600888015497015460ff1690565b966040519a8b9a8b612962565b50346104d1576000602036600319011261078b576004358160018060a01b03612a80816010541633146135c8565b600b5416803b1561200757819060246040518094819363e47ad74d60e01b83528760048401525af18015612b27575b612af0575b506040805133815260208101929092527f83f76efc0c025b2e3779f7bcead5a89ddaf05dc7829157cdab021a8591e7a6f9919081908101611fbd565b7f83f76efc0c025b2e3779f7bcead5a89ddaf05dc7829157cdab021a8591e7a6f99192612b1f611fbd926109fe565b929150612ab4565b612b2f6133f3565b612aaf565b50346104d15760403660031901126104d157602060ff6113d9600435612b59816107bf565b60243590612b66826107bf565b60018060a01b03166000526005845260406000209060018060a01b0316600052602052604060002090565b50346104d15760203660031901126104d157600435612baf816107bf565b612bb7612df7565b6001600160a01b03908116908115612c0657600a54826001600160601b0360a01b821617600a55167f8be0079c531659141344cd1fd0a4f28419497f9722a3daafe3b4186f6b6457e0600080a3005b60405162461bcd60e51b815260206004820152602660248201527f4f776e61626c653a206e6577206f776e657220697320746865207a65726f206160448201526564647265737360d01b6064820152608490fd5b50346104d15760403660031901126104d15760243563ffffffff81168091036104d157600435600052600e602052604060002090600052602052604060002060018060a01b038154169061070360026040519261192a84611923816001850161090d565b50346104d15760203660031901126104d1577ff8e1a15aba9398e019f0b49df1a4fde98ee17ae345cb5f6b5e2c27f5033e8ce76020600435612d026105a382612f12565b806000526014825260046040600020426001820155016105d3815461362b565b50346104d15760203660031901126104d157600435612d40816107bf565b6010546001600160a01b039190612d5a90831633146135c8565b166001600160601b0360a01b600d541617600d55600080f35b50346104d15760803660031901126104d1576001600160401b036004358181116104d157612da5903690600401611a6f565b6024358281116104d157612dbd903690600401611a6f565b6044358381116104d157612dd5903690600401611a6f565b906064359384116104d157612df1610016943690600401611a6f565b92613c00565b600a546001600160a01b03163303612e0b57565b606460405162461bcd60e51b815260206004820152602060248201527f4f776e61626c653a2063616c6c6572206973206e6f7420746865206f776e65726044820152fd5b6001600160a01b03168015612e6f57600052600360205260406000205490565b60405162461bcd60e51b815260206004820152602960248201527f4552433732313a2061646472657373207a65726f206973206e6f7420612076616044820152683634b21037bbb732b960b91b6064820152608490fd5b15612ecd57565b60405162461bcd60e51b815260206004820152601860248201527f4552433732313a20696e76616c696420746f6b656e20494400000000000000006044820152606490fd5b6000908152600260205260409020546001600160a01b03166106a7811515612ec6565b15612f3c57565b60405162461bcd60e51b815260206004820152603d60248201527f4552433732313a20617070726f76652063616c6c6572206973206e6f7420746f60448201527f6b656e206f776e6572206f7220617070726f76656420666f7220616c6c0000006064820152608490fd5b600081815260026020526040902054612fca906001600160a01b03161515612ec6565b6000908152600460205260409020546001600160a01b031690565b15612fec57565b60405162461bcd60e51b815260206004820152602d60248201527f4552433732313a2063616c6c6572206973206e6f7420746f6b656e206f776e6560448201526c1c881bdc88185c1c1c9bdd9959609a1b6064820152608490fd5b60405190602082018281106001600160401b0382111761306b575b60405260008252565b6130736109a3565b613062565b9061309c93929161308c610c0d8433613103565b6130978383836131d5565b613430565b156130a357565b60405162461bcd60e51b815260206004820152603260248201527f4552433732313a207472616e7366657220746f206e6f6e20455243373231526560448201527131b2b4bb32b91034b6b83632b6b2b73a32b960711b6064820152608490fd5b6001600160a01b038061311584612f12565b16928183169284841494851561314b575b50508315613135575b50505090565b61314191929350612fa7565b161438808061312f565b60009081526005602090815260408083206001600160a01b03949094168352929052205460ff1693503880613126565b1561318257565b60405162461bcd60e51b815260206004820152602560248201527f4552433732313a207472616e736665722066726f6d20696e636f72726563742060448201526437bbb732b960d91b6064820152608490fd5b6131f9906131e284612f12565b6001600160a01b038281169390918216841461317b565b83169283156132f8576132778261321487846132d196614a24565b613236856132306132248a612f12565b6001600160a01b031690565b1461317b565b61325d61324d886000526004602052604060002090565b80546001600160a01b0319169055565b6001600160a01b0316600090815260036020526040902090565b80546000190190556001600160a01b0381166000908152600360205260409020600181540190556132b2856000526002602052604060002090565b80546001600160a01b0319166001600160a01b03909216919091179055565b7fddf252ad1be2c89b69c2b068fc378daa952ba7f163c4a11628f55a4df523b3ef600080a4565b60405162461bcd60e51b8152602060048201526024808201527f4552433732313a207472616e7366657220746f20746865207a65726f206164646044820152637265737360e01b6064820152608490fd5b600082815260046020526040902080546001600160a01b0319166001600160a01b0383161790556001600160a01b038061338284612f12565b169116907f8c5be1e5ebec7d5bd14f71427d1e84f3dd0314c0f7b2291e5b200ac8c7c3b925600080a4565b908160209103126104d157516106a7816104bf565b6001600160a01b0391821681529116602082015260408101919091526080606082018190526106a792910190610671565b506040513d6000823e3d90fd5b3d1561342b573d9061341182611a45565b9161341f6040519384610a2c565b82523d6000602084013e565b606090565b92909190823b1561353157613463926020926000604051809681958294630a85bd0160e11b9a8b855233600486016133c2565b03926001600160a01b03165af160009181613501575b506134f357613486613400565b805190816134ee5760405162461bcd60e51b815260206004820152603260248201527f4552433732313a207472616e7366657220746f206e6f6e20455243373231526560448201527131b2b4bb32b91034b6b83632b6b2b73a32b960711b6064820152608490fd5b602001fd5b6001600160e01b0319161490565b61352391925060203d811161352a575b61351b8183610a2c565b8101906133ad565b9038613479565b503d613511565b50505050600190565b61354381612e4f565b82101561356f5760018060a01b0316600052600660205260406000209060005260205260406000205490565b60405162461bcd60e51b815260206004820152602b60248201527f455243373231456e756d657261626c653a206f776e657220696e646578206f7560448201526a74206f6620626f756e647360a81b6064820152608490fd5b156135cf57565b60405162461bcd60e51b815260206004820152601d60248201527f4d657373616765436c69656e743a206e6f7420617574686f72697a65640000006044820152606490fd5b50634e487b7160e01b600052601160045260246000fd5b600190600019811461363b570190565b613643613614565b0190565b9190811015613658575b60051b0190565b61366061171d565b613651565b3561ffff811681036104d15790565b90601f811161368257505050565b600091825260208220906020601f850160051c830194106136be575b601f0160051c01915b8281106136b357505050565b8181556001016136a7565b909250829061369e565b9092916001600160401b038111613790575b6136ee816136e884546108d3565b84613674565b6000601f8211600114613728578192939460009261371d575b50508160011b916000199060031b1c1916179055565b013590503880613707565b601f1982169461373d84600052602060002090565b91805b87811061377857508360019596971061375e575b505050811b019055565b0135600019600384901b60f8161c19169055388080613754565b90926020600181928686013581550194019101613740565b6137986109a3565b6136da565b908160209103126104d157516106a7816107bf565b5190610a6882611bf3565b908160209103126104d157516106a781611bf3565b600b80546001600160a01b0319166001600160a01b03928316179055600b54613803906001600160a01b0316613224565b9061385081604051809463647846a560e01b825281600460209788935afa908115613a6c575b600091613a4f575b501660018060a01b03166001600160601b0360a01b600c541617600c55565b600c54613865906001600160a01b0316613224565b828282166139bf575b5050600b54613885906001600160a01b0316613224565b604051633fc8cef360e01b808252919083908581600481865afa9081156139b2575b600091613995575b50166138bb5750505050565b8391613916916040519182528382600481845afa918215613988575b600092613959575b5060405163095ea7b360e01b81526001600160a01b0390911660048201526000196024820152938492839160009183906044820190565b0393165af1801561394c575b61392e575b808061093a565b8161394492903d10611f0f57611f008183610a2c565b503880613927565b6139546133f3565b613922565b61397a919250843d8611613981575b6139728183610a2c565b81019061379d565b90386138df565b503d613968565b6139906133f3565b6138d7565b6139ac9150863d8811613981576139728183610a2c565b386138af565b6139ba6133f3565b6138a7565b600b54600092613a0f916139db906001600160a01b0316613224565b60405163095ea7b360e01b81526001600160a01b039091166004820152600019602482015293849283919082906044820190565b03925af18015613a42575b613a25575b8261386e565b613a3b90833d8511611f0f57611f008183610a2c565b5038613a1f565b613a4a6133f3565b613a1a565b613a669150853d8711613981576139728183610a2c565b38613831565b613a746133f3565b613829565b15613a8057565b60405162461bcd60e51b815260206004820152600f60248201526e151c985b9cd9995c8819985a5b1959608a1b6044820152606490fd5b6000918252600f6020526040909120546001600160a01b03918216911614613ade57600090565b600190565b15613aea57565b60405162461bcd60e51b815260206004820152602d60248201527f41646f7074415065743a2063616c6c6572206973206e6f7420746865206f776e60448201526c195c881bd9881d1a19481b999d609a1b6064820152608490fd5b15613b4c57565b60405162461bcd60e51b815260206004820152601d60248201527f41646f7074415065743a2050657420646f6573206e6f742065786973740000006044820152606490fd5b15613b9857565b60405162461bcd60e51b815260206004820152602160248201527f41646f7074415065743a2050657420697320616c72656164792061646f7074656044820152601960fa1b6064820152608490fd5b62093a7f19810191908211613bf857565b610a68613614565b9190613c0a612df7565b60125492600093845260209360158552604081209460408220928051926001600160401b038411613d47575b613c4a84613c4487546108d3565b87613674565b82601f8511600114613cc75750938360039794613c8f94613c9e9b9a9894613c989892613cbc575b50508160011b91600019908a1b1c19161790555b60018501613d54565b60028301613d54565b01613d54565b613ca9601254613e8c565b610a68613cb760125461362b565b601255565b015190503880613c72565b601f9392919319851690613ce087600052602060002090565b94905b828210613d2f57505084613c8f94613c9e9b9a9894613c98989460039b9860019510613d17575b505050811b019055613c86565b0151600019838c1b60f8161c19169055388080613d0a565b80600186978294978701518155019601940190613ce3565b613d4f6109a3565b613c36565b91909182516001600160401b038111613e1b575b613d76816136e884546108d3565b602080601f8311600114613db1575081929394600092613da65750508160011b916000199060031b1c1916179055565b015190503880613707565b90601f19831695613dc785600052602060002090565b926000905b888210613e0357505083600195969710613dea57505050811b019055565b015160001960f88460031b161c19169055388080613754565b80600185968294968601518155019501930190613dcc565b613e236109a3565b613d68565b601854600160401b811015613e7f575b6001810180601855811015613e72575b60186000527fb13d2d76d1f4b7be834882e410b3e3a8afaf69f83600ae24db354391d2378d2e0155565b613e7a61171d565b613e48565b613e876109a3565b613e38565b601754600160401b811015613ee3575b6001810180601755811015613ed6575b60176000527fc624b66cc0138b8fabc209247f72d758e1cf3343756d543badbf24212bed8c150155565b613ede61171d565b613eac565b613eeb6109a3565b613e9c565b15613ef757565b60405162461bcd60e51b815260206004820152601c60248201527f4552433732313a20746f6b656e20616c7265616479206d696e746564000000006044820152606490fd5b6001600160a01b03811690811561400857600083815260026020526040902054613fe09190613f77906001600160a01b031615155b15613ef0565b613f8084614ac1565b613f8a8482614a89565b600084815260026020526040902054613fad906001600160a01b03161515613f71565b6001600160a01b0381166000908152600360205260409020600181540190556132b2846000526002602052604060002090565b60007fddf252ad1be2c89b69c2b068fc378daa952ba7f163c4a11628f55a4df523b3ef8180a4565b606460405162461bcd60e51b815260206004820152602060248201527f4552433732313a206d696e7420746f20746865207a65726f20616464726573736044820152fd5b9895929a9996939061012098959261407061407e928c6101408091528d019061090d565b908b820360208d015261090d565b9a60408a01526060890152608088015260a087015260c086015260e08501526101008401521515910152565b6106a7939260609260018060a01b0316825260208201528160408201520190610671565b61422161422693926140e26105a385612f12565b60066140f8856000526014602052604060002090565b01906142156007614113876000526014602052604060002090565b01926141e9600861412e896000526014602052604060002090565b015488614145816000526014602052604060002090565b54600161415c836000526014602052604060002090565b01546002614174846000526014602052604060002090565b0154600361418c856000526014602052604060002090565b01549160046141a5866000526014602052604060002090565b0154936141d960096123c360056141c68a6000526014602052604060002090565b0154986000526014602052604060002090565b966040519c8d9a60208c0161404c565b03926141fd601f1994858101835282610a2c565b61420687614229565b604051968793602085016140aa565b03908101845283610a2c565b6143b8565b50565b600061423482612f12565b6001600160a01b0390838183161584146142e9576142529150614ac1565b61425b83614bfc565b61426483612f12565b614278846000526004602052604060002090565b80546001600160a01b03199081169091556001600160a01b0382166000908152600360205260409020841981540190556142bc856000526002602052604060002090565b908154169055167fddf252ad1be2c89b69c2b068fc378daa952ba7f163c4a11628f55a4df523b3ef8280a4565b6142f291614b35565b614252565b90604051614304816109e3565b606060ff6002839560018060a01b03815416855260405161432c81610aa1816001860161090d565b6020860152015461ffff8116604085015260101c161515910152565b909161435f6106a793604084526040840190610671565b916020818403910152610671565b908160209103126104d1575190565b906143ad60009460809461ffff9398979860018060a01b03168552602085015260a0604085015260a0840190610671565b951660608201520152565b906020906143d86143d384600052600f602052604060002090565b6142f7565b926143e66060850151151590565b61448f575b600b54614400906001600160a01b0316613224565b9060006144226040614418885160018060a01b031690565b97015161ffff1690565b9561444360405197889687958694633f6b724360e21b86526004860161437c565b03925af1908115614482575b60009161445a575090565b6106a7915060203d811161447b575b6144738183610a2c565b81019061436d565b503d614469565b61448a6133f3565b61444f565b906144b783850151916144a9604051938492878401614348565b03601f198101835282610a2c565b906143eb565b93926144f360018060a01b03926144d984600b541633146135c8565b6000968752600f60205283806040892054169116146135c8565b82019360608386031261078b5782359061450c826107bf565b6020840135936040810135916001600160401b03831161078b575061454f614540610a6897986145b1946145989401611a6f565b602080825183010191016145f9565b9795999894614562949194939293611a38565b9a8b5260208b015260408a01526060890152608088015260a087015260c086015260e08501526101008401521515610120830152565b6145ac856000526014602052604060002090565b614675565b16613f3c565b81601f820112156104d15780516145cd81611a45565b926145db6040519485610a2c565b818452602082840101116104d1576106a7916020808501910161064e565b919091610140818403126104d15780516001600160401b03908181116104d157846146259184016145b7565b9360208301519182116104d15761463d9183016145b7565b9160408201519160608101519160808201519160a08101519160c08201519160e0810151916106a761012061010084015193016137b2565b60096146eb610120610a6894805185556020810151600186015560408101516002860155606081015160038601556080810151600486015560a081015160058601556146c860c082015160068701613d54565b6146d960e082015160078701613d54565b61010081015160088601550151151590565b91019060ff801983541691151516179055565b1561470557565b60405162461bcd60e51b815260206004820152602f60248201527f4552433732314d657461646174613a2055524920717565727920666f72206e6f60448201526e3732bc34b9ba32b73a103a37b5b2b760891b6064820152608490fd5b6040519061476f82610a11565b600582526466616c736560d81b6020830152565b6040519061479082610a11565b60048252637472756560e01b6020830152565b906136436020928281519485920161064e565b6000929181546147c5816108d3565b9260019180831690811561481d57506001146147e15750505050565b90919293945060005260209081600020906000915b85831061480c575050505001903880808061093a565b8054858401529183019181016147f6565b60ff191684525050508115159091020191503880808061093a565b60405190606082018281106001600160401b038211176148a8575b604052604082527f6768696a6b6c6d6e6f707172737475767778797a303132333435363738392b2f6040837f4142434445464748494a4b4c4d4e4f505152535455565758595a61626364656660208201520152565b6148b06109a3565b614853565b9060028201809211613bf857565b9060208201809211613bf857565b600281901b91906001600160fe1b03811603613bf857565b906148f382611a45565b6149006040519182610a2c565b8281528092614911601f1991611a45565b0190602036910137565b8051156149fb5761492a614838565b61494661494161493a84516148b5565b6003900490565b6148d1565b91614958614953846148c3565b6148e9565b92835280815182019060208501935b8282106149a95750505060039051068060011461499857600214614989575090565b603d60f81b6000199091015290565b50613d3d60f01b6001199091015290565b9091936004906003809401938451600190603f9082828260121c16880101518553828282600c1c16880101518386015382828260061c1688010151600286015316850101519082015301939190614967565b506106a7613047565b6020906001600160401b038111614a1c5760051b0190565b6136606109a3565b9091906001600160a01b038082169182614a675750614a4283614ac1565b831680614a55575050610a689150614bfc565b03614a5e575050565b610a6891614a89565b838286168403614a79575b5050614a42565b614a8291614b35565b3883614a72565b604090614a9581612e4f565b9260009160018060a01b0316825260066020528282208483526020528083832055815260076020522055565b60085481600052600960205280604060002055600160401b811015614b28575b6001810180600855811015614b1b575b60086000527ff3f7a9fe364faab93b216da50a3214154f22a0a2b415b23a84c8169e8b636ee30155565b614b2361171d565b614af1565b614b306109a3565b614ae1565b90614b9a614b7f92614b4681612e4f565b600019810193908411614bef575b600094818692835260076020526040832054868103614ba7575b506000526007602052604060002090565b556001600160a01b0316600090815260066020526040902090565b9082526020526040812055565b6001600160a01b0385168085526006602081815260408088208b8952825280882054600094855292825280842085895282528088208390559183526007905290205538614b6e565b614bf7613614565b614b54565b600880546000199290838101818111614d05575b614cac60009384928184526009602052846040852054911015614cf8575b868452614c9b7ff3f7a9fe364faab93b216da50a3214154f22a0a2b415b23a84c8169e8b636ee2958681015490831015614ceb575b88865280837ff3f7a9fe364faab93b216da50a3214154f22a0a2b415b23a84c8169e8b636ee301556000526009602052604060002090565b556000526009602052604060002090565b558254938415614cd75784019380851015614cca575b838352015555565b614cd261171d565b614cc2565b634e487b7160e01b83526031600452602483fd5b614cf361171d565b614c63565b614d0061171d565b614c2e565b614d0d613614565b614c10565b906020918051821015614d2457010190565b614d2c61171d565b010190565b8015614dcd576000818181805b614db55750614d4c816148e9565b935b614d585750505090565b6000198101908111614da8575b8091600a91614d9260308484068101809111614d9b575b60f81b6001600160f81b031916861a9187614d12565b53049081614d4e565b614da3613614565b614d7c565b614db0613614565b614d65565b9150614dc2600a9161362b565b910480849291614d3e565b50604051614dda81610a11565b60018152600360fc1b60208201529056fea2646970667358221220a0d6604b9353f2f348522eab189154037e02e77ae6ff586b2ae51aea9d5e344064736f6c63430008110033",
  "devdoc": {
    "kind": "dev",
    "methods": {
      "approve(address,uint256)": {
        "details": "See {IERC721-approve}."
      },
      "balanceOf(address)": {
        "details": "See {IERC721-balanceOf}."
      },
      "getApproved(uint256)": {
        "details": "See {IERC721-getApproved}."
      },
      "isApprovedForAll(address,address)": {
        "details": "See {IERC721-isApprovedForAll}."
      },
      "name()": {
        "details": "See {IERC721Metadata-name}."
      },
      "owner()": {
        "details": "Returns the address of the current owner."
      },
      "ownerOf(uint256)": {
        "details": "See {IERC721-ownerOf}."
      },
      "renounceOwnership()": {
        "details": "Leaves the contract without owner. It will not be possible to call `onlyOwner` functions. Can only be called by the current owner. NOTE: Renouncing ownership will leave the contract without an owner, thereby disabling any functionality that is only available to the owner."
      },
      "safeTransferFrom(address,address,uint256)": {
        "details": "See {IERC721-safeTransferFrom}."
      },
      "safeTransferFrom(address,address,uint256,bytes)": {
        "details": "See {IERC721-safeTransferFrom}."
      },
      "setApprovalForAll(address,bool)": {
        "details": "See {IERC721-setApprovalForAll}."
      },
      "symbol()": {
        "details": "See {IERC721Metadata-symbol}."
      },
      "tokenByIndex(uint256)": {
        "details": "See {IERC721Enumerable-tokenByIndex}."
      },
      "tokenOfOwnerByIndex(address,uint256)": {
        "details": "See {IERC721Enumerable-tokenOfOwnerByIndex}."
      },
      "tokenURI(uint256)": {
        "details": "See {IERC721Metadata-tokenURI}."
      },
      "totalSupply()": {
        "details": "See {IERC721Enumerable-totalSupply}."
      },
      "transferFrom(address,address,uint256)": {
        "details": "See {IERC721-transferFrom}."
      },
      "transferOwnership(address)": {
        "details": "Transfers ownership of the contract to a new account (`newOwner`). Can only be called by the current owner."
      }
    },
    "version": 1
  },
  "userdoc": {
    "kind": "user",
    "methods": {
      "configureClientExtended(address,uint256[],bytes[],uint16[])": {
        "notice": "OWNER "
      }
    },
    "version": 1
  },
  "storageLayout": {
    "storage": [
      {
        "astId": 138,
        "contract": "contracts/AdoptAPet.sol:AdoptAPet",
        "label": "_name",
        "offset": 0,
        "slot": "0",
        "type": "t_string_storage"
      },
      {
        "astId": 140,
        "contract": "contracts/AdoptAPet.sol:AdoptAPet",
        "label": "_symbol",
        "offset": 0,
        "slot": "1",
        "type": "t_string_storage"
      },
      {
        "astId": 144,
        "contract": "contracts/AdoptAPet.sol:AdoptAPet",
        "label": "_owners",
        "offset": 0,
        "slot": "2",
        "type": "t_mapping(t_uint256,t_address)"
      },
      {
        "astId": 148,
        "contract": "contracts/AdoptAPet.sol:AdoptAPet",
        "label": "_balances",
        "offset": 0,
        "slot": "3",
        "type": "t_mapping(t_address,t_uint256)"
      },
      {
        "astId": 152,
        "contract": "contracts/AdoptAPet.sol:AdoptAPet",
        "label": "_tokenApprovals",
        "offset": 0,
        "slot": "4",
        "type": "t_mapping(t_uint256,t_address)"
      },
      {
        "astId": 158,
        "contract": "contracts/AdoptAPet.sol:AdoptAPet",
        "label": "_operatorApprovals",
        "offset": 0,
        "slot": "5",
        "type": "t_mapping(t_address,t_mapping(t_address,t_bool))"
      },
      {
        "astId": 1188,
        "contract": "contracts/AdoptAPet.sol:AdoptAPet",
        "label": "_ownedTokens",
        "offset": 0,
        "slot": "6",
        "type": "t_mapping(t_address,t_mapping(t_uint256,t_uint256))"
      },
      {
        "astId": 1192,
        "contract": "contracts/AdoptAPet.sol:AdoptAPet",
        "label": "_ownedTokensIndex",
        "offset": 0,
        "slot": "7",
        "type": "t_mapping(t_uint256,t_uint256)"
      },
      {
        "astId": 1195,
        "contract": "contracts/AdoptAPet.sol:AdoptAPet",
        "label": "_allTokens",
        "offset": 0,
        "slot": "8",
        "type": "t_array(t_uint256)dyn_storage"
      },
      {
        "astId": 1199,
        "contract": "contracts/AdoptAPet.sol:AdoptAPet",
        "label": "_allTokensIndex",
        "offset": 0,
        "slot": "9",
        "type": "t_mapping(t_uint256,t_uint256)"
      },
      {
        "astId": 7,
        "contract": "contracts/AdoptAPet.sol:AdoptAPet",
        "label": "_owner",
        "offset": 0,
        "slot": "10",
        "type": "t_address"
      },
      {
        "astId": 3538,
        "contract": "contracts/AdoptAPet.sol:AdoptAPet",
        "label": "MESSAGEv3",
        "offset": 0,
        "slot": "11",
        "type": "t_contract(IMessageV3)3461"
      },
      {
        "astId": 3541,
        "contract": "contracts/AdoptAPet.sol:AdoptAPet",
        "label": "FEE_TOKEN",
        "offset": 0,
        "slot": "12",
        "type": "t_contract(IERC20cl)3265"
      },
      {
        "astId": 3544,
        "contract": "contracts/AdoptAPet.sol:AdoptAPet",
        "label": "FEATURE_GATEWAY",
        "offset": 0,
        "slot": "13",
        "type": "t_contract(IFeatureGateway)3534"
      },
      {
        "astId": 3551,
        "contract": "contracts/AdoptAPet.sol:AdoptAPet",
        "label": "FEATURES",
        "offset": 0,
        "slot": "14",
        "type": "t_mapping(t_uint256,t_mapping(t_uint32,t_struct(ChainData)3560_storage))"
      },
      {
        "astId": 3565,
        "contract": "contracts/AdoptAPet.sol:AdoptAPet",
        "label": "CHAINS",
        "offset": 0,
        "slot": "15",
        "type": "t_mapping(t_uint256,t_struct(ChainData)3560_storage)"
      },
      {
        "astId": 3567,
        "contract": "contracts/AdoptAPet.sol:AdoptAPet",
        "label": "MESSAGE_OWNER",
        "offset": 0,
        "slot": "16",
        "type": "t_address"
      },
      {
        "astId": 4523,
        "contract": "contracts/AdoptAPet.sol:AdoptAPet",
        "label": "nextNftId",
        "offset": 0,
        "slot": "17",
        "type": "t_uint256"
      },
      {
        "astId": 4525,
        "contract": "contracts/AdoptAPet.sol:AdoptAPet",
        "label": "nextShelterId",
        "offset": 0,
        "slot": "18",
        "type": "t_uint256"
      },
      {
        "astId": 4529,
        "contract": "contracts/AdoptAPet.sol:AdoptAPet",
        "label": "messages",
        "offset": 0,
        "slot": "19",
        "type": "t_mapping(t_uint256,t_string_storage)"
      },
      {
        "astId": 4534,
        "contract": "contracts/AdoptAPet.sol:AdoptAPet",
        "label": "pets",
        "offset": 0,
        "slot": "20",
        "type": "t_mapping(t_uint256,t_struct(PetData)4521_storage)"
      },
      {
        "astId": 4539,
        "contract": "contracts/AdoptAPet.sol:AdoptAPet",
        "label": "shelters",
        "offset": 0,
        "slot": "21",
        "type": "t_mapping(t_uint256,t_struct(ShelterData)4500_storage)"
      },
      {
        "astId": 4545,
        "contract": "contracts/AdoptAPet.sol:AdoptAPet",
        "label": "shelterManagers",
        "offset": 0,
        "slot": "22",
        "type": "t_mapping(t_uint256,t_mapping(t_address,t_bool))"
      },
      {
        "astId": 4548,
        "contract": "contracts/AdoptAPet.sol:AdoptAPet",
        "label": "allShelters",
        "offset": 0,
        "slot": "23",
        "type": "t_array(t_uint256)dyn_storage"
      },
      {
        "astId": 4551,
        "contract": "contracts/AdoptAPet.sol:AdoptAPet",
        "label": "availablePets",
        "offset": 0,
        "slot": "24",
        "type": "t_array(t_uint256)dyn_storage"
      }
    ],
    "types": {
      "t_address": {
        "encoding": "inplace",
        "label": "address",
        "numberOfBytes": "20"
      },
      "t_array(t_uint256)dyn_storage": {
        "base": "t_uint256",
        "encoding": "dynamic_array",
        "label": "uint256[]",
        "numberOfBytes": "32"
      },
      "t_bool": {
        "encoding": "inplace",
        "label": "bool",
        "numberOfBytes": "1"
      },
      "t_bytes_storage": {
        "encoding": "bytes",
        "label": "bytes",
        "numberOfBytes": "32"
      },
      "t_contract(IERC20cl)3265": {
        "encoding": "inplace",
        "label": "contract IERC20cl",
        "numberOfBytes": "20"
      },
      "t_contract(IFeatureGateway)3534": {
        "encoding": "inplace",
        "label": "contract IFeatureGateway",
        "numberOfBytes": "20"
      },
      "t_contract(IMessageV3)3461": {
        "encoding": "inplace",
        "label": "contract IMessageV3",
        "numberOfBytes": "20"
      },
      "t_mapping(t_address,t_bool)": {
        "encoding": "mapping",
        "key": "t_address",
        "label": "mapping(address => bool)",
        "numberOfBytes": "32",
        "value": "t_bool"
      },
      "t_mapping(t_address,t_mapping(t_address,t_bool))": {
        "encoding": "mapping",
        "key": "t_address",
        "label": "mapping(address => mapping(address => bool))",
        "numberOfBytes": "32",
        "value": "t_mapping(t_address,t_bool)"
      },
      "t_mapping(t_address,t_mapping(t_uint256,t_uint256))": {
        "encoding": "mapping",
        "key": "t_address",
        "label": "mapping(address => mapping(uint256 => uint256))",
        "numberOfBytes": "32",
        "value": "t_mapping(t_uint256,t_uint256)"
      },
      "t_mapping(t_address,t_uint256)": {
        "encoding": "mapping",
        "key": "t_address",
        "label": "mapping(address => uint256)",
        "numberOfBytes": "32",
        "value": "t_uint256"
      },
      "t_mapping(t_uint256,t_address)": {
        "encoding": "mapping",
        "key": "t_uint256",
        "label": "mapping(uint256 => address)",
        "numberOfBytes": "32",
        "value": "t_address"
      },
      "t_mapping(t_uint256,t_mapping(t_address,t_bool))": {
        "encoding": "mapping",
        "key": "t_uint256",
        "label": "mapping(uint256 => mapping(address => bool))",
        "numberOfBytes": "32",
        "value": "t_mapping(t_address,t_bool)"
      },
      "t_mapping(t_uint256,t_mapping(t_uint32,t_struct(ChainData)3560_storage))": {
        "encoding": "mapping",
        "key": "t_uint256",
        "label": "mapping(uint256 => mapping(uint32 => struct MessageClient.ChainData))",
        "numberOfBytes": "32",
        "value": "t_mapping(t_uint32,t_struct(ChainData)3560_storage)"
      },
      "t_mapping(t_uint256,t_string_storage)": {
        "encoding": "mapping",
        "key": "t_uint256",
        "label": "mapping(uint256 => string)",
        "numberOfBytes": "32",
        "value": "t_string_storage"
      },
      "t_mapping(t_uint256,t_struct(ChainData)3560_storage)": {
        "encoding": "mapping",
        "key": "t_uint256",
        "label": "mapping(uint256 => struct MessageClient.ChainData)",
        "numberOfBytes": "32",
        "value": "t_struct(ChainData)3560_storage"
      },
      "t_mapping(t_uint256,t_struct(PetData)4521_storage)": {
        "encoding": "mapping",
        "key": "t_uint256",
        "label": "mapping(uint256 => struct AdoptAPet.PetData)",
        "numberOfBytes": "32",
        "value": "t_struct(PetData)4521_storage"
      },
      "t_mapping(t_uint256,t_struct(ShelterData)4500_storage)": {
        "encoding": "mapping",
        "key": "t_uint256",
        "label": "mapping(uint256 => struct AdoptAPet.ShelterData)",
        "numberOfBytes": "32",
        "value": "t_struct(ShelterData)4500_storage"
      },
      "t_mapping(t_uint256,t_uint256)": {
        "encoding": "mapping",
        "key": "t_uint256",
        "label": "mapping(uint256 => uint256)",
        "numberOfBytes": "32",
        "value": "t_uint256"
      },
      "t_mapping(t_uint32,t_struct(ChainData)3560_storage)": {
        "encoding": "mapping",
        "key": "t_uint32",
        "label": "mapping(uint32 => struct MessageClient.ChainData)",
        "numberOfBytes": "32",
        "value": "t_struct(ChainData)3560_storage"
      },
      "t_string_storage": {
        "encoding": "bytes",
        "label": "string",
        "numberOfBytes": "32"
      },
      "t_struct(ChainData)3560_storage": {
        "encoding": "inplace",
        "label": "struct MessageClient.ChainData",
        "members": [
          {
            "astId": 3553,
            "contract": "contracts/AdoptAPet.sol:AdoptAPet",
            "label": "endpoint",
            "offset": 0,
            "slot": "0",
            "type": "t_address"
          },
          {
            "astId": 3555,
            "contract": "contracts/AdoptAPet.sol:AdoptAPet",
            "label": "endpointExtended",
            "offset": 0,
            "slot": "1",
            "type": "t_bytes_storage"
          },
          {
            "astId": 3557,
            "contract": "contracts/AdoptAPet.sol:AdoptAPet",
            "label": "confirmations",
            "offset": 0,
            "slot": "2",
            "type": "t_uint16"
          },
          {
            "astId": 3559,
            "contract": "contracts/AdoptAPet.sol:AdoptAPet",
            "label": "extended",
            "offset": 2,
            "slot": "2",
            "type": "t_bool"
          }
        ],
        "numberOfBytes": "96"
      },
      "t_struct(PetData)4521_storage": {
        "encoding": "inplace",
        "label": "struct AdoptAPet.PetData",
        "members": [
          {
            "astId": 4502,
            "contract": "contracts/AdoptAPet.sol:AdoptAPet",
            "label": "lastWalk",
            "offset": 0,
            "slot": "0",
            "type": "t_uint256"
          },
          {
            "astId": 4504,
            "contract": "contracts/AdoptAPet.sol:AdoptAPet",
            "label": "lastFeed",
            "offset": 0,
            "slot": "1",
            "type": "t_uint256"
          },
          {
            "astId": 4506,
            "contract": "contracts/AdoptAPet.sol:AdoptAPet",
            "label": "lastTreat",
            "offset": 0,
            "slot": "2",
            "type": "t_uint256"
          },
          {
            "astId": 4508,
            "contract": "contracts/AdoptAPet.sol:AdoptAPet",
            "label": "totalWalks",
            "offset": 0,
            "slot": "3",
            "type": "t_uint256"
          },
          {
            "astId": 4510,
            "contract": "contracts/AdoptAPet.sol:AdoptAPet",
            "label": "totalFeeds",
            "offset": 0,
            "slot": "4",
            "type": "t_uint256"
          },
          {
            "astId": 4512,
            "contract": "contracts/AdoptAPet.sol:AdoptAPet",
            "label": "totalTreats",
            "offset": 0,
            "slot": "5",
            "type": "t_uint256"
          },
          {
            "astId": 4514,
            "contract": "contracts/AdoptAPet.sol:AdoptAPet",
            "label": "name",
            "offset": 0,
            "slot": "6",
            "type": "t_string_storage"
          },
          {
            "astId": 4516,
            "contract": "contracts/AdoptAPet.sol:AdoptAPet",
            "label": "personality",
            "offset": 0,
            "slot": "7",
            "type": "t_string_storage"
          },
          {
            "astId": 4518,
            "contract": "contracts/AdoptAPet.sol:AdoptAPet",
            "label": "shelterId",
            "offset": 0,
            "slot": "8",
            "type": "t_uint256"
          },
          {
            "astId": 4520,
            "contract": "contracts/AdoptAPet.sol:AdoptAPet",
            "label": "adopted",
            "offset": 0,
            "slot": "9",
            "type": "t_bool"
          }
        ],
        "numberOfBytes": "320"
      },
      "t_struct(ShelterData)4500_storage": {
        "encoding": "inplace",
        "label": "struct AdoptAPet.ShelterData",
        "members": [
          {
            "astId": 4493,
            "contract": "contracts/AdoptAPet.sol:AdoptAPet",
            "label": "name",
            "offset": 0,
            "slot": "0",
            "type": "t_string_storage"
          },
          {
            "astId": 4495,
            "contract": "contracts/AdoptAPet.sol:AdoptAPet",
            "label": "location",
            "offset": 0,
            "slot": "1",
            "type": "t_string_storage"
          },
          {
            "astId": 4497,
            "contract": "contracts/AdoptAPet.sol:AdoptAPet",
            "label": "website",
            "offset": 0,
            "slot": "2",
            "type": "t_string_storage"
          },
          {
            "astId": 4499,
            "contract": "contracts/AdoptAPet.sol:AdoptAPet",
            "label": "email",
            "offset": 0,
            "slot": "3",
            "type": "t_string_storage"
          }
        ],
        "numberOfBytes": "128"
      },
      "t_uint16": {
        "encoding": "inplace",
        "label": "uint16",
        "numberOfBytes": "2"
      },
      "t_uint256": {
        "encoding": "inplace",
        "label": "uint256",
        "numberOfBytes": "32"
      },
      "t_uint32": {
        "encoding": "inplace",
        "label": "uint32",
        "numberOfBytes": "4"
      }
    }
  }
}